:100000000C9469070C9491070C9491070C94910738
:100010000C9491070C9491070C9491070C94910700
:100020000C9491070C9491070C94ED180C942412E5
:100030000C9491070C9491070C9491070C949107E0
:100040000C9491070C9491070C9491070C949107D0
:100050000C9491070C9491070C9491070C946619D9
:100060000C9491070C9491070C9491070C949107B0
:100070000C9491070C9491070C9491070C949107A0
:100080000C9491070C9491070C9491070C94910790
:100090000C9491070C9491070C9491070C94910780
:1000A0000C9491070C9491070C94910705A84CCDE2
:1000B000B2D44EB93836A9020C50B9918688083CA2
:1000C000A6AAAA2ABE000000803FD5F08D14A1C8C0
:1000D00081CFD9F1AF2000202000000000000000F7
:1000E000000000000000000000FEFCF8F0E080804E
:1000F000000000000000000000FEFFFFFFFFFFFF08
:10010000FFFFFFFFFFFFFFFFFFFFFFFFFFFFFFFFFF
:10011000FFFEFCF8F0E0C08000FFFFFFFFFFFFFFE5
:10012000FFFFFFFFFFFFFFFFFFFFFFFFFFFFFFFFDF
:10013000FF7F7F3F0F070703000000000000000063
:100140000000000000000000007F3F3F1F07030386
:10015000000000000000000000202000000000005F
:1001600000000000C0C0E0F8FCFCFE000000000041
:10017000000000000000000000000000C0E0E0F00F
:10018000FCFEFEFFFFFFFFFFFFFFFFFFFFFFFFFF84
:10019000FFFFFFFFFFFFFFFFFFFFFF000103070F50
:1001A0001F3F7FFFFFFFFFFFFFFFFFFFFFFFFFFF7F
:1001B000FFFFFFFFFFFFFFFFFFFF7F0000000000CA
:1001C000000000000101070F1F3F7F00000000003A
:1001D00000000000000000000000002A07000000EE
:1001E000000000000000000000203C0E100C3E004B
:1001F0003C241C00043C0438241C000000000000C7
:1002000000000000000000010203010405010205D6
:1002100001060701040501060301060301040501A7
:100220000203010408010209010208010604010495
:100230000501060701040501060401040801060A78
:1002400001040801060401060901040801060A0167
:100250000408010609010209010B0C010604010B47
:1002600004010604010B0C01060A06020301060341
:10027000010203010603060203060603060209063D
:10028000040806020806060A060408060609060609
:10029000090604080602090604050602030602050B
:1002A00006060C06040806060A06040806060C06DE
:1002B000040506060706040506060C0606030604E2
:1002C00005060607060405060603060203060B04D8
:1002D00006060C060B0C06060C060B0406060706A3
:1002E00006090102090106090102090606090602BA
:1002F00009010408060405010405060405010408B3
:10030000060408060B0C010B04060B04010B0C0180
:100310000B04060B0C06060901060A06060A01066E
:100320000A06060901060906060701060306060372
:100330000106030606070106070602080104080174
:100340000208010408060208060408010209060260
:10035000080102080602080102090602090604054E
:100360000102050104050102050604050602050156
:10037000020506020301020306020301020506024A
:1003800005060B0C06060C06060A06060A01060AF6
:10039000060B0C060B0C01060A010B0C01060401EE
:1003A0000607010B04060607010B04010607010BF3
:1003B00004060607060B042A07003E2A3E003C20DE
:1003C0003C003C04003C043C003A003C043C004C33
:1003D000547C00003C0E100C3E0038243C20003CB5
:1003E000043C0001020301040501040301040501AA
:1003F00002030104060104060102030104020102D2
:1004000007010402010203010402010207010408BA
:10041000010408010207010407010405010906019E
:100420000905010906010405010406010402010988
:10043000080109020109080104020104080A09026D
:100440000104020109020104020A09020A04020A63
:1004500004080A09020A09080A09020A04080A0427
:10046000020A04080109080104080109080A04082D
:100470000A09080109080A09020109020A09020118
:1004800009080A09080B04020B09080B09020B09E9
:10049000080B04020B04080C09020B04020B0902EE
:1004A0000B04020C09020C04020C02070C04080CD9
:1004B00004070C04080C02070C04020C02030C04D1
:1004C000020C02070C04020C02030C04060C0406C6
:1004D0000C02030C04050C04050C02030C04030CB1
:1004E00004080C09020C09080C09020C04080C048D
:1004F000020C04060C09050C09060C09050C04067F
:100500000C04050C04080B09080B04080B09080C63
:1005100004080C09080B09080C09020B09020C0954
:10052000020B09080C09080A09050104050109055F
:100530000104050A09050A04050A04060A09050A50
:1005400009060A09050A04060A04050A040601093F
:10055000060104060109060A04060A09060109063D
:100560000A09050109050A09050109060A09060B18
:1005700004050B09060B09050B09060B04050B0402
:10058000060C09050B04050B09050B04050C0905F0
:100590000C04050C04060B09060B04060B09060CDB
:1005A00004060C09060B09060C09050B09050C09C4
:1005B000050B09060C09060C0403010203010403E0
:1005C0000102030C04030C02030C02070102030CDA
:1005D00002030102030C02070102070C02070104D7
:1005E000070102070104070C02070C0407010407B6
:1005F0000A04080104080A04080104070B04080C93
:1006000004070B04080104070B04080C04070C047E
:10061000080A04080B04020A04020B04020A040874
:100620000B04080A04020A04060104060A04060A66
:1006300004020B04060A04020104060104020B046E
:10064000020B04060A04020B04060B04020C040647
:100650000C04060B04020C04020A04060B04050A2F
:1006600004050B04050A04060B04060A040501042C
:10067000030104050104030A04050C04030B04052B
:100680000C04030A04050C04030B04050C04052ADE
:100690000700000000000000000000000000002033
:1006A0003E2A3E0018141C507E0018141C10000036
:1006B000000000000000000000000001020301042F
:1006C00005010403010405010203010205010406FA
:1006D00001030701030601040101030701040601E8
:1006E00003080104030103020104050103020104DC
:1006F00003010307010401010308010308010401C8
:1007000001040301030201040501030901040A01B4
:10071000030901040501030901040A01030A010395
:1007200007010B08010B07010B0801030701030870
:10073000010302010B09010B02010B090103020174
:1007400003090C0B02010302010B020103020C0B53
:10075000020C03020C03090C0B020C0B090C0B021C
:100760000C03090C03020C0309010B090103090125
:100770000B090C03090C0B09010B090C0B02010BF3
:10078000020C0B02010B090C0B090D03020D0B09E6
:100790000D0B020D0B090D03020D03090E0B020DCB
:1007A00003020D0B020D03020E0B020E03020E02DA
:1007B000030E04050E02050E04050E02030E0401CD
:1007C0000E040A0E03090E030A0E04050E03090E99
:1007D000040A0E03020E04050E03080E04010E03A4
:1007E000080E04050E03090E04050E03020E03088D
:1007F0000E04010E03070E04060E03070E04010E7D
:1008000003070E04060E03060E03090E0B020E0B61
:10081000090E0B020E03090E03020E03080E0B074E
:100820000E0B080E0B070E03080E03070E03090D2F
:100830000B090D03090D0B090E03090E0B090D0B16
:10084000090E0B020D0B020E0B020D0B090E0B090C
:100850000C0B07010307010B070103070C0B070C27
:1008600003070C03080C0B070C0B080C0B070C03FD
:10087000080C03070C0308010B08010308010B080F
:100880000C03080C0B08010B080C0B07010B070CE1
:100890000B07010B080C0B080D03070D0B080D0BC4
:1008A000070D0B080D03070D03080E0B070D0307BB
:1008B0000D0B070D03070E0B070E03070E03080DA4
:1008C0000B080D03080D0B080E03080E0B080D0B8B
:1008D000080E0B070D0B070E0B070D0B080E0B0870
:1008E0000E03060104060103060104060E03060EAC
:1008F00004060E02050102030E02030102050102B5
:10090000030E02050E040A01030A01040A01030A88
:100910000E040A0E030A01030A0C03090103090C61
:10092000030901030A0D03090E030A0D030901035C
:100930000A0D03090E030A0E03090C03090D030235
:100940000C03020D03020C03090D03090C03020C36
:1009500003080103080C03080C03020D03080C0331
:10096000020103080103020D03020D03080C030238
:100970000D03080D03020E03080E03080D03020EFB
:1009800003020C03080D03070C03070D03070C03F8
:10099000080D03080C030701030601030701030602
:1009A0000C03070E03060D03070E03060C03070EC8
:1009B00003060D03070E03070E02050104050102DD
:1009C000050104050E02050E04050E040A010405C6
:1009D0000E04050104050E040A01040A0E040101B7
:1009E00004060E04060104060E04010104010104BC
:1009F000030104010102030E0401010203010401C9
:100A00000102030E04010E02032A07000000000089
:100A1000382422320E043C100C301C2C003C040400
:100A2000003F1028243C003C043C003824243F00B4
:100A3000000000000001020301040301020501049B
:100A40000601020301020601020301040601040378
:100A5000010708010206010709010708010A080148
:100A6000020B01070801020B010201010708010244
:100A70000101020601020301070901020601020544
:100A800001070901020301020C0107090102050126
:100A9000070901020C010D09010E0B01060F010EE1
:100AA0000F01070801060401060F010604010709EA
:100AB00001061001060B01060F010E0B01070801CC
:100AC000060F01060B0106040107080107090106CC
:100AD00010010709010611010604010E10010E04A0
:100AE000010E10010604010610120E040106040195
:100AF0000E04010604120E04120604120610120E51
:100B000004120E10120E0412061012060412061021
:100B1000010E10010610010E10120610120E100127
:100B20000E10120E04010E04120E04010E10120E0D
:100B3000100D06040D0E100D0E040D0E100D060402
:100B40000D0610130E040D06040D0E040D060413FD
:100B50000E041306041307091306101306111306D7
:100B60001013020513060413061013070913020CD1
:100B7000130610130E04130E10130E041306101395
:100B8000060413060F130E0B130E0F13060F130795
:100B90000B130E0B13060413020313060F130201AB
:100BA00013060F13020313060F13020113070B138F
:100BB000061013020C13020513020C130709130D80
:100BC0000913040613020313040313020313040698
:100BD00013020113060413020513020313020B137D
:100BE000070B13020113140813070B13020B13074F
:100BF0000B1314081307081306100D0E100D061022
:100C00000D0E10130610130E100D0E10130E040D02
:100C10000E04130E040D0E10130E1013060B0D060A
:100C20000B0D0E0B130E0B13060B0D0E0B13060BF9
:100C3000130E0B13070B120E0B01060B010E0B12FA
:100C4000060B01060B120E0B12060F120E0B120EE4
:100C50000F120E0B12060F12060B12060F010E0FCB
:100C600001060F010E0F12060F120E0F010E0F12CA
:100C70000E0B010E0B120E0B010E0F120E0F0D06B6
:100C80000B0D0E0F0D0E0B0D0E0F0D060B0D060F9F
:100C900013060F0D0E0F0D060F0D0E0F13060F137B
:100CA0000E0F0D0E0F130E0B0D0E0B130E0B0D0E64
:100CB0000F130E0F130708010A08010708010A089D
:100CC000130708131408130D09010709010D090181
:100CD0000709130D09130709010611120610010671
:100CE000101206100106110D06101306110D061044
:100CF0000106110D06101306111306101206100D31
:100D000006041206040D06041206100D0610120643
:100D10000412060F01060F12060F1206040D060F2D
:100D200012060401060F0106040D06040D060F123B
:100D300006040D060F0D060413060F13060F0D060D
:100D40000413060412060F0D060B12060B0D060BFC
:100D500012060F0D060F1304030104061304060107
:100D60000403010406130403130403010203010432
:100D70000301020313040313020313020C0102050F
:100D800013020501020513020C01020C01070815EC
:100D9000070813070813020101020B13020B0102DB
:100DA0000B130201010201130D0901020C13020CC5
:100DB00001020C130D09010D09130403130203139F
:100DC00002051302050102050104031302030104D5
:100DD00003010203010403130203130403130205B6
:100DE000010403130403010709130611010611137B
:100DF0000611010709130709010206010201010496
:100E00000613020101040601020101040613020196
:100E100013040613070813060B13070B01060B1523
:100E2000070801070812060B15070801060B0D0637
:100E30000B15070812060B1507080D060B13060BFA
:100E400013070815070813060B13020B010A0813F2
:100E50001408010A0813020B01020B080B0002021E
:100E60000201000904000001020200000524001034
:100E700001052401010104240206052406000107DE
:100E800005810310004009040100020A0000000768
:100E90000502024000000705830240000004030928
:100EA0000412010002EF02014041233680000101DB
:100EB00002030141726475696E6F204C4C4300411E
:100EC000726475696E6F204C656F6E6172646F003D
:100ED0009F1D11241FBECFEFDAE0DEBFCDBF12E0B1
:100EE000A0E0B1E0E4EFF3E402C005900D92A83970
:100EF000B107D9F727E0A8E9B2E001C01D92A33FEE
:100F0000B207E1F717E0C9E6D7E004C02197FE0178
:100F10000E94ED21C836D107C9F70E94B0190C9480
:100F2000F8210C940000AF92BF92CF92DF92EF9223
:100F3000FF920F931F93CF93DF931F92CDB7DEB72E
:100F400041155105C1F15A017C016B0100E010E02F
:100F500013C069831296ED91FC91139741E050E024
:100F6000BE016F5F7F4FC7010995892BB9F00F5FF5
:100F70001F4FA016B10691F0F701A081B1812D910C
:100F80003C911197F60161916F01F7E12D333F0715
:100F900001F3C701F9010995892B49F7C8010F90A1
:100FA000DF91CF911F910F91FF90EF90DF90CF9045
:100FB000BF90AF90089500E010E0F0CF089508953D
:100FC00080E090E008950E94F3212F923F924F928B
:100FD0005F926F927F928F929F92AF92BF92CF92C9
:100FE000DF92EF92FF920F931F93CF93DF93CDB7D2
:100FF000DEB7A8970FB6F894DEBF0FBECDBF5C0179
:10100000162F6091990670919A0680919B06909197
:101010009C060E9404206B017C017A836983C501D0
:1010200068E671E00E94C521BC01990F880B990BFD
:101030000E943C2029E33AEF4EE85CE30E9407213E
:101040004B015C010E9474216D837E838F8398879E
:10105000C501B4010E94FF1F062F372E282E998745
:10106000113009F45BC1123009F42BC1112309F4CA
:1010700003C11F8E18A219A21AA21A861B861C86EB
:101080001D861BA21CA21DA21EA21D821E821F82E3
:10109000188600E0312C212C19861A8A1B8A1C8A9A
:1010A0001D8A1E861F86188A198A188E198E1A8E16
:1010B0001B8E1C8E1D8E1E8E10E0C601892B09F41E
:1010C000C2C0ADE9B6E0C601880F991FC80ED91E8F
:1010D000C601880F991F880F991FFC01E356F94F2D
:1010E000FF8BEE8BB8A7AFA38D919D910D90BC9116
:1010F000A02D89839A83AB83BC83EFA1F8A5C4801C
:10110000D580E680F78080849184A284B3842C8D7E
:101110003D8D4E8D512FC501B4010E9407212B0139
:101120003C01288D398D4A8D5B8DC701B6010E9427
:1011300007219B01AC01C301B2010E94931F2B0147
:101140003C012E853F854889598969817A818B8147
:101150009C810E9407219B01AC01C301B2010E9446
:10116000931FAFA1B8A56D937D938D939C93139717
:101170002A893B894C895D89C501B4010E940721F8
:101180002B013C01202F332D422D5985C701B6017B
:101190000E9407219B01AC01C301B2010E94931F71
:1011A0002B013C012D813E814F81588569817A81D7
:1011B0008B819C810E9407219B01AC01C301B2017C
:1011C0000E94931FEFA1F8A564837583868397839C
:1011D0002BA13CA14DA15EA1C501B4010E94072134
:1011E0004B015C012A853B854C855D85C701B601B5
:1011F0000E9407219B01AC01C501B4010E94931F0D
:101200006B017C012F8D38A149A15AA169817A8196
:101210008B819C810E9407219B01AC01C701B60113
:101220000E94931FAFA1B8A518966D937D938D93DF
:101230009C931B971C96B8A7AFA3EE89FF89EA176A
:10124000FB0709F051CFA8960FB6F894DEBF0FBE8A
:10125000CDBFDF91CF911F910F91FF90EF90DF9065
:10126000CF90BF90AF909F908F907F906F905F9046
:101270004F903F902F9008958D819E81AF81B885CA
:10128000B0588A879B87AC87BD870F8F38A229A269
:1012900099859AA31BA21CA21DA21EA21A8A1B8AB0
:1012A0001C8A1D8A1E861F86188A198A188E198E16
:1012B0001A8E1B8E1C8E1D8EA0E8AE8F1FE3C601FA
:1012C000FDCE192F8D819E81AF81B885B0588A8B54
:1012D0009B8BAC8BBD8B9D81988FAE81A98FBF817D
:1012E000BA8FE885EB8F0C8F3D8E2E8E1F8E18A245
:1012F000F0E8F9A32FE32AA31A861B861C861D8615
:101300001BA21CA21DA21EA21D821E821F82188665
:101310001E861F86188A198AC601D0CE8D819E81AD
:10132000AF81B885B0588E879F87A88BB98B0F8FF8
:1013300038A229A299859AA3AD81ABA3BE81BCA393
:10134000EF81EDA3F885FEA30C8F3D8E2E8E192F15
:101350001A861B861C861D861D821E821F82188689
:1013600000E0312C40E8242E2FE329871A8A1B8ABB
:101370001C8A1D8A188E198E1A8E1B8EC6019ECE4F
:101380000F931F938C0120E030E09FB7F8944091B9
:10139000DE075091DF076091E0077091E10786B5A5
:1013A000A89B06C08F3F21F04F5F5F4F6F4F7F4F6D
:1013B0009FBF762F652F542F4427480F511D611D65
:1013C000711D440F551F661F771F440F551F661F61
:1013D000771F0115110521053105C9F1FFB7F894F3
:1013E0008091DE079091DF07A091E007B091E107BF
:1013F000E6B5A89B05C0EF3F19F00196A11DB11DF0
:10140000FFBFBA2FA92F982F88278E0F911DA11DDE
:10141000B11D880F991FAA1FBB1F880F991FAA1FF4
:10142000BB1F841B950BA60BB70B883E9340A105F1
:10143000B105A0F2015011092109310948515C4F51
:101440006F4F7F4F011511052105310539F61F91A9
:101450000F9108952F923F924F925F926F927F92D9
:101460008F929F92AF92BF92CF92DF92EF92FF92B4
:101470000F931F93CF93DF93CDB7DEB7C254D1093B
:101480000FB6F894DEBF0FBECDBF8D8399837CA7C6
:101490006BA75AAF49AF2091840130918501219605
:1014A0003FAF2EAF2197DB016D917D918D919C9186
:1014B0000E9404209B01220F331FF901E60FF71F42
:1014C000FCAFEBAFCF0166E070E00E94C521892B35
:1014D00009F0A7C780E090E0A0ECB0E48093990603
:1014E00090939A06A0939B06B0939C061E161F0627
:1014F0000CF0BBC6ED80E9A6E980EAA61EAE1DAEE3
:10150000E9A5FAA58491EBA5FCA524E0829FE00D56
:10151000F11D112480819181A281B38180939D0668
:1015200090939E06A0939F06B093A006E9A5FAA506
:101530003196E4914BA55CA584E0E89F400D511DD8
:101540001124FA0180819181A281B3818093A10647
:101550009093A206A093A306B093A406E9A5FAA5CA
:101560003296E491ABA5BCA524E0E29FA00DB11D8D
:101570001124FD0180819181A281B3818093A50610
:101580009093A606A093A706B093A806E9A5FAA58E
:101590003396E4914BA55CA584E0E89F400D511D76
:1015A0001124FA0180819181A281B3818093A906DF
:1015B0009093AA06A093AB06B093AC06E9A5FAA552
:1015C0003496E491ABA5BCA524E0E29FA00DB11D2B
:1015D0001124FD0180819181A281B3818093AD06A8
:1015E0009093AE06A093AF06B093B006E9A5FAA516
:1015F0003596E4914BA55CA584E0E89F400D511D14
:101600001124FA0180819181A281B3818093B10676
:101610009093B206A093B306B093B406E9A5FAA5D9
:101620003696E491ABA5BCA524E0E29FA00DB11DC8
:101630001124FD0180819181A281B3818093B5063F
:101640009093B606A093B706B093B806E9A5FAA59D
:101650003796E4914BA55CA584E0E89F400D511DB1
:101660001124FA0180819181A281B3818093B9060E
:101670009093BA06A093BB06B093BC06E9A5FAA561
:101680003896E491ABA5BCA524E0E29FA00DB11D66
:101690001124FD0180819181A281B3818093BD06D7
:1016A0009093BE06A093BF06B093C006E9A5FAA525
:1016B0003996E4914BA55CA584E0E89F400D511D4F
:1016C0001124FA0180819181A281B3818093C106A6
:1016D0009093C206A093C306B093C406E9A5FAA5E9
:1016E0003A96E491ABA5BCA524E0E29FA00DB11D04
:1016F0001124FD0180819181A281B3818093C5066F
:101700009093C606A093C706B093C806E9A5FAA5AC
:101710003B96E4914BA55CA584E0E89F400D511DEC
:101720001124FA0180819181A281B3818093C9063D
:101730009093CA06A093CB06B093CC06E9A5FAA570
:101740003C96E491ABA5BCA524E0E29FA00DB11DA1
:101750001124FD0180819181A281B3818093CD0606
:101760009093CE06A093CF06B093D006E9A5FAA534
:101770003D96E4914BA55CA584E0E89F400D511D8A
:101780001124FA0180819181A281B3818093D106D5
:101790009093D206A093D306B093D406E9A5FAA5F8
:1017A0003E96E491ABA5BCA524E0E29FA00DB11D3F
:1017B0001124FD0180819181A281B3818093D5069E
:1017C0009093D606A093D706B093D806E9A5FAA5BC
:1017D0003F96E4914BA55CA584E0E89F400D511D28
:1017E0001124FA0180819181A281B3818093D9066D
:1017F0009093DA06A093DB06B093DC06E9A5FAA580
:101800007096E491ABA5BCA524E0E29FA00DB11DAC
:101810001124FD0180819181A281B3818093DD0635
:101820009093DE06A093DF06B093E006E9A5FAA543
:101830007196E4914BA55CA584E0E89F400D511D95
:101840001124FA0180819181A281B3818093E10604
:101850009093E206A093E306B093E40661E021963C
:101860008EAD9FAD21970E94E50760E08FE090E08C
:101870000E94E5076091990670919A0680919B06F7
:1018800090919C060E9404206115710509F4C6C55B
:101890002091420130914301409144015091450112
:1018A0002D833E834F835887209146013091470115
:1018B000409148015091490129873A874B875C87BD
:1018C00020914A0130914B0140914C0150914D01C2
:1018D0002D873E874F87588B20914E0130914F01C5
:1018E0004091500150915101298B3A8B4B8B5C8B6D
:1018F0002091520130915301409154015091550172
:101900002D8B3E8B4F8B588F209156013091570174
:101910004091580150915901298F3A8F4B8F5C8F1C
:1019200020915A0130915B0140915C0150915D0121
:101930002D8F3E8F4F8F58A320915E0130915F0114
:10194000409160015091610129A33AA34BA35CA38C
:1019500020916201309163014091640150916501D1
:101960002DA33EA34FA358A70DE916E09B01220F1C
:10197000331FA901460F571F440F551F440F551F12
:10198000CA018356994F1C011EA70DA7ADA5BEA580
:101990002D913D914D915C91139729833A834B830F
:1019A0005C831496CD90DD90ED90FC90179718967F
:1019B0008D909D90AD90BC901B972D813E814F8165
:1019C0005885C501B4010E9407212B013C012985DE
:1019D0003A854B855C85C701B6010E9407219B01B2
:1019E000AC01C301B2010E94931F2B013C012D8564
:1019F0003E854F85588969817A818B819C810E94BF
:101A000007219B01AC01C301B2010E94931FEDA508
:101A1000FEA5608371838283938329893A894B89E8
:101A20005C89C501B4010E9407212B013C012D896D
:101A30003E894F89588DC701B6010E9407219B013D
:101A4000AC01C301B2010E94931F2B013C01298DFF
:101A50003A8D4B8D5C8D69817A818B819C810E944E
:101A600007219B01AC01C301B2010E94931FADA5E8
:101A7000BEA514966D937D938D939C9317972D8D92
:101A80003E8D4F8D58A1C501B4010E9407214B0125
:101A90005C0129A13AA14BA15CA1C701B6010E943A
:101AA00007219B01AC01C501B4010E94931F6B018A
:101AB0007C012DA13EA14FA158A569817A818B811E
:101AC0009C810E9407219B01AC01C701B6010E94C5
:101AD000931FEDA5FEA560877187828793873C964B
:101AE000FEA7EDA7E215F30509F050CF6091990626
:101AF00070919A0680919B0690919C060E9404200A
:101B00006115710509F48AC4209100013091010129
:101B100040910201509103012D833E834F835887EA
:101B20002091040130910501409106015091070177
:101B300029873A874B875C872091080130910901FA
:101B400040910A0150910B012D873E874F87588B9A
:101B500020910C0130910D0140910E0150910F0127
:101B6000298B3A8B4B8B5C8B2091100130911101AA
:101B700040911201509113012D8B3E8B4F8B588F4A
:101B800020911401309115014091160150911701D7
:101B9000298F3A8F4B8F5C8F20911801309119015A
:101BA00040911A0150911B012D8F3E8F4F8F58A3EA
:101BB00020911C0130911D0140911E0150911F0187
:101BC00029A33AA34BA35CA32091200130912101CA
:101BD00040912201509123012DA33EA34FA358A76A
:101BE0002091240130912501409126015091270137
:101BF0002DA73EA74FA758AB20912801309129016E
:101C000040912A0150912B0129AB3AAB4BAB5CAB15
:101C100020912C0130912D0140912E0150912F01E6
:101C20002DAB3EAB4FAB58AF9B01220F331FA90129
:101C3000460F571F440F551F440F551FCA018356A7
:101C4000994F23969FAF8EAF2397D8012D913D9149
:101C50004D915C91139729833A834B835C8314964F
:101C6000CD90DD90ED90FC90179718968D909D90FB
:101C7000AD90BC901B972D813E814F815885C50149
:101C8000B4010E9407212B013C0129853A854B852F
:101C90005C85C701B6010E9407219B01AC01C3010D
:101CA000B2010E94931F2B013C012D853E854F857B
:101CB000588969817A818B819C810E9407219B01CF
:101CC000AC01C301B2010E94931F29893A894B8953
:101CD0005C890E94931FF8016083718382839383E0
:101CE0002D893E894F89588DC501B4010E94072175
:101CF0002B013C01298D3A8D4B8D5C8DC701B601BE
:101D00000E9407219B01AC01C301B2010E94931FF5
:101D10002B013C012D8D3E8D4F8D58A169817A811B
:101D20008B819C810E9407219B01AC01C301B20100
:101D30000E94931F29A13AA14BA15CA10E94931F6D
:101D4000D80114966D937D938D939C9317972DA135
:101D50003EA14FA158A5C501B4010E9407214B0126
:101D60005C012DA53EA54FA558A9C701B6010E944B
:101D700007219B01AC01C501B4010E94931F6B01B7
:101D80007C0129A93AA94BA95CA969817A818B8137
:101D90009C810E9407219B01AC01C701B6010E94F2
:101DA000931F2DA93EA94FA958AD0E94931FF8017A
:101DB0006087718782879387045F1F4F23962EADBC
:101DC0003FAD23970217130709F03FCF60919906A3
:101DD00070919A0680919B0690919C060E94042027
:101DE000CB01880F991FAC01460F571F5AA349A377
:101DF00089E996E09E838D83A1E0B0E0BA8BA98B40
:101E00009D01241735070CF01EC220E030E040E8A9
:101E100052E4AD81BE8114966D917D918D919C911E
:101E200017970E94931F0E940420062FB72E862E1C
:101E3000972E20E030E040E052E4ED81FE816085A5
:101E40007185828593850E94931F0E9404206B01F7
:101E50007C012B0120E030E040E852E4AD81BE81FE
:101E600050966D917D918D919C9153970E94931FF7
:101E70000E940420162F6D87772E20E030E040E08E
:101E800052E4ED81FE8164897589868997890E9473
:101E9000931F0E94042069877A878B879C872985F6
:101EA0003A853A83298320E030E040E852E4AD816E
:101EB000BE815C966D917D918D919C915F970E9402
:101EC000931F0E9404206D8BA72E6DA320E030E0AD
:101ED00040E052E4ED81FE8160A171A182A193A155
:101EE0000E94931F0E940420AB0129893A89275F31
:101EF0003F4F3A8B298BA981BA81AC15BD050CF4F3
:101F000058C26C157D052CF0A2012B018DA28D8885
:101F10009A2CE981FA814E165F0654F499818A81E0
:101F20005A824982492E582E8D858D86882E972C6F
:101F30001DA1C42EED852E2E211A27FC46C2BB24DE
:101F4000B394E12EF981FD8B2F2F2C19898E782CDB
:101F50007E1877FC3FC2AA24A3944D8E342D3C19E1
:101F600022160CF040C281E0898773160CF042C241
:101F700066246394632F032E000C770B832F8595C3
:101F8000A981BA81A417B50709F446C2A22F022E6F
:101F9000000CBB0B922F9595FDA100E09EA28DA297
:101FA00039849E2EFDA7C9AA402F50E04A175B072F
:101FB0000CF083C0EDA51E1708F0E7C1F12F31101A
:101FC000E9C10F5F920D492F50E04A175B070CF4EF
:101FD000B1C1921BC12C6110B8C1870D482F50E0D0
:101FE000461757070CF4A2C1831BD12C49A94034D2
:101FF00008F04CC01F1708F4F12FFF2E5DA55F17E6
:1020000008F4F52EE11708F4E12FFDA5EF1708F409
:10201000EF2FEE2EEF184F2D50E0FA01EE0DF11DCF
:10202000FA87E987EF2B91F1FFE7FF1578F1E98552
:10203000FA85E138F10514F0E0E8F0E0EF19F9A9CC
:10204000EF2EF12CF594E794F594E794F594E7944A
:10205000F694FE2CEE24F794E794E40EF51EA70107
:1020600048565D4F5A874987F770EE24E39401C0C4
:10207000EE0CFA95EAF75FEF5E0FEE2339F0E98593
:10208000FA8540814E2941935150D8F7311001C053
:102090001B0D1C0D611003C05DA55A0D5DA7EDA5BC
:1020A000ED0DEDA7F9A9FF5FF9AB4F2F50E0E981E6
:1020B000FA81E417F50709F077CFE92D8DA09EA0EE
:1020C000FDA5C9A8198DED841E1917FD98C101E061
:1020D000FD8C2D89F21A1F150CF099C1222423942E
:1020E000AF2D0F2C000CBB0B9F2D9595B7FD9EC0FF
:1020F00020E040E050E0372CBF2C7A2CAC2CEF17BE
:1021000008F032C1F983E987211033C14A175B0710
:102110000CF0FAC0910F492F50E04A175B070CF4FE
:10212000EBC09B19D12C4F2F50E08416950609F473
:10213000F2C0611078C1830D482F50E04617570751
:102140000CF4EBC0831BC12C4FE34A1508F459C0B3
:102150005985E51708F4E987F984FF1508F4FF2E7F
:10216000E980EE1608F4E98349814F1708F4F983F2
:10217000E980EF184F2D50E05A8349834E0D511DD1
:102180005A874987452BE9F15FE75F15D0F149850B
:102190005A854138510514F040E850E0E42EEF181C
:1021A000E986EA2CF12CF594E794F594E794F594FC
:1021B000E794F694FE2CEE24F794E79449815A8133
:1021C000E40EF51EA70148565D4F5A8349835A2DE8
:1021D0005770FF24F39401C0FF0C5A95EAF7598514
:1021E0005150E984EE2069F0EE2EF987E981FA81F9
:1021F00040814F294193FA83E9835150C8F7EE2D6E
:10220000F985211001C0E00FED0D611001C0F70D3F
:10221000FC0DA3944A2D50E0441655063CF02F5F68
:10222000422F50E0A417B5070CF069CFED81FE8175
:10223000B496FE83ED8329893A8949A15AA12417CE
:1022400035070CF4E2CD2DAD3EAD2E5E3F4F3EAFD7
:102250002DAF49A55AA54E5E5F4F5AA749A78BAD32
:102260009CAD281739070CF44BC949AD5AAD41153F
:10227000510541F1FA01849131969491E9ADFAAD9D
:102280003296282F30E0253531050CF085E531E018
:10229000292F277009F430E0969596959695930F1F
:1022A00089F0882379F0A3E4B6E0815090E00196AC
:1022B0008E0F9F1F24913C91232B2D933196E8176D
:1022C000F907C1F7CE5BDF4F0FB6F894DEBF0FBE44
:1022D000CDBFDF91CF911F910F91FF90EF90DF90D5
:1022E000CF90BF90AF909F908F907F906F905F90B6
:1022F0004F903F902F900895E00F2F5F422F50E0B6
:102300004A175B070CF406CFD12C4F2F50E08416F0
:10231000950609F00ECFC12C17CFF70D4F2F50E0C7
:102320008416950609F007CFC12C0ECFEDA4EA0C58
:10233000EDA653CE1B0D402F50E04A175B070CF45F
:1023400040CEC12C662009F448CE870D482F50E0BE
:10235000461757070CF476C0831B482F50E04617EA
:102360005707D4F7DA2C42CEE983F987222009F403
:10237000CDCE4A175B0744F6910F492F50E04A171C
:102380005B0714F29B19D02ECECEFE2FE12F332007
:1023900009F417CE0F5F920D492F50E04A175B07E3
:1023A00084F2921B492F50E04A175B07D4F7CB2CDD
:1023B00012CE6A177B070CF4BBCD812E0D877B2CC8
:1023C00049845A84DA82C9829FCD2194BB24BA946D
:1023D000E12EB8CD7194AA24AA944D8E342D3C19C7
:1023E00022160CF4C0CD822F222D282E19867316AA
:1023F0000CF4BECD832F372D782E612CBBCD1195DB
:102400000FEFFD8C2D89F21A1F150CF467CE9F2D4E
:10241000F12E192F212C64CEFDA154CE60E070E086
:10242000DFCC0E94F321830D482F50E04617570759
:102430000CF471CF831B482F50E046175707D4F791
:10244000C72C82CED12CD2CD1F920F920FB60F92F5
:102450001124CF92DF92EF92FF920F931F932F934D
:102460003F934F935F936F937F938F939F93AF931C
:10247000BF93EF93FF93CF93DF93CDB7DEB76D9705
:10248000DEBFCDBF1092E9008091E80083FF9EC0BF
:102490008091F1008D8B8091F1008E8B8091F10005
:1024A0008F8B8091F100888F8091F100898F8091CE
:1024B000F1008A8F8091F1008B8F8091F1008C8FD9
:1024C000289884E68093DB0782EF8093E8009D895B
:1024D00097FD4FC08EEF8093E800892F807609F03A
:1024E00051C08E894F89588D2F89D88C882309F443
:1024F00094C0813009F449C1833009F452C1853058
:1025000009F483C0863009F47BC1873009F45BC0CD
:10251000883009F471C1893009F086C0937009F0E0
:1025200052C081E08093E9008093EB0091EC90939E
:10253000EC0096E39093ED0022E02093E900809375
:10254000EB0020E82093EC009093ED0023E0209333
:10255000E9008093EB0081E88093EC009093ED001C
:102560008EE78093EA001092EA008F898093DD075E
:102570005BC08091E80080FDB0CF8091E80080FFD3
:10258000F8CFABCF8B8D9C8D1092E9001092CC07C9
:102590001092CB079093CA078093C907298D2223F5
:1025A00009F446C08091D307811107C182E080936E
:1025B000CF0784E08093D0071092D2071092D10702
:1025C00081E08093D30781E28093EB006D960FB694
:1025D000F894DEBF0FBECDBFDF91CF91FF91EF9199
:1025E000BF91AF919F918F917F916F915F914F912B
:1025F0003F912F911F910F91FF90EF90DF90CF901F
:102600000F900FBE0F901F9018958091E80080FFEB
:10261000FCCF20682093E30007C0903809F4AEC0D7
:102620001092F1001092F1008EEF8093E800CECF6F
:102630003E892D89213A09F468C0213221F63332CE
:1026400009F450C13032C9F1323271F78F89809369
:102650009101EEEFFFE7859194918B3F9C4D09F43A
:1026600093C1E0E0F8E080E098E040918A01509169
:102670008B0160918C0170918D01403B544061054C
:10268000710509F45DC1208131812737374761F633
:10269000A895209160002861209360002091CE07CA
:1026A000209360008E3F9A4009F4E2C28091FE0AB6
:1026B0009091FF0A91838083B7CF8091E80082FFD9
:1026C000FCCF8091F10080938A018091F10080938A
:1026D0008B018091F10080938C018091F1008093B7
:1026E0008D018091F10080938E018091F1008093A3
:1026F0008F018091F10080939001289884E6809367
:10270000DB078BEF8093E8008FCF313209F05BCF8E
:10271000EAE8F1E020E030E04EEF10C02F5F3F4FDD
:102720003093CC072093CB073196B1E0E139FB071A
:1027300009F47ACF8091C9079091CA072817390701
:102740006CF78091E8008570E1F38091E80082FDEC
:102750006BCF80818093F1002091CB073091CC0723
:102760002F5F3F4FC9018F739927892BC9F640937B
:10277000E8002091CB073091CC07D0CF8091CD07D6
:102780008093F1001092F1004FCF91114DCF413065
:10279000510509F049CF8091CD078D7F8093CD07FA
:1027A00043CF911141CF4130510509F03DCF809188
:1027B000CD0782608093CD0737CF0091D10710916C
:1027C000D2070115110509F4FECEFE0175967F01B1
:1027D00007C0F801008511850115110509F4F3CE34
:1027E000D801ED91FC910190F081E02DB701C80175
:1027F0000995882371F318CF81E08093F10014CFFD
:1028000022E0D21609F4C5C08B8D9C8D1092E90090
:102810001092CC071092CB079093CA078093C907F8
:102820008091D30781116BC082E08093CF0784E051
:102830008093D0071092D2071092D10781E0809345
:10284000D307F1E0DF1609F49BC1F3E0DF12BBCE42
:102850008F89882309F40FC2823009F41AC28130AB
:1028600009F410C2833009F0AECE8091D3078111F4
:102870000DC082E08093CF0784E08093D007109250
:10288000D2071092D10781E08093D3070091D1073E
:102890001091D207CE0101967C016C010EC0D801C7
:1028A000ED91FC910680F781E02DB601C8010995F4
:1028B000C80ED11CF801008511850115110579F7A5
:1028C000D6011C92F70101900020E9F73197BF0172
:1028D0006E197F0940E0C7010E94AD1D882309F4ED
:1028E00072CEA2CE8F89988DA0E0B0E08093860151
:1028F00090938701A0938801B093890195CE0091B0
:10290000D1071091D2070115110509F49ACFCE0114
:1029100045967C0107C0F801008511850115110558
:1029200009F48FCFD801ED91FC910480F581E02D61
:10293000B701C8010995009771F30CF075CE43CE2D
:102940002091910120FD9FCE8E3F9A4051F08081D1
:102950009181873747E7940721F09093FF0A80938E
:10296000FE0A87E797E791838083809160008093D8
:10297000CE079BE088E10FB6F894A895809360009D
:102980000FBE9093600050CEEEEFFAE08EEF9AE02B
:102990006CCE0B8D1C8D1092E9001092CC0710921A
:1029A000CB071092CA071092C907D982EBE5FEE067
:1029B00020E030E080E090E05EEF449182179307E2
:1029C0007CF001969093CC078093CB0731964EE034
:1029D000ED39F40701F12091C9073091CA07EDCF15
:1029E0008091E8008570E1F38091E80082FD13C0DA
:1029F0004093F1008091CB079091CC0701969C0108
:102A00002F733327232BF1F65093E8008091CB07E7
:102A10009091CC07D6CF8091D3078111EEC082E090
:102A20008093CF0784E08093D0071092D207109252
:102A3000D10781E08093D307CE0101967C012981E3
:102A400089E0D701E82F1D92EA95E9F7898382E0B2
:102A50008A8381E08E8380EA88878AEF89878091E4
:102A6000CB079091CC0709969C838B832D83109282
:102A7000E9001092CC071092CB071093CA0700937D
:102A8000C907F701AE01465F5F4F20E030E09EEFDF
:102A90000AC02F5F3F4F3093CC072093CB0731966E
:102AA000E417F50731F1201731079CF78091E80012
:102AB0008570E1F38091E80082FD1BC080818093E6
:102AC000F1002091CB073091CC072F5F3F4FB90128
:102AD0006F737727672B41F49093E8002091CB0721
:102AE0003091CC072F5F3F4F0091C9071091CA0763
:102AF000D2CF82E08D8FEBE5FEE04EEF0FC02F5F6F
:102B00003F4F3093CC072093CB0731968EE0ED39C1
:102B1000F80721F10091C9071091CA079491201775
:102B200031076CF78091E8008570E1F38091E8004F
:102B300082FD14C09093F1002091CB073091CC0717
:102B40002F5F3F4FC9018F739927892BD1F640938F
:102B5000E8002091CB073091CC07D1CF8091D307EB
:102B6000811169C082E08093CF0784E08093D00711
:102B70001092D2071092D10781E08093D30754CDF1
:102B800061EA7EE0FB014491442309F44DCD80913C
:102B9000CB079091CC07BEEF50E0A4912091C907DC
:102BA0003091CA07821793076CF001969093CC0777
:102BB0008093CB0731969F01241B350B26173707CF
:102BC00061F732CD8091E8008570E1F38091E800F3
:102BD00082FD2ACDA093F1008091CB079091CC0784
:102BE00001969C012F733327232B01F7B093E80044
:102BF0008091CB079091CC07D8CFC090D107D090CF
:102C0000D207C114D104D1F1FE0131967F0107C072
:102C1000F601C084D184C114D10409F410CFD601C7
:102C2000ED91FC910280F381E02DB701C601099579
:102C300097FD05CFEDCF0091D1071091D207011577
:102C4000110541F4F1CCF80100851185011511053C
:102C500009F4EACCD801ED91FC910280F381E02DDA
:102C6000BE01635E7F4FC801099597FDDDCCEBCFB8
:102C700011821082D9CC6DE97EE084CFDE011196FD
:102C80007D01DDCE40E86BE083EB9EE00E94AD1D50
:102C900025CE40E860E18FEB9EE00E94AD1D1ECE88
:102CA0006F927F929F92AF92BF92CF92DF92EF92FC
:102CB000FF920F931F93CF93DF933C0120919101DB
:102CC000211115C021E030E0F3013383228380E03D
:102CD00090E0DF91CF911F910F91FF90EF90DF90E7
:102CE000CF90BF90AF909F907F906F90089520916C
:102CF000DD07222339F32091DC0720FDAEC0FA0165
:102D000090E0BAEFA3E080E4A82E2AE3B22E309739
:102D100019F4992309F4A7C03FB7F894A093E900E8
:102D20002091E80025FF34C02091F2008A2D821BFB
:102D3000282F3FBF882369F1082F10E0E017F10723
:102D40000CF42E2FFFB6F894A093E9003091E80020
:102D500035FF1CC0E21BF109EE24EA94E20E2223A7
:102D600079F08B012E2DE80139918E013093F1001D
:102D70002150C8F72E2D30E02F5F3F4F620F731F99
:102D8000992309F45DC0B092E80090E0FFBEBFCF88
:102D90003FBFB15009F496CF3FB7F894C090DE071B
:102DA000D090DF07E090E007F090E10726B5A89B00
:102DB00007C02F3F29F0CFEFCC1ADC0AEC0AFC0A3F
:102DC0003FBFFE2CED2CDC2CCC24C20ED11CE11C10
:102DD000F11CCC0CDD1CEE1CFF1CCC0CDD1CEE1C15
:102DE000FF1C9FB6F8940091DE071091DF07209139
:102DF000E0073091E10786B5A89B06C08F3F21F020
:102E00000F5F1F4F2F4F3F4F9FBE322F212F102F8D
:102E10000027080F111D211D311D000F111F221F3A
:102E2000331F000F111F221F331F0C191D092E09FC
:102E30003F09083E13402105310508F068CFD1CF86
:102E40002091E80025FDA2CFB092E80091E03097F4
:102E500009F49CCF90E0FFBE5ACF2091E0002260A1
:102E60002093E0004CCF5D9824E62093ED071416E4
:102E700015060CF027CFCA012CCFCF93DF931F92FA
:102E8000CDB7DEB76983DC01ED91FC910280F3815F
:102E9000E02D41E050E0BE016F5F7F4F09950F903C
:102EA000DF91CF91089583E08093E9008091F20053
:102EB000882319F08AE38093E80008952FB7F894E7
:102EC00083E08093E9008091E80085FF07C090913E
:102ED000F20080E4891B90E02FBF089580E090E02D
:102EE0002FBF0895CF93DF931F92CDB7DEB7FC01BC
:102EF0008485958597FD08C02FEF3FEF35872487A0
:102F00000F90DF91CF9108958091DD07811103C06B
:102F10008FEF9FEFF5CF4FB7F89482E08093E900F1
:102F20008091F20090E01816190614F481E090E008
:102F30000097E9F0FE0131969E012E5F3F4F94E627
:102F400028989093DB078091F1008193E217F307B3
:102F5000B9F78091F200811103C08BE68093E800FD
:102F60004FBF898190E00F90DF91CF910895892B19
:102F700081F74FBFCDCFCF93DF931F92CDB7DEB791
:102F8000DC011C968D919C911D9797FD04C00F90BC
:102F9000DF91CF9108958091DD0781110AC08FEFF5
:102FA0009FEF1D969C938E931C970F90DF91CF916E
:102FB00008954FB7F89482E08093E9008091F20081
:102FC00090E01816190614F481E090E00097D9F00B
:102FD000FE0131969E012E5F3F4F84E62898809334
:102FE000DB079091F1009193E217F307B9F7809115
:102FF000F200811103C08BE68093E8004FBF9981F6
:10300000892F90E0CECF892B91F74FBFC8CFFC011D
:103010008485958597FD0BC09FB7F89482E08093D7
:10302000E9008091F2009FBF90E0019608959FB75C
:10303000F89482E08093E9008091F2009FBF90E0D5
:1030400008950F931F939FB7F8944091DE07509116
:10305000DF076091E0077091E10786B5A89B06C085
:103060008F3F21F04F5F5F4F6F4F7F4F9FBF762F96
:10307000652F542F4427480F511D611D711D440FAA
:10308000551F661F771F440F551F661F771F02E3EA
:1030900010E020E030E0FFB7F8948091DE079091D7
:1030A000DF07A091E007B091E107E6B5A89B05C056
:1030B000EF3F19F00196A11DB11DFFBFBA2FA92F37
:1030C000982F88278E0F911DA11DB11D880F991F64
:1030D000AA1FBB1F880F991FAA1FBB1F841B950B1C
:1030E000A60BB70B883E9340A105B105A0F2015095
:1030F00011092109310948515C4F6F4F7F4F01156C
:1031000011052105310539F61F910F9108950F938F
:103110001F939FB7F8944091DE075091DF076091AD
:10312000E0077091E10786B5A89B06C08F3F21F0AC
:103130004F5F5F4F6F4F7F4F9FBF762F652F542F8D
:103140004427480F511D611D711D440F551F661FF7
:10315000771F440F551F661F771F08EC10E020E013
:1031600030E0FFB7F8948091DE079091DF07A091DF
:10317000E007B091E107E6B5A89B05C0EF3F19F065
:103180000196A11DB11DFFBFBA2FA92F982F882727
:103190008E0F911DA11DB11D880F991FAA1FBB1F66
:1031A000880F991FAA1FBB1F841B950BA60BB70B7B
:1031B000883E9340A105B105A0F2015011092109F3
:1031C000310948515C4F6F4F7F4F011511052105A3
:1031D000310539F61F910F9108951F920F920FB686
:1031E0000F9211248F939F938091E1009091E100C1
:1031F000937F9093E10083FF0FC01092E90091E06C
:103200009093EB001092EC0092E39093ED001092FB
:10321000DD0798E09093F00082FF1AC093E090934E
:10322000E9009091F200992319F09AE39093E80055
:103230009091ED07992341F09091ED079150909373
:10324000ED07911101C05D9A9091DB0791111CC0AF
:1032500084FD24C080FF11C08091E2008E7E8061D9
:103260008093E2008091E1008E7E8093E100809166
:10327000DC078E7E81608093DC079F918F910F9099
:103280000FBE0F901F9018959091DB07915090936F
:10329000DB079111DDCF289A84FFDCCF8091E2001B
:1032A0008E7E81608093E2008091E1008F7E80932A
:1032B000E1008091DC078E7E80618093DC079F9126
:1032C0008F910F900FBE0F901F9018951F920F9225
:1032D0000FB60F9211242F933F938F939F93AF9329
:1032E000BF938091EE079091EF07A091F007B09106
:1032F000F1073091F20723E0230F2D3768F126E81C
:10330000230F0296A11DB11D2093F2078093EE07B3
:103310009093EF07A093F007B093F1078091DE0739
:103320009091DF07A091E007B091E1070196A11D00
:10333000B11D8093DE079093DF07A093E007B09361
:10334000E107BF91AF919F918F913F912F910F9086
:103350000FBE0F901F9018950196A11DB11DD4CFDF
:10336000789484B5826084BD84B5816084BD85B560
:10337000826085BD85B5816085BD80916E0081606C
:1033800080936E0010928100809181008260809312
:103390008100809181008160809381008091800014
:1033A0008160809380008091910082608093910081
:1033B0008091910081608093910080919000816064
:1033C000809390008091C10084608093C1008091BF
:1033D000C10082608093C1008091C10081608093B0
:1033E000C1008091C30081608093C3008091C000C0
:1033F00082608093C0008091C20081608093C2008F
:1034000080917A00846080937A0080917A00826053
:1034100080937A0080917A00816080937A00809115
:103420007A00806880937A001092DD071092CD07B1
:103430001092DC078091D70081608093D70080EAEA
:103440008093D80089B5806189BD89B5826089BDC6
:1034500009B400FEFDCF3FB7F8948091DE0790914C
:10346000DF07A091E007B091E10726B5A89B05C052
:103470002F3F19F00196A11DB11D3FBF4427582FC2
:10348000692F7A2F420F511D611D711D440F551F69
:10349000661F771F440F551F661F771F3FB7F894AD
:1034A0008091DE079091DF07A091E007B091E107DE
:1034B00026B5A89B05C02F3F19F00196A11DB11D8F
:1034C0003FBFBA2FA92F982F8827820F911DA11DCA
:1034D000B11D880F991FAA1FBB1F880F991FAA1F14
:1034E000BB1F841B950BA60BB70B883E9340A10511
:1034F000B105A0F28091D8008F7C80618093D800C4
:103500008091E000807F8093E0008091E1008E7EDA
:103510008093E1008DE08093E200559A209A81EC3F
:1035200080937C0085B1806F85B984B1877E84B932
:1035300084B1876E84B95E9A5F988AB1806D8AB9CA
:10354000769A6E9881B3806F81BB899880B38D70B5
:1035500080BB80E58CBD81E08DBD85E090E00E9460
:10356000C0095F9A85E090E00E94C0095E985C986F
:10357000EAECF0E087ED90E024912EBD00000DB460
:1035800007FEFDCF31968E179F07B1F75C9A81E851
:10359000809364008091650081608093650008E9F4
:1035A000802E02E0902EF40180E0A0E0B8E00080E0
:1035B0000EBC8111012C1197A0FDFDCF0192B9F72E
:1035C0000DB48FB18095807F669B88601C9B846062
:1035D00087FD39C18FB18095807F669B88601C9B79
:1035E000846082FF5EC02D988FB18095807F669B3E
:1035F00088601C9B84608478843869F08FB18095E2
:10360000807F669B88601C9B84608471843131F16B
:103610000E948718DFCF2D9A0E9487182F9882E08A
:1036200090E00E94191F8F3F29F06FEF82E090E039
:103630000E94211F84EF91E00E94C0092F9A8FB150
:103640008095807F982F98606699982F892F846045
:103650001C99892F8478843891F3D0CF2D9A0E94B9
:1036600087182E9882E090E00E94191F882329F085
:1036700060E082E090E00E94211F84EF91E00E94D0
:10368000C0092E9A8FB18095807F982F9860669997
:10369000982F892F84601C99892F8471843191F32C
:1036A000B7CF2D9A82E090E00E94191F8111E2C0ED
:1036B0003E983F980E9421188FB18095807F669B2D
:1036C000D7C01C9BF7CF8111F5CF89E28093E90722
:1036D000809164008E7F8093640080917A00806482
:1036E00080937A0080917A0086FDFCCF609178000B
:1036F00070917900CB01A0E0B0E0BC0155274427D0
:103700003FB7F8948091DE079091DF07A091E00722
:10371000B091E10726B5A89B05C02F3F19F001968F
:10372000A11DB11D3FBFBA2FA92F982F8827820F47
:10373000911DA11DB11D880F991FAA1FBB1F880FC6
:10374000991FAA1FBB1F8C019D01040F151F261F67
:10375000371FC901B801012B022B032B11F00E9466
:10376000101F8091640081608093640080E090E08D
:10377000A0E8BFE38093420190934301A0934401EA
:10378000B09345018093520190935301A09354014B
:10379000B09355018093620190936301A0936401FB
:1037A000B093650123E02093830124E0209340013E
:1037B000209341018093000190930101A0930201A5
:1037C000B09303018093140190931501A093160107
:1037D000B093170180933C0190933D01A0933E016B
:1037E000B0933F01C0E0D0E0E0E8AE2EB12CF4E6AB
:1037F0004F2E512C0BC06091E907861708F03DC091
:103800008F5F861708F47CC12097D1F48FB7F894A6
:103810000091EE071091EF072091F0073091F1072A
:103820008FBF8091EA07902F981B892F9091EB070B
:10383000992309F38093EC071092EB07209731F35B
:103840000E940000E3CF5C9885EA8EBD00000DB4B5
:1038500007FEFDCF5C9A2E982F982D9880916400DA
:1038600080628093640081E083BF889513BEFCCFA3
:1038700083B120CF3E9A3F9A1DCFF1E0F093EB0742
:103880000093EA078091E5079091E60701969093EF
:10389000E6078093E5076090E7076092E8078FB13D
:1038A0008095807F669B88601C9B84608093E7077F
:1038B0007090980601E0701609F427C107150CF006
:1038C0000CC112E0711609F42DC123E072120CC074
:1038D0004BED51E066E971E087E092E00E942A0A30
:1038E0006090E8076091E907E9E5F1E03490EAE5E6
:1038F000F1E09491032D10E00D3711050CF0DEC0BE
:10390000A80181E0292F277009F480E0969596950B
:103910009695890F873008F4D9C086E0041B150BF3
:103920007501E318F10822E0C22EC80E32E0D32E52
:10393000EBE5F1E023E031E04FEF430D50E04F5F66
:103940005F4F732D772309F4C6C0D7FCA9C0D901F6
:10395000A856BD4F1F01240E351E84919C91892BC2
:103960008D9331962E163F06C1F7240F351FD39441
:10397000F101E00FF11F2E0D3F1DDC10E3CFE7ED4D
:10398000F0E03490E8EDF0E08491E32CF12CF3E2E8
:10399000EF16F1040CF08DC0970171E0982F97702D
:1039A00009F470E0869586958695780F773008F44F
:1039B0008AC076E06501C318D108E21AF30A7E5F77
:1039C00092E0E9EDF0E04DE551E00FEF030D10E07E
:1039D0000F5F1F4F332D332309F47BC097FD57C072
:1039E000DA01A856BD4F1F01200E311E84912C9183
:1039F000822B8D9331962E163F06C1F7400F511F33
:103A00009F5FF101EE0DFF1D4C0D5D1D7913E3CF9E
:103A10008091EC0704E6809FC001112470E00E94B1
:103A2000C521CB01B2010E94C521809184019091F2
:103A30008501680F791F709385016093840165FC8F
:103A400007C08091E70785FF03C07A9470929806BB
:103A500066FC07C08091E70786FF03C073947092ED
:103A6000980677FC49C023E0271514F410929806B5
:103A7000F40131E080E098E000800EBC3111012CAF
:103A8000019780FDFDCF0192B9F70DB4BDCE1F01A6
:103A9000200E311E84913196E215F305D9F7AECF91
:103AA0001F01240E351E84913196E215F305D9F7D6
:103AB0005CCF23E230E093E2392E6FCF4DE750E048
:103AC0007DE7372E1ECF711175CFA2CF811126CF82
:103AD00056CF1F0195CF1F014ACF711005CF49E086
:103AE0005AE06AE372E085E39AE00E942A0A609055
:103AF000E8076091E907F8CE13E010939806B8CF75
:103B0000E1E0E3BF889513BE7FCE4FE856E06EEF4D
:103B100071E08BEB96E00E942A0A6090E8076091C2
:103B2000E907E2CE47EB53E06AEC71E083EE93E005
:103B30000E942A0A6090E8076091E907D5CEE2EE7C
:103B4000F7E086E992E0918380831582168280E116
:103B500087831482138211860895E091CB07F09138
:103B6000CC072091C9073091CA07E217F307D4F4B4
:103B70002091E8002570E1F32091E80022FD1CC0AF
:103B8000262F220F2E5F2093F1002091CB0730913A
:103B9000CC072F5F3F4F2F733327232B19F42EEFC2
:103BA0002093E8002091CB073091CC072F5F3F4F47
:103BB0003093CC072093CB07E091CB07F091CC0753
:103BC0002091C9073091CA07E217F307C4F4209186
:103BD000E8002570E1F32091E80022FD1AC023E0FF
:103BE0002093F1002091CB073091CC072F5F3F4FFE
:103BF0002F733327232B19F42EEF2093E800209105
:103C0000CB073091CC072F5F3F4F3093CC072093E9
:103C1000CB07582FFC017EEF8E2F851B861708F0EF
:103C200064C047FF02C0949101C09081A091CB076E
:103C3000B091CC072091C9073091CA07A217B307EA
:103C4000ACF48091E8008570E1F38091E80082FD9A
:103C500018C09093F1008091CB079091CC0701960A
:103C60008F739927892B11F47093E8008091CB070B
:103C70009091CC0701969093CC078093CB0781E07D
:103C800001C080E0A091CB07B091CC072091C9077B
:103C90003091CA07A217B307B4F49091E800957069
:103CA000E1F39091E80092FD1AC01092F10020918A
:103CB000CB073091CC072F5F3F4F2F733327232B38
:103CC00011F47093E8002091CB073091CC072F5F5F
:103CD0003F4F3093CC072093CB0791E001C090E099
:103CE00089233196811198CF089581E008958F92AC
:103CF0009F92AF92BF92CF92DF92EF92FF92CF93BB
:103D0000DF93EC01688179818A819B81611571055E
:103D10008105910521F464E279ED8BE597E02DE1D1
:103D200033EF41E050E00E942F1F49015A019B01EF
:103D3000AC01A7EAB1E40E944E1F6B017C01ACEE1E
:103D4000B4EFA50194010E945C1FDC01CB018C0D36
:103D50009D1DAE1DBF1DB7FF03C00197A109B0484F
:103D600088839983AA83BB83BC01CD019F77DF91B0
:103D7000CF91FF90EF90DF90CF90BF90AF909F904A
:103D80008F9008958F929F92AF92BF92CF92DF92C1
:103D9000EF92FF9260919201709193018091940152
:103DA00090919501611571058105910521F464E2F9
:103DB00079ED8BE597E02DE133EF41E050E00E9493
:103DC0002F1F49015A019B01AC01A7EAB1E40E94EF
:103DD0004E1F6B017C01ACEEB4EFA50194010E9473
:103DE0005C1FDC01CB018C0D9D1DAE1DBF1DB7FFFF
:103DF00003C00197A109B048809392019093930169
:103E0000A0939401B0939501BC01CD019F77FF90E1
:103E1000EF90DF90CF90BF90AF909F908F900895DC
:103E20006093920170939301809394019093950114
:103E30000895F999FECF92BD81BDF89A992780B572
:103E40000895262FF999FECF1FBA92BD81BD20BDDE
:103E50000FB6F894FA9AF99A0FBE01960895052EB6
:103E600097FB1EF400940E94461F57FD07D00E9446
:103E7000611F07FC03D04EF40C94461F50954095EB
:103E8000309521953F4F4F4F5F4F08959095809506
:103E9000709561957F4F8F4F9F4F08950E94831FAC
:103EA000A59F900DB49F900DA49F800D911D11248E
:103EB0000895B7FF0C944E1F0E944E1F821B930B58
:103EC0000895A1E21A2EAA1BBB1BFD010DC0AA1F5B
:103ED000BB1FEE1FFF1FA217B307E407F50720F073
:103EE000A21BB30BE40BF50B661F771F881F991FEE
:103EF0001A9469F760957095809590959B01AC0137
:103F0000BD01CF010895A29FB001B39FC001A39F3F
:103F1000700D811D1124911DB29F700D811D112402
:103F2000911D08955058BB27AA270E94AA1F0C94E0
:103F3000B9200E94802038F00E94872020F039F4B8
:103F40009F3F19F426F40C947D200EF4E095E7FBD6
:103F50000C947720E92F0E94DE2058F3BA176207ED
:103F600073078407950720F079F4A6F50C940021D7
:103F70000EF4E0950B2EBA2FA02D0B01B901900184
:103F80000C01CA01A0011124FF27591B99F0593FC8
:103F900050F4503E68F11A16F040A22F232F342F10
:103FA0004427585FF3CF469537952795A795F0405E
:103FB0005395C9F77EF41F16BA0B620B730B840B73
:103FC000BAF09150A1F0FF0FBB1F661F771F881F2B
:103FD000C2F70EC0BA0F621F731F841F48F4879583
:103FE00077956795B795F7959E3F08F0B0CF939575
:103FF000880F08F09927EE0F9795879508950E94EE
:104000009020E3950C94CA200E940B206894B11173
:104010000C94012108950E94E62088F09F5798F0A3
:10402000B92F9927B751B0F0E1F0660F771F881FBD
:10403000991F1AF0BA95C9F714C0B13091F00E94D7
:104040000021B1E008950C940021672F782F882774
:10405000B85F39F0B93FCCF3869577956795B395FE
:10406000D9F73EF490958095709561957F4F8F4F6D
:104070009F4F0895E89409C097FB3EF49095809572
:10408000709561957F4F8F4F9F4F9923A9F0F92F1E
:1040900096E9BB279395F695879577956795B7959C
:1040A000F111F8CFFAF4BB0F11F460FF1BC06F5F82
:1040B0007F4F8F4F9F4F16C0882311F096E911C094
:1040C000772321F09EE8872F762F05C0662371F0B5
:1040D00096E8862F70E060E02AF09A95660F771FC9
:1040E000881FDAF7880F9695879597F9089597F9BD
:1040F0009F6780E870E060E008959FEF80EC08958E
:1041000000240A94161617061806090608950024B6
:104110000A94121613061406050608950C947D20C1
:104120000E94E620D8F3E894E0E0BB279F57F0F028
:104130002AED3FE049EC06C0EE0FBB0F661F771F6C
:10414000881F28F0B23A62077307840728F0B25A32
:10415000620B730B840BE3959A9572F7803830F4F9
:104160009A95BB0F661F771F881FD2F790480C9453
:104170007E21092E0394000C11F4882352F0BB0F0A
:1041800040F4BF2B11F460FF04C06F5F7F4F8F4F6F
:104190009F4F0895EF93E0FF07C0A2EA2AED3FE0AA
:1041A00049EC5FEB0E94AA1F0E94B9200F90039474
:1041B00001FC9058ECEAF0E00C948A2157FD9058ED
:1041C000440F551F59F05F3F71F04795880F97FBDB
:1041D000991F61F09F3F79F0879508951216130695
:1041E0001406551FF2CF4695F1DF08C016161706C4
:1041F0001806991FF1CF86957105610508940895F9
:10420000E894BB2766277727CB0197F908950E948A
:104210001A210C94B9200E94802038F00E94872037
:1042200020F0952311F00C9477200C947D2011241C
:104230000C9401210E94DE2070F3959FC1F3950F2D
:1042400050E0551F629FF001729FBB27F00DB11D1A
:10425000639FAA27F00DB11DAA1F649F6627B00DAA
:10426000A11D661F829F2227B00DA11D621F739F93
:10427000B00DA11D621F839FA00D611D221F749FA1
:104280003327A00D611D231F849F600D211D822FE8
:10429000762F6A2F11249F5750409AF0F1F088230F
:1042A0004AF0EE0FFF1FBB1F661F771F881F91503C
:1042B0005040A9F79E3F510580F00C9477200C9454
:1042C00001215F3FE4F3983ED4F386957795679597
:1042D000B795F795E7959F5FC1F7FE2B880F911D66
:1042E0009695879597F908959F930E9490200F9037
:1042F00007FCEE5F0C94CA209F3F31F0915020F4F0
:10430000879577956795B795880F911D96958795B1
:1043100097F908959F938F937F936F93FF93EF93F4
:104320009B01AC010E940721EF91FF910E949E2109
:104330002F913F914F915F910C940721DF93CF9381
:104340001F930F93FF92EF92DF927B018C01689491
:1043500006C0DA2EEF010E941A21FE01E894A59111
:104360002591359145915591A6F3EF010E94AA1F21
:10437000FE019701A801DA9469F7DF90EF90FF90B2
:104380000F911F91CF91DF91089597FB072E16F49F
:10439000009407D077FD09D00E94D92107FC05D0F1
:1043A0003EF4909581959F4F0895709561957F4F4C
:1043B0000895AA1BBB1B51E107C0AA1FBB1FA6176C
:1043C000B70710F0A61BB70B881F991F5A95A9F7BE
:1043D00080959095BC01CD010895EE0FFF1F0590CB
:1043E000F491E02D099481E090E0F8940C94F82188
:0443F000F894FFCF6F
:1043F40000000000000000000000000000000000B9
:1044040000000000000000000000000000000000A8
:104414000000000000000000000000000000000098
:104424000000000000000000000000000000000088
:104434000301000000000000000000000000000074
:104444000000000000000000000000000000000068
:104454000000000000000000000000000000000058
:104464000000000000000000000000000000000048
:1044740000000301B400FFFFFFFF00E100000000A3
:104484000000010000000000104300000040000094
:10449400C040000080410000804000002041000036
:1044A40000C00000E040000020C1000080C1000006
:1044B40000C10000C0C00000A0C0000064430000B0
:1044C400E0400000C0C000008041000080400000C7
:1044D400604100000041000080C1000040C10000B4
:1044E400C04000004040000040C00000E0C00000A8
:1044F4008D430000E0400000C0C000008040000088
:1045040000C00000A0C00000804100006041000025
:104514000041000040C1000080C10000C040000014
:104524004040000040C00000E0C00000B143000073
:10453400E040000000C00000A0C00000C0C00000B7
:1045440000C10000804000000040000080410000E5
:1045540080C10000008000006041000070C10000C4
:1045640040C00000C04000000041000040C1000005
:1045740060C1000040400000E0C0000000000000F6
:08458400E04000000000DE072A
:00000001FF
