:100000000C9469070C9491070C9491070C94910738
:100010000C9491070C9491070C9491070C94910700
:100020000C9491070C9491070C94811A0C94B813BA
:100030000C9491070C9491070C9491070C949107E0
:100040000C9491070C9491070C9491070C949107D0
:100050000C9491070C9491070C9491070C94FA1A44
:100060000C9491070C9491070C9491070C949107B0
:100070000C9491070C9491070C9491070C949107A0
:100080000C9491070C9491070C9491070C94910790
:100090000C9491070C9491070C9491070C94910780
:1000A0000C9491070C9491070C94910705A84CCDE2
:1000B000B2D44EB93836A9020C50B9918688083CA2
:1000C000A6AAAA2ABE000000803FD5F08D14A1C8C0
:1000D00081CFD9F1AF2000202000000000000000F7
:1000E000000000000000000000FEFCF8F0E080804E
:1000F000000000000000000000FEFFFFFFFFFFFF08
:10010000FFFFFFFFFFFFFFFFFFFFFFFFFFFFFFFFFF
:10011000FFFEFCF8F0E0C08000FFFFFFFFFFFFFFE5
:10012000FFFFFFFFFFFFFFFFFFFFFFFFFFFFFFFFDF
:10013000FF7F7F3F0F070703000000000000000063
:100140000000000000000000007F3F3F1F07030386
:10015000000000000000000000202000000000005F
:1001600000000000C0C0E0F8FCFCFE000000000041
:10017000000000000000000000000000C0E0E0F00F
:10018000FCFEFEFFFFFFFFFFFFFFFFFFFFFFFFFF84
:10019000FFFFFFFFFFFFFFFFFFFFFF000103070F50
:1001A0001F3F7FFFFFFFFFFFFFFFFFFFFFFFFFFF7F
:1001B000FFFFFFFFFFFFFFFFFFFF7F0000000000CA
:1001C000000000000101070F1F3F7F00000000003A
:1001D00000000000000000000000002A07000000EE
:1001E000000000000000000000203C0E100C3E004B
:1001F0003C241C00043C0438241C000000000000C7
:1002000000000000000000010203010405010205D6
:1002100001060701040501060301060301040501A7
:100220000203010408010209010208010604010495
:100230000501060701040501060401040801060A78
:1002400001040801060401060901040801060A0167
:100250000408010609010209010B0C010604010B47
:1002600004010604010B0C01060A06020301060341
:10027000010203010603060203060603060209063D
:10028000040806020806060A060408060609060609
:10029000090604080602090604050602030602050B
:1002A00006060C06040806060A06040806060C06DE
:1002B000040506060706040506060C0606030604E2
:1002C00005060607060405060603060203060B04D8
:1002D00006060C060B0C06060C060B0406060706A3
:1002E00006090102090106090102090606090602BA
:1002F00009010408060405010405060405010408B3
:10030000060408060B0C010B04060B04010B0C0180
:100310000B04060B0C06060901060A06060A01066E
:100320000A06060901060906060701060306060372
:100330000106030606070106070602080104080174
:100340000208010408060208060408010209060260
:10035000080102080602080102090602090604054E
:100360000102050104050102050604050602050156
:10037000020506020301020306020301020506024A
:1003800005060B0C06060C06060A06060A01060AF6
:10039000060B0C060B0C01060A010B0C01060401EE
:1003A0000607010B04060607010B04010607010BF3
:1003B00004060607060B042A07003E2A3E003C20DE
:1003C0003C003C04003C043C003A003C043C004C33
:1003D000547C00003C0E100C3E0038243C20003CB5
:1003E000043C0001020301040501040301040501AA
:1003F00002030104060104060102030104020102D2
:1004000007010402010203010402010207010408BA
:10041000010408010207010407010405010906019E
:100420000905010906010405010406010402010988
:10043000080109020109080104020104080A09026D
:100440000104020109020104020A09020A04020A63
:1004500004080A09020A09080A09020A04080A0427
:10046000020A04080109080104080109080A04082D
:100470000A09080109080A09020109020A09020118
:1004800009080A09080B04020B09080B09020B09E9
:10049000080B04020B04080C09020B04020B0902EE
:1004A0000B04020C09020C04020C02070C04080CD9
:1004B00004070C04080C02070C04020C02030C04D1
:1004C000020C02070C04020C02030C04060C0406C6
:1004D0000C02030C04050C04050C02030C04030CB1
:1004E00004080C09020C09080C09020C04080C048D
:1004F000020C04060C09050C09060C09050C04067F
:100500000C04050C04080B09080B04080B09080C63
:1005100004080C09080B09080C09020B09020C0954
:10052000020B09080C09080A09050104050109055F
:100530000104050A09050A04050A04060A09050A50
:1005400009060A09050A04060A04050A040601093F
:10055000060104060109060A04060A09060109063D
:100560000A09050109050A09050109060A09060B18
:1005700004050B09060B09050B09060B04050B0402
:10058000060C09050B04050B09050B04050C0905F0
:100590000C04050C04060B09060B04060B09060CDB
:1005A00004060C09060B09060C09050B09050C09C4
:1005B000050B09060C09060C0403010203010403E0
:1005C0000102030C04030C02030C02070102030CDA
:1005D00002030102030C02070102070C02070104D7
:1005E000070102070104070C02070C0407010407B6
:1005F0000A04080104080A04080104070B04080C93
:1006000004070B04080104070B04080C04070C047E
:10061000080A04080B04020A04020B04020A040874
:100620000B04080A04020A04060104060A04060A66
:1006300004020B04060A04020104060104020B046E
:10064000020B04060A04020B04060B04020C040647
:100650000C04060B04020C04020A04060B04050A2F
:1006600004050B04050A04060B04060A040501042C
:10067000030104050104030A04050C04030B04052B
:100680000C04030A04050C04030B04050C04052ADE
:100690000700000000000000000000000000002033
:1006A0003E2A3E0018141C507E0018141C10000036
:1006B000000000000000000000000001020301042F
:1006C00005010403010405010203010205010406FA
:1006D00001030701030601040101030701040601E8
:1006E00003080104030103020104050103020104DC
:1006F00003010307010401010308010308010401C8
:1007000001040301030201040501030901040A01B4
:10071000030901040501030901040A01030A010395
:1007200007010B08010B07010B0801030701030870
:10073000010302010B09010B02010B090103020174
:1007400003090C0B02010302010B020103020C0B53
:10075000020C03020C03090C0B020C0B090C0B021C
:100760000C03090C03020C0309010B090103090125
:100770000B090C03090C0B09010B090C0B02010BF3
:10078000020C0B02010B090C0B090D03020D0B09E6
:100790000D0B020D0B090D03020D03090E0B020DCB
:1007A00003020D0B020D03020E0B020E03020E02DA
:1007B000030E04050E02050E04050E02030E0401CD
:1007C0000E040A0E03090E030A0E04050E03090E99
:1007D000040A0E03020E04050E03080E04010E03A4
:1007E000080E04050E03090E04050E03020E03088D
:1007F0000E04010E03070E04060E03070E04010E7D
:1008000003070E04060E03060E03090E0B020E0B61
:10081000090E0B020E03090E03020E03080E0B074E
:100820000E0B080E0B070E03080E03070E03090D2F
:100830000B090D03090D0B090E03090E0B090D0B16
:10084000090E0B020D0B020E0B020D0B090E0B090C
:100850000C0B07010307010B070103070C0B070C27
:1008600003070C03080C0B070C0B080C0B070C03FD
:10087000080C03070C0308010B08010308010B080F
:100880000C03080C0B08010B080C0B07010B070CE1
:100890000B07010B080C0B080D03070D0B080D0BC4
:1008A000070D0B080D03070D03080E0B070D0307BB
:1008B0000D0B070D03070E0B070E03070E03080DA4
:1008C0000B080D03080D0B080E03080E0B080D0B8B
:1008D000080E0B070D0B070E0B070D0B080E0B0870
:1008E0000E03060104060103060104060E03060EAC
:1008F00004060E02050102030E02030102050102B5
:10090000030E02050E040A01030A01040A01030A88
:100910000E040A0E030A01030A0C03090103090C61
:10092000030901030A0D03090E030A0D030901035C
:100930000A0D03090E030A0E03090C03090D030235
:100940000C03020D03020C03090D03090C03020C36
:1009500003080103080C03080C03020D03080C0331
:10096000020103080103020D03020D03080C030238
:100970000D03080D03020E03080E03080D03020EFB
:1009800003020C03080D03070C03070D03070C03F8
:10099000080D03080C030701030601030701030602
:1009A0000C03070E03060D03070E03060C03070EC8
:1009B00003060D03070E03070E02050104050102DD
:1009C000050104050E02050E04050E040A010405C6
:1009D0000E04050104050E040A01040A0E040101B7
:1009E00004060E04060104060E04010104010104BC
:1009F000030104010102030E0401010203010401C9
:100A00000102030E04010E02032A07000000000089
:100A1000382422320E043C100C301C2C003C040400
:100A2000003F1028243C003C043C003824243F00B4
:100A3000000000000001020301040301020501049B
:100A40000601020301020601020301040601040378
:100A5000010708010206010709010708010A080148
:100A6000020B01070801020B010201010708010244
:100A70000101020601020301070901020601020544
:100A800001070901020301020C0107090102050126
:100A9000070901020C010D09010E0B01060F010EE1
:100AA0000F01070801060401060F010604010709EA
:100AB00001061001060B01060F010E0B01070801CC
:100AC000060F01060B0106040107080107090106CC
:100AD00010010709010611010604010E10010E04A0
:100AE000010E10010604010610120E040106040195
:100AF0000E04010604120E04120604120610120E51
:100B000004120E10120E0412061012060412061021
:100B1000010E10010610010E10120610120E100127
:100B20000E10120E04010E04120E04010E10120E0D
:100B3000100D06040D0E100D0E040D0E100D060402
:100B40000D0610130E040D06040D0E040D060413FD
:100B50000E041306041307091306101306111306D7
:100B60001013020513060413061013070913020CD1
:100B7000130610130E04130E10130E041306101395
:100B8000060413060F130E0B130E0F13060F130795
:100B90000B130E0B13060413020313060F130201AB
:100BA00013060F13020313060F13020113070B138F
:100BB000061013020C13020513020C130709130D80
:100BC0000913040613020313040313020313040698
:100BD00013020113060413020513020313020B137D
:100BE000070B13020113140813070B13020B13074F
:100BF0000B1314081307081306100D0E100D061022
:100C00000D0E10130610130E100D0E10130E040D02
:100C10000E04130E040D0E10130E1013060B0D060A
:100C20000B0D0E0B130E0B13060B0D0E0B13060BF9
:100C3000130E0B13070B120E0B01060B010E0B12FA
:100C4000060B01060B120E0B12060F120E0B120EE4
:100C50000F120E0B12060F12060B12060F010E0FCB
:100C600001060F010E0F12060F120E0F010E0F12CA
:100C70000E0B010E0B120E0B010E0F120E0F0D06B6
:100C80000B0D0E0F0D0E0B0D0E0F0D060B0D060F9F
:100C900013060F0D0E0F0D060F0D0E0F13060F137B
:100CA0000E0F0D0E0F130E0B0D0E0B130E0B0D0E64
:100CB0000F130E0F130708010A08010708010A089D
:100CC000130708131408130D09010709010D090181
:100CD0000709130D09130709010611120610010671
:100CE000101206100106110D06101306110D061044
:100CF0000106110D06101306111306101206100D31
:100D000006041206040D06041206100D0610120643
:100D10000412060F01060F12060F1206040D060F2D
:100D200012060401060F0106040D06040D060F123B
:100D300006040D060F0D060413060F13060F0D060D
:100D40000413060412060F0D060B12060B0D060BFC
:100D500012060F0D060F1304030104061304060107
:100D60000403010406130403130403010203010432
:100D70000301020313040313020313020C0102050F
:100D800013020501020513020C01020C01070815EC
:100D9000070813070813020101020B13020B0102DB
:100DA0000B130201010201130D0901020C13020CC5
:100DB00001020C130D09010D09130403130203139F
:100DC00002051302050102050104031302030104D5
:100DD00003010203010403130203130403130205B6
:100DE000010403130403010709130611010611137B
:100DF0000611010709130709010206010201010496
:100E00000613020101040601020101040613020196
:100E100013040613070813060B13070B01060B1523
:100E2000070801070812060B15070801060B0D0637
:100E30000B15070812060B1507080D060B13060BFA
:100E400013070815070813060B13020B010A0813F2
:100E50001408010A0813020B01020B080B0002021E
:100E60000201000904000001020200000524001034
:100E700001052401010104240206052406000107DE
:100E800005810310004009040100020A0000000768
:100E90000502024000000705830240000004030928
:100EA0000412010002EF02014041233680000101DB
:100EB00002030141726475696E6F204C4C4300411E
:100EC000726475696E6F204C656F6E6172646F003D
:100ED000601F11241FBECFEFDAE0DEBFCDBF12E0EE
:100EE000A0E0B1E0E8ECF7E402C005900D92A83D67
:100EF000B107D9F727E0A8EDB2E001C01D92A33AEF
:100F0000B207E1F717E0C9E6D7E004C02197FE0178
:100F10000E94D723C836D107C9F70E94441B0C94FE
:100F2000E2230C940000AF92BF92CF92DF92EF9237
:100F3000FF920F931F93CF93DF931F92CDB7DEB72E
:100F400041155105C1F15A017C016B0100E010E02F
:100F500013C069831296ED91FC91139741E050E024
:100F6000BE016F5F7F4FC7010995892BB9F00F5FF5
:100F70001F4FA016B10691F0F701A081B1812D910C
:100F80003C911197F60161916F01F8E1213D3F0716
:100F900001F3C701F9010995892B49F7C8010F90A1
:100FA000DF91CF911F910F91FF90EF90DF90CF9045
:100FB000BF90AF90089500E010E0F0CF089508953D
:100FC00080E090E008950E94DD232F923F924F929F
:100FD0005F926F927F928F929F92AF92BF92CF92C9
:100FE000DF92EF92FF920F931F93CF93DF93CDB7D2
:100FF000DEB7E8970FB6F894DEBF0FBECDBF4C0149
:10100000B62E6091D9067091DA068091DB06909138
:10101000DC060E94CA216B017C018B01C40168E6D9
:1010200071E00E94AF23BC01990F880B990B0E94BD
:10103000022229E33AEF4EE85CE30E94F1222B0101
:101040003C010E945E2369AB7AAB8BAB9CABC301C6
:10105000B2010E94C5216D8B7E8B8F8B988F21E012
:10106000B21609F454C232E0B31609F428C1BB2009
:10107000E9F0C114D10409F051C3E8960FB6F89411
:10108000DEBF0FBECDBFDF91CF911F910F91FF90BB
:10109000EF90DF90CF90BF90AF909F908F907F9018
:1010A0006F905F904F903F902F90089589A99AA9D3
:1010B000ABA9BCA9B0588DAB9EABAFABB8AFC11458
:1010C000D104D9F269A37AA3FF89FBA3288D2CA3AD
:1010D00069A77AA7FBA72CA71DA61EA61FA618AA5C
:1010E0001D8A1E8A30E83F8B8FE3888F1D8E1E8EEF
:1010F0001F8E18A2198E1A8E1B8E1C8E1DA21EA268
:101100001FA218A62DED222E26E0322E8601DE012A
:101110001196BC8BAB8BEDB7FEB7FA8BE98BD10187
:101120008D919D910D90BC91A02D8D879E87AF874D
:10113000B88BF10184809580A680B780C084D1846B
:10114000E284F38420E030E0A901C701B6010E94E7
:10115000C021811115C020E030E0A901C501B40112
:101160000E94C02181110CC020E030E0A9016D85F2
:101170007E858F8598890E94C021882309F48AC0C2
:101180002D893E894F89588DC701B6010E94F122F1
:101190002B013C012D8D3E8D4F8D58A1C501B40111
:1011A0000E94F1229B01AC01C301B2010E945421B3
:1011B0002B013C01298D3A8D4B8D5C8D6D857E8593
:1011C0008F8598890E94F1229B01AC01C301B20175
:1011D0000E94542169837A838B839C832DA13EA135
:1011E0004FA158A5C701B6010E94F1222B013C0175
:1011F00029A53AA54BA55CA5C501B4010E94F12221
:101200009B01AC01C301B2010E9454212B013C019E
:1012100029A93AA94BA95CA96D857E858F859889F6
:101220000E94F1229B01AC01C301B2010E94542132
:101230006D837E838F8398872DA53EA54FA558A9E2
:10124000C701B6010E94F1226B017C012DA93EA9C4
:101250004FA958ADC501B4010E94F1229B01AC0118
:10126000C701B6010E9454216B017C0129A13AA15A
:101270004BA15CA16D857E858F8598890E94F122A6
:101280009B01AC01C701B6010E94542169877A878E
:101290008B879C878CE0EB89FC89D10101900D92B2
:1012A0008A95E1F70FB6F894DEBF0FBECDBF3CE0E4
:1012B000230E311C0150110909F02DCFDECEE92F8C
:1012C00089A99AA9ABA9BCA9B0588DA39EA3AFA325
:1012D000B8A79D8999A7AE89AAA7BF89BBA7ECA784
:1012E000F9A9FD8F2AA92E8F3BA93F8F8CA988A32E
:1012F00019A21AA290E89BA3AFE3ACA31DA61EA659
:101300001FA618AA198E1A8E1B8E1C8E012B09F48B
:10131000B4CE20E030E0A9016D897E898F89988D57
:101320000E94C02181111BC120E030E0A901698D1C
:101330007A8D8B8D9C8D0E94C02120E030E0A90128
:101340006D8D7E8D882309F4FDC18F8D98A10E943B
:10135000C0219DED292E96E0392E8601882309F4BF
:1013600007C1CE0101969C8B8B8BADB7BEB7BA8BF4
:10137000A98BD1018D919D910D90BC91A02D8D8750
:101380009E87AF87B88BF10184809580A680B78057
:10139000C084D184E284F38420E030E0A901C70155
:1013A000B6010E94C021811115C020E030E0A901E2
:1013B000C501B4010E94C02181110CC020E030E0C1
:1013C000A9016D857E858F8598890E94C02188231B
:1013D00009F488C0A70196016D897E898F89988D4F
:1013E0000E94F1222B013C01A50194016D8D7E8D9F
:1013F0008F8D98A10E94F1229B01AC01C301B20123
:101400000E9454212B013C012D853E854F85588932
:10141000698D7A8D8B8D9C8D0E94F1229B01AC0190
:10142000C301B2010E94542169837A838B839C8318
:10143000A70196016DA17EA18FA198A50E94F1221E
:101440002B013C01A501940169A57AA58BA59CA55A
:101450000E94F1229B01AC01C301B2010E94542100
:101460002B013C0120E030E0A9016D857E858F8550
:1014700098890E94F1229B01AC01C301B2010E9434
:1014800054216D837E838F839887A70196016DA574
:101490007EA58FA598A90E94F1226B017C0120E016
:1014A00030E0A901C501B4010E94F1229B01AC0109
:1014B000C701B6010E9454216B017C012D853E8538
:1014C0004F85588969A17AA18BA19CA10E94F12224
:1014D0009B01AC01C701B6010E94542169877A873C
:1014E0008B879C878CE0EB89FC89D10101900D9260
:1014F0008A95E1F70FB6F894DEBF0FBECDBF3CE092
:10150000230E311C0150110909F02FCFB6CDE92F60
:1015100089A99AA9ABA9BCA9B058898F9A8FAB8F1A
:10152000BC8F9D8999A3AE89AAA3BF89BBA3ECA355
:10153000F9A9FDA72AA92EA73BA93FA78CA988AB8B
:1015400019A61AA690E89BA7AFE3ACA71DA21EA2FE
:101550001FA218A61D8E1E8E1F8E18A2D7CE19AAE6
:101560001AAA1BAA1CAA1DAA1EAA1FAA18AECACD77
:10157000CE0101969C8B8B8BADB7BEB7BA8BA98B76
:10158000D1018D919D910D90BC91A02D8D879E874D
:10159000AF87B88BF10184809580A680B780C08426
:1015A000D184E284F38420E030E0A901C701B601D0
:1015B0000E94C021811115C020E030E0A901C501C1
:1015C000B4010E94C02181110CC020E030E0A901CB
:1015D0006D857E858F8598890E94C021882309F4B6
:1015E00088C0A70196016D897E898F89988D0E9498
:1015F000F1222B013C01A50194016D8D7E8D8F8D13
:1016000098A10E94F1229B01AC01C301B2010E948A
:1016100054212B013C012D853E854F855889698DCC
:101620007A8D8B8D9C8D0E94F1229B01AC01C301B0
:10163000B2010E94542169837A838B839C83A70122
:1016400096016DA17EA18FA198A50E94F1222B0188
:101650003C01A501940169A57AA58BA59CA50E94D2
:10166000F1229B01AC01C301B2010E9454212B0164
:101670003C0120E030E0A9016D857E858F85988949
:101680000E94F1229B01AC01C301B2010E945421CE
:101690006D837E838F839887A70196016DA57EA5B4
:1016A0008FA598A90E94F1226B017C0120E030E017
:1016B000A901C501B4010E94F1229B01AC01C7013F
:1016C000B6010E9454216B017C012D853E854F851A
:1016D000588969A17AA18BA19CA10E94F1229B014A
:1016E000AC01C701B6010E94542169877A878B87B4
:1016F0009C878CE0EB89FC89D10101900D928A9541
:10170000E1F70FB6F894DEBF0FBECDBF3CE0230E6D
:10171000311C0150110909F02FCFAFCC8DED96E0AF
:10172000DE011196BC8BAB8BAD012CE0FA01DC0124
:1017300001900D922A95E1F70C96B1E0CB1AD108F1
:10174000A1F79BCC8F8D98A10E94C021882331F3F3
:101750008DED282E86E0382E8601CE0101969C8BD9
:101760008B8BADB7BEB7BA8BA98BD1018D919D91F3
:101770000D90BC91A02D8D879E87AF87B88BF1010E
:1017800084809580A680B780C084D184E284F3846D
:1017900020E030E0A901C701B6010E94C0218111FB
:1017A00015C020E030E0A901C501B4010E94C021AC
:1017B00081110CC020E030E0A9016D857E858F8508
:1017C00098890E94C021882309F488C0A701960146
:1017D0006D897E898F89988D0E94F1222B013C01B1
:1017E000A50194016D8D7E8D8F8D98A10E94F122AF
:1017F0009B01AC01C301B2010E9454212B013C01A9
:101800002D853E854F855889698D7A8D8B8D9C8D70
:101810000E94F1229B01AC01C301B2010E9454213C
:1018200069837A838B839C83A70196016DA17EA136
:101830008FA198A50E94F1222B013C01A5019401E2
:1018400069A57AA58BA59CA50E94F1229B01AC01FC
:10185000C301B2010E9454212B013C0120E030E081
:10186000A9016D857E858F8598890E94F1229B0153
:10187000AC01C301B2010E9454216D837E838F832A
:101880009887A70196016DA57EA58FA598A90E94AE
:10189000F1226B017C0120E030E0A901C501B40117
:1018A0000E94F1229B01AC01C701B6010E945421A4
:1018B0006B017C012D853E854F85588969A17AA1F0
:1018C0008BA19CA10E94F1229B01AC01C701B60132
:1018D0000E94542169877A878B879C878CE0EB89EB
:1018E000FC89D10101900D928A95E1F70FB6F89429
:1018F000DEBF0FBECDBF3CE0230E311C01501109ED
:1019000009F02FCFBACB0F931F938C0120E030E06A
:101910009FB7F89440918E0750918F076091900780
:101920007091910786B5A89B06C08F3F21F04F5F4D
:101930005F4F6F4F7F4F9FBF762F652F542F4427E8
:10194000480F511D611D711D440F551F661F771FE4
:10195000440F551F661F771F01151105210531051D
:10196000C9F1FFB7F89480918E0790918F07A091ED
:101970009007B0919107E6B5A89B05C0EF3F19F01D
:101980000196A11DB11DFFBFBA2FA92F982F88273F
:101990008E0F911DA11DB11D880F991FAA1FBB1F7E
:1019A000880F991FAA1FBB1F841B950BA60BB70B93
:1019B000883E9340A105B105A0F20150110921090B
:1019C000310948515C4F6F4F7F4F011511052105BB
:1019D000310539F61F910F9108952F923F924F9242
:1019E0005F926F927F928F929F92AF92BF92CF92AF
:1019F000DF92EF92FF920F931F93CF93DF93CDB7B8
:101A0000DEB7AA970FB6F894DEBF0FBECDBF8C012C
:101A10007E8F6D8F58A74FA32DB73EB73AA729A742
:101A200040918401509185015EA34DA3DB016D912E
:101A30007D918D919C910E94CA219B01220F331FA1
:101A4000F901E60FF71FFCA3EBA380E090E0A0E410
:101A5000B0E48093D9069093DA06A093DB06B093A6
:101A6000DC061E161F060CF08CC50B8F1C8F1AA2ED
:101A700019A2EB8DFC8D8491ED8DFE8D24E0829F6B
:101A8000E00DF11D112480819181A281B3818093A9
:101A9000DD069093DE06A093DF06B093E006EB8DA3
:101AA000FC8D3196E4914D8D5E8D84E0E89F400D74
:101AB000511D1124FA0180819181A281B38180930B
:101AC000E1069093E206A093E306B093E406EB8D63
:101AD000FC8D3296E491AD8DBE8D24E0E29FA00D89
:101AE000B11D1124FD0180819181A281B381809378
:101AF000E5069093E606A093E706B093E806EB8D23
:101B0000FC8D3396E4914D8D5E8D84E0E89F400D11
:101B1000511D1124FA0180819181A281B3818093AA
:101B2000E9069093EA06A093EB06B093EC06EB8DE2
:101B3000FC8D3496E491AD8DBE8D24E0E29FA00D26
:101B4000B11D1124FD0180819181A281B381809317
:101B5000ED069093EE06A093EF06B093F006EB8DA2
:101B6000FC8D3596E4914D8D5E8D84E0E89F400DAF
:101B7000511D1124FA0180819181A281B38180934A
:101B8000F1069093F206A093F306B093F406EB8D62
:101B9000FC8D3696E491AD8DBE8D24E0E29FA00DC4
:101BA000B11D1124FD0180819181A281B3818093B7
:101BB000F5069093F606A093F706B093F806EB8D22
:101BC000FC8D3796E4914D8D5E8D84E0E89F400D4D
:101BD000511D1124FA0180819181A281B3818093EA
:101BE000F9069093FA06A093FB06B093FC06EB8DE2
:101BF000FC8D3896E491AD8DBE8D24E0E29FA00D62
:101C0000B11D1124FD0180819181A281B381809356
:101C1000FD069093FE06A093FF06B093000761E0D7
:101C20008DA19EA10E94E50760E08FE090E00E94F8
:101C3000E5076091D9067091DA068091DB069091F4
:101C4000DC060E94CA216115710509F477C54DEDC6
:101C500056E0588B4F878B011A018DB79EB7988736
:101C60008F83D1012D913D914D915C9113972B83E1
:101C70003C834D835E8314964D905D906D907C9077
:101C800017971896CD90DD90ED90FC901B97809162
:101C90008201EDB7FEB724E08202E019F1091124B8
:101CA0000FB6F894FEBF0FBEEDBF4DB75EB74F5FE6
:101CB0005F4F5A8349838090420190904301A090E6
:101CC0004401B090450120E030E0A901C501B40114
:101CD0000E94C02181111FC020E030E0A901609165
:101CE00046017091470180914801909149010E94FD
:101CF000C021811110C020E030E0A90160914A01AB
:101D000070914B0180914C0190914D010E94C02136
:101D1000882309F4D3C020E030E0A901C701B6014F
:101D20000E94C021811115C020E030E0A901C3014B
:101D3000B2010E94C02181110CC020E030E0A90155
:101D40006B817C818D819E810E94C021882309F452
:101D5000B5C0209146013091470140914801509112
:101D60004901C301B2010E94F1226B877C878D87F4
:101D70009E87A5019401C701B6010E94F1229B0133
:101D8000AC016B857C858D859E850E9454214B011D
:101D90005C0120914A0130914B0140914C015091DE
:101DA0004D016B817C818D819E810E94F1229B017E
:101DB000AC01C501B4010E945421A981BA816D937F
:101DC0007D938D939C93139720914E0130914F01F9
:101DD0004091500150915101C701B6010E94F1227A
:101DE0004B015C012091520130915301409154010B
:101DF00050915501C301B2010E94F1229B01AC0137
:101E0000C501B4010E9454214B015C01209156018F
:101E10003091570140915801509159016B817C815B
:101E20008D819E810E94F1229B01AC01C501B4010C
:101E30000E945421E981FA816483758386839783A4
:101E400020915A0130915B0140915C0150915D01FC
:101E5000C701B6010E94F1226B017C0120915E0155
:101E600030915F014091600150916101C301B20165
:101E70000E94F1229B01AC01C701B6010E945421CE
:101E80006B017C01209162013091630140916401FA
:101E9000509165016B817C818D819E810E94F12230
:101EA0009B01AC01C701B6010E945421A981BA81EE
:101EB00018966D937D938D939C931B978CE0E9818D
:101EC000FA81D10101900D928A95E1F7EF81F885B1
:101ED0000FB6F894FEBF0FBEEDBFFCE02F0E311C15
:101EE0000150110909F0B9CE6091D9067091DA0656
:101EF0008091DB069091DC060E94CA216115710574
:101F000009F41CC41B010F8518892DB73EB738870B
:101F10002F83D8018D919D910D90BC91A02D8B8325
:101F20009C83AD83BE83F801C480D580E680F780B2
:101F300080849184A284B3848091400144E084022F
:101F40002019310911240FB6F8943EBF0FBE2DBFE2
:101F50008DB79EB701969A838983209100013091B5
:101F600001014091020150910301C501B4010E9499
:101F7000F1222B013C012091040130910501409197
:101F8000060150910701C701B6010E94F1229B0191
:101F9000AC01C301B2010E9454212B013C012091EC
:101FA00008013091090140910A0150910B016B81A8
:101FB0007C818D819E810E94F1229B01AC01C30135
:101FC000B2010E94542120910C0130910D014091E9
:101FD0000E0150910F010E945421A981BA816D9385
:101FE0007D938D939C931397209110013091110153
:101FF0004091120150911301C501B4010E94F122D8
:102000002B013C01209114013091150140911601E2
:1020100050911701C701B6010E94F1229B01AC014A
:10202000C301B2010E9454212B013C0120911801EF
:102030003091190140911A0150911B016B817C81F3
:102040008D819E810E94F1229B01AC01C301B201EE
:102050000E94542120911C0130911D0140911E01CC
:1020600050911F010E945421E981FA816483758394
:102070008683978320912001309121014091220194
:1020800050912301C501B4010E94F1222B013C01B2
:102090002091240130912501409126015091270182
:1020A000C701B6010E94F1229B01AC01C301B2013C
:1020B0000E9454212B013C012091280130912901DB
:1020C00040912A0150912B016B817C818D819E81F1
:1020D0000E94F1229B01AC01C301B2010E94542174
:1020E00020912C0130912D0140912E0150912F0112
:1020F0000E945421A981BA8118966D937D938D9386
:102100009C931B9720913001309131014091320115
:1021100050913301C501B4010E94F1224B015C01D1
:1021200020913401309135014091360150913701B1
:10213000C701B6010E94F1229B01AC01C501B401A7
:102140000E9454216B017C012091380130913901AA
:1021500040913A0150913B016B817C818D819E8140
:102160000E94F1229B01AC01C701B6010E945421DB
:1021700020913C0130913D0140913E0150913F0141
:102180000E945421E981FA81648775878687978741
:102190008CE0D80101900D928A95E1F72F81388566
:1021A0000FB6F8943EBF0FBE2DBF045F1F4F31E046
:1021B000231A310809F0A9CE6091D9067091DA0688
:1021C0008091DB069091DC060E94CA21CB01880F2A
:1021D000991FAC01460F571F58A34F8F89ED96E00A
:1021E0009C838B83A1E0B0E0BA8FA98F9D01241757
:1021F00035070CF0B6C120E030E040E852E4AB8196
:10220000BC8114966D917D918D919C9117970E9440
:1022100054210E94CA21698B7A8B8B8B9C8BE98914
:10222000FA89FA83E98320E030E040E052E4AB81B0
:10223000BC8118966D917D918D919C911B970E9408
:1022400054210E94CA214B015C011B0120E030E0B7
:1022500040E852E4EB81FC8160897189828993892D
:102260000E9454210E94CA216B017C013B0120E0A5
:1022700030E040E052E4AB81BC8154966D917D9199
:102280008D919C9157970E9454210E94CA216D8B79
:102290007E8B8F8B988FED89FE89F88BEF8720E0FE
:1022A00030E040E852E4AB81BC815C966D917D9159
:1022B0008D919C915F970E9454210E94CA216F8347
:1022C000788789879A870F81188520E030E040E081
:1022D00052E4EB81FC8160A171A182A193A10E94D3
:1022E00054210E94CA217C876B87298D3A8D275FF4
:1022F0003F4F3A8F298F4F855889481559050CF063
:102300008EC1681579050CF0FCC169887A88DA827B
:10231000C9829B01241735070CF01EC22215330514
:1023200009F491C1A90129813A81201B310B388719
:102330002F838F849888841A950A2301401A510AA2
:102340005101A41AB50AF30129813A81E21BF30B6A
:10235000FA8BE98BA1018F859889481B590B5E8BFD
:102360004D8B3C018215930519F091E0691A7108B3
:10237000EB85FC856E167F060CF4DCC1C12CD12CDC
:10238000E12CF12C05C031966E167F060CF457C077
:10239000C701B4010E94AF239B01200F311FC6016A
:1023A000B5010E94AF23600F711F4F815885E40E65
:1023B000F51EC40CD51C621773071CF0962FB901CB
:1023C000292FE034F105F8F62F5F261BCB01820F91
:1023D000911D18161906BCF660387105A4F677FD34
:1023E000A6C18138910514F080E890E0861BDF01DA
:1023F000B595A795B595A795B595A795B695BA2F17
:10240000AA27B795A795A60FB71FA852BD4F9F0142
:102410002770332751E001C0550F2A95EAF7252F81
:102420009FEF980F882309F4AECF8C91822B8D9368
:102430009150D8F731966E167F060CF0A9CF8FEF2A
:10244000681A780AC301EB85FC858E1B9F0B849D5F
:102450007001859DF00C949DF00C1124C3012F8513
:102460003889821B930B49895A89849FF001859F83
:10247000F00D949FF00D1124261437040CF464C061
:102480004A01CD88DE8807C08FEF681A780A2614C3
:1024900037040CF459C0CF01B6010E94AF23298143
:1024A0003A81260F371FC701B5010E94AF23600F85
:1024B000711FE80DF91DE40CF51C621773071CF081
:1024C000962FB901292F50E465167104E8F62F5FA5
:1024D000261BCB01820F911D18161906ACF6603829
:1024E000710594F677FD20C18138910514F080E8DC
:1024F00090E0861BD301B595A795B595A795B595A1
:10250000A795B695BA2FAA27B795A795A60FB71F77
:10251000A852BD4F93012770332791E001C0990F56
:102520002A95EAF7292F9FEF980F882309F4ACCF5B
:102530008C91822B8D939150D8F78FEF681A780A7F
:10254000261437040CF0A7CFEB81FC81B496FC83F2
:10255000EB83298D3A8D4F8D58A1241735070CF444
:102560004ACEA9A1BAA11996BAA3A9A3EB8DFC8D55
:102570003996FC8FEB8F2BA13CA1A217B3070CF46B
:102580007ACA2FA138A52115310549F1F901249105
:102590003196E491822F90E0853591050CF025E588
:1025A00081E09E2F977009F4CCC0E695E695E695FC
:1025B0008E0FA9F0EFA1F8A53296222381F0A3E8AF
:1025C000B6E0215030E02F5F3F4F2E0F3F1F849128
:1025D0009C91892B8D933196E217F307C1F789A55A
:1025E0009AA50FB6F8949EBF0FBE8DBFAA960FB6E0
:1025F000F894DEBF0FBECDBFDF91CF911F910F9139
:10260000FF90EF90DF90CF90BF90AF909F908F9012
:102610007F906F905F904F903F902F9008959A0118
:102620004B855C85421753070CF476C038019C86B5
:102630008B861B0109891A89DA82C98294012215C5
:10264000330509F06FCE49815A81401751075CF07C
:10265000902F812F0417150714F499818A811A830A
:102660000983092F182F89819A816816790634F019
:10267000061517050CF4830169807A80EB85FC85CB
:10268000E034F10508F060CF0F5F06199301200FC9
:10269000311D121613060CF057CFF0E86F167104B7
:1026A0000CF052CFC30177FC54C02138310514F02F
:1026B00020E830E0322F381BEB85FC85F595E79557
:1026C000F595E795F595E795F695FE2FEE27F795A5
:1026D000E795E80FF91FE852FD4F8B859C858770C1
:1026E000992721E001C0220F8A95EAF79FEF930F07
:1026F000332309F429CF8081822B81939150D8F71D
:1027000023CF3801ED89FE89FC87EB87988A8F8675
:102710001B0186019F0102CE2D883E88988A8F86F4
:102720009A014F855889F6CD60E070E0DDCE60E01B
:1027300070E057CE3F01E12CF12C90CE60E070E0CC
:1027400045CD80E0E695E695E6958E0F09F032CF0F
:1027500046CF80E090E0A9CF5C874B87788B6F876E
:1027600009811A818F8198859A8389839A01D6CDB0
:102770001F920F920FB60F921124CF92DF92EF9219
:10278000FF920F931F932F933F934F935F936F93FA
:102790007F938F939F93AF93BF93EF93FF93CF93C9
:1027A000DF93CDB7DEB76D97DEBFCDBF1092E900E6
:1027B0008091E80083FF9EC08091F1008D8B809115
:1027C000F1008E8B8091F1008F8B8091F100888FCA
:1027D0008091F100898F8091F1008A8F8091F100C2
:1027E0008B8F8091F1008C8F289884E680938B07E3
:1027F00082EF8093E8009D8997FD4FC08EEF809314
:10280000E800892F807609F051C08E894F89588D54
:102810002F89D88C882309F494C0813009F449C1E8
:10282000833009F452C1853009F483C0863009F43D
:102830007BC1873009F45BC0883009F471C18930ED
:1028400009F086C0937009F052C081E08093E900DE
:102850008093EB0091EC9093EC0096E39093ED0065
:1028600022E02093E9008093EB0020E82093EC0025
:102870009093ED0023E02093E9008093EB0081E842
:102880008093EC009093ED008EE78093EA00109225
:10289000EA008F8980938D075BC08091E80080FDFE
:1028A000B0CF8091E80080FFF8CFABCF8B8D9C8DAF
:1028B0001092E90010927C0710927B0790937A07A0
:1028C00080937907298D222309F446C080918307DC
:1028D000811107C182E080937F0784E080938007A5
:1028E000109282071092810781E08093830781E232
:1028F0008093EB006D960FB6F894DEBF0FBECDBF90
:10290000DF91CF91FF91EF91BF91AF919F918F9107
:102910007F916F915F914F913F912F911F910F91F7
:10292000FF90EF90DF90CF900F900FBE0F901F9011
:1029300018958091E80080FFFCCF20682093E30089
:1029400007C0903809F4AEC01092F1001092F10067
:102950008EEF8093E800CECF3E892D89213A09F48D
:1029600068C0213221F6333209F450C13032C9F146
:10297000323271F78F8980939101EEEFFFE78591F5
:1029800094918B3F9C4D09F493C1E0E0F8E080E026
:1029900098E040918A0150918B0160918C01709177
:1029A0008D01403B54406105710509F45DC12081F2
:1029B00031812737374761F6A8952091600028615B
:1029C0002093600020917E07209360008E3F9A4004
:1029D00009F4E2C28091FE0A9091FF0A91838083FC
:1029E000B7CF8091E80082FFFCCF8091F100809307
:1029F0008A018091F10080938B018091F100809396
:102A00008C018091F10080938D018091F100809381
:102A10008E018091F10080938F018091F10080936D
:102A20009001289884E680938B078BEF8093E800D1
:102A30008FCF313209F05BCFEAE8F1E020E030E0FF
:102A40004EEF10C02F5F3F4F30937C0720937B07E2
:102A50003196B1E0E139FB0709F47ACF809179072B
:102A600090917A07281739076CF78091E8008570F4
:102A7000E1F38091E80082FD6BCF80818093F100CB
:102A800020917B0730917C072F5F3F4FC9018F73E7
:102A90009927892BC9F64093E80020917B07309154
:102AA0007C07D0CF80917D078093F1001092F100D8
:102AB0004FCF91114DCF4130510509F049CF809151
:102AC0007D078D7F80937D0743CF911141CF4130AA
:102AD000510509F03DCF80917D07826080937D078D
:102AE00037CF00918107109182070115110509F474
:102AF000FECEFE0175967F0107C0F80100851185A5
:102B00000115110509F4F3CED801ED91FC91019066
:102B1000F081E02DB701C8010995882371F318CF22
:102B200081E08093F10014CF22E0D21609F4C5C0F1
:102B30008B8D9C8D1092E90010927C0710927B0780
:102B400090937A07809379078091830781116BC0F6
:102B500082E080937F0784E0809380071092820751
:102B60001092810781E080938307F1E0DF1609F47A
:102B70009BC1F3E0DF12BBCE8F89882309F40FC21B
:102B8000823009F41AC2813009F410C2833009F08E
:102B9000AECE8091830781110DC082E080937F07C4
:102BA00084E080938007109282071092810781E071
:102BB000809383070091810710918207CE010196CF
:102BC0007C016C010EC0D801ED91FC910680F7816B
:102BD000E02DB601C8010995C80ED11CF801008589
:102BE00011850115110579F7D6011C92F7010190A5
:102BF0000020E9F73197BF016E197F0940E0C70156
:102C00000E946E1F882309F472CEA2CE8F89988D00
:102C1000A0E0B0E08093860190938701A0938801A3
:102C2000B093890195CE009181071091820701151B
:102C3000110509F49ACFCE0145967C0107C0F80131
:102C4000008511850115110509F48FCFD801ED918B
:102C5000FC910480F581E02DB701C801099500972A
:102C600071F30CF075CE43CE2091910120FD9FCEE3
:102C70008E3F9A4051F080819181873747E79407D2
:102C800021F09093FF0A8093FE0A87E797E79183EC
:102C900080838091600080937E079BE088E10FB67F
:102CA000F894A895809360000FBE9093600050CE7A
:102CB000EEEFFAE08EEF9AE06CCE0B8D1C8D109249
:102CC000E90010927C0710927B0710927A0710920D
:102CD0007907D982EBE5FEE020E030E080E090E08B
:102CE0005EEF4491821793077CF0019690937C07E6
:102CF00080937B0731964EE0ED39F40701F1209186
:102D0000790730917A07EDCF8091E8008570E1F383
:102D10008091E80082FD13C04093F10080917B0711
:102D200090917C0701969C012F733327232BF1F69A
:102D30005093E80080917B0790917C07D6CF8091DB
:102D400083078111EEC082E080937F0784E0809347
:102D50008007109282071092810781E08093830799
:102D6000CE0101967C01298189E0D701E82F1D92CF
:102D7000EA95E9F7898382E08A8381E08E8380EA9D
:102D800088878AEF898780917B0790917C070996D5
:102D90009C838B832D831092E90010927C07109204
:102DA0007B0710937A0700937907F701AE01465F1E
:102DB0005F4F20E030E09EEF0AC02F5F3F4F30931F
:102DC0007C0720937B073196E417F50731F1201734
:102DD00031079CF78091E8008570E1F38091E8006D
:102DE00082FD1BC080818093F10020917B07309190
:102DF0007C072F5F3F4FB9016F737727672B41F433
:102E00009093E80020917B0730917C072F5F3F4F24
:102E10000091790710917A07D2CF82E08D8FEBE590
:102E2000FEE04EEF0FC02F5F3F4F30937C072093A3
:102E30007B0731968EE0ED39F80721F10091790793
:102E400010917A079491201731076CF78091E80070
:102E50008570E1F38091E80082FD14C09093F10049
:102E600020917B0730917C072F5F3F4FC9018F7303
:102E70009927892BD1F64093E80020917B07309168
:102E80007C07D1CF80918307811169C082E0809354
:102E90007F0784E080938007109282071092810759
:102EA00081E08093830754CD61EA7EE0FB01449189
:102EB000442309F44DCD80917B0790917C07BEEFB0
:102EC00050E0A4912091790730917A0782179307F7
:102ED0006CF0019690937C0780937B0731969F015D
:102EE000241B350B2617370761F732CD8091E80098
:102EF0008570E1F38091E80082FD2ACDA093F10076
:102F000080917B0790917C0701969C012F7333275A
:102F1000232B01F7B093E80080917B0790917C0709
:102F2000D8CFC0908107D0908207C114D104D1F1CD
:102F3000FE0131967F0107C0F601C084D184C1141F
:102F4000D10409F410CFD601ED91FC910280F381F8
:102F5000E02DB701C601099597FD05CFEDCF009192
:102F60008107109182070115110541F4F1CCF80198
:102F7000008511850115110509F4EACCD801ED9100
:102F8000FC910280F381E02DBE01635E7F4FC8019A
:102F9000099597FDDDCCEBCF11821082D9CC6DE97C
:102FA0007EE084CFDE0111967D01DDCE40E86BE04E
:102FB00083EB9EE00E946E1F25CE40E860E18FEB20
:102FC0009EE00E946E1F1ECE6F927F929F92AF92E4
:102FD000BF92CF92DF92EF92FF920F931F93CF9306
:102FE000DF933C0120919101211115C021E030E0D7
:102FF000F3013383228380E090E0DF91CF911F9132
:103000000F91FF90EF90DF90CF90BF90AF909F9087
:103010007F906F90089520918D07222339F320919E
:103020008C0720FDAEC0FA0190E0BAEFA3E080E487
:10303000A82E2AE3B22E309719F4992309F4A7C0D9
:103040003FB7F894A093E9002091E80025FF34C031
:103050002091F2008A2D821B282F3FBF882369F11F
:10306000082F10E0E017F1070CF42E2FFFB6F894AC
:10307000A093E9003091E80035FF1CC0E21BF10984
:10308000EE24EA94E20E222379F08B012E2DE80142
:1030900039918E013093F1002150C8F72E2D30E088
:1030A0002F5F3F4F620F731F992309F45DC0B092E9
:1030B000E80090E0FFBEBFCF3FBFB15009F496CF0C
:1030C0003FB7F894C0908E07D0908F07E09090079C
:1030D000F090910726B5A89B07C02F3F29F0CFEFAE
:1030E000CC1ADC0AEC0AFC0A3FBFFE2CED2CDC2CCF
:1030F000CC24C20ED11CE11CF11CCC0CDD1CEE1C3E
:10310000FF1CCC0CDD1CEE1CFF1C9FB6F89400913C
:103110008E0710918F07209190073091910786B507
:10312000A89B06C08F3F21F00F5F1F4F2F4F3F4FCF
:103130009FBE322F212F102F0027080F111D211D98
:10314000311D000F111F221F331F000F111F221FDF
:10315000331F0C191D092E093F09083E1340210594
:10316000310508F068CFD1CF2091E80025FDA2CF2E
:10317000B092E80091E0309709F49CCF90E0FFBE58
:103180005ACF2091E00022602093E0004CCF5D9860
:1031900024E620939D07141615060CF027CFCA01CC
:1031A0002CCFCF93DF931F92CDB7DEB76983DC01BD
:1031B000ED91FC910280F381E02D41E050E0BE01F1
:1031C0006F5F7F4F09950F90DF91CF91089583E056
:1031D0008093E9008091F200882319F08AE38093BC
:1031E000E80008952FB7F89483E08093E900809178
:1031F000E80085FF07C09091F20080E4891B90E011
:103200002FBF089580E090E02FBF0895CF93DF9304
:103210001F92CDB7DEB7FC018485958597FD08C068
:103220002FEF3FEF358724870F90DF91CF910895DF
:1032300080918D07811103C08FEF9FEFF5CF4FB7BE
:10324000F89482E08093E9008091F20090E01816F3
:10325000190614F481E090E00097E9F0FE01319640
:103260009E012E5F3F4F94E6289890938B078091A4
:10327000F1008193E217F307B9F78091F200811111
:1032800003C08BE68093E8004FBF898190E00F90E8
:10329000DF91CF910895892B81F74FBFCDCFCF9389
:1032A000DF931F92CDB7DEB7DC011C968D919C9108
:1032B0001D9797FD04C00F90DF91CF9108958091E5
:1032C0008D0781110AC08FEF9FEF1D969C938E93FF
:1032D0001C970F90DF91CF9108954FB7F89482E03B
:1032E0008093E9008091F20090E01816190614F41A
:1032F00081E090E00097D9F0FE0131969E012E5FAB
:103300003F4F84E6289880938B079091F10091932A
:10331000E217F307B9F78091F200811103C08BE641
:103320008093E8004FBF9981892F90E0CECF892B01
:1033300091F74FBFC8CFFC018485958597FD0BC0E1
:103340009FB7F89482E08093E9008091F2009FBFDC
:1033500090E0019608959FB7F89482E08093E90089
:103360008091F2009FBF90E008950F931F939FB745
:10337000F89440918E0750918F076091900770915B
:10338000910786B5A89B06C08F3F21F04F5F5F4F26
:103390006F4F7F4F9FBF762F652F542F4427480FC5
:1033A000511D611D711D440F551F661F771F440F6E
:1033B000551F661F771F02E310E020E030E0FFB7E3
:1033C000F89480918E0790918F07A0919007B0910B
:1033D0009107E6B5A89B05C0EF3F19F00196A11D26
:1033E000B11DFFBFBA2FA92F982F88278E0F911DCF
:1033F000A11DB11D880F991FAA1FBB1F880F991F00
:10340000AA1FBB1F841B950BA60BB70B883E9340CE
:10341000A105B105A0F20150110921093109485156
:103420005C4F6F4F7F4F011511052105310539F6AE
:103430001F910F9108950F931F939FB7F894409198
:103440008E0750918F07609190077091910786B514
:10345000A89B06C08F3F21F04F5F5F4F6F4F7F4F9C
:103460009FBF762F652F542F4427480F511D611D94
:10347000711D440F551F661F771F440F551F661F90
:10348000771F08EC10E020E030E0FFB7F89480915F
:103490008E0790918F07A0919007B0919107E6B5A4
:1034A000A89B05C0EF3F19F00196A11DB11DFFBFFC
:1034B000BA2FA92F982F88278E0F911DA11DB11DFE
:1034C000880F991FAA1FBB1F880F991FAA1FBB1F18
:1034D000841B950BA60BB70B883E9340A105B10545
:1034E000A0F2015011092109310948515C4F6F4F79
:1034F0007F4F011511052105310539F61F910F91F7
:1035000008951F920F920FB60F9211248F939F93DD
:103510008091E1009091E100937F9093E10083FF1F
:103520000FC01092E90091E09093EB001092EC0034
:1035300092E39093ED0010928D0798E09093F00045
:1035400082FF1AC093E09093E9009091F2009923D2
:1035500019F09AE39093E80090919D07992341F028
:1035600090919D07915090939D07911101C05D9A94
:1035700090918B0791111CC084FD24C080FF11C065
:103580008091E2008E7E80618093E2008091E10074
:103590008E7E8093E10080918C078E7E8160809387
:1035A0008C079F918F910F900FBE0F901F901895D1
:1035B00090918B07915090938B079111DDCF289AB2
:1035C00084FFDCCF8091E2008E7E81608093E200F8
:1035D0008091E1008F7E8093E10080918C078E7E48
:1035E000806180938C079F918F910F900FBE0F90F9
:1035F0001F9018951F920F920FB60F9211242F93C0
:103600003F938F939F93AF93BF9380919E07909129
:103610009F07A091A007B091A1073091A20723E0D6
:10362000230F2D3768F126E8230F0296A11DB11D47
:103630002093A20780939E0790939F07A093A007D3
:10364000B093A10780918E0790918F07A09190076A
:10365000B09191070196A11DB11D80938E079093A3
:103660008F07A0939007B0939107BF91AF919F915F
:103670008F913F912F910F900FBE0F901F90189533
:103680000196A11DB11DD4CFCF93DF9300D000D000
:10369000CDB7DEB7789484B5826084BD84B581608F
:1036A00084BD85B5826085BD85B5816085BD80910D
:1036B0006E00816080936E00109281008091810085
:1036C000826080938100809181008160809381007D
:1036D0008091800081608093800080919100826061
:1036E00080939100809191008160809391008091FE
:1036F00090008160809390008091C10084608093ED
:10370000C1008091C10082608093C1008091C1009E
:1037100081608093C1008091C30081608093C30069
:103720008091C00082608093C0008091C20081605F
:103730008093C20080917A00846080937A008091A7
:103740007A00826080937A0080917A008160809311
:103750007A0080917A00806880937A0010928D07B9
:1037600010927D0710928C078091D7008160809322
:10377000D70080EA8093D80089B5806189BD89B57A
:10378000826089BD09B400FEFDCF3FB7F8948091F7
:103790008E0790918F07A0919007B091910726B561
:1037A000A89B05C02F3F19F00196A11DB11D3FBF79
:1037B0004427582F692F7A2F420F511D611D711D0B
:1037C000440F551F661F771F440F551F661F771F35
:1037D0003FB7F89480918E0790918F07A091900742
:1037E000B091910726B5A89B05C02F3F19F001960F
:1037F000A11DB11D3FBFBA2FA92F982F8827820F77
:10380000911DA11DB11D880F991FAA1FBB1F880FF5
:10381000991FAA1FBB1F841B950BA60BB70B883ED5
:103820009340A105B105A0F28091D8008F7C806102
:103830008093D8008091E000807F8093E0008091A9
:10384000E1008E7E8093E1008DE08093E200559A46
:10385000209A81EC80937C0085B1806F85B984B11A
:10386000877E84B984B1876E84B95E9A5F988AB185
:10387000806D8AB9769A6E9881B3806F81BB899882
:1038800080B38D7080BB80E58CBD81E08DBD85E00F
:1038900090E00E94830C5F9A85E090E00E94830C88
:1038A0005E985C98EAECF0E084918EBD00000DB467
:1038B00007FEFDCF319610E0E73DF107A9F75C9ACE
:1038C00081E8809364008091650081608093650049
:1038D00038ED232E32E0332EF10180E0A0E0B8E095
:1038E00000800EBC8111012C1197A0FDFDCF01922B
:1038F000B9F70DB48FB18095807F669B88601C9B63
:10390000846087FD34C18FB18095807F669B88601D
:103910001C9B846082FF5EC02D988FB18095807F54
:10392000669B88601C9B84608478843869F08FB1C2
:103930008095807F669B88601C9B84608471843145
:1039400031F10E941B1ADFCF2D9A0E941B1A2F986B
:1039500082E090E00E94DA208F3F29F06FEF82E052
:1039600090E00E94E22084EF91E00E94830C2F9A65
:103970008FB18095807F982F98606699982F892FB6
:1039800084601C99892F8478843891F3D0CF2D9A44
:103990000E941B1A2E9882E090E00E94DA20882371
:1039A00029F060E082E090E00E94E22084EF91E064
:1039B0000E94830C2E9A8FB18095807F982F9860FB
:1039C0006699982F892F84601C99892F847184317E
:1039D00091F3B7CF2D9A82E090E00E94DA20811116
:1039E000DDC03E983F980E94B5198FB18095807FC9
:1039F000669BD2C01C9BF7CF8111F5CF89E28093E3
:103A00009907809164008E7F8093640080917A0092
:103A1000806480937A0080917A0086FDFCCF60916B
:103A2000780070917900CB01A0E0B0E0BC0155278F
:103A300044273FB7F89480918E0790918F07A0910B
:103A40009007B091910726B5A89B05C02F3F19F0AC
:103A50000196A11DB11D3FBFBA2FA92F982F88270E
:103A6000820F911DA11DB11D880F991FAA1FBB1F99
:103A7000880F991FAA1FBB1F8C019D01040F151FE2
:103A8000261F371FC901B801012B022B032B11F090
:103A90000E94D1208091640081608093640080E066
:103AA00090E0A0E8BFE38093420190934301A0938C
:103AB0004401B09345018093520190935301A09328
:103AC0005401B09355018093620190936301A093D8
:103AD0006401B093650183E08093830184E0809367
:103AE00040018093410180E4E6E9F1E0A0E0B1E02B
:103AF00001900D928A95E1F7F9E54F2EF1E05F2EE6
:103B0000912CA0E8AA2EB12CDD24D39400E010E083
:103B10001A8309830DC090919907191708F041C0C5
:103B20008F5F891708F4A7C109811A81012BE1F47D
:103B30008FB7F89440919E0750919F076091A0071E
:103B40007091A1078FBF80919A07142F181B812FA6
:103B500090919B079923F9F210939C0710929B0771
:103B600009811A81012B21F30E940000E1CF5C98AA
:103B700085EA8EBD00000DB407FEFDCF5C9A2E983D
:103B80002F982D988091640080628093640081E07A
:103B900083BF889513BEFCCF83B125CF3E9A3F9A51
:103BA00022CFD0929B0740939A07809195079091DE
:103BB000960701969093960780939507C090970774
:103BC000C09298078FB18095807F669B88601C9B10
:103BD000846080939707892DF10181118FEF002474
:103BE00081938193819381930394D1F70091D806B7
:103BF0000B83013009F444C10CF42CC1023009F4E8
:103C00004AC1033051F44BED51E066ED71E087E0BD
:103C100092E00E94ED0CC0909807F2016490EAE5F2
:103C2000F1E09491662D70E06D3771050CF0E9C0FC
:103C3000AB0181E0292F277009F480E096959695D5
:103C40009695890F873008F4F1C086E0641B750BE8
:103C500085010619110942E0742E780E52E0852E76
:103C6000EBE5F1E023E031E04FEF460D50E04F5F30
:103C70005F4FFB80662009F4DCC087FCB0C0D9012F
:103C8000A852BD4FCF01840F951F9C838B838491D5
:103C90009C91892B8D9331968B819C81E817F90734
:103CA000B1F7240F351FFC018394E60FF71F200F97
:103CB000311F7810DFCFFB82E7EDF0E06490E8ED94
:103CC000F0E09491062D10E0033211050CF094C041
:103CD000A80181E0292F277009F480E09695969538
:103CE0009695890F873008F491C086E07501E61833
:103CF000F108041B150B92E0792E780E22E0822E3B
:103D0000E9EDF0E04DE551E06FEF660D70E06F5FBB
:103D10007F4F662009F490C087FC58C0DA01A85292
:103D2000BD4F9F01260F371F84919C91892B8D9346
:103D300031962E173F07C1F7460F571F8394F9019D
:103D4000E00FF11F4E0D5F1D7810E3CF0B810130A6
:103D500009F462C002300CF471C0023009F4A6C04C
:103D6000033049F4809184019091850103969093EA
:103D7000850180938401C5FC09C08091970785FF68
:103D800005C01B8111501B831093D806C6FC09C0C7
:103D90008091970786FF05C00B810F5F0B8300930F
:103DA000D8060B8107FD63C0043014F01092D806CA
:103DB000F10180E098E000800EBC9110012C019789
:103DC00080FDFDCF0192B9F70DB4AECE9F01260F55
:103DD000371F84913196E217F307D9F7ADCFCF01A2
:103DE000840F951F9C838B83849131968B819C815A
:103DF000E817F907C9F755CF43E250E033E2632EE5
:103E000068CF4DE750E0EDE76E2E13CF81116ECFF6
:103E10000B81013009F09ECF809184019091850142
:103E200005969093850180938401A5CF81110ECFD3
:103E300043CFFC83EB8338CF9F0180CF01119BCF11
:103E400080918401909185010796909385018093DC
:103E5000840191CF0111E1CE49E05AE06AE772E0B6
:103E600085E39AE00E94ED0CC0909807D6CE13E04F
:103E70001093D8069DCF21E023BF889513BE54CE62
:103E80004FE856E06EE372E08BEB96E00E94ED0C9B
:103E9000C0909807C2CE47EB53E06AE072E083EE31
:103EA00093E00E94ED0CC0909807B7CE80918401FA
:103EB00090918501049690938501809384015BCF56
:103EC000E2E9F7E086ED92E0918380831582168225
:103ED00080E187831482138211860895E0917B0725
:103EE000F0917C072091790730917A07E217F30768
:103EF000D4F42091E8002570E1F32091E80022FD40
:103F00001CC0262F220F2E5F2093F10020917B07EB
:103F100030917C072F5F3F4F2F733327232B19F4EA
:103F20002EEF2093E80020917B0730917C072F5FD4
:103F30003F4F30937C0720937B07E0917B07F09104
:103F40007C072091790730917A07E217F307C4F4D0
:103F50002091E8002570E1F32091E80022FD1AC0CD
:103F600023E02093F10020917B0730917C072F5FA5
:103F70003F4F2F733327232B19F42EEF2093E800A4
:103F800020917B0730917C072F5F3F4F30937C0758
:103F900020937B07582FFC017EEF8E2F851B861701
:103FA00008F064C047FF02C0949101C09081A091C5
:103FB0007B07B0917C072091790730917A07A2178F
:103FC000B307ACF48091E8008570E1F38091E800DC
:103FD00082FD18C09093F10080917B0790917C073F
:103FE00001968F739927892B11F47093E8008091C3
:103FF0007B0790917C07019690937C0780937B07C9
:1040000081E001C080E0A0917B07B0917C07209106
:10401000790730917A07A217B307B4F49091E800BA
:104020009570E1F39091E80092FD1AC01092F100B2
:1040300020917B0730917C072F5F3F4F2F733327F1
:10404000232B11F47093E80020917B0730917C07BB
:104050002F5F3F4F30937C0720937B0791E001C097
:1040600090E089233196811198CF089581E00895D9
:104070008F929F92AF92BF92CF92DF92EF92FF9278
:10408000CF93DF93EC01688179818A819B816115EF
:1040900071058105910521F464E279ED8BE597E0E6
:1040A0002DE133EF41E050E00E94F02049015A0138
:1040B0009B01AC01A7EAB1E40E940F216B017C01D6
:1040C000ACEEB4EFA50194010E941D21DC01CB01EF
:1040D0008C0D9D1DAE1DBF1DB7FF03C00197A1092B
:1040E000B04888839983AA83BB83BC01CD019F77A5
:1040F000DF91CF91FF90EF90DF90CF90BF90AF9086
:104100009F908F9008958F929F92AF92BF92CF927F
:10411000DF92EF92FF9260919201709193018091F2
:10412000940190919501611571058105910521F426
:1041300064E279ED8BE597E02DE133EF41E050E06B
:104140000E94F02049015A019B01AC01A7EAB1E4A9
:104150000E940F216B017C01ACEEB4EFA50194012C
:104160000E941D21DC01CB018C0D9D1DAE1DBF1DCC
:10417000B7FF03C00197A109B048809392019093C3
:104180009301A0939401B0939501BC01CD019F7759
:10419000FF90EF90DF90CF90BF90AF909F908F9067
:1041A000089560939201709393018093940190938A
:1041B00095010895F999FECF92BD81BDF89A99278E
:1041C00080B50895262FF999FECF1FBA92BD81BD03
:1041D00020BD0FB6F894FA9AF99A0FBE0196089589
:1041E000052E97FB1EF400940E94072157FD07D06F
:1041F0000E94222107FC03D04EF40C940721509515
:104200004095309521953F4F4F4F5F4F08959095C2
:104210008095709561957F4F8F4F9F4F08950E94B5
:104220004421A59F900DB49F900DA49F800D911DDA
:1042300011240895B7FF0C940F210E940F21821BB7
:10424000930B0895A1E21A2EAA1BBB1BFD010DC002
:10425000AA1FBB1FEE1FFF1FA217B307E407F50736
:1042600020F0A21BB30BE40BF50B661F771F881F12
:10427000991F1A9469F760957095809590959B01A8
:10428000AC01BD01CF010895A29FB001B39FC00151
:10429000A39F700D811D1124911DB29F700D811D72
:1042A0001124911D08955058BB27AA270E946B2105
:1042B0000C94A3220E946A2238F00E94712220F0FE
:1042C00039F49F3F19F426F40C9467220EF4E0951C
:1042D000E7FB0C946122E92F0E94C82258F3BA1719
:1042E000620773078407950720F079F4A6F50C940C
:1042F000EA220EF4E0950B2EBA2FA02D0B01B90186
:1043000090010C01CA01A0011124FF27591B99F04B
:10431000593F50F4503E68F11A16F040A22F232F57
:10432000342F4427585FF3CF469537952795A795A7
:10433000F0405395C9F77EF41F16BA0B620B730B4E
:10434000840BBAF09150A1F0FF0FBB1F661F771FBF
:10435000881FC2F70EC0BA0F621F731F841F48F474
:10436000879577956795B795F7959E3F08F0B0CFFD
:104370009395880F08F09927EE0F979587950895E4
:104380000E943D2208F481E008950E947A22E3957C
:104390000C94B4220E94D1216894B1110C94EB22A8
:1043A00008950E94D02288F09F5798F0B92F99273E
:1043B000B751B0F0E1F0660F771F881F991F1AF010
:1043C000BA95C9F714C0B13091F00E94EA22B1E069
:1043D00008950C94EA22672F782F8827B85F39F068
:1043E000B93FCCF3869577956795B395D9F73EF4A9
:1043F00090958095709561957F4F8F4F9F4F089551
:10440000E89409C097FB3EF490958095709561956E
:104410007F4F8F4F9F4F9923A9F0F92F96E9BB2724
:104420009395F695879577956795B795F111F8CFA0
:10443000FAF4BB0F11F460FF1BC06F5F7F4F8F4F0B
:104440009F4F16C0882311F096E911C0772321F001
:104450009EE8872F762F05C0662371F096E8862F99
:1044600070E060E02AF09A95660F771F881FDAF7F0
:10447000880F9695879597F90895990F0008550F1D
:10448000AA0BE0E8FEEF16161706E807F907C0F0DA
:1044900012161306E407F50798F0621B730B840BE2
:1044A000950B39F40A2661F0232B242B252B21F4BC
:1044B00008950A2609F4A140A6958FEF811D811D5C
:1044C000089597F99F6780E870E060E008959FEF96
:1044D00080EC089500240A9416161706180609069B
:1044E000089500240A94121613061406050608956A
:1044F0000C9467220E94D022D8F3E894E0E0BB2716
:104500009F57F0F02AED3FE049EC06C0EE0FBB0FDD
:10451000661F771F881F28F0B23A62077307840767
:1045200028F0B25A620B730B840BE3959A9572F7DD
:10453000803830F49A95BB0F661F771F881FD2F71B
:1045400090480C946823092E0394000C11F48823DE
:1045500052F0BB0F40F4BF2B11F460FF04C06F5F3B
:104560007F4F8F4F9F4F0895EF93E0FF07C0A2EA60
:104570002AED3FE049EC5FEB0E946B210E94A322F1
:104580000F90039401FC9058ECEAF0E00C94742333
:1045900057FD9058440F551F59F05F3F71F04795F4
:1045A000880F97FB991F61F09F3F79F087950895D9
:1045B000121613061406551FF2CF4695F1DF08C0F8
:1045C000161617061806991FF1CF86957105610515
:1045D00008940895E894BB2766277727CB0197F9BD
:1045E00008950E9404230C94A3220E946A2238F0AA
:1045F0000E94712220F0952311F00C9461220C94FA
:10460000672211240C94EB220E94C82270F3959F1C
:10461000C1F3950F50E0551F629FF001729FBB27B9
:10462000F00DB11D639FAA27F00DB11DAA1F649F55
:104630006627B00DA11D661F829F2227B00DA11D08
:10464000621F739FB00DA11D621F839FA00D611D8E
:10465000221F749F3327A00D611D231F849F600DAF
:10466000211D822F762F6A2F11249F5750409AF0D8
:10467000F1F088234AF0EE0FFF1FBB1F661F771F64
:10468000881F91505040A9F79E3F510580F00C942F
:1046900061220C94EB225F3FE4F3983ED4F38695BD
:1046A00077956795B795F795E7959F5FC1F7FE2BCF
:1046B000880F911D9695879597F908959F930E946D
:1046C0007A220F9007FCEE5F0C94B4229F3F31F0EA
:1046D000915020F4879577956795B795880F911D30
:1046E0009695879597F908959F938F937F936F93EE
:1046F000FF93EF939B01AC010E94F122EF91FF9198
:104700000E9488232F913F914F915F910C94F12249
:10471000DF93CF931F930F93FF92EF92DF927B0172
:104720008C01689406C0DA2EEF010E940423FE017A
:10473000E894A5912591359145915591A6F3EF0106
:104740000E946B21FE019701A801DA9469F7DF90BE
:10475000EF90FF900F911F91CF91DF91089597FBFC
:10476000072E16F4009407D077FD09D00E94C323CA
:1047700007FC05D03EF4909581959F4F0895709564
:1047800061957F4F0895AA1BBB1B51E107C0AA1F6B
:10479000BB1FA617B70710F0A61BB70B881F991FE2
:1047A0005A95A9F780959095BC01CD010895EE0F1B
:1047B000FF1F0590F491E02D099481E090E0F894BA
:0847C0000C94E223F894FFCFF2
:1047C80000000000000000000000000000000000E1
:1047D80000000000000000000000000000000000D1
:1047E80000000000000000000000000000000000C1
:1047F80000000000000000000000000000000000B1
:10480800030100000000000000000000000000009C
:104818000000000000000000000000000000000090
:104828000000000000000000000000000000000080
:104838000000000000000000000000000000000070
:1048480000000301B400FFFFFFFF00E100000000CB
:104858000000010000000000803F00000000000090
:10486800000000000000000000000000803F000081
:104878000000000000000000000000000000000030
:104888000000000000000000000000000000000020
:1048980000000000803F00001043000000400000BE
:1048A800C04000008041000080400000204100001E
:1048B80000C00000E040000020C1000080C10000EE
:1048C80000C10000C0C00000A0C000006443000098
:1048D800E0400000C0C000008041000080400000AF
:1048E800604100000041000080C1000040C100009C
:1048F800C04000004040000040C00000E0C0000090
:104908008D430000E0400000C0C00000804000006F
:1049180000C00000A0C0000080410000604100000D
:104928000041000040C1000080C10000C0400000FC
:104938004040000040C00000E0C00000B14300005B
:10494800E040000000C00000A0C00000C0C000009F
:1049580000C10000804000000040000080410000CD
:1049680080C10000008000006041000070C10000AC
:1049780040C00000C04000000041000040C10000ED
:1049880060C1000040400000E0C0000000000000DE
:08499800E04000000000DE0712
:00000001FF
