:100000000C94C1070C94E9070C94E9070C94E907D8
:100010000C94E9070C94E9070C94E9070C94E907A0
:100020000C94E9070C94E9070C94DB080C944D0937
:100030000C94E9070C94E9070C94E9070C94E90780
:100040000C94E9070C94E9070C94E9070C94E90770
:100050000C94E9070C94E9070C94E9070C948616B4
:100060000C94E9070C94E9070C94E9070C94E90750
:100070000C94E9070C94E9070C94E9070C94E90740
:100080000C94E9070C94E9070C94E9070C94E90730
:100090000C94E9070C94E9070C94E9070C94E90720
:1000A0000C94E9070C94E9070C94E90705A84CCDDA
:1000B000B2D44EB93836A9020C50B9918688083CA2
:1000C000A6AAAA2ABE000000803FF0F89C8E878373
:1000D000878E9CF8F00000FEFF0303030303070E66
:1000E000FCF80000FEFF0303030303070EFCF80007
:1000F00000FFFF00000000000000FFFF0000FEFF07
:100100008383838383C7EE7C380000F8FC0E0703EB
:100110000303070EFCF800003F7FE0C08080C0E0D2
:100120007F3FFFFF01010101010101FFFF0000FF0F
:10013000FF0C0C0C0C1C3E77E3C100007FFFC0C01D
:10014000C0C0C0E0703F1F00001F3F70E0C0C0C0D3
:10015000E0703F1F00007FFFC1C1C1C1C1E3773E16
:100160001C00001F3F70E0C0C0C0E0703F1F0000D7
:1001700000000001FFFF01000000D5F08D14A1C8B0
:1001800081CFD9F1AF200020200000000000000046
:10019000000000000000000000FEFCF8F0E080809D
:1001A000000000000000000000FEFFFFFFFFFFFF57
:1001B000FFFFFFFFFFFFFFFFFFFFFFFFFFFFFFFF4F
:1001C000FFFEFCF8F0E0C08000FFFFFFFFFFFFFF35
:1001D000FFFFFFFFFFFFFFFFFFFFFFFFFFFFFFFF2F
:1001E000FF7F7F3F0F0707030000000000000000B3
:1001F0000000000000000000007F3F3F1F070303D6
:1002000000000000000000000020200000000000AE
:1002100000000000C0C0E0F8FCFCFE000000000090
:10022000000000000000000000000000C0E0E0F05E
:10023000FCFEFEFFFFFFFFFFFFFFFFFFFFFFFFFFD3
:10024000FFFFFFFFFFFFFFFFFFFFFF000103070F9F
:100250001F3F7FFFFFFFFFFFFFFFFFFFFFFFFFFFCE
:10026000FFFFFFFFFFFFFFFFFFFF7F000000000019
:10027000000000000101070F1F3F7F000000000089
:1002800000000000000000000000002A070000003D
:10029000000000000000000000203C0E100C3E009A
:1002A0003C241C00043C0438241C00000000000016
:1002B0000000000000000001020301040501020526
:1002C00001060701040501060301060301040501F7
:1002D00002030104080102090102080106040104E5
:1002E0000501060701040501060401040801060AC8
:1002F00001040801060401060901040801060A01B7
:100300000408010609010209010B0C010604010B96
:1003100004010604010B0C01060A06020301060390
:10032000010203010603060203060603060209068C
:10033000040806020806060A060408060609060658
:10034000090604080602090604050602030602055A
:1003500006060C06040806060A06040806060C062D
:10036000040506060706040506060C060603060431
:1003700005060607060405060603060203060B0427
:1003800006060C060B0C06060C060B0406060706F2
:100390000609010209010609010209060609060209
:1003A0000901040806040501040506040501040802
:1003B000060408060B0C010B04060B04010B0C01D0
:1003C0000B04060B0C06060901060A06060A0106BE
:1003D0000A060609010609060607010603060603C2
:1003E00001060306060701060706020801040801C4
:1003F00002080104080602080604080102090602B0
:10040000080102080602080102090602090604059D
:1004100001020501040501020506040506020501A5
:100420000205060203010203060203010205060299
:1004300005060B0C06060C06060A06060A01060A45
:10044000060B0C060B0C01060A010B0C010604013D
:100450000607010B04060607010B04010607010B42
:1004600004060607060B042A07003E2A3E003C202D
:100470003C003C04003C043C003A003C043C004C82
:10048000547C00003C0E100C3E0038243C20003C04
:10049000043C0001020301040501040301040501F9
:1004A0000203010406010406010203010402010221
:1004B000070104020102030104020102070104080A
:1004C00001040801020701040701040501090601EE
:1004D00009050109060104050104060104020109D8
:1004E000080109020109080104020104080A0902BD
:1004F0000104020109020104020A09020A04020AB3
:1005000004080A09020A09080A09020A04080A0476
:10051000020A04080109080104080109080A04087C
:100520000A09080109080A09020109020A09020167
:1005300009080A09080B04020B09080B09020B0938
:10054000080B04020B04080C09020B04020B09023D
:100550000B04020C09020C04020C02070C04080C28
:1005600004070C04080C02070C04020C02030C0420
:10057000020C02070C04020C02030C04060C040615
:100580000C02030C04050C04050C02030C04030C00
:1005900004080C09020C09080C09020C04080C04DC
:1005A000020C04060C09050C09060C09050C0406CE
:1005B0000C04050C04080B09080B04080B09080CB3
:1005C00004080C09080B09080C09020B09020C09A4
:1005D000020B09080C09080A0905010405010905AF
:1005E0000104050A09050A04050A04060A09050AA0
:1005F00009060A09050A04060A04050A040601098F
:10060000060104060109060A04060A09060109068C
:100610000A09050109050A09050109060A09060B67
:1006200004050B09060B09050B09060B04050B0451
:10063000060C09050B04050B09050B04050C09053F
:100640000C04050C04060B09060B04060B09060C2A
:1006500004060C09060B09060C09050B09050C0913
:10066000050B09060C09060C04030102030104032F
:100670000102030C04030C02030C02070102030C29
:1006800002030102030C02070102070C0207010426
:10069000070102070104070C02070C040701040705
:1006A0000A04080104080A04080104070B04080CE2
:1006B00004070B04080104070B04080C04070C04CE
:1006C000080A04080B04020A04020B04020A0408C4
:1006D0000B04080A04020A04060104060A04060AB6
:1006E00004020B04060A04020104060104020B04BE
:1006F000020B04060A04020B04060B04020C040697
:100700000C04060B04020C04020A04060B04050A7E
:1007100004050B04050A04060B04060A040501047B
:10072000030104050104030A04050C04030B04057A
:100730000C04030A04050C04030B04050C04052A2D
:100740000700000000000000000000000000002082
:100750003E2A3E0018141C507E0018141C10000085
:10076000000000000000000000000001020301047E
:100770000501040301040501020301020501040649
:100780000103070103060104010103070104060137
:10079000030801040301030201040501030201042B
:1007A0000301030701040101030801030801040117
:1007B00001040301030201040501030901040A0104
:1007C000030901040501030901040A01030A0103E5
:1007D00007010B08010B07010B08010307010308C0
:1007E000010302010B09010B02010B0901030201C4
:1007F00003090C0B02010302010B020103020C0BA3
:10080000020C03020C03090C0B020C0B090C0B026B
:100810000C03090C03020C0309010B090103090174
:100820000B090C03090C0B09010B090C0B02010B42
:10083000020C0B02010B090C0B090D03020D0B0935
:100840000D0B020D0B090D03020D03090E0B020D1A
:1008500003020D0B020D03020E0B020E03020E0229
:10086000030E04050E02050E04050E02030E04011C
:100870000E040A0E03090E030A0E04050E03090EE8
:10088000040A0E03020E04050E03080E04010E03F3
:10089000080E04050E03090E04050E03020E0308DC
:1008A0000E04010E03070E04060E03070E04010ECC
:1008B00003070E04060E03060E03090E0B020E0BB1
:1008C000090E0B020E03090E03020E03080E0B079E
:1008D0000E0B080E0B070E03080E03070E03090D7F
:1008E0000B090D03090D0B090E03090E0B090D0B66
:1008F000090E0B020D0B020E0B020D0B090E0B095C
:100900000C0B07010307010B070103070C0B070C76
:1009100003070C03080C0B070C0B080C0B070C034C
:10092000080C03070C0308010B08010308010B085E
:100930000C03080C0B08010B080C0B07010B070C30
:100940000B07010B080C0B080D03070D0B080D0B13
:10095000070D0B080D03070D03080E0B070D03070A
:100960000D0B070D03070E0B070E03070E03080DF3
:100970000B080D03080D0B080E03080E0B080D0BDA
:10098000080E0B070D0B070E0B070D0B080E0B08BF
:100990000E03060104060103060104060E03060EFB
:1009A00004060E02050102030E0203010205010204
:1009B000030E02050E040A01030A01040A01030AD8
:1009C0000E040A0E030A01030A0C03090103090CB1
:1009D000030901030A0D03090E030A0D03090103AC
:1009E0000A0D03090E030A0E03090C03090D030285
:1009F0000C03020D03020C03090D03090C03020C86
:100A000003080103080C03080C03020D03080C0380
:100A1000020103080103020D03020D03080C030287
:100A20000D03080D03020E03080E03080D03020E4A
:100A300003020C03080D03070C03070D03070C0347
:100A4000080D03080C030701030601030701030651
:100A50000C03070E03060D03070E03060C03070E17
:100A600003060D03070E03070E020501040501022C
:100A7000050104050E02050E04050E040A01040515
:100A80000E04050104050E040A01040A0E04010106
:100A900004060E04060104060E040101040101040B
:100AA000030104010102030E040101020301040118
:100AB0000102030E04010E02032A070000000000D9
:100AC000382422320E043C100C301C2C003C040450
:100AD000003F1028243C003C043C003824243F0004
:100AE00000000000000102030104030102050104EB
:100AF00006010203010206010203010406010403C8
:100B0000010708010206010709010708010A080197
:100B1000020B01070801020B010201010708010293
:100B20000101020601020301070901020601020593
:100B300001070901020301020C0107090102050175
:100B4000070901020C010D09010E0B01060F010E30
:100B50000F01070801060401060F01060401070939
:100B600001061001060B01060F010E0B010708011B
:100B7000060F01060B01060401070801070901061B
:100B800010010709010611010604010E10010E04EF
:100B9000010E10010604010610120E0401060401E4
:100BA0000E04010604120E04120604120610120EA0
:100BB00004120E10120E0412061012060412061071
:100BC000010E10010610010E10120610120E100177
:100BD0000E10120E04010E04120E04010E10120E5D
:100BE000100D06040D0E100D0E040D0E100D060452
:100BF0000D0610130E040D06040D0E040D0604134D
:100C00000E04130604130709130610130611130626
:100C10001013020513060413061013070913020C20
:100C2000130610130E04130E10130E0413061013E4
:100C3000060413060F130E0B130E0F13060F1307E4
:100C40000B130E0B13060413020313060F130201FA
:100C500013060F13020313060F13020113070B13DE
:100C6000061013020C13020513020C130709130DCF
:100C700009130406130203130403130203130406E7
:100C800013020113060413020513020313020B13CC
:100C9000070B13020113140813070B13020B13079E
:100CA0000B1314081307081306100D0E100D061071
:100CB0000D0E10130610130E100D0E10130E040D52
:100CC0000E04130E040D0E10130E1013060B0D065A
:100CD0000B0D0E0B130E0B13060B0D0E0B13060B49
:100CE000130E0B13070B120E0B01060B010E0B124A
:100CF000060B01060B120E0B12060F120E0B120E34
:100D00000F120E0B12060F12060B12060F010E0F1A
:100D100001060F010E0F12060F120E0F010E0F1219
:100D20000E0B010E0B120E0B010E0F120E0F0D0605
:100D30000B0D0E0F0D0E0B0D0E0F0D060B0D060FEE
:100D400013060F0D0E0F0D060F0D0E0F13060F13CA
:100D50000E0F0D0E0F130E0B0D0E0B130E0B0D0EB3
:100D60000F130E0F130708010A08010708010A08EC
:100D7000130708131408130D09010709010D0901D0
:100D80000709130D091307090106111206100106C0
:100D9000101206100106110D06101306110D061093
:100DA0000106110D06101306111306101206100D80
:100DB00006041206040D06041206100D0610120693
:100DC0000412060F01060F12060F1206040D060F7D
:100DD00012060401060F0106040D06040D060F128B
:100DE00006040D060F0D060413060F13060F0D065D
:100DF0000413060412060F0D060B12060B0D060B4C
:100E000012060F0D060F1304030104061304060156
:100E10000403010406130403130403010203010481
:100E20000301020313040313020313020C0102055E
:100E300013020501020513020C01020C010708153B
:100E4000070813070813020101020B13020B01022A
:100E50000B130201010201130D0901020C13020C14
:100E600001020C130D09010D0913040313020313EE
:100E70000205130205010205010403130203010424
:100E80000301020301040313020313040313020505
:100E900001040313040301070913061101061113CA
:100EA00006110107091307090102060102010104E5
:100EB00006130201010406010201010406130201E6
:100EC00013040613070813060B13070B01060B1573
:100ED000070801070812060B15070801060B0D0687
:100EE0000B15070812060B1507080D060B13060B4A
:100EF00013070815070813060B13020B010A081342
:100F00001408010A0813020B01020B080B0002026D
:100F10000201000904000001020200000524001083
:100F2000010524010101042402060524060001072D
:100F300005810310004009040100020A00000007B7
:100F40000502024000000705830240000004030977
:100F50000412010002EF02014041233C8000010124
:100F600002030141726475696E6F204C4C4300416D
:100F7000726475696E6F204573706C6F72610000EA
:100F80003A1A11241FBECFEFDAE0DEBFCDBF12E068
:100F9000A0E0B1E0ECECFBE302C005900D92AE36B0
:100FA000B107D9F728E0AEE6B2E001C01D92AD303E
:100FB000B207E1F717E0C1ECD7E004C02197FE01CA
:100FC0000E94D91DC03CD107C9F70E94D0160C94CD
:100FD000E41D0C940000FC018485958597FD0BC0F1
:100FE0009FB7F89482E08093E9008091F2009FBF60
:100FF00090E0019608959FB7F89482E08093E9000D
:101000008091F2009FBF90E008954091720250914C
:101010007302209170023091710242175307B4F4A9
:101020009091E8009570E1F39091E80092FD19C06D
:101030008093F100809172029091730201968F73F8
:101040009927892B19F48EEF8093E8008091720222
:10105000909173020196909373028093720281E0E3
:10106000089580E00895DF92EF92FF920F931F930F
:10107000CF93DF93D82E8A017B01E40EF51EEB019E
:10108000CE15DF0571F0D7FE03C0FE01849101C0CB
:1010900088810E94050821968111F2CF8FEF9FEF82
:1010A00001C0C801DF91CF911F910F91FF90EF9088
:1010B000DF900895615030F02091F100FC01208311
:1010C0000196F8CF289884E68093770208950F93CD
:1010D0001F93CF93DF931F92CDB7DEB78C01FC0136
:1010E0008485958597FF0EC0CE0101960E944B0E18
:1010F000019719F4898190E002C08FEF9FEFF8010A
:1011000095878487F801848595850F90DF91CF912D
:101110001F910F910895CF93DF931F92CDB7DEB744
:10112000FC018485958597FD05C02FEF3FEF35873E
:1011300024870BC0CE0101960E944B0E019719F433
:10114000898190E002C08FEF9FEF0F90DF91CF91E8
:1011500008950F931F93CF93DF931F92CDB7DEB700
:1011600082E0898342E450E06BE07FE080E80E9407
:1011700033080E94790EDC0112960D911C91139791
:101180000115110589F0D801ED91FC910280F381E0
:10119000E02DBE016F5F7F4FC801099597FD04C028
:1011A000F80100851185ECCF89810F90DF91CF91F7
:1011B0001F910F9108951F920F920FB60F92112455
:1011C0008F939F938091E1009091E100937F9093A2
:1011D000E10083FF0FC01092E90091E09093EB00D3
:1011E0001092EC0092E39093ED001092780298E058
:1011F0009093F00082FF20C093E09093E9009091DB
:10120000F200992319F09AE39093E8009091750207
:10121000992339F09091750291509093750299231A
:1012200089F190917702992339F09091770291504A
:1012300090937702992341F184FF10C08091E200DE
:101240008E7E81608093E2008091E1008F7E8093AA
:10125000E100809176028E7E806111C080FF16C011
:101260008091E2008E7E80618093E2008091E100B7
:101270008E7E8093E100809176028E7E81608093E5
:10128000760204C05D9ACDCF289AD6CF9F918F91D8
:101290000F900FBE0F901F9018951F920F920FB6D0
:1012A0000F921124CF92DF92EF92FF920F931F9330
:1012B0002F933F934F935F936F937F938F939F935E
:1012C000AF93BF93EF93FF93CF93DF93CDB7DEB789
:1012D0006C97DEBFCDBF1092E9008091E80083FFDC
:1012E000FBC168E0CE0145960E945A0882EF8093C8
:1012F000E8008D8987FF05C09091E80090FFFCCF42
:1013000003C09EEF9093E800982F907609F0C6C036
:101310009E894F89588D2F89F88C91110CC0803887
:1013200029F480916F028093F10002C01092F100C5
:101330001092F10045C1913051F4811141C1413009
:10134000510509F03DC180916F028D7F0BC0933034
:1013500061F4811135C14130510509F031C18091ED
:101360006F02826080936F022BC1953049F48091A7
:10137000E80080FFFCCF822F80688093E30020C1CB
:10138000963009F05EC00B8D1C8D22E01092E900B2
:101390001092730210927202F21232C01092710215
:1013A000109270020E94A90899E0BE016F5F7F4F02
:1013B000DB01E92F1D92EA95E9F79983FA8291E022
:1013C0009E8390EA98879AEF9987209172023091D4
:1013D0007302275F3F4F3C832B838D831092E9007C
:1013E00010927302109272021093710200937002B5
:1013F00049E050E080E00E9433080E94A908E0C064
:1014000010937102009370020E94790EDC01129613
:101410000D911C9113970115110509F4BBC0D8015A
:10142000ED91FC910480F581E02DBE016B5E7F4F54
:10143000C8010995009709F0C7C0F801008511851A
:10144000EACF973009F445C1983021F481E08093C8
:10145000F100B6C0993009F0B3C0837009F039C10A
:10146000EFE4F2E081E031E096E32081211109C050
:101470008EE78093EA001092EA008F8980937802C9
:101480009FC08093E9003093EB0021912093EC0002
:101490009093ED008F5F873041F7EACF8B8D9C8D65
:1014A0001092E900109273021092720290937102EE
:1014B00080937002898D811153C08E899D89913AE4
:1014C00049F4813209F005C147E050E066E071E07F
:1014D00080E0BBC0913209F0FCC0833269F48F898F
:1014E000988DA0E0B0E08093020190930301A09357
:1014F0000401B093050164C0803269F48091E80072
:1015000082FFFCCF67E086E091E00E945A088BEFF3
:101510008093E80055C0823209F052C08F898093D1
:101520000D01EEEFFFE7859194918B3F9C4D19F0F3
:10153000E0E0F8E002C0EEEFFAE080910601909161
:101540000701A0910801B0910901803B9440A105D9
:10155000B10509F09EC080910D0180FF79C099C04E
:101560000E94790EFC01028113810115110509F415
:10157000B0C0D801ED91FC910190F081E02DBE0149
:101580006B5E7F4FC801099581111AC0F801008573
:101590001185EBCFF1E0FF1609F44EC0F3E0FF1226
:1015A00098C08F89882309F44AC0823089F440E8C2
:1015B0006FE08FE69FE00E94051A882309F489C036
:1015C0008EEF8093E80088C018161906CCF381C00E
:1015D000813029F440E86BE083E69FE0ECCF833074
:1015E00009F077C00E94790EDC011296ED90FC9014
:1015F00013978E010F5F1F4F6801E114F10479F01A
:10160000D701ED91FC910680F781E02DB801C7016B
:101610000995080F111DF701E084F184EECFD80180
:101620001C92F60101900020E9F73197BF016C1977
:101630007D0940E0C601BFCF61E57FE002C06DE4F7
:101640007FE0FB01449150E080E80E943308B8CF6E
:10165000EE3F2AE0F20751F0808191818737A7E7BA
:101660009A0721F09093FF0A8093FE0A87E797E795
:101670009183808380916000809374029BE088E175
:101680000FB6F894A895809360000FBE9093600009
:1016900097CF808191818737974709F091CFA8959F
:1016A00080916000886180936000809174028093D3
:1016B0006000EE3FBAE0FB0739F08091FE0A90919E
:1016C000FF0A918380837CCF1092FF0A1092FE0A5A
:1016D00077CF81E28093EB006C960FB6F894DEBF73
:1016E0000FBECDBFDF91CF91FF91EF91BF91AF9131
:1016F0009F918F917F916F915F914F913F912F912A
:101700001F910F91FF90EF90DF90CF900F900FBE41
:101710000F901F9018958F929F92AF92BF92CF9289
:10172000DF92EF92FF926B017C010E9461164B01E8
:101730005C01C114D104E104F104F1F00E946116CE
:10174000DC01CB0188199909AA09BB09883E93409D
:10175000A105B10570F321E0C21AD108E108F10832
:1017600088EE880E83E0981EA11CB11CC114D10420
:10177000E104F10419F7DDCFFF90EF90DF90CF90F7
:10178000BF90AF909F908F9008952FB7F89483E00B
:101790008093E9009091E800892F807295FF04C042
:1017A0009091F20080E4891B2FBF0895CF93DF93BF
:1017B0001F92CDB7DEB76983DC01ED91FC91028009
:1017C000F381E02D41E050E0BE016F5F7F4F09954E
:1017D0000F90DF91CF91089583E08093E90080918D
:1017E000F200882319F08AE38093E80008950E94AC
:1017F000C50B90E008958F929F92AF92BF92CF92C7
:10180000DF92EF92FF920F931F93CF93DF936C01C0
:101810007B018A0180910D01882309F45CC08091CD
:101820007802882309F457C08091760280FF05C0B2
:101830008091E00082608093E000E801B12C8AEFA3
:10184000A82E93E0892E2AE3922E209711F4BB2034
:10185000D9F10E94C50B81110AC0AA94AA20D9F11E
:1018600061E070E080E090E00E948B0BEECF282FCB
:1018700030E0C217D3070CF48C2F9FB7F8948092F6
:10188000E9002091E80025FF1DC0282F30E0C21B91
:10189000D30BF701815020F041914093F100FACF32
:1018A000E20EF31EBB2019F09092E8000AC080916E
:1018B000E80085FD07C09092E800BB24B394209710
:1018C00009F0B12C9FBFC1CF5D9884E6809375026B
:1018D0001016110644F081E090E0F60193838283B4
:1018E00080E090E001C0C801DF91CF911F910F917E
:1018F000FF90EF90DF90CF90BF90AF909F908F9030
:1019000008958F929F92AF92BF92EF92FF920F93A2
:101910001F93CF93DF937C01EB018A01FA012081B1
:10192000318142815381688179818A819B810E94C2
:10193000F31C4B015C01F8012481358146815781FC
:101940006C817D818E819F810E94F31C9B01AC0183
:10195000C501B4010E947F1B4B015C01F801208589
:10196000318542855385688579858A859B850E9466
:10197000F31C9B01AC01C501B4010E947F1BF70160
:101980006083718382839383F80120813181428156
:1019900053816C857D858E859F850E94F31C4B014C
:1019A0005C01F801248135814681578168897989F4
:1019B0008A899B890E94F31C9B01AC01C501B4017B
:1019C0000E947F1B4B015C01F80120853185428517
:1019D00053856C897D898E899F890E94F31C9B01A8
:1019E000AC01C501B4010E947F1BF70164837583BC
:1019F00086839783F8012081318142815381688DEC
:101A0000798D8A8D9B8D0E94F31C4B015C01F8013E
:101A100024813581468157816C8D7D8D8E8D9F8D82
:101A20000E94F31C9B01AC01C501B4010E947F1B05
:101A30004B015C01F801208531854285538568A101
:101A400079A18AA19BA10E94F31C9B01AC01C50155
:101A5000B4010E947F1BF70160877187828793879B
:101A6000DF91CF911F910F91FF90EF90BF90AF90BA
:101A70009F908F9008959C01240F311D121613061C
:101A800074F5803891055CF597FF02C080E090E026
:101A90002138310514F020E830E0281BAB014770F5
:101AA000552731E001C0330F4A95EAF777FF02C0AE
:101AB000695F7F4F43E0759567954A95E1F77695A5
:101AC000762F662777956795860F971FFC01E75855
:101AD000FD4F215020F08081832B8193FACF089510
:101AE000E9E7F2E0A0E0B8E000800EBC8111012C33
:101AF0001197A0FDFDCF0192B9F70DB408956F9233
:101B00007F929F92AF92BF92CF92DF92EF92FF921D
:101B10000F931F93CF93DF9300D0CDB7DEB7DC01D7
:101B20004115510509F4A7C0FA01D4903196E4910A
:101B30006D2C712C8301080F191F101611060CF063
:101B40009AC0803891050CF096C0CB018E0F911D84
:101B5000181619060CF08FC0603471050CF08BC09C
:101B6000F62FF770FF2ECB0177FD079623E09595B2
:101B700087952A95E1F7F82F77FF04C0FF2011F031
:101B8000FFEFF80FB7FF05C0662777276A1B7B0BAF
:101B900002C060E070E00038110524F080E88A1B84
:101BA000982E01C09D2C961A0F2F0F2E000C110B92
:101BB000FF3F1CF4C02EC09401C0C12C91E02E2F19
:101BC000277009F490E0E695E695E6959E0F090FDB
:101BD000111D0930110514F098E09F1BEC2CEF0E3D
:101BE0004E5F5F4F8B01DC9C000D111D1124400FD7
:101BF000511F01E010E00F2C02C0000F111F0A94CA
:101C0000E2F73E2D20E83203A00DB11D11249D0105
:101C1000260F371F27583D4F9F0F9E1561F1B901C1
:101C2000FA01DE2ED41AD91400F5B490B09E6001EA
:101C3000B19ED00C1124DA82C982E7FC04C0DB011A
:101C4000DC90CD28CC92FF2061F0B6E0BE154CF0C0
:101C50005B0180E8A80EB11CD501CC90DA80DC28AD
:101C6000DC9231966F5F7F4FDCCFE394460D571DBA
:101C700020583F4FD2CF0F900F90DF91CF911F91FF
:101C80000F91FF90EF90DF90CF90BF90AF909F901B
:101C90007F906F90089520917802211103C08FEFFB
:101CA0009FEF08955FB7F89422E02093E900209118
:101CB000F20030E01216130614F421E030E0422F57
:101CC000FC0184E6415038F0289880937702909187
:101CD000F1009193F7CF2115310521F08091F200A9
:101CE000882319F05FBFC90108958BE68093E8004F
:101CF000F9CF80910C0781110DC082E08093080715
:101D000084E08093090710920B0710920A0781E084
:101D100080930C0788E097E00895CF92DF92EF92CE
:101D2000FF920F931F93CF93DF936C017A018B0186
:101D3000C0E0D0E0CE15DF0581F0D8016D918D01B6
:101D4000D601ED91FC910190F081E02DC60109953D
:101D5000892B11F02196EECF7E01C701DF91CF9143
:101D60001F910F91FF90EF90DF90CF90089508950D
:101D7000089580E090E008950E94DF1D2D9A089557
:101D8000BC0180E090E00C948B0B8FB18095807F3C
:101D9000669B88601C9B8460089520E4FC0111927E
:101DA0002A95E9F7FC01E05CFF4F23E020833196A0
:101DB00021E0208308952F923F924F925F926F927D
:101DC0007F928F929F92AF92BF92CF92DF92EF92CB
:101DD000FF920F931F93CF93DF93CDB7DEB7C45815
:101DE000D1090FB6F894DEBF0FBECDBF7C01762EB1
:101DF0000DB71EB7CE0101960E94CD0ECE018D5BB0
:101E00009F4F0E94CD0E609164077091650780918D
:101E10006607909167070E94F01B4B015C01C701A8
:101E200068E671E00E94B11DBC01990F880B990B07
:101E30000E94281C29E33AEF4EE85CE30E94F31C61
:101E40001B012C0183E023968FAF2397C201B101C0
:101E50000E94601D6B017C01C201B1010E94EB1B5D
:101E600021E0721609F132E0731609F43EC07110D8
:101E700058C0412C512C30E8632E3FE3732E498229
:101E80005A826B827C82698B7A8B8B8B9C8BCD8AFE
:101E9000DE8AEF8AF88EF7FAF094F7F8F094CD8E98
:101EA000DE8EEF8EF8A21CC069837A838B839C83BD
:101EB0002601370177FA709477F8709449865A862C
:101EC0006B867C86412C512C20E8622E2FE3722EEB
:101ED000498A5A8A6B8A7C8AC98EDA8EEB8EFC8E8E
:101EE00069A37AA38BA39CA31CC069837A838B8389
:101EF0009C83CD82DE82EF82F886F7FAF094F7F8C1
:101F0000F094CD86DE86EF86F88A698B7A8B8B8B90
:101F10009C8B80E090E0A0E8BFE389A39AA3ABA3E9
:101F2000BCA388E6E82E87E0F82E8114910409F41A
:101F300058C0CDB6DEB6F70180819181A281B38110
:101F40002F968CAF9DAFAEAFBFAF2F978481958199
:101F5000A681B7812B968CAF9DAFAEAFBFAF2B974D
:101F600080859185A285B38527968CAF9DAFAEAF56
:101F7000BFAF279722968FAD2297CC57DF4F98811E
:101F8000C458D040899F802D11242DB73EB794E0CE
:101F900089022019310911240FB6F8943EBF0FBEF3
:101FA0002DBFEDB7FEB731965F01AE014D5B5F4FC0
:101FB000BE016F5F7F4FCF010E94810C8CE0F50165
:101FC000D70101900D928A95E1F70FB6F894DEBE25
:101FD0000FBECDBEF1E08F1A91082CE0E20EF11C8D
:101FE000A4CF0FB6F8941EBF0FBE0DBFCC57DF4F66
:101FF0000FB6F894DEBF0FBECDBFDF91CF911F911A
:102000000F91FF90EF90DF90CF90BF90AF909F9097
:102010008F907F906F905F904F903F902F9008959A
:102020002F923F924F925F926F927F928F929F92E8
:10203000AF92BF92CF92DF92EF92FF920F931F93D6
:10204000CF93DF93CDB7DEB7C05BD1090FB6F8945D
:10205000DEBF0FBECDBFC156DF4F99838883CF59F6
:10206000D040C757DF4F79836883C958D040C355E4
:10207000DF4F59834883CD5AD0402DB73EB7C15565
:10208000DF4F39832883CF5AD040409100015091CF
:102090000101CF55DF4F59834883C15AD040DB013E
:1020A0006D917D918D919C910E94F01B9B01220F5F
:1020B000331FF901E60FF71FCD55DF4FF983E88392
:1020C000C35AD04080E090E0A0E4B0E4809364077D
:1020D00090936507A0936607B0936707C156DF4FDB
:1020E00028813981CF59D040C957DF4F39832883A0
:1020F000C758D040C957DF4F88819981C758D04011
:10210000C156DF4F48815981CF59D040841B950B70
:10211000CD55DF4FA881B981C35AD0408A179B079C
:102120000CF09EC5C957DF4FE881F981C758D040F0
:102130008491C757DF4FE881F981C958D04024E026
:10214000829FE00DF11D112480819181A281B381D4
:102150008093680790936907A0936A07B0936B0711
:10216000C957DF4FE881F981C758D0403196E491D3
:10217000C757DF4F48815981C958D04084E0E89F54
:10218000400D511D1124FA0180819181A281B381FA
:1021900080936C0790936D07A0936E07B0936F07C1
:1021A000C957DF4FE881F981C758D0403296E49192
:1021B000C757DF4FA881B981C958D04024E0E29FBA
:1021C000A00DB11D1124FD0180819181A281B381F7
:1021D0008093700790937107A0937207B093730771
:1021E000C957DF4FE881F981C758D0403396E49151
:1021F000C757DF4F48815981C958D04084E0E89FD4
:10220000400D511D1124FA0180819181A281B38179
:102210008093740790937507A0937607B093770720
:10222000C957DF4FE881F981C758D0403496E4910F
:10223000C757DF4FA881B981C958D04024E0E29F39
:10224000A00DB11D1124FD0180819181A281B38176
:102250008093780790937907A0937A07B0937B07D0
:10226000C957DF4FE881F981C758D0403596E491CE
:10227000C757DF4F48815981C958D04084E0E89F53
:10228000400D511D1124FA0180819181A281B381F9
:1022900080937C0790937D07A0937E07B0937F0780
:1022A000C957DF4FE881F981C758D0403696E4918D
:1022B000C757DF4FA881B981C958D04024E0E29FB9
:1022C000A00DB11D1124FD0180819181A281B381F6
:1022D0008093800790938107A0938207B093830730
:1022E000C957DF4FE881F981C758D0403796E4914C
:1022F000C757DF4F48815981C958D04084E0E89FD3
:10230000400D511D1124FA0180819181A281B38178
:102310008093840790938507A0938607B0938707DF
:10232000C957DF4FE881F981C758D0403896E4910A
:10233000C757DF4FA881B981C958D04024E0E29F38
:10234000A00DB11D1124FD0180819181A281B38175
:102350008093880790938907A0938A07B0938B078F
:1023600061E0CF55DF4F88819981C15AD0400E94EA
:10237000DB0E60E08FE090E00E94DB0ECE018D5B13
:102380009F4F0E94CD0E6091640770916507809108
:102390006607909167070E94F01B6B0108E617E043
:1023A0007801C114D10409F455C08DB69EB6F70169
:1023B00080819181A281B3812F968CAF9DAFAEAF0A
:1023C000BFAF2F9784819581A681B7812B968CAF63
:1023D0009DAFAEAFBFAF2B9780859185A285B385AA
:1023E00027968CAF9DAFAEAFBFAF27978091C40645
:1023F000CC57DF4F9881C458D040899F802D11243D
:102400002DB73EB744E084022019310911240FB6DC
:10241000F8943EBF0FBE2DBF8DB79EB701965C01ED
:10242000AE014D5B5F4F64E876E00E94810C8CE06A
:10243000F501D70101900D928A95E1F70FB6F89456
:102440009EBE0FBE8DBE91E0C91AD108ACE0EA0E67
:10245000F11CA7CF609164077091650780916607B2
:10246000909167070E94F01B1B012114310409F4AD
:1024700096C1EDB7FEB7C157DF4FF983E883CF5858
:10248000D040CE0101960E94CD0ED8012D913D91F4
:102490004D915C911397C557DF4F288339834A8349
:1024A0005B83CB58D0401496CD90DD90ED90FC909E
:1024B000179718968D909D90AD90BC901B9780912A
:1024C000060723969FAD2397899F802D1124EDB792
:1024D000FEB724E08202E019F10911240FB6F89446
:1024E000FEBF0FBEEDBF4DB75EB74F5F5F4FCB571F
:1024F000DF4F59834883C558D0402091C60630919C
:10250000C7064091C8065091C906C501B4010E9492
:10251000F31C2B013C012091CA063091CB0640915F
:10252000CC065091CD06C701B6010E94F31C9B0159
:10253000AC01C301B2010E947F1B2B013C01209121
:10254000CE063091CF064091D0065091D106C557A6
:10255000DF4F688179818A819B81CB58D0400E946E
:10256000F31C9B01AC01C301B2010E947F1B2091AF
:10257000D2063091D3064091D4065091D5060E94E0
:102580007F1BCB57DF4FA881B981C558D0406D93D1
:102590007D938D939C9313972091D6063091D70607
:1025A0004091D8065091D906C501B4010E94F31C90
:1025B0002B013C012091DA063091DB064091DC06CC
:1025C0005091DD06C701B6010E94F31C9B01AC01CE
:1025D000C301B2010E947F1B2B013C012091DE064A
:1025E0003091DF064091E0065091E106C557DF4F7C
:1025F000688179818A819B81CB58D0400E94F31CED
:102600009B01AC01C301B2010E947F1B2091E20635
:102610003091E3064091E4065091E5060E947F1B4D
:10262000CB57DF4FE881F981C558D040648375836B
:10263000868397832091E6063091E7064091E8066D
:102640005091E906C501B4010E94F31C2B013C0125
:102650002091EA063091EB064091EC065091ED0690
:10266000C701B6010E94F31C9B01AC01C301B2017A
:102670000E947F1B2B013C012091EE063091EF065A
:102680004091F0065091F106C557DF4F688179817E
:102690008A819B81CB58D0400E94F31C9B01AC01E6
:1026A000C301B2010E947F1B2091F2063091F30614
:1026B0004091F4065091F5060E947F1BCB57DF4FE7
:1026C000A881B981C558D04018966D937D938D939C
:1026D0009C931B972091F6063091F7064091F806DF
:1026E0005091F906C501B4010E94F31C4B015C0135
:1026F0002091FA063091FB064091FC065091FD06B0
:10270000C701B6010E94F31C9B01AC01C501B401D5
:102710000E947F1B6B017C012091FE063091FF0619
:102720004091000750910107C557DF4F68817981BB
:102730008A819B81CB58D0400E94F31C9B01AC0145
:10274000C701B6010E947F1B209102073091030749
:1027500040910407509105070E947F1BCB57DF4F24
:10276000E881F981C558D040648775878687978747
:102770008CE0D80101900D928A95E1F7C157DF4FA7
:1027800028813981CF58D0400FB6F8943EBF0FBE94
:102790002DBF31E0231A3108045F1F4F66CE6091D0
:1027A00064077091650780916607909167070E94A2
:1027B000F01B9B01220F331FA901460F571FCB555A
:1027C000DF4F59834883C55AD04084E697E0CB5702
:1027D000DF4F99838883C558D040A1E0B0E0C5574A
:1027E000DF4FB983A883CB58D040CB55DF4F28812A
:1027F0003981C55AD040C557DF4F48815981CB58E0
:10280000D040421753070CF01DC220E030E040E8F2
:1028100052E4CB57DF4FA881B981C558D0401496F8
:102820006D917D918D919C9117970E947F1B0E94C5
:10283000F01BC157DF4F688379838A839B83CF580E
:10284000D040C157DF4F68807980CF58D04020E01A
:1028500030E040E052E4CB57DF4FE881F981C558C2
:10286000D04060857185828593850E947F1B0E9480
:10287000F01BCD56DF4F688379838A839B83C359CE
:10288000D040CD56DF4F28803980C359D04020E05A
:1028900030E040E852E4CB57DF4FA881B981C558FA
:1028A000D04050966D917D918D919C9153970E944F
:1028B0007F1B0E94F01BC956DF4F688379838A8390
:1028C0009B83C759D040C956DF4F48805980C759AC
:1028D000D04020E030E040E052E4CB57DF4FE881C9
:1028E000F981C558D04064897589868997890E9485
:1028F0007F1B0E94F01BC556DF4F688379838A8354
:102900009B83CB59D040C556DF4FA880B980CB59A7
:10291000D04020E030E040E852E4CB57DF4FA881C0
:10292000B981C558D0405C966D917D918D919C91F7
:102930005F970E947F1B0E94F01B6B017C018B0143
:1029400020E030E040E052E4CB57DF4FE881F981EE
:10295000C558D04060A171A182A193A10E947F1BA4
:102960000E94F01B4B01C557DF4F28813981CB589E
:10297000D040275F3F4FC557DF4F39832883CB585F
:10298000D040A214B30424F46215730534F51BC0BF
:102990006A157B05BCF5C556DF4F28803980CB59B9
:1029A000D040CD56DF4FA880B980C359D040C9561A
:1029B000DF4F68807980C759D040C157DF4F4880CA
:1029C0005980CF58D0408A149B0494F0830136017B
:1029D000322D232D1B01832E922E922D832D150136
:1029E000A92EB82E962D872D3201492E582E0AC0B9
:1029F000322D232D1B01832E922E962D872D3601ED
:102A0000092F182F2814390479F54614570454F067
:102A1000962D872D6414750414F4942D852D2301AF
:102A2000692E782E041515052CF0601671060CF42D
:102A30003801820130E42316310470F0CB57DF4FA8
:102A4000E881F981C558D040B496CB57DF4FF98360
:102A5000E883C558D040C9CE41E0460D401BB101C6
:102A6000C8010E943B0DEACFA20146195709C9557A
:102A7000DF4F59834883C75AD040C5018219930953
:102A8000C755DF4F99838883C95AD040D801A6190A
:102A9000B709C157DF4FB983A883CF58D040F4019D
:102AA000E219F309CD56DF4FF983E883C359D040CB
:102AB000980124193509C956DF4F39832883C7592E
:102AC000D040A4014A195B09C555DF4F598348839B
:102AD000CB5AD040A814B90449F0C5010197C55696
:102AE000DF4F99838883CB59D04006C0C556DF4F4E
:102AF000B982A882CB59D0408101E12CF12CC12CA4
:102B0000D12CC556DF4FA881B981CB59D040A01731
:102B1000B107D4F1C601C755DF4F68817981C95A21
:102B2000D0400E94B11D9B01260D371DC701CD5617
:102B3000DF4F68817981C359D0400E94B11D660D75
:102B4000771DC955DF4FE881F981C75AD040CE0EB5
:102B5000DF1EC157DF4F48815981CF58D040E40E66
:102B6000F51E621773071CF4922F9B01692F003426
:102B7000110538F46F5F462F421BB801C9010E944E
:102B80003B0D0F5F1F4FBDCFC8018A199B09C95666
:102B9000DF4FA881B981C759D0408A9F70018B9FB0
:102BA000F00C9A9FF00C1124C80182199309C157A7
:102BB000DF4FE881F981CF58D0408E9F60018F9F11
:102BC000D00C9E9FD00C1124801691060CF436CFA9
:102BD000C701C555DF4F68817981CB5AD0400E942B
:102BE000B11D9B01240D351DC601CD56DF4F6881F7
:102BF0007981C359D0400E94B11D660D771DC95619
:102C0000DF4F48815981C759D040E40EF51EC157A6
:102C1000DF4F88819981CF58D040C80ED91E6217E6
:102C200073071CF4922F9B01692F0034110538F4AF
:102C30006F5F462F421BB801C9010E943B0D0F5F19
:102C40001F4FC2CFC957DF4FA881B981C758D040A5
:102C50001996C957DF4FB983A883C758D0404ACACD
:102C6000C355DF4F48815981CD5AD04068E370E0A9
:102C70008BE290E00E947F0DC155DF4FE881F98122
:102C8000CF5AD0400FB6F894FEBF0FBEEDBFC0556F
:102C9000DF4F0FB6F894DEBF0FBECDBFDF91CF91EF
:102CA0001F910F91FF90EF90DF90CF90BF90AF906A
:102CB0009F908F907F906F905F904F903F902F905C
:102CC00008953FB7F8948091090890910A08A0915F
:102CD0000B08B0910C0826B5A89B05C02F3F19F032
:102CE0000196A11DB11D3FBFBA2FA92F982F88278C
:102CF000820F911DA11DB11DBC01CD0142E0660FE7
:102D0000771F881F991F4A95D1F708951F920F9238
:102D10000FB60F9211242F933F938F939F93AF93EE
:102D2000BF938091040890910508A0910608B09186
:102D300007083091080823E0230F2D3720F401966F
:102D4000A11DB11D05C026E8230F0296A11DB11DCE
:102D5000209308088093040890930508A093060820
:102D6000B09307088091090890910A08A0910B0878
:102D7000B0910C080196A11DB11D80930908909394
:102D80000A08A0930B08B0930C08BF91AF919F91D4
:102D90008F913F912F910F900FBE0F901F9018951C
:102DA000789484B5826084BD84B5816084BD85B526
:102DB000826085BD85B5816085BD80916E00816032
:102DC00080936E00109281008091810082608093D8
:102DD00081008091810081608093810080918000DA
:102DE0008160809380008091910082608093910047
:102DF000809191008160809391008091900081602A
:102E0000809390008091C10084608093C100809184
:102E1000C10082608093C1008091C1008160809375
:102E2000C1008091C30081608093C3008091C00085
:102E300082608093C0008091C20081608093C20054
:102E400080917A00846080937A0080917A00826019
:102E500080937A0080917A00816080937A008091DB
:102E60007A00806880937A001092780210926F0244
:102E7000109276028091D70081608093D70080EA1B
:102E80008093D80089B5806189BD89B5826089BD8C
:102E900009B400FEFDCF61E070E080E090E00E94A8
:102EA0008B0B8091D8008F7C80618093D8008091BB
:102EB000E000807F8093E0008091E1008E7E80932F
:102EC000E1008DE08093E200559A209A81EC809396
:102ED0007C0085B1806F85B984B1877E84B984B167
:102EE000876E84B95E9A5F988AB1806D8AB9769A46
:102EF0006E9881B3806F81BB899880B38D7080BBE1
:102F000080E58CBD81E08DBD85E090E00E94C00E23
:102F10005F9A85E090E00E94C00E5E985C98EAE7B8
:102F2000F1E087E891E024912EBD00000DB407FE8A
:102F3000FDCF31968E179F07B1F75C9A81E8809399
:102F400064008091650081608093650080E00E944C
:102F5000700D0E94C50E87FF24C05C9885EA8EBD67
:102F600000000DB407FEFDCF5C9A2E982F982D9887
:102F70008091640080628093640081E083BF8895C3
:102F800013BEFCCF2D980E94C50E8478843871F052
:102F90000E94C50E8471843131F188EC90E00E946A
:102FA000C00E0E94C50E82FDEDCF3AC00E94BE0E3B
:102FB00088EC90E00E94C00E2F9882E090E00E9482
:102FC000051B8F3F29F06FEF82E090E00E940D1B00
:102FD00084EF91E00E94C00E2F9A0E94C50E847863
:102FE0008438D9F3D5CF0E94BE0E88EC90E00E94C1
:102FF000C00E2E9882E090E00E94051B882329F0E5
:1030000060E082E090E00E940D1B84EF91E00E945E
:10301000C00E2E9A0E94C50E84718431D9F3BDCFA3
:103020000E94BE0E82E090E00E94051B882319F0EA
:103030003E9A3F9A02C03E983F9881E090E00E94FD
:10304000051B8470D82E81E090E00E94051B81FF53
:103050007FC0D1102E98C0EFDFEF08E010E00E9493
:10306000C50E86FF05C02E9A2F9A0E94BE0E70C014
:10307000DD2029F0C430D10511F42E9A2F9881E07B
:103080000E94700D9E01D7FF04C0222733272C1BFE
:103090003D0B27703327CE01D7FD079673E095953A
:1030A00087957A95E1F7D7FF05C00197A801421BE4
:1030B000530B9A01AC015695542F442757954795C9
:1030C00047585D4FA0E0B0E04801821A930A8F3F55
:1030D0006FEF96074CF40196A85ABF4F40585F4FC8
:1030E000A03BB105A1F71EC05A01E4E9AE0EB11C28
:1030F0007A0160E070E08F3FFFEF9F0709F459C14C
:10310000FB01EA0FFB1FE653FF4FE491F0E03F01A4
:10311000022E01C0660C0A94EAF7F701748867284A
:10312000648A47C180E00E94700D8FE090E00E94A9
:10313000C00E2196C931D10509F091CFDD2011F0E3
:103140002F9A2D9880E991E00E94C00E0E94BE0E39
:1031500082E390E00E94C00E0E94C50E8111F8CF5C
:1031600089E280938006809164008E7F8093640062
:1031700080917A00806480937A0080917A0086FD45
:10318000FCCFC0917800D09179000E9461168E0129
:1031900020E030E0980111270027600F711F821F87
:1031A000931F2091640021602093640061157105D4
:1031B0008105910511F00E94FC1A80E090E0A0E8E2
:1031C000BFE38093840690938506A0938606B09310
:1031D00087068093940690939506A0939606B093E5
:1031E00097068093A4069093A506A093A606B09395
:1031F000A70683E08093C50684E08093060780934A
:10320000070780E4E2E1F1E0A6ECB6E001900D9260
:103210008A95E1F7D1E009E712E080E0E82E80E04E
:10322000F82EDD24D39493E0B92E8FB7F894409113
:1032300004085091050860910608709107088FBF37
:1032400080918106F42FF81B8F2FC0918206CC232A
:1032500029F0F093830610928206A4C09091800614
:10326000F91740F48F5F891708F09CC0D3BF889589
:1032700013BE98C0D09282064093810680917C064E
:1032800090917D06019690937D0680937C068091B7
:103290007E0680937F060E94C50E80937E068C2F4B
:1032A000F80181118FEF00248193819381938193A1
:1032B0000394D1F7C0916E02C130A9F04CF4C11152
:1032C00021C049EB5AE066EF71E085EE9AE018C044
:1032D000C23081F0C330B1F44BE852E062E571E0F6
:1032E00087EB92E00DC04FE357E06AEB71E08BE6AD
:1032F00097E006C047E654E066E871E083E994E0B1
:103300000E94101049E052E060E170E083E090E03C
:103310000E947F0D47E851E060E170E08DE590E0AC
:103320000E947F0DC13099F044F4C1111FC08091FB
:10333000000190910101079615C0C23071F0C330B1
:10334000A9F4809100019091010103960BC0809136
:10335000000190910101059605C0809100019091B6
:1033600001010496909301018093000180917F06F2
:1033700085FD04C090917E0695FD3DC086FD04C08C
:1033800080917E0686FD3BC080916E0287FDB092E3
:103390006E0280916E02843014F010926E0280E012
:1033A0000E94700DE114F10409F43FCF0E94000067
:1033B0003CCF2115310591F0FB01EA0FFB1FE653CD
:1033C000FF4FE491F0E03F01082C02C07594679430
:1033D0000A94E2F7F5017080672860826F5F7F4F83
:1033E000FFEFAF1ABF0AEFEFEE1AFE0A683571055C
:1033F00009F081CE70CEC150C0936E02BFCF8091D4
:103400006E028F5F80936E02BFCFDF92EF92FF92CA
:103410000F931F93CF93DF93D82EF92EE42E062F10
:1034200010E0C8010196880F0E94050883E00E9401
:103430000508CD2DDF2D0C0F1D1FC017D10789F0FA
:10344000E7FE03C0FE01849101C088810E94050847
:10345000F82E80E00E9405088F2121968111EDCF82
:1034600001C081E0DF91CF911F910F91FF90EF900C
:10347000DF900895E4E1F7E01382128288EE93E092
:10348000A0E0B0E084839583A683B78389E592E0CA
:10349000918380838FEF9FEF95878487E9E7F6E03C
:1034A0008BE692E0918380831582168280E1878388
:1034B00014821382118686EC96E00E94CD0E84E879
:1034C00096E00C94CD0E8F929F92AF92BF92CF92C6
:1034D000DF92EF92FF92CF93DF93EC0168817981C5
:1034E0008A819B81611571058105910521F464E252
:1034F00079ED8BE597E02DE133EF41E050E00E945C
:103500001B1B49015A019B01AC01A7EAB1E40E94CF
:103510003A1B6B017C01ACEEB4EFA50194010E9453
:10352000481BDC01CB018C0D9D1DAE1DBF1DB7FFDF
:1035300003C00197A109B04888839983AA83BB83FC
:10354000BC01CD019F77DF91CF91FF90EF90DF908D
:10355000CF90BF90AF909F908F9008958F929F9241
:10356000AF92BF92CF92DF92EF92FF9260910E01E5
:1035700070910F01809110019091110161157105F9
:103580008105910521F464E279ED8BE597E02DE169
:1035900033EF41E050E00E941B1B49015A019B019F
:1035A000AC01A7EAB1E40E943A1B6B017C01ACEECE
:1035B000B4EFA50194010E94481BDC01CB018C0DE6
:1035C0009D1DAE1DBF1DB7FF03C00197A109B048E7
:1035D00080930E0190930F01A0931001B0931101FD
:1035E000BC01CD019F77FF90EF90DF90CF90BF900F
:1035F000AF909F908F90089560930E0170930F018C
:1036000080931001909311010895F999FECF92BD16
:1036100081BDF89A992780B50895262FF999FECF94
:103620001FBA92BD81BD20BD0FB6F894FA9AF99ADF
:103630000FBE01960895052E97FB1EF400940E947C
:10364000321B57FD07D00E944D1B07FC03D04EF4E0
:103650000C94321B50954095309521953F4F4F4F1C
:103660005F4F089590958095709561957F4F8F4F2E
:103670009F4F08950E946F1BA59F900DB49F900DC2
:10368000A49F800D911D11240895B7FF0C943A1B3F
:103690000E943A1B821B930B0895A1E21A2EAA1BCB
:1036A000BB1BFD010DC0AA1FBB1FEE1FFF1FA217F2
:1036B000B307E407F50720F0A21BB30BE40BF50BEF
:1036C000661F771F881F991F1A9469F76095709578
:1036D000809590959B01AC01BD01CF010895A29FFB
:1036E000B001B39FC001A39F700D811D1124911DD6
:1036F000B29F700D811D1124911D08955058BB2754
:10370000AA270E94961B0C94A51C0E946C1C38F0E2
:103710000E94731C20F039F49F3F19F426F40C9496
:10372000691C0EF4E095E7FB0C94631CE92F0E94E2
:10373000CA1C58F3BA17620773078407950720F06D
:1037400079F4A6F50C94EC1C0EF4E0950B2EBA2F30
:10375000A02D0B01B90190010C01CA01A001112497
:10376000FF27591B99F0593F50F4503E68F11A1643
:10377000F040A22F232F342F4427585FF3CF4695D4
:1037800037952795A795F0405395C9F77EF41F16F6
:10379000BA0B620B730B840BBAF09150A1F0FF0FC0
:1037A000BB1F661F771F881FC2F70EC0BA0F621FAC
:1037B000731F841F48F4879577956795B795F7959C
:1037C0009E3F08F0B0CF9395880F08F09927EE0F31
:1037D0009795879508950E947C1CE3950C94B61CE0
:1037E0000E94F71B6894B1110C94ED1C08950E947F
:1037F000D21C88F09F5798F0B92F9927B751B0F095
:10380000E1F0660F771F881F991F1AF0BA95C9F764
:1038100014C0B13091F00E94EC1CB1E008950C94FA
:10382000EC1C672F782F8827B85F39F0B93FCCF3AD
:10383000869577956795B395D9F73EF490958095E1
:10384000709561957F4F8F4F9F4F0895E89409C001
:1038500097FB3EF490958095709561957F4F8F4FC3
:103860009F4F9923A9F0F92F96E9BB279395F695D9
:10387000879577956795B795F111F8CFFAF4BB0F57
:1038800011F460FF1BC06F5F7F4F8F4F9F4F16C0BB
:10389000882311F096E911C0772321F09EE8872F45
:1038A000762F05C0662371F096E8862F70E060E001
:1038B0002AF09A95660F771F881FDAF7880F96957A
:1038C000879597F9089597F99F6780E870E060E021
:1038D00008959FEF80EC089500240A9416161706A9
:1038E00018060906089500240A94121613061406F1
:1038F000050608950C94691C0E94D21CD8F3E89424
:10390000E0E0BB279F57F0F02AED3FE049EC06C00E
:10391000EE0FBB0F661F771F881F28F0B23A6207B1
:103920007307840728F0B25A620B730B840BE3957C
:103930009A9572F7803830F49A95BB0F661F771FFF
:10394000881FD2F790480C946A1D092E0394000C2E
:1039500011F4882352F0BB0F40F4BF2B11F460FF29
:1039600004C06F5F7F4F8F4F9F4F0895EF93E0FF2D
:1039700007C0A2EA2AED3FE049EC5FEB0E94961BEC
:103980000E94A51C0F90039401FC9058ECEAF0E013
:103990000C94761D57FD9058440F551F59F05F3F0A
:1039A00071F04795880F97FB991F61F09F3F79F061
:1039B00087950895121613061406551FF2CF4695E3
:1039C000F1DF08C0161617061806991FF1CF869565
:1039D0007105610508940895E894BB276627772749
:1039E000CB0197F908950E94061D0C94A51C0E9416
:1039F0006C1C38F00E94731C20F0952311F00C947D
:103A0000631C0C94691C11240C94ED1C0E94CA1CAC
:103A100070F3959FC1F3950F50E0551F629FF00121
:103A2000729FBB27F00DB11D639FAA27F00DB11D3A
:103A3000AA1F649F6627B00DA11D661F829F2227C3
:103A4000B00DA11D621F739FB00DA11D621F839F4A
:103A5000A00D611D221F749F3327A00D611D231F20
:103A6000849F600D211D822F762F6A2F11249F576E
:103A700050409AF0F1F088234AF0EE0FFF1FBB1F71
:103A8000661F771F881F91505040A9F79E3F510530
:103A900080F00C94631C0C94ED1C5F3FE4F3983EA3
:103AA000D4F3869577956795B795F795E7959F5FDA
:103AB000C1F7FE2B880F911D9695879597F908956C
:103AC0009F930E947C1C0F9007FCEE5F0C94B61C29
:103AD0009F3F31F0915020F4879577956795B79582
:103AE000880F911D9695879597F908959F938F93C9
:103AF0007F936F93FF93EF939B01AC010E94F31CA4
:103B0000EF91FF910E948A1D2F913F914F915F91FC
:103B10000C94F31CDF93CF931F930F93FF92EF92BC
:103B2000DF927B018C01689406C0DA2EEF010E94BF
:103B3000061DFE01E894A591259135914591559179
:103B4000A6F3EF010E94961BFE019701A801DA94EB
:103B500069F7DF90EF90FF900F911F91CF91DF9168
:103B6000089597FB072E16F4009407D077FD09D02F
:103B70000E94C51D07FC05D03EF4909581959F4F8E
:103B80000895709561957F4F0895AA1BBB1B51E165
:103B900007C0AA1FBB1FA617B70710F0A61BB70BBD
:103BA000881F991F5A95A9F780959095BC01CD0162
:103BB0000895EE0FFF1F0590F491E02D099481E028
:0C3BC00090E0F8940C94E41DF894FFCF02
:103BCC00B400FFFFFFFF00E1000000000000010057
:103BDC0000000000803F000000000000000000001A
:103BEC000000000000000000803F0000000000000A
:103BFC0000000000000000000000000000000000B9
:103C0C0000000000000000000000000000000000A8
:103C1C00803F00001043000000400000C040000046
:103C2C0080410000804000002041000000C00000E6
:103C3C00E040000020C1000080C1000000C1000075
:103C4C00C0C00000A0C0000064430000E0400000C1
:103C5C00C0C00000804100008040000060410000B6
:103C6C000041000080C1000040C10000C0400000C5
:103C7C004040000040C00000E0C000008D43000048
:103C8C00E0400000C0C000008040000000C0000008
:103C9C00A0C0000080410000604100000041000015
:103CAC0040C1000080C10000C04000004040000046
:103CBC0040C00000E0C00000B1430000E040000044
:103CCC0000C00000A0C00000C0C0000000C1000087
:103CDC0080400000004000008041000080C10000D6
:103CEC00008000006041000070C1000040C0000076
:103CFC00C04000000041000040C1000060C1000055
:103D0C0040400000E0C0000000000000E04000C1A6
:103D1C00808100000000000000D60BFB0BF70BECC1
:0E3D2C000BEB078B08670800000000B70E00C5
:00000001FF
