:100000000C94F90B0C94210C0C94210C0C94210CE5
:100010000C94210C0C94210C0C94210C0C94210CAC
:100020000C94210C0C94210C0C9452180C94C118B3
:100030000C94210C0C94210C0C94210C0C94210C8C
:100040000C94210C0C94210C0C94210C0C94210C7C
:100050000C94210C0C94210C0C94210C0C94F31A8C
:100060000C94210C0C94210C0C94210C0C94210C5C
:100070000C94210C0C94210C0C94210C0C94210C4C
:100080000C94210C0C94210C0C94210C0C94210C3C
:100090000C94210C0C94210C0C94210C0C94210C2C
:1000A0000C94210C0C94210C0C94210C05A84CCD23
:1000B000B2D44EB93836A9020C50B9918688083CA2
:1000C000A6AAAA2ABE000000803F04081E21211E05
:1000D00020213F20223129262125253F080C0A3FD7
:1000E0002725253D3F292939211109073B2D2D3B86
:1000F0002725253FD5F08D14A1C881CFD9F1AF2098
:10010000008040000000000000000000000000002F
:1001100000000000000000000000000000000000DF
:1001200000000000000000000000000000000000CF
:1001300000000000000000000000000000000000BF
:1001400000000000000000000000000000000000AF
:10015000000000000000000000000000000000009F
:10016000000000000000000000000000000000008F
:10017000000000000000000000000000000000007F
:10018000000000000000000000000000000000006F
:10019000000000000000000000000000000000005F
:1001A000000000000000000000000000000000004F
:1001B000000000000000000000000000000000003F
:1001C000000000000000000000000000000000002F
:1001D000000000000000000000000000000000001F
:1001E000000000000000000000000000000000000F
:1001F00000000000000000000000000000000000FF
:1002000000000000000000000000000000000000EE
:1002100000000000000000000000000000000000DE
:1002200000000000000000000000000000000000CE
:1002300000000000000000000000000000000000BE
:1002400000000000000000000000000000000000AE
:10025000000000000000000000000000000000009E
:10026000000000000000000000000000000000008E
:10027000000000000000000000000000000000007E
:10028000000000000000000000000000000000006E
:10029000000000000000000000000000F8FC6C6C92
:1002A000ECEC00F0FCBC0C0CFCF800F0FCBC0C0C02
:1002B000FCF800E0F07030303000E0F070303030AA
:1002C000000000000080E0F03CFCFC00008080802A
:1002D00080E0F0703030300030F0E000E0F03000CE
:1002E000FEFE00F4F400F0F03030F0F000E0F070CA
:1002F0003030FEFE00C0F0F0B0B0F0E000F0F030C2
:1003000010000000000000000000000000000000DD
:1003100000000000000000000000000007070606C3
:10032000070700010707060607030001070706067F
:100330000703000107070606060001070706060671
:10034000000000000001010101070701000000009A
:10035000000107070606060020313F3F0F0100009D
:100360000707000707000707000007070003070744
:10037000060607070003070606060606000707002D
:10038000000000000000000000000000000000006D
:10039000000000000000000000000000000000005D
:1003A000000000000000000000000000000000004D
:1003B000000000000000000000000000000000003D
:1003C000000000000000000000000000000000002D
:1003D000000000000000000000000000000000001D
:1003E000000000000000000000000000000000000D
:1003F00000000000000000000000000000000000FD
:1004000000000000000000000000000000000000EC
:1004100000000000000000000000000000000000DC
:1004200000000000000000000000000000000000CC
:1004300000000000000000000000000000000000BC
:1004400000000000000000000000000000000000AC
:10045000000000000000000000000000000000009C
:10046000000000000000000000000000000000008C
:10047000000000000000000000000000000000007C
:10048000000000000000000000000000000000006C
:10049000000000000000000000000000000000005C
:1004A000000000000000000000000000000000004C
:1004B000000000000000000000000000000000003C
:1004C000000000000000000000000000000000002C
:1004D000000000000000000000000000000000001C
:1004E000000000000000000000000000000000000C
:1004F00000000000000000000000000000000000FC
:10050000000000804000000000000000000000002B
:1005100000000000000000000000000000000000DB
:1005200000000000000000000000000000000000CB
:1005300000000000000000000000000000000000BB
:1005400000000000000000000000000000000000AB
:10055000000000000000000000000000000000009B
:10056000000000000000000000000000000000008B
:10057000000000000000000000000000000000007B
:10058000000000000000000000000000000000006B
:10059000000000000000000000000000000000005B
:1005A000000000000000000000000000000000004B
:1005B000000000000000000000000000000000003B
:1005C000000000000000000000800000800000002B
:1005D000000000000000000080800000000000001B
:1005E000000000000000000000000000000000000B
:1005F000000000000000800000000000000000007B
:1006000000000000000000000000000000000000EA
:100610000000000000000000417F7F40400040409B
:100620003C7F4F7B79790000007F7F404040400055
:100630000000181C177F7F1000101000387C444CFD
:1006400044000CBCF8F83C0C007F00007C00007CEF
:100650000C0C7C78007C44447F7F007C54545C5CB0
:10066000007C040C00000101017F7F017D40407C83
:100670007C007C040C007F44646C7C007C44447CE3
:10068000400000000000000000000000000000002A
:10069000000000000000000000000000000000005A
:1006A000000000000000000000000000000000004A
:1006B000000000000000000000000000000000003A
:1006C0000000010101000000000000000000000027
:1006D000000000000000000000000000000000001A
:1006E000000000000000000000000000000000000A
:1006F00000000000000000000000000000000000FA
:1007000000000000000000000000000000000000E9
:1007100000000000000000000000000000000000D9
:1007200000000000000000000000000000000000C9
:1007300000000000000000000000000000000000B9
:1007400000000000000000000000000000000000A9
:100750000000000000000000000000000000000099
:100760000000000000000000000000000000000089
:100770000000000000000000000000000000000079
:100780000000000000000000000000000000000069
:10079000000000000000000062636B7F7F7F00406C
:1007A000400141717F0F030000007F7F40404040C7
:1007B000000000071F7C707C1F033C7F4F7B797912
:1007C0000000000000000000000000000000000029
:1007D0000000000000000000000000000000000019
:1007E0000000000000000000000000000000000009
:1007F00000000000000000000000000000000000F9
:1008000000000000000000000000000000000000E8
:1008100000000000000000000000000000000000D8
:1008200000000000000000000000000000000000C8
:1008300000000000000000000000000000000000B8
:1008400000000000000000000000000000000000A8
:100850000000000000000000000000000000000098
:100860000000000000000000000000000000000088
:100870000000000000000000000000000000000078
:100880000000000000000000000000000000000068
:100890000000000000000000000000000000000058
:1008A0000000000000000000000000000000000048
:1008B0000000000000000000000000000000000038
:1008C0000000000000000000000000000000000028
:1008D0000000000000000000000000000000000018
:1008E0000000000000000000000000000000000008
:1008F00000000000000000000000000000000000F8
:1009000000000000002020000000000000000000A7
:1009100000000000000000FEFCF8F0E08080000015
:1009200000000000000000FEFFFFFFFFFFFFFFFFD1
:10093000FFFFFFFFFFFFFFFFFFFFFFFFFFFFFFFEC8
:10094000FCF8F0E0C08000FFFFFFFFFFFFFFFFFFAC
:10095000FFFFFFFFFFFFFFFFFFFFFFFFFFFFFF7F27
:100960007F3F0F07070300000000000000000000A9
:10097000000000000000007F3F3F1F07030300004E
:100980000000000000000020200000000000000027
:100990000000C0C0E0F8FCFCFE0000000000000009
:1009A00000000000000000000000C0E0E0F0FCFEDD
:1009B000FEFFFFFFFFFFFFFFFFFFFFFFFFFFFFFF48
:1009C000FFFFFFFFFFFFFFFFFF000103070F1F3FB8
:1009D0007FFFFFFFFFFFFFFFFFFFFFFFFFFFFFFFA7
:1009E000FFFFFFFFFFFFFFFF7F0000000000000090
:1009F00000000101070F1F3F7F0000000000000002
:100A00000000000000000000002A070000000000B5
:100A100000000000000000203C0E100C3E003C24B2
:100A20001C00043C0438241C0000000000000000EE
:100A30000000000000010203010405010205010697
:100A40000701040501060301060301040501020371
:100A5000010408010209010208010604010405015C
:100A6000060701040501060401040801060A010441
:100A70000801060401060901040801060A01040828
:100A8000010609010209010B0C010604010B040116
:100A90000604010B0C01060A06020301060301020B
:100AA00003010603060203060603060209060408FC
:100AB00006020806060A06040806060906060906CE
:100AC00004080602090604050602030602050606D6
:100AD0000C06040806060A06040806060C060405A9
:100AE00006060706040506060C06060306040506A8
:100AF0000607060405060603060203060B0406069F
:100B00000C060B0C06060C060B0406060706060967
:100B10000102090106090102090606090602090186
:100B2000040806040501040506040501040806047A
:100B300008060B0C010B04060B04010B0C010B0443
:100B4000060B0C06060901060A06060A01060A0635
:100B50000609010609060607010603060603010643
:100B60000306060701060706020801040801020839
:100B70000104080602080604080102090602080129
:100B8000020806020801020906020906040501021C
:100B9000050104050102050604050602050102051A
:100BA000060203010203060203010205060205060E
:100BB0000B0C06060C06060A06060A01060A060BB8
:100BC0000C060B0C01060A010B0C010604010607BA
:100BD000010B04060607010B04010607010B0406BE
:100BE0000607060B042A07003E2A3E003C203C0074
:100BF0003C04003C043C003A003C043C004C547C67
:100C000000003C0E100C3E0038243C20003C043C0C
:100C100000010203010405010403010405010203AC
:100C20000104060104060102030104020102070196
:100C30000402010203010402010207010408010485
:100C4000080102070104070104050109060109055D
:100C50000109060104050104060104020109080155
:100C600009020109080104020104080A0902010439
:100C7000020109020104020A09020A04020A040824
:100C80000A09020A09080A09020A04080A04020AEF
:100C900004080109080104080109080A04080A09EE
:100CA000080109080A09020109020A0902010908E2
:100CB0000A09080B04020B09080B09020B09080BAF
:100CC00004020B04080C09020B04020B09020B04BA
:100CD000020C09020C04020C02070C04080C0407A5
:100CE0000C04080C02070C04020C02030C04020C96
:100CF00002070C04020C02030C04060C04060C028E
:100D0000030C04050C04050C02030C04030C04087A
:100D10000C09020C09080C09020C04080C04020C52
:100D200004060C09050C09060C09050C04060C0444
:100D3000050C04080B09080B04080B09080C04082F
:100D40000C09080B09080C09020B09020C09020B1B
:100D500009080C09080A090501040501090501042F
:100D6000050A09050A04050A04060A09050A09060E
:100D70000A09050A04060A04050A0406010906010F
:100D800004060109060A04060A09060109060A09F9
:100D9000050109050A09050109060A09060B0405EA
:100DA0000B09060B09050B09060B04050B04060CC1
:100DB00009050B04050B09050B04050C09050C04BA
:100DC000050C04060B09060B04060B09060C0406A9
:100DD0000C09060B09060C09050B09050C09050B86
:100DE00009060C09060C04030102030104030102B5
:100DF000030C04030C02030C02070102030C0203A0
:100E00000102030C02070102070C0207010407019B
:100E100002070104070C02070C04070104070A0477
:100E2000080104080A04080104070B04080C04075D
:100E30000B04080104070B04080C04070C04080A3F
:100E400004080B04020A04020B04020A04080B043F
:100E5000080A04020A04060104060A04060A040237
:100E60000B04060A04020104060104020B04020B2F
:100E700004060A04020B04060B04020C04060C040C
:100E8000060B04020C04020A04060B04050A0405FE
:100E90000B04050A04060B04060A040501040301F9
:100EA00004050104030A04050C04030B04050C04E7
:100EB000030A04050C04030B04050C04052A0700AF
:100EC00000000000000000000000000000203E2A9A
:100ED0003E0018141C507E0018141C100000000066
:100EE00000000000000000000001020301040501F1
:100EF00004030104050102030102050104060103C4
:100F000007010306010401010307010406010308A8
:100F100001040301030201040501030201040301AA
:100F2000030701040101030801030801040101048E
:100F30000301030201040501030901040A01030975
:100F400001040501030901040A01030A0103070161
:100F50000B08010B07010B0801030701030801033C
:100F600002010B09010B02010B0901030201030934
:100F70000C0B02010302010B020103020C0B020C19
:100F800003020C03090C0B020C0B090C0B020C03E3
:100F9000090C03020C0309010B09010309010B09E8
:100FA0000C03090C0B09010B090C0B02010B020CC1
:100FB0000B02010B090C0B090D03020D0B090D0BA4
:100FC000020D0B090D03020D03090E0B020D0302A6
:100FD0000D0B020D03020E0B020E03020E02030E96
:100FE00004050E02050E04050E02030E04010E0494
:100FF0000A0E03090E030A0E04050E03090E040A65
:101000000E03020E04050E03080E04010E03080E63
:1010100004050E03090E04050E03020E03080E0458
:10102000010E03070E04060E03070E04010E03074C
:101030000E04060E03060E03090E0B020E0B090E1C
:101040000B020E03090E03020E03080E0B070E0B14
:10105000080E0B070E03080E03070E03090D0B09FC
:101060000D03090D0B090E03090E0B090D0B090EDB
:101070000B020D0B020E0B020D0B090E0B090C0BD4
:1010800007010307010B070103070C0B070C0307FC
:101090000C03080C0B070C0B080C0B070C03080CBB
:1010A00003070C0308010B08010308010B080C03DC
:1010B000080C0B08010B080C0B07010B070C0B07A6
:1010C000010B080C0B080D03070D0B080D0B070D8A
:1010D0000B080D03070D03080E0B070D03070D0B7F
:1010E000070D03070E0B070E03070E03080D0B0871
:1010F0000D03080D0B080E03080E0B080D0B080E50
:101100000B070D0B070E0B070D0B080E0B080E033C
:10111000060104060103060104060E03060E04067A
:101120000E02050102030E02030102050102030E75
:1011300002050E040A01030A01040A01030A0E044F
:101140000A0E030A01030A0C03090103090C03092F
:1011500001030A0D03090E030A0D030901030A0D19
:1011600003090E030A0E03090C03090D03020C0305
:10117000020D03020C03090D03090C03020C030802
:101180000103080C03080C03020D03080C03020101
:1011900003080103020D03020D03080C03020D03F3
:1011A000080D03020E03080E03080D03020E0302CE
:1011B0000C03080D03070C03070D03070C03080DB0
:1011C00003080C03070103060103070103060C03D0
:1011D000070E03060D03070E03060C03070E030696
:1011E0000D03070E03070E020501040501020501A8
:1011F00004050E02050E04050E040A0104050E0482
:10120000050104050E040A01040A0E040101040686
:101210000E04060104060E04010104010104030189
:1012200004010102030E0401010203010401010291
:10123000030E04010E02032A0700000000003824F8
:1012400022320E043C100C301C2C003C0404003FE5
:101250001028243C003C043C003824243F000000BB
:10126000000000010203010403010205010406015C
:10127000020301020601020301040601040301073F
:1012800008010206010709010708010A0801020B0B
:1012900001070801020B0102010107080102010117
:1012A0000206010203010709010206010205010706
:1012B0000901020301020C010709010205010709E6
:1012C00001020C010D09010E0B01060F010E0F01A9
:1012D000070801060401060F0106040107090106BB
:1012E0001001060B01060F010E0B01070801060F86
:1012F00001060B0106040107080107090106100198
:101300000709010611010604010E10010E04010E69
:1013100010010604010610120E04010604010E0459
:10132000010604120E04120604120610120E041214
:101330000E10120E04120610120604120610010EF0
:1013400010010610010E10120610120E10010E10E0
:10135000120E04010E04120E04010E10120E100DD6
:1013600006040D0E100D0E040D0E100D06040D06D4
:1013700010130E040D06040D0E040D0604130E04C6
:10138000130604130709130610130611130610138E
:10139000020513060413061013070913020C1306A3
:1013A00010130E04130E10130E041306101306046C
:1013B00013060F130E0B130E0F13060F13070B1349
:1013C0000E0B13060413020313060F130201130678
:1013D0000F13020313060F13020113070B1306105A
:1013E00013020C13020513020C130709130D091342
:1013F0000406130203130403130203130406130267
:101400000113060413020513020313020B13070B47
:1014100013020113140813070B13020B13070B130A
:1014200014081307081306100D0E100D06100D0EEC
:1014300010130610130E100D0E10130E040D0E04D3
:10144000130E040D0E10130E1013060B0D060B0DCC
:101450000E0B130E0B13060B0D0E0B13060B130EB8
:101460000B13070B120E0B01060B010E0B12060BD2
:1014700001060B120E0B12060F120E0B120E0F129C
:101480000E0B12060F12060B12060F010E0F0106AD
:101490000F010E0F12060F120E0F010E0F120E0B80
:1014A000010E0B120E0B010E0F120E0F0D060B0D7F
:1014B0000E0F0D0E0B0D0E0F0D060B0D060F130666
:1014C0000F0D0E0F0D060F0D0E0F13060F130E0F3F
:1014D0000D0E0F130E0B0D0E0B130E0B0D0E0F1327
:1014E0000E0F130708010A08010708010A0813076D
:1014F00008131408130D09010709010D0901070953
:10150000130D091307090106111206100106101226
:1015100006100106110D06101306110D0610010626
:10152000110D06101306111306101206100D0604F5
:101530001206040D06041206100D061012060412FF
:10154000060F01060F12060F1206040D060F1206F3
:101550000401060F0106040D06040D060F12060411
:101560000D060F0D060413060F13060F0D060413C8
:10157000060412060F0D060B12060B0D060B1206C3
:101580000F0D060F130403010406130406010403E0
:1015900001040613040313040301020301040301FD
:1015A000020313040313020313020C0102051302C6
:1015B0000501020513020C01020C010708150708BA
:1015C00013070813020101020B13020B01020B1394
:1015D0000201010201130D0901020C13020C0102A8
:1015E0000C130D09010D0913040313020313020563
:1015F00013020501020501040313020301040301A0
:10160000020301040313020313040313020501047C
:101610000313040301070913061101061113061130
:10162000010709130709010206010201010406135B
:101630000201010406010201010406130201130460
:101640000613070813060B13070B01060B150708F3
:1016500001070812060B15070801060B0D060B15EE
:10166000070812060B1507080D060B13060B1307C8
:101670000815070813060B13020B010A08131408B8
:10168000010A0813020B01020B40180000000000C1
:101690000000000000000000000000C0C0C0C0C08A
:1016A00080808000000000000000000000000000BA
:1016B000000000000040C0C000000000000000006A
:1016C000000000000000000000000000000000001A
:1016D00000606464646464240400E0FE1F1918F868
:1016E000EC070380FE3E0280C0FE1E0280983C3262
:1016F000F2E20600C0FC3F0702C2FE1E000060646A
:101700006464646404000000000000000000000045
:1017100000000000000000000001010101000101C3
:1017200001010000010101010101010001010101AC
:1017300001000001010101000101010100000000A0
:1017400000000000000000000000001B0806FEF87A
:101750007C0E3EF0FC3E0200FBFB00FCFC0C04FC9B
:10176000F80078FC8484FFFF14080F3C3C071C3C05
:101770000F00700E003F083424003CA4A4FC080BAA
:10178000000202020000090400000102020000053C
:101790002400100105240101010424020605240689
:1017A00000010705810310004009040100020A003E
:1017B0000000070502024000000705830240000008
:1017C0000403090412010002EF02014041233780A3
:1017D00000010102030141726475696E6F204C4C77
:1017E000430041726475696E6F204D6963726F00CA
:1017F0003D1B11241FBECFEFDAE0DEBFCDBF13E0EB
:10180000A0E0B1E0ECECF9E402C005900D92A83044
:10181000B107D9F728E0A8E0B3E001C01D92AC34CD
:10182000B207E1F71BE0C9EFDBE004C02197FE013E
:101830000E94DE24C83FD107C9F70E945F1B0C94A9
:10184000E4240C9400009C01480F592F511D4115B0
:10185000510541F1803891052CF54138510514F0BE
:1018600040E850E0421BCB018770992791E001C00E
:10187000990F8A95EAF7FB0183E0F595E7958A953C
:10188000E1F7F695FE2FEE27F795E795E20FF31FA8
:10189000EF50FC4F415030F08191DF011197892BBF
:1018A0008C93F8CF089590914708982329F490914C
:1018B0004608982381E009F480E00895462F477098
:1018C00066956695669590E8699FB00111246F5002
:1018D0007C4F860F972F911DFC01808190E021E0C5
:1018E00030E0042E02C0220F331F0A94E2F7822355
:1018F000932302C0959587954A95E2F70895E1EF05
:10190000F3E0A0E0B8E000800EBC8111012C11973B
:10191000A0FDFDCF0192B9F70DB40895FC018091AF
:101920005003882311F13FB7F89482E08093E900D7
:101930002091F200822F90E01816190614F481E02D
:1019400090E0882339F0289A44E640934F03409171
:10195000F1004083222339F02091F200211103C0CD
:101960002BE62093E8003FBF08958FEF9FEF089587
:101970002FB7F89483E08093E9009091E800892FD5
:10198000807295FF04C09091F20080E4891B2FBF04
:1019900008958091470381110DC082E08093430335
:1019A00084E080934403109246031092450381E043
:1019B0008093470383E493E00895CF93DF931F92CE
:1019C000CDB7DEB76983DC01ED91FC910280F38134
:1019D000E02D41E050E0BE016F5F7F4F09950F9011
:1019E000DF91CF91089583E08093E9008091F20028
:1019F000882319F08AE38093E80008950E94B80CC8
:101A000090E00895CF93DF931F92CDB7DEB7FC012E
:101A10008485958597FD08C02FEF3FEF3587248794
:101A20000F90DF91CF910895CE0101960E948E0C08
:101A3000019719F4898190E0F3CF8FEF9FEFF0CFFA
:101A40000F931F93CF93DF931F92CDB7DEB78C0117
:101A5000FC018485958597FF0BC0CE0101960E94FD
:101A60008E0C019771F4898190E0F8019587848745
:101A7000F801848595850F90DF91CF911F910F918B
:101A800008958FEF9FEFF1CFFC018485958597FD39
:101A90000BC09FB7F89482E08093E9008091F20038
:101AA0009FBF90E0019608959FB7F89482E08093DD
:101AB000E9008091F2009FBF90E0089540913D03BE
:101AC00050913E0320913B0330913C034217530752
:101AD000B4F49091E8009570E1F39091E80092FDE4
:101AE00019C08093F10080913D0390913E030196CF
:101AF0008F739927892B19F48EEF8093E8008091DA
:101B00003D0390913E03019690933E0380933D03E5
:101B100081E0089580E00895EF92FF920F931F9364
:101B2000CF93DF93F82E192FE62E042F81E0860F36
:101B3000880F0E945E0D83E00E945E0DCF2DD12F95
:101B4000EC0EFD2EF11CCE15DF05B9F007FF13C01A
:101B5000FE0184910E945E0D182F80E00E945E0DB0
:101B6000812321968111EFCFDF91CF911F910F91AA
:101B7000FF90EF9008958881EDCF81E0F5CFDF925F
:101B8000EF92FF920F931F93CF93DF93D82E8A018A
:101B9000EB017B01E40EF51ECE15DF0559F0D7FEF3
:101BA00012C0FE0184910E945E0D21968111F4CF36
:101BB0000FEF1FEFC801DF91CF911F910F91FF90A1
:101BC000EF90DF9008958881EECF0F931F93CF930E
:101BD000DF931F92CDB7DEB782E0898342E450E005
:101BE0006EE777E180E80E94BF0D0E94C90CDC011E
:101BF00012960D911C910115110589F0D801ED91F6
:101C0000FC910280F381E02DBE016F5F7F4FC80120
:101C1000099597FD04C0F80100851185ECCF8981F5
:101C20000F90DF91CF911F910F910895615030F087
:101C30002091F100FC0120830196F8CF289A84E6D8
:101C400080934F0308953FB7F894809109039091D2
:101C50000A03A0910B03B0910C0326B5A89B05C005
:101C60002F3F19F00196A11DB11D3FBFBA2FA92F1B
:101C7000982F8827BC01CD01620F711D811D911D18
:101C800042E0660F771F881F991F4A95D1F7089584
:101C90008F929F92AF92BF92CF92DF92EF92FF927C
:101CA0006B017C010E94230E4B015C01C114D10425
:101CB000E104F104B9F00E94230E681979098A0938
:101CC0009B09683E73408105910580F321E0C21AAB
:101CD000D108E108F10888EE880E83E0981EA11C67
:101CE000B11CE4CFFF90EF90DF90CF90BF90AF900A
:101CF0009F908F90089565E070E080E090E00C94F4
:101D0000480E8F929F92AF92BF92CF92DF92EF9246
:101D1000FF920F931F93CF93DF936C017B018A0196
:101D200080911101882309F45CC0809150038823BD
:101D300009F457C08091420380FF05C08091E00004
:101D400082608093E000E801B12C8AEFA82E93E036
:101D5000892E2AE3922E209711F4BB20D9F10E94FC
:101D6000B80C81110AC0AA94AA20D9F161E070E0F0
:101D700080E090E00E94480EEECF8C171D0611F017
:101D80000CF08C2F9FB7F8948092E9002091E80026
:101D900025FD02C09FBFDFCF282F30E0C21BD30B31
:101DA000F701815020F041914093F100FACFE20E0B
:101DB000F31EBB2021F09092E800B12CEBCF809174
:101DC000E80085FDE7CF9092E800BB24B39420970C
:101DD00009F3F3CF5D9A84E6809341031016110650
:101DE0003CF081E090E0F6019383828310E000E014
:101DF000C801DF91CF911F910F91FF90EF90DF907D
:101E0000CF90BF90AF909F908F9008956F927F92E8
:101E10009F92AF92BF92CF92DF92EF92FF920F9379
:101E20001F93CF93DF93DC01FA01C4913196E491C3
:101E30004E5F5F4FEC2EF12C2223E1F001E010E029
:101E40009E2F977011F410E000E08E2F86958695F6
:101E50008695800F912F911D8E9D80018F9D100D75
:101E60009E9D100D1124209FC001219F900D1124D3
:101E7000480F591FC7018A0F9B1F009709F467C0BD
:101E80009B012E0F311D232B09F461C04115510513
:101E900009F45DC0F62FF7709F2E23E075956795C6
:101EA0002A95E1F7362F20E82A1B803891050CF49B
:101EB0002C2F91E08E2F877009F490E0E695E6953F
:101EC000E6959E0FFB01E90FF11D399714F098E09C
:101ED000961BFB01F695FE2FEE27F795E795AE0FC3
:101EE000BF1FC92C092C000CDD08832F861B891706
:101EF00070F5ED01CF50DC4F10E000E0021708F55F
:101F0000FA01E00FF11FE491F0E03F010C2C02C058
:101F1000660C771C0A94E2F737FD03C08881862996
:101F20008883992051F0373044F45E0180E8A80E90
:101F3000B11CF5018081872980830F5F1F4F219697
:101F4000DDCF4E0D5F1DA058BF4F3F5FCECFDF915D
:101F5000CF911F910F91FF90EF90DF90CF90BF90A6
:101F6000AF909F907F906F9008958FB18095807F04
:101F7000669B88601C9B8460089520E191E061FD70
:101F800094E060FD990F62FD9295687F269FD001D5
:101F90001124A80FAF50BC4F8C91442319F0892B0A
:101FA0008C93089590958923FBCF8038910528F470
:101FB0006034710510F40C94BD0F08952F923F9278
:101FC0004F925F926F927F928F929F92AF92BF9249
:101FD000CF92DF92EF92FF920F931F93CF93DF93F5
:101FE000EC018B017A016901C61AD70AD7FE03C03A
:101FF000D194C194D10847018C1A9D0A97FE03C061
:102000009194819491088C149D0454F49E2D8F2DED
:102010007901292F382F9C2F8D2FE801092F182F98
:10202000EC16FD0654F4902F812F8901292F382FAB
:102030009C2F8D2FE701E92EF82E17012C1A3D0A4F
:102040002901401A510A57FE03C051944194510886
:10205000310137FE03C08FEF681A780A75946794D0
:102060008FEF021713070CF481E0A82E880FBB082E
:10207000EC16FD06A4F041E0BE01C8018C149D04DD
:1020800014F0B801CE010E94D50F6418750877FED0
:1020900004C00A0D1B1D620C731C2196E9CFDF9151
:1020A000CF911F910F91FF90EF90DF90CF90BF9055
:1020B000AF909F908F907F906F905F904F903F90E8
:1020C0002F9008950895AF92BF92CF92DF92EF9232
:1020D000FF920F931F93CF93DF93EC015B0180E39B
:1020E000C82ED12C10E000E0F12CE12C6C2F8C2DAF
:1020F0000E945E0C882399F08FEFE81AF80A219766
:102100000032110599F7C701DF91CF911F910F910F
:10211000FF90EF90DF90CF90BF90AF9008958FEF3A
:10212000C81AD80A2196A114B10421F0F501E00FD4
:10213000F11FC0830F5F1F4FE3CF8F929F92AF922B
:10214000BF92EF92FF920F931F93CF93DF937C0187
:10215000EB018A01FA01208131814281538168813A
:1021600079818A819B810E94F8234B015C01F801EF
:1021700024813581468157816C817D818E819F814B
:102180000E94F8239B01AC01C501B4010E941222F8
:102190004B015C01F80120853185428553856885B6
:1021A00079858A859B850E94F8239B01AC01C50136
:1021B000B4010E941222F7016083718382839383AA
:1021C000F80120813181428153816C857D858E8526
:1021D0009F850E94F8234B015C01F8012481358121
:1021E00046815781688979898A899B890E94F82369
:1021F0009B01AC01C501B4010E9412224B015C019C
:10220000F80120853185428553856C897D898E89C9
:102210009F890E94F8239B01AC01C501B4010E9473
:102220001222F7016483758386839783F8012081E6
:10223000318142815381688D798D8A8D9B8D0E9479
:10224000F8234B015C01F8012481358146815781D7
:102250006C8D7D8D8E8D9F8D0E94F8239B01AC012E
:10226000C501B4010E9412224B015C01F8012085D6
:1022700031854285538568A179A18AA19BA10E94DD
:10228000F8239B01AC01C501B4010E941222F701A1
:102290006087718782879387DF91CF911F910F911C
:1022A000FF90EF90BF90AF909F908F9008952F92E6
:1022B0003F924F925F926F927F928F929F92AF92D6
:1022C000BF92CF92DF92EF92FF920F931F93CF9323
:1022D000DF93CDB7DEB7C55BD1090FB6F894DEBF8B
:1022E0000FBECDBFC955DF4F99838883C75AD040F1
:1022F000C756DF4F79836883C959D0408901FB01F4
:1023000060817181828193810E94F5229B01220F5D
:10231000331FA901460F571FC755DF4F5983488305
:10232000C95AD04080E090E0A0E4B0E4809351032B
:1023300090935203A0935303B0935403C80168E6EB
:1023400071E00E94CA24C955DF4FE881F981C75A5C
:10235000D040C956DF4FF983E883C759D04023E402
:1023600030E02C0F3D1F2C5F3F4FC055DF4F3983AE
:102370002883C05BD040AE014F5F5F4FCF56DF4F29
:1023800059834883C159D0409C01990F440B550B88
:10239000CE54DF4F288339834A835B83C25BD040AE
:1023A000C956DF4F88819981C759D040C955DF4F41
:1023B00048815981C75AD040841B950BC755DF4FC0
:1023C000E881F981C95AD0408E179F070CF0F4C5F7
:1023D000C956DF4FE881F981C759D040949124E074
:1023E000929FF0011124C756DF4F48815981C95986
:1023F000D040E40FF51F80819181A281B381809349
:10240000550390935603A0935703B0935803C956AE
:10241000DF4FE881F981C759D0403196E49154E00B
:10242000E59FF0011124C756DF4F88819981C95972
:10243000D040E80FF91F80819181A281B381809300
:10244000590390935A03A0935B03B0935C03C9565E
:10245000DF4FE881F981C759D0403296E49194E08A
:10246000E99FF0011124C756DF4F28813981C959EE
:10247000D040E20FF31F80819181A281B3818093CC
:102480005D0390935E03A0935F03B0936003C9560E
:10249000DF4FE881F981C759D0403396E49134E0A9
:1024A000E39FF0011124C756DF4F48815981C95974
:1024B000D040E40FF51F80819181A281B381809388
:1024C000610390936203A0936303B0936403C956BE
:1024D000DF4FE881F981C759D0403496E49154E048
:1024E000E59FF0011124C756DF4F88819981C959B2
:1024F000D040E80FF91F80819181A281B381809340
:10250000650390936603A0936703B0936803C9566D
:10251000DF4FE881F981C759D0403596E49194E0C6
:10252000E99FF0011124C756DF4F28813981C9592D
:10253000D040E20FF31F80819181A281B38180930B
:10254000690390936A03A0936B03B0936C03C9561D
:10255000DF4FE881F981C759D0403696E49134E0E5
:10256000E39FF0011124C756DF4F48815981C959B3
:10257000D040E40FF51F80819181A281B3818093C7
:102580006D0390936E03A0936F03B0937003C956CD
:10259000DF4FE881F981C759D0403796E49154E084
:1025A000E59FF0011124C756DF4F88819981C959F1
:1025B000D040E80FF91F80819181A281B38180937F
:1025C000710390937203A0937303B0937403C9567D
:1025D000DF4FE881F981C759D0403896E49194E003
:1025E000E99FF0011124C756DF4F28813981C9596D
:1025F000D040E20FF31F80819181A281B38180934B
:10260000750390937603A0937703B09378038CE3DC
:10261000C055DF4FE881F981C05BD04011928A95A7
:10262000E9F713E0CD57DF4F1883C358D04080E45B
:10263000CF56DF4FE881F981C159D04011928A9578
:10264000E9F722961FAF229781E023968FAF239759
:102650006091510370915203809153039091540300
:102660000E94F5227B01CE54DF4F688179818A81F7
:102670009B81C25BD0400E942D2329E33AEF4EE8B4
:102680005CE30E94F8232B013C01CC57DF4F1883F9
:10269000C458D0400E9465244B015C01C301B201C3
:1026A0000E947E2227966CAF7DAF8EAF9FAF27979B
:1026B0009501840130582F960CAF1DAF2EAF3FAF60
:1026C0002F9720E030E040E85FE367962CAF3DAF06
:1026D0004EAF5FAF67976F968CAE9DAEAEAEBFAE9E
:1026E0006F97A7966CAF7DAF8EAF9FAFA79741E571
:1026F00053E0C456DF4F59834883CC59D0408A01F8
:1027000051E0E51AF10808F44CC0F8018481958184
:10271000A681B78189879A87AB87BC878085918599
:10272000A285B3858D839E83AF83B8878485958585
:10273000A685B78589839A83AB83BC83AE014F5F3F
:102740005F4FBE016D5B7F4FCE018B579F4F0E9445
:102750009D10CB57DF4F88819981AA81BB81C558D5
:10276000D040F80184839583A683B783C757DF4F92
:1027700088819981AA81BB81C958D040808791877F
:10278000A287B387C357DF4F88819981AA81BB8114
:10279000CD58D04084879587A687B787045F1F4FA1
:1027A000AFCF80E4CF56DF4FE881F981C159D040E7
:1027B00011928A95E9F783E022968FAF229781E004
:1027C00023968FAF239760915103709152038091AC
:1027D0005303909154030E94F5227B0101E513E01D
:1027E000F1E0EF1AF10808F445C0F8018481958101
:1027F000A681B78189879A87AB87BC8780859185B9
:10280000A285B3858D839E83AF83B88784859585A4
:10281000A685B78589839A83AB83BC83AE014F5F5E
:102820005F4F62E171E0CE018D5B9F4F0E949D1072
:1028300027968CAD9DADAEADBFAD2797F8018483D3
:102840009583A683B7832B968CAD9DADAEADBFAD02
:102850002B9780879187A287B3872F968CAD9DADEC
:10286000AEADBFAD2F9784879587A687B787045FE6
:102870001F4FB6CF60915103709152038091530363
:10288000909154030E94F5227B0101E513E0F1E0F1
:10289000EF1AF10808F441C02091A6013091A70178
:1028A0004091A8015091A901F80160857185828548
:1028B00093850E94F8232B013C012091B6013091B1
:1028C000B7014091B8015091B901F8016481758157
:1028D000868197810E94F8234B015C01209196012B
:1028E000309197014091980150919901F8016485C8
:1028F0007585868597850E94F823F8016483758322
:102900008683978340865186628673868486958601
:10291000A686B786045F1F4FBACF609151037091AE
:10292000520380915303909154030E94F5227B013E
:1029300001E513E0F1E0EF1AF10880F12091680160
:102940003091690140916A0150916B01F8016085F5
:102950007185828593850E94F8234B015C0120914B
:102960005401309155014091560150915701F801A1
:1029700064857585868597850E94F823F8016483B0
:1029800075838683978380869186A286B386148614
:10299000158616861786045F1F4FCCCF60915103B2
:1029A0007091520380915303909154030E94F52239
:1029B0009B01220F331FA901460F571FC555DF4F3B
:1029C00059834883CB5AD04081E090E0CF55DF4F08
:1029D00099838883C15AD040C555DF4F28813981FA
:1029E000CB5AD040CF55DF4F48815981C15AD04092
:1029F000421753070CF0BEC220E030E040E852E43A
:102A0000C456DF4FE881F981CC59D040648175818B
:102A1000868197810E9412220E94F5225B01CD5689
:102A2000DF4F79836883C359D04020E030E040E035
:102A300052E4C456DF4FE881F981CC59D04060851B
:102A40007185828593850E9412220E94F5226B0176
:102A5000CB56DF4F79836883C559D04020E030E002
:102A600040E852E4C456DF4FE881F981CC59D040A8
:102A700060897189828993890E9412220E94F522BD
:102A8000862E962E172F20E030E040E052E4C45608
:102A9000DF4FE881F981CC59D040648975898689F6
:102AA00097890E9412220E94F5222B011B0120E02F
:102AB00030E040E852E4C456DF4FE881F981CC5958
:102AC000D040648D758D868D978D0E9412220E9454
:102AD000F522C556DF4F6883CB59D040C256DF4F31
:102AE0007883CE59D040062F20E030E040E052E419
:102AF000C456DF4FE881F981CC59D04060A171A163
:102B000082A193A10E9412220E94F522AB01CF550F
:102B1000DF4F28813981C15AD040275F3F4FCF55C1
:102B2000DF4F39832883C15AD0404C145D040CF424
:102B300030C26C157D052CF1CB56DF4F4881598191
:102B4000C559D040CB56DF4F79836883C559D040F3
:102B5000CD56DF4F0881C359D040C556DF4FF881AD
:102B6000CB59D040CD56DF4FF883C359D040C25621
:102B7000DF4F2881CE59D040CC56DF4F2883C4592F
:102B8000D040CB56DF4F88819981C559D0408215FE
:102B90009305ECF4322D232D1C01CB56DF4F3883E7
:102BA000C559D040CA56DF4F2883C659D040292D79
:102BB000CD56DF4F9880C359D040CD56DF4F288384
:102BC000C359D040CC56DF4F1883C459D040102F82
:102BD000E42EF92CB92CB01AB7FEA1C0B1949FEF26
:102BE000C056DF4F9883C05AD040C355DF4F28826C
:102BF000CD5AD040722C7E18CD56DF4FF881C35984
:102C0000D040C255DF4FF883CE5AD040DF2ED01AC5
:102C1000D7FE8CC0D1942FEFC556DF4F2883CB59F8
:102C2000D040CB56DF4F8881C559D040C155DF4FCA
:102C30008883CF5AD040982F9E19C256DF4F988371
:102C4000CE59D040B7140CF078C02B2DB72C722E73
:102C5000E1E0C156DF4FE883CF59D040C256DF4F85
:102C6000F881CE59D040A12CDF164CF42D2DDF2E4B
:102C7000C256DF4F2883CE59D040AA24A3942D2DCD
:102C80000D2C000C330BCD55DF4F39832883C35AED
:102C9000D040CD2CC5944215530509F4CAC04B2C25
:102CA0000B2C000C55088B2C8594612C6414150496
:102CB0000CF0BFC0902F212F011710F4912F202F5F
:102CC000CB55DF4F1882C55AD040641415040CF060
:102CD00048C06394870C84141504ACF18B18C1565A
:102CE000DF4F3881CF59D0403323D9F1C056DF4F61
:102CF0004881C05AD040CB55DF4F4883C55AD04099
:102D0000EACFC456DF4FE881F981CC59D040B49660
:102D1000C456DF4FF983E883CC59D0405DCEE1E063
:102D2000C056DF4FE883C05AD0405FCF31E0C55670
:102D3000DF4F3883CB59D04074CFC156DF4F188254
:102D4000CF59D0408BCFC156DF4F5881CF59D0409B
:102D5000511107C0C056DF4F8881C05AD040080FBC
:102D6000B4CFCA55DF4F1882C65AD040C256DF4F83
:102D7000E881CE59D040CE0ECD55DF4F48815981E4
:102D8000C35AD040C416150674F0CD18AA20A1F07D
:102D9000C556DF4F5881CB59D040CA55DF4F5883B5
:102DA000C65AD040E9CFA11007C0C556DF4F888171
:102DB000CB59D040180FDACFEFE3EE15A0F0802FFB
:102DC000201708F4822F181708F4812F402F0917B5
:102DD00008F4492F411708F4412F481B6E2D70E06D
:102DE00090E00E94230CC156DF4FF881CF59D040AC
:102DF000F11106C0C056DF4F2881C05AD040020FE3
:102E0000CB55DF4F3881C55AD040030FA11006C003
:102E1000C556DF4F4881CB59D040140FCA55DF4FFC
:102E20005881C65AD040150FE394E214130409F0F8
:102E30003DCFC255DF4F0881CE5AD04009196624D4
:102E4000639407FF03C0019566246A94C155DF4F60
:102E5000B880CF5AD040C355DF4F8881CD5AD0407B
:102E6000B81A772473940B1524F08B2DB02E082FED
:102E7000712C2B2C0B2C000C33088B2C8594912C53
:102E80009214130411F00CF03CCF2F2D912FF1165A
:102E900010F4212F9F2D9214130444F4800E8214F9
:102EA00013043CF18B18562C711001C0512C412C8D
:102EB000CD56DF4FE881F981C359D0401E171F0658
:102EC00031F1C256DF4FF881CE59D040CF0ECD55EB
:102ED000DF4F48815981C35AD040C416150674F09B
:102EE000CD18AA20A1F0C556DF4F4880CB59D0405D
:102EF000EECF7110DBCFF60C9394CDCFA11007C0AD
:102F0000C556DF4F5881CB59D040150FD1CF8FE335
:102F10008E15A8F08F2D9F1508F4892F181708F427
:102F2000812F9F2DF21608F4922F412F191708F4C4
:102F3000492F481B6E2D70E090E00E94230C711009
:102F400001C0F60CF50CA11006C0C556DF4F9881E4
:102F5000CB59D040190F140DE394CB56DF4FE881C5
:102F6000F981C559D040EE161F0611F00CF0C9CEFC
:102F7000939486CFC956DF4F28813981C759D040F5
:102F8000275F3F4FC956DF4F39832883C759D04049
:102F900007CA641575050CF41ACECD56DF4F88822A
:102FA000C359D0409A2C1B2DCB56DF4F59824882F3
:102FB000C559D0401601C0CDCB54DF4F0FB6F894A1
:102FC000DEBF0FBECDBFDF91CF911F910F91FF905C
:102FD000EF90DF90CF90BF90AF909F908F907F90B9
:102FE0006F905F904F903F902F900895CF93DF9315
:102FF000EA0120910301309104014FE050E00E946A
:10300000571120E0AE0168E370E08BE290E0DF91C1
:10301000CF910C94060FAF92BF92CF92DF92EF92B6
:10302000FF921F93CF93DF9300D000D000D0CDB795
:10303000DEB75B019E012F5F3F4F690126E0F6017D
:1030400011922A95E9F7BC01990F880B990B2AE098
:10305000A6010E946D218BE7E82EF12C15E011509E
:1030600088F0F601E10FF11D208120532A3030F461
:103070004AEC50E0B501C7010E94060FF5E0EF1AD7
:10308000F108EDCF26960FB6F894DEBF0FBECDBF88
:10309000DF91CF911F91FF90EF90DF90CF90BF9085
:1030A000AF9008951F920F920FB60F9211248F9335
:1030B0009F938091E1009091E100937F9093E100D4
:1030C00083FF0FC01092E90091E09093EB00109203
:1030D000EC0092E39093ED001092500398E09093EF
:1030E000F00082FF22C093E09093E9009091F200FB
:1030F000992319F09AE39093E80090914103992362
:1031000041F090914103915090934103911101C07E
:103110005D9890914F03992341F090914F03915006
:1031200090934F03911101C0289884FF18C080919B
:10313000E2008E7E81608093E2008091E1008F7ECC
:103140008093E100809142038E7E806180934203F0
:103150009F918F910F900FBE0F901F90189580FF39
:10316000F7CF8091E2008E7E80618093E2008091B3
:10317000E1008E7E8093E100809142038E7E81602B
:10318000E5CF1F920F920FB60F921124CF92DF92CC
:10319000EF92FF920F931F932F933F934F935F9361
:1031A0006F937F938F939F93AF93BF93EF93FF930F
:1031B000CF93DF93CDB7DEB76C97DEBFCDBF109254
:1031C000E9008091E80083FF25C068E0CE014596C4
:1031D0000E94160E82EF8093E8008D8987FF39C028
:1031E0009091E80090FFFCCF982F907609F034C1C1
:1031F0009E894F89588D2F89F88C911131C0803864
:1032000061F5809140038093F1001092F1008EEF00
:103210008093E8006C960FB6F894DEBF0FBECDBF6A
:10322000DF91CF91FF91EF91BF91AF919F918F91DE
:103230007F916F915F914F913F912F911F910F91CE
:10324000FF90EF90DF90CF900F900FBE0F901F90E8
:1032500018959EEF9093E800C7CF1092F100D5CF5C
:10326000913059F48111D3CF4130510581F68091CD
:1032700040038D7F80934003CACF933049F481117E
:10328000C6CF4130510519F6809140038260F2CFDC
:10329000953041F48091E80080FFFCCF20682093B6
:1032A000E300B5CF963009F0A9C00B8D1C8D22E04C
:1032B0001092E90010923E0310923D03F2122EC0CC
:1032C00010923C0310923B030E94E50D1F8299E08F
:1032D0009983FA8291E09E8390EA98879AEF998782
:1032E00020913D0330913E03275F3F4F3C832B836A
:1032F0008D831092E90010923E0310923D031093CB
:103300003C0300933B0349E050E0BE016F5F7F4FF9
:1033100080E00E94BF0D0E94E50D79CF10933C0321
:1033200000933B030E94C90CDC0112960D911C9185
:103330000115110509F451C1D801ED91FC910480EA
:10334000F581E02DBE016B5E7F4FC80109950097A6
:1033500009F03EC1F80100851185EACFF3E0FF12C4
:103360000EC08F89882309F440C0823061F440E8A0
:103370006DE082EE97E10E948C0D811148CF81E2D1
:103380008093EB0047CF813029F440E86BE086ED75
:1033900097E1F1CF833099F70E94C90CDC011296B6
:1033A000ED90FC908E010F5F1F4F6801E114F10456
:1033B00079F0D701ED91FC910680F781E02DB801FD
:1033C000C7010995080F111DF701E084F184EECFC4
:1033D000D8011C92F60101900020E9F73197BF0156
:1033E0006C197D0940E0C601C6CF60EC77E1FB01B6
:1033F000449150E080E80E94BF0D09CF973009F456
:10340000BECF983021F481E08093F10000CF993055
:1034100009F0FDCE837009F0B2CFE9EEF2E081E071
:1034200031E096E32191222371F08093E9003093FB
:10343000EB00DF0111972C912093EC009093ED00AD
:103440008F5F873079F78EE78093EA001092EA0069
:103450008F8980935003DBCE8B8D9C8D1092E90079
:1034600010923E0310923D0390933C0380933B03E4
:10347000898D811192C08E899D89913A49F481325A
:1034800009F07DCF47E050E06AE071E080E0B3CF23
:10349000913209F074CF833269F48F89988DB0E04E
:1034A000A0E08093060190930701A0930801B093D8
:1034B0000901ADCE803269F48091E80082FFFCCF33
:1034C00067E08AE091E00E94160E8BEF8093E8009F
:1034D0009ECE823209F09BCE8F8980931101EEEF50
:1034E000FFE7859194918B3F9C4D51F1E0E0F8E02E
:1034F00080910A0190910B01A0910C01B0910D01F6
:10350000803B9440A105B105F1F48091110180FD4B
:103510001AC0EE3F8AE0F80789F587E797E79183BD
:1035200080838091600080933F0388E19BE00FB629
:10353000F894A895809360000FBE9093600067CECA
:10354000EEEFFAE0D5CF808191818737974709F078
:103550005ECEA89580916000886180936000809124
:103560003F0380936000EE3F2AE0F20789F08091EC
:10357000FE0A9091FF0A9183808349CE80819181D8
:103580008737980751F29093FF0A8093FE0AC5CFC0
:103590001092FF0A1092FE0A3ACE0E94C90CDC017A
:1035A00012960D911C910115110509F4E8CED80170
:1035B000ED91FC910190F081E02DBE016B5E7F4F9B
:1035C000C8010995811123CEF80100851185EBCF43
:1035D000181619060CF41BCED2CEF1E0FF12BECEA7
:1035E00064EC77E104CF1F920F920FB60F92112473
:1035F0002F933F938F939F93AF93BF9380910D032E
:1036000090910E03A0910F03B09110033091080325
:1036100023E0230F2D3758F50196A11DB11D2093EE
:10362000080380930D0390930E03A0930F03B093B0
:1036300010038091090390910A03A0910B03B091AC
:103640000C030196A11DB11D8093090390930A03F9
:10365000A0930B03B0930C03BF91AF919F918F91F7
:103660003F912F910F900FBE0F901F90189526E855
:10367000230F0296A11DB11DD2CFE1EFF7E0138217
:10368000128288EE93E0A0E0B0E084839583A68365
:10369000B78383EF92E0918380838FEF9FEF9587CD
:1036A0008487E1E4F8E085E093E0918380831582EC
:1036B000168280E18783148213821186089578949C
:1036C00084B5826084BD84B5816084BD85B5826027
:1036D00085BD85B5816085BD80916E0081608093D8
:1036E0006E00109281008091810082608093810041
:1036F0008091810081608093810080918000816051
:1037000080938000809191008260809391008091ED
:1037100091008160809391008091900081608093FE
:1037200090008091C10084608093C1008091C100AD
:1037300082608093C1008091C10081608093C1004C
:103740008091C30081608093C3008091C00082603B
:103750008093C0008091C20081608093C2008091FC
:103760007A00846080937A0080917A0082608093EE
:103770007A0080917A00816080937A0080917A004B
:10378000806880937A001092500310924003109248
:1037900042038091D70081608093D70080EA8093B4
:1037A000D80089B5806189BD89B5826089BD09B4B9
:1037B00000FEFDCF61E070E080E090E00E94480EE6
:1037C0008091D8008F7C80618093D8008091E00048
:1037D000807F8093E0008091E1008E7E8093E10005
:1037E0008DE08093E200559A209A5D98289881ECAC
:1037F00080937C0085B1806F85B984B1877E84B960
:1038000084B1876E84B95E9A5F988AB1806D8AB9F7
:10381000769A6E9881B3806F81BB899880B38D70E2
:1038200080BB80E58CBD81E08DBD0E947B0E5F9AE0
:103830000E947B0E5E985C98E4EFF0E081E091E0FE
:1038400024912EBD00000DB407FEFDCF31968E17DA
:103850009F07B1F75C9A81E88093640080916500CE
:1038600081608093650089E28093480880916400BC
:103870008E7F8093640080917A00806480937A00C8
:1038800080917A0086FDFCCFC0917800D0917900BC
:103890000E94230EAB01BC01CE01B0E0A0E0DC0130
:1038A000992788278C019D01040F151F261F371F9C
:1038B000C901B80120916400216020936400611562
:1038C00071058105910511F00E94642180E090E06E
:1038D000A0E8BFE38093960190939701A09398018D
:1038E000B09399018093A6019093A701A093A8019A
:1038F000B093A9018093B6019093B701A093B8014A
:10390000B093B90123E02093D70134E030939401C0
:10391000309395018093540190935501A0935601E3
:10392000B09357018093680190936901A0936A0155
:10393000B0936B018093900190939101A0939201B9
:10394000B09393018093120190931301A0931401FB
:10395000B09315018AEE96E4A7E7BFE380932201B6
:1039600090932301A0932401B093250142EF53E8E3
:1039700064E87EE340932601509327016093280179
:103980007093290142EF53E864E87EEB40932A01EB
:1039900050932B0160932C0170932D0180932E0185
:1039A00090932F01A0933001B093310120935301E4
:1039B00068E0862E912CA12CB12C53E0C52ED12C81
:1039C000E12CF12C8FB7F89440910D0350910E0328
:1039D00060910F03709110038FBF80914908142FDD
:1039E000181B812FC0914A08CC2359F010934B0823
:1039F00010924A0880E090E0892B21F30E94000099
:103A0000DCCF90914808191740F48F5F891790F721
:103A100081E083BF889513BEEDCFD1E0D0934A08F3
:103A200040934908809144089091450801969093ED
:103A300045088093440880914608809347080E9477
:103A4000B50F80934608809144089091450860E640
:103A500070E00E94B624892B29F480913A038D27C7
:103A600080933A0380913903823009F48BC10CF0C2
:103A700066C0882309F4FFC0813009F406C1C091F3
:103A8000390388E00E94530C882321F08FEF8C0FBC
:103A90008093390384E00E94530C882329F080919D
:103AA00039038F5F8093390380913903181614F01E
:103AB000109239038091390385301CF084E08093A3
:103AC000390380913903C81709F460C3833009F0C2
:103AD000D6C280E0E1EFF3E081118FEF0024819303
:103AE0008193819381930394D1F780911303843060
:103AF00008F0A7C290E0880F991FFC01EC51FE4F1F
:103B00006081718184529E4FFC01808191812EE001
:103B100031E050E040E00E94571182E290E0909343
:103B200012038093110380913803811106C080E352
:103B300090E0909312038093110380E024C38330BC
:103B400009F454C1843009F09ACFD0913A0380919E
:103B50001303DD2309F4F9C1843008F0CBC190E0F0
:103B6000880F991FFC01EC51FE4F608171818452D6
:103B70009E4FFC01808191812091030130910401CD
:103B80004FE050E00E9457118CE291E090930401C5
:103B90008093030180910201815360E08F3148F4EA
:103BA0000E94152120E130E040E050E00E94AE216B
:103BB000CD2F8091030190910401262F30E0409198
:103BC000020140FD9CC1820F931F909304018093DA
:103BD000030180910101815061118CE18093010109
:103BE000CC2309F493C108E113E0C0E3D0E00E94C4
:103BF0001521F8012081422F4650550B3A01A701AB
:103C000096010E94AE21660D772D711D41E0CE0117
:103C10000E94D50F0E5F1F4F2296C035D10539F790
:103C2000809102018F5F803608F088C18093020185
:103C300020E048E657E165E070E080E690E00E9411
:103C4000060F20E04BE457E166E170E080E690E08B
:103C50000E94060F6FE070E08091160390911703A9
:103C60000E940B1860E270E080911403909115039C
:103C70000E940B1804CF20E049E856E164E170E0AF
:103C800080E290E00E94060FFACEC0911303C1308B
:103C900009F46AC00CF05AC047E352E160E972E0EF
:103CA00083E692E1CC2309F45CC020E047E859E0C8
:103CB00060E170E083E090E00E94060F20E045E0C4
:103CC00059E060E170E08DE590E00E94060F809180
:103CD0004B0824E6829FC00111246091480870E0DF
:103CE0000E94CA24CB0164E670E00E94CA2480913D
:103CF000030190910401680F791F70930401609390
:103D0000030180E20E94530C882319F0C150C09334
:103D1000130380E40E94530C882329F0809113033D
:103D20008F5F809313038091130387FF03C083E0A9
:103D30008093130380911303843014F010921303C3
:103D400080E2809305011092380399CEC23099F039
:103D500049E05AE06CEE71E085E39AE0C33009F087
:103D6000A4CF0E94F617A1CF4DEB5EE064E572E0B0
:103D700089EE9EE0F6CF45EE5BE060E272E081E125
:103D80009CE0EFCF90911303933089F48093380334
:103D900041E06EE170E084E090E00E94BD0F20E021
:103DA00041E051E070E060E090E080E06BCF80E8BF
:103DB0000E94530C81111092380380E10E94530C31
:103DC000882319F081E0809338038091380341E023
:103DD00062E170E0882311F06AE270E084E090E034
:103DE0000E94BD0F20E043E055E0DCCF0E94B50FFC
:103DF00085FF0EC0C091050140E070E060E08C2FAF
:103E000090E00E94D50FC13248F1C150C093050126
:103E10000E94B50F86FF0EC0C091050140E070E022
:103E200060E08C2F90E00E94D50FC036D8F4CF5FB1
:103E3000C093050160900501C62DD0E041E070E01F
:103E400060E0CE010E94D50F11E01F5F612F862D2B
:103E50000E945E0C882351F0712E0CC080E280938A
:103E60000501D6CF80E680930501E4CF103469F7D1
:103E700077247A940E94B50F87FF16C03FEF731620
:103E800099F042E0471584F47A94672D70E041E0A0
:103E9000CE010E94D50F80911103909112030196DB
:103EA00090931203809311030E94B50F84FFE7CD16
:103EB0005FEF751609F4E3CD009111031091120321
:103EC0000115110509F4DBCD61E0670D862D0E9417
:103ED0005E0C882309F4D3CD672D770C770B40E077
:103EE000CE010E94D50F01501109109312030093C7
:103EF0001103C5CD90E080E070E060E03DCE821B14
:103F0000930B90930401809303016ACED5E0D150C6
:103F100009F486CE0E941521C0910101A5019401EA
:103F20000E94AE218C2F860F9927991FBC0180918A
:103F3000020141E090E00E94D50FE9CF80E280933A
:103F4000020188E28093010173CE843008F074C0CE
:103F500090E0880F991FFC01EC51FE4F0081118108
:103F600084529E4FFC01C081D18187ED90E09093F7
:103F70000401809303010E94152124E030E040E019
:103F800050E00E94AE212091030130910401260FE0
:103F9000371F30930401209303014FE050E0B80134
:103FA000CE010E9457112FE330E04AE450E070E068
:103FB00060E08AE090E00E94DE0F2FE330E04DE603
:103FC00050E070E060E08DE290E00E94DE0FD09162
:103FD0000001C2EECD0F6C2F0C2E000C770B8D2F35
:103FE0000D2E000C990B9B012F5F3F4FAC014F5FD3
:103FF0005F4F0E94DE0F1EE11D0F8C2FC65F6C2FDE
:104000000C2E000C770B885D082E000C990B9B0181
:104010002F5F3F4FAC014F5F5F4F0E94DE0F1C13BD
:10402000ECCF81E08D0F80930001D13209F000CEFA
:104030008EE180930001FCCDD0E0C0E010E000E014
:1040400094CF90E080E070E060E061CD20E030E06F
:1040500046E153E4C301B2010E9412222B013C014C
:104060006EE477E580E090E051C0C301B2010E94A8
:10407000F5224CC06AE17DE180E090E047C0C330AA
:1040800009F080C0843009F07DC010E0D0E0C0E0CD
:1040900000E0602F812F0E945E0C21E030E0811152
:1040A00002C030E020E0C20FD31F0F5F003489F759
:1040B0001F5F103869F7BE01DD0F880B990B0E9456
:1040C0002D232B013C013090130320E030E040E829
:1040D00050E4332039F0F3E03F1651F020E030E0B7
:1040E00040EA50E4C301B2010E94F8232B013C01D5
:1040F00080913803813009F4A9CF823009F4BACF16
:104100008111B3CF60E373E480E090E00E942D233F
:10411000A30192010E94832220E030E040E251E4BA
:104120000E94F8230E94F5227093170360931603F0
:1041300068E173E080E290E00E94631010E000E02C
:10414000C8E1D0E0C032D10539F070E060E0CE01C6
:104150000E946310080F191F2196C832D10591F7EC
:1041600023E080E190E0321202C086E090E0809F80
:104170009001819F300D909F300D112430931503D5
:104180002093140381E00E947F0C34CCC330D1F71C
:10419000D4CC8F929F92AF92BF92CF92DF92EF9248
:1041A000FF92CF93DF93EC01688179818A819B81B3
:1041B000611571058105910521F464E279ED8BE5C6
:1041C00097E02DE133EF41E050E00E94AE2149013C
:1041D0005A019B01AC01A7EAB1E40E94CD216B0119
:1041E0007C01ACEEB4EFA50194010E94DB21C60E68
:1041F000D71EE81EF91EF7FE06C081E0C81AD108D6
:10420000E10880E8F80AC882D982EA82FB82C70105
:10421000B6019F77DF91CF91FF90EF90DF90CF9025
:10422000BF90AF909F908F9008958F929F92AF9282
:10423000BF92CF92DF92EF92FF926091D80170917E
:10424000D9018091DA019091DB0161157105810539
:10425000910521F464E279ED8BE597E02DE133EFF0
:1042600041E050E00E94AE2149015A019B01AC019E
:10427000A7EAB1E40E94CD216B017C01ACEEB4EF62
:10428000A50194010E94DB21C60ED71EE81EF91E6F
:10429000F7FE06C081E0C81AD108E10880E8F80AF4
:1042A000C092D801D092D901E092DA01F092DB01FC
:1042B000C701B6019F77FF90EF90DF90CF90BF903E
:1042C000AF909F908F9008956093D8017093D9011B
:1042D0008093DA019093DB010895BB272A3051F4D3
:1042E000992342F4BDE290958095709561957F4F3A
:1042F0008F4F9F4F0C947D21BB27FA01A62F621789
:10430000710581059105330B30FB66F0AA27660F16
:10431000771F881F991FAA1FA21710F0A21B639571
:104320003850A9F7A05DAA3308F0A95DA19336F72C
:10433000B111B1931082CA010C949E21DC01FC01E1
:10434000672F71917723E1F7329704C07C916D93C9
:1043500070836291AE17BF07C8F30895052E97FBCF
:104360001EF400940E94C52157FD07D00E94E02151
:1043700007FC03D04EF40C94C52150954095309520
:1043800021953F4F4F4F5F4F0895909580957095C1
:1043900061957F4F8F4F9F4F08950E940222A59FE6
:1043A000900DB49F900DA49F800D911D1124089530
:1043B000B7FF0C94CD210E94CD21821B930B089551
:1043C000A1E21A2EAA1BBB1BFD010DC0AA1FBB1F19
:1043D000EE1FFF1FA217B307E407F50720F0A21B8B
:1043E000B30BE40BF50B661F771F881F991F1A94F8
:1043F00069F760957095809590959B01AC01BD0122
:10440000CF010895A29FB001B39FC001A39F700D7B
:10441000811D1124911DB29F700D811D1124911DCC
:1044200008955058BB27AA270E9429220C94AA233A
:104430000E94712338F00E94782320F039F49F3FC6
:1044400019F426F40C946E230EF4E095E7FB0C941B
:104450006823E92F0E94CF2358F3BA176207730726
:104460008407950720F079F4A6F50C94F1230EF457
:10447000E0950B2EBA2FA02D0B01B90190010C0174
:10448000CA01A0011124FF27591B99F0593F50F48C
:10449000503E68F11A16F040A22F232F342F4427E4
:1044A000585FF3CF469537952795A795F0405395DC
:1044B000C9F77EF41F16BA0B620B730B840BBAF0AC
:1044C0009150A1F0FF0FBB1F661F771F881FC2F717
:1044D0000EC0BA0F621F731F841F48F4879577952B
:1044E0006795B795F7959E3F08F0B0CF9395880FE5
:1044F00008F09927EE0F9795879508950E948123DC
:10450000E3950C94BB230E9497220C94AA230E944B
:10451000782358F00E94712340F029F45F3F29F07E
:104520000C94682351110C94F2230C946E230E9476
:10453000CF2368F39923B1F3552391F3951B550BC2
:10454000BB27AA2762177307840738F09F5F5F4F66
:10455000220F331F441FAA1FA9F335D00E2E3AF0A5
:10456000E0E832D091505040E695001CCAF72BD0BD
:10457000FE2F29D0660F771F881FBB1F261737070E
:104580004807AB07B0E809F0BB0B802DBF01FF2740
:1045900093585F4F3AF09E3F510578F00C94682392
:1045A0000C94F2235F3FE4F3983ED4F3869577951D
:1045B0006795B795F7959F5FC9F7880F911D9695F9
:1045C000879597F90895E1E0660F771F881FBB1F55
:1045D000621773078407BA0720F0621B730B840B02
:1045E000BA0BEE1F88F7E09508950E94FC226894AC
:1045F000B1110C94F22308950E94D72388F09F579D
:1046000098F0B92F9927B751B0F0E1F0660F771FF6
:10461000881F991F1AF0BA95C9F714C0B13091F0EC
:104620000E94F123B1E008950C94F123672F782FB5
:104630008827B85F39F0B93FCCF3869577956795B1
:10464000B395D9F73EF490958095709561957F4F1D
:104650008F4F9F4F0895E89409C097FB3EF49095C3
:104660008095709561957F4F8F4F9F4F9923A9F04B
:10467000F92F96E9BB279395F695879577956795DA
:10468000B795F111F8CFFAF4BB0F11F460FF1BC01E
:104690006F5F7F4F8F4F9F4F16C0882311F096E9B1
:1046A00011C0772321F09EE8872F762F05C066235F
:1046B00071F096E8862F70E060E02AF09A95660F18
:1046C000771F881FDAF7880F9695879597F90895D1
:1046D00097F99F6780E870E060E008959FEF80ECB5
:1046E000089500240A941616170618060906089558
:1046F00000240A94121613061406050608950C9455
:104700006E230E94D723D8F3E894E0E0BB279F579D
:10471000F0F02AED3FE049EC06C0EE0FBB0F661F3C
:10472000771F881F28F0B23A62077307840728F0C2
:10473000B25A620B730B840BE3959A9572F780382B
:1047400030F49A95BB0F661F771F881FD2F79048E9
:104750000C946F24092E0394000C11F4882352F05A
:10476000BB0F40F4BF2B11F460FF04C06F5F7F4F9D
:104770008F4F9F4F0895EF93E0FF07C0A2EA2AED05
:104780003FE049EC5FEB0E9429220E94AA230F9090
:10479000039401FC9058ECEAF0E00C947B2457FD64
:1047A0009058440F551F59F05F3F71F04795880F9F
:1047B00097FB991F61F09F3F79F087950895121636
:1047C00013061406551FF2CF4695F1DF08C01616E2
:1047D00017061806991FF1CF869571056105089493
:1047E0000895E894BB2766277727CB0197F90895AA
:1047F0000E940B240C94AA230E94712338F00E947B
:10480000782320F0952311F00C9468230C946E23E8
:1048100011240C94F2230E94CF2370F3959FC1F3CF
:10482000950F50E0551F629FF001729FBB27F00D5E
:10483000B11D639FAA27F00DB11DAA1F649F6627B3
:10484000B00DA11D661F829F2227B00DA11D621F02
:10485000739FB00DA11D621F839FA00D611D221FBC
:10486000749F3327A00D611D231F849F600D211DA0
:10487000822F762F6A2F11249F5750409AF0F1F023
:1048800088234AF0EE0FFF1FBB1F661F771F881F8C
:1048900091505040A9F79E3F510580F00C94682339
:1048A0000C94F2235F3FE4F3983ED4F3869577951A
:1048B0006795B795F795E7959F5FC1F7FE2B880F32
:1048C000911D9695879597F908959F930E9481234E
:1048D0000F9007FCEE5F0C94BB239F3F31F091508B
:1048E00020F4879577956795B795880F911D9695D4
:1048F000879597F908959F938F937F936F93FF9375
:10490000EF939B01AC010E94F823EF91FF910E946D
:104910008F242F913F914F915F910C94F823DF9357
:10492000CF931F930F93FF92EF92DF927B018C0145
:10493000689406C0DA2EEF010E940B24FE01E89471
:10494000A5912591359145915591A6F3EF010E94CE
:104950002922FE019701A801DA9469F7DF90EF9010
:10496000FF900F911F91CF91DF910895AA1BBB1B60
:1049700051E107C0AA1FBB1FA617B70710F0A61B5F
:10498000B70B881F991F5A95A9F780959095BC0180
:10499000CD01089597FB072E16F4009407D077FDFC
:1049A00009D00E94B62407FC05D03EF4909581956D
:1049B0009F4F0895709561957F4F0895EE0FFF1FEB
:0C49C0000590F491E02D0994F894FFCFCD
:1049CC001E2820B40020FFFFFFFF00E100000000C4
:1049DC0000000000000000000000000000000000CB
:1049EC0000000000000000000000000000000000BB
:1049FC0000000000000000000000000000000000AB
:104A0C00000000000000000000000000000000009A
:104A1C000000030100000000000000000000000086
:104A2C00000000000000000000000000000000007A
:104A3C00000000000000000000000000000000006A
:104A4C00000000000000000000000000000000005A
:104A5C000000000003010000000000000000000046
:104A6C00000000000000000000000000000000003A
:104A7C00000000000000000000000000000000002A
:104A8C00000000000000000000000000000000001A
:104A9C000000000000000301010000006312E90E99
:104AAC00110C350A900254022002EC010000104354
:104ABC00000000400000C040000080410000804029
:104ACC0000002041000000C00000E040000020C1B8
:104ADC00000080C1000000C10000C0C00000A0C0E8
:104AEC00000064430000E0400000C0C000008041B2
:104AFC00000080400000604100000041000080C1C7
:104B0C00000040C10000C04000004040000040C018
:104B1C000000E0C000008D430000E0400000C0C079
:104B2C0000008040000000C00000A0C000008041D8
:104B3C000000604100000041000040C1000080C145
:104B4C000000C04000004040000040C00000E0C039
:104B5C000000B1430000E040000000C00000A0C015
:104B6C000000C0C0000000C10000804000000040F8
:104B7C0000008041000080C1000000800000604106
:104B8C00000070C1000040C00000C04000000041A7
:104B9C00000040C1000060C1000040400000E0C0C7
:104BAC00000000000000E04000C180810000000017
:104BBC00000000DD0C810EFE0CF30C440D020D20E8
:084BCC000D0000000062100062
:00000001FF
