:100000000C94C1070C94E9070C94E9070C94E907D8
:100010000C94E9070C94E9070C94E9070C94E907A0
:100020000C94E9070C94E9070C9499080C940B09BB
:100030000C94E9070C94E9070C94E9070C94E90780
:100040000C94E9070C94E9070C94E9070C94E90770
:100050000C94E9070C94E9070C94E9070C94A80B9D
:100060000C94E9070C94E9070C94E9070C94E90750
:100070000C94E9070C94E9070C94E9070C94E90740
:100080000C94E9070C94E9070C94E9070C94E90730
:100090000C94E9070C94E9070C94E9070C94E90720
:1000A0000C94E9070C94E9070C94E90705A84CCDDA
:1000B000B2D44EB93836A9020C50B9918688083CA2
:1000C000A6AAAA2ABE000000803FF0F89C8E878373
:1000D000878E9CF8F00000FEFF0303030303070E66
:1000E000FCF80000FEFF0303030303070EFCF80007
:1000F00000FFFF00000000000000FFFF0000FEFF07
:100100008383838383C7EE7C380000F8FC0E0703EB
:100110000303070EFCF800003F7FE0C08080C0E0D2
:100120007F3FFFFF01010101010101FFFF0000FF0F
:10013000FF0C0C0C0C1C3E77E3C100007FFFC0C01D
:10014000C0C0C0E0703F1F00001F3F70E0C0C0C0D3
:10015000E0703F1F00007FFFC1C1C1C1C1E3773E16
:100160001C00001F3F70E0C0C0C0E0703F1F0000D7
:1001700000000001FFFF01000000D5F08D14A1C8B0
:1001800081CFD9F1AF200020200000000000000046
:10019000000000000000000000FEFCF8F0E080809D
:1001A000000000000000000000FEFFFFFFFFFFFF57
:1001B000FFFFFFFFFFFFFFFFFFFFFFFFFFFFFFFF4F
:1001C000FFFEFCF8F0E0C08000FFFFFFFFFFFFFF35
:1001D000FFFFFFFFFFFFFFFFFFFFFFFFFFFFFFFF2F
:1001E000FF7F7F3F0F0707030000000000000000B3
:1001F0000000000000000000007F3F3F1F070303D6
:1002000000000000000000000020200000000000AE
:1002100000000000C0C0E0F8FCFCFE000000000090
:10022000000000000000000000000000C0E0E0F05E
:10023000FCFEFEFFFFFFFFFFFFFFFFFFFFFFFFFFD3
:10024000FFFFFFFFFFFFFFFFFFFFFF000103070F9F
:100250001F3F7FFFFFFFFFFFFFFFFFFFFFFFFFFFCE
:10026000FFFFFFFFFFFFFFFFFFFF7F000000000019
:10027000000000000101070F1F3F7F000000000089
:1002800000000000000000000000002A070000003D
:10029000000000000000000000203C0E100C3E009A
:1002A0003C241C00043C0438241C00000000000016
:1002B0000000000000000001020301040501020526
:1002C00001060701040501060301060301040501F7
:1002D00002030104080102090102080106040104E5
:1002E0000501060701040501060401040801060AC8
:1002F00001040801060401060901040801060A01B7
:100300000408010609010209010B0C010604010B96
:1003100004010604010B0C01060A06020301060390
:10032000010203010603060203060603060209068C
:10033000040806020806060A060408060609060658
:10034000090604080602090604050602030602055A
:1003500006060C06040806060A06040806060C062D
:10036000040506060706040506060C060603060431
:1003700005060607060405060603060203060B0427
:1003800006060C060B0C06060C060B0406060706F2
:100390000609010209010609010209060609060209
:1003A0000901040806040501040506040501040802
:1003B000060408060B0C010B04060B04010B0C01D0
:1003C0000B04060B0C06060901060A06060A0106BE
:1003D0000A060609010609060607010603060603C2
:1003E00001060306060701060706020801040801C4
:1003F00002080104080602080604080102090602B0
:10040000080102080602080102090602090604059D
:1004100001020501040501020506040506020501A5
:100420000205060203010203060203010205060299
:1004300005060B0C06060C06060A06060A01060A45
:10044000060B0C060B0C01060A010B0C010604013D
:100450000607010B04060607010B04010607010B42
:1004600004060607060B042A07003E2A3E003C202D
:100470003C003C04003C043C003A003C043C004C82
:10048000547C00003C0E100C3E0038243C20003C04
:10049000043C0001020301040501040301040501F9
:1004A0000203010406010406010203010402010221
:1004B000070104020102030104020102070104080A
:1004C00001040801020701040701040501090601EE
:1004D00009050109060104050104060104020109D8
:1004E000080109020109080104020104080A0902BD
:1004F0000104020109020104020A09020A04020AB3
:1005000004080A09020A09080A09020A04080A0476
:10051000020A04080109080104080109080A04087C
:100520000A09080109080A09020109020A09020167
:1005300009080A09080B04020B09080B09020B0938
:10054000080B04020B04080C09020B04020B09023D
:100550000B04020C09020C04020C02070C04080C28
:1005600004070C04080C02070C04020C02030C0420
:10057000020C02070C04020C02030C04060C040615
:100580000C02030C04050C04050C02030C04030C00
:1005900004080C09020C09080C09020C04080C04DC
:1005A000020C04060C09050C09060C09050C0406CE
:1005B0000C04050C04080B09080B04080B09080CB3
:1005C00004080C09080B09080C09020B09020C09A4
:1005D000020B09080C09080A0905010405010905AF
:1005E0000104050A09050A04050A04060A09050AA0
:1005F00009060A09050A04060A04050A040601098F
:10060000060104060109060A04060A09060109068C
:100610000A09050109050A09050109060A09060B67
:1006200004050B09060B09050B09060B04050B0451
:10063000060C09050B04050B09050B04050C09053F
:100640000C04050C04060B09060B04060B09060C2A
:1006500004060C09060B09060C09050B09050C0913
:10066000050B09060C09060C04030102030104032F
:100670000102030C04030C02030C02070102030C29
:1006800002030102030C02070102070C0207010426
:10069000070102070104070C02070C040701040705
:1006A0000A04080104080A04080104070B04080CE2
:1006B00004070B04080104070B04080C04070C04CE
:1006C000080A04080B04020A04020B04020A0408C4
:1006D0000B04080A04020A04060104060A04060AB6
:1006E00004020B04060A04020104060104020B04BE
:1006F000020B04060A04020B04060B04020C040697
:100700000C04060B04020C04020A04060B04050A7E
:1007100004050B04050A04060B04060A040501047B
:10072000030104050104030A04050C04030B04057A
:100730000C04030A04050C04030B04050C04052A2D
:100740000700000000000000000000000000002082
:100750003E2A3E0018141C507E0018141C10000085
:10076000000000000000000000000001020301047E
:100770000501040301040501020301020501040649
:100780000103070103060104010103070104060137
:10079000030801040301030201040501030201042B
:1007A0000301030701040101030801030801040117
:1007B00001040301030201040501030901040A0104
:1007C000030901040501030901040A01030A0103E5
:1007D00007010B08010B07010B08010307010308C0
:1007E000010302010B09010B02010B0901030201C4
:1007F00003090C0B02010302010B020103020C0BA3
:10080000020C03020C03090C0B020C0B090C0B026B
:100810000C03090C03020C0309010B090103090174
:100820000B090C03090C0B09010B090C0B02010B42
:10083000020C0B02010B090C0B090D03020D0B0935
:100840000D0B020D0B090D03020D03090E0B020D1A
:1008500003020D0B020D03020E0B020E03020E0229
:10086000030E04050E02050E04050E02030E04011C
:100870000E040A0E03090E030A0E04050E03090EE8
:10088000040A0E03020E04050E03080E04010E03F3
:10089000080E04050E03090E04050E03020E0308DC
:1008A0000E04010E03070E04060E03070E04010ECC
:1008B00003070E04060E03060E03090E0B020E0BB1
:1008C000090E0B020E03090E03020E03080E0B079E
:1008D0000E0B080E0B070E03080E03070E03090D7F
:1008E0000B090D03090D0B090E03090E0B090D0B66
:1008F000090E0B020D0B020E0B020D0B090E0B095C
:100900000C0B07010307010B070103070C0B070C76
:1009100003070C03080C0B070C0B080C0B070C034C
:10092000080C03070C0308010B08010308010B085E
:100930000C03080C0B08010B080C0B07010B070C30
:100940000B07010B080C0B080D03070D0B080D0B13
:10095000070D0B080D03070D03080E0B070D03070A
:100960000D0B070D03070E0B070E03070E03080DF3
:100970000B080D03080D0B080E03080E0B080D0BDA
:10098000080E0B070D0B070E0B070D0B080E0B08BF
:100990000E03060104060103060104060E03060EFB
:1009A00004060E02050102030E0203010205010204
:1009B000030E02050E040A01030A01040A01030AD8
:1009C0000E040A0E030A01030A0C03090103090CB1
:1009D000030901030A0D03090E030A0D03090103AC
:1009E0000A0D03090E030A0E03090C03090D030285
:1009F0000C03020D03020C03090D03090C03020C86
:100A000003080103080C03080C03020D03080C0380
:100A1000020103080103020D03020D03080C030287
:100A20000D03080D03020E03080E03080D03020E4A
:100A300003020C03080D03070C03070D03070C0347
:100A4000080D03080C030701030601030701030651
:100A50000C03070E03060D03070E03060C03070E17
:100A600003060D03070E03070E020501040501022C
:100A7000050104050E02050E04050E040A01040515
:100A80000E04050104050E040A01040A0E04010106
:100A900004060E04060104060E040101040101040B
:100AA000030104010102030E040101020301040118
:100AB0000102030E04010E02032A070000000000D9
:100AC000382422320E043C100C301C2C003C040450
:100AD000003F1028243C003C043C003824243F0004
:100AE00000000000000102030104030102050104EB
:100AF00006010203010206010203010406010403C8
:100B0000010708010206010709010708010A080197
:100B1000020B01070801020B010201010708010293
:100B20000101020601020301070901020601020593
:100B300001070901020301020C0107090102050175
:100B4000070901020C010D09010E0B01060F010E30
:100B50000F01070801060401060F01060401070939
:100B600001061001060B01060F010E0B010708011B
:100B7000060F01060B01060401070801070901061B
:100B800010010709010611010604010E10010E04EF
:100B9000010E10010604010610120E0401060401E4
:100BA0000E04010604120E04120604120610120EA0
:100BB00004120E10120E0412061012060412061071
:100BC000010E10010610010E10120610120E100177
:100BD0000E10120E04010E04120E04010E10120E5D
:100BE000100D06040D0E100D0E040D0E100D060452
:100BF0000D0610130E040D06040D0E040D0604134D
:100C00000E04130604130709130610130611130626
:100C10001013020513060413061013070913020C20
:100C2000130610130E04130E10130E0413061013E4
:100C3000060413060F130E0B130E0F13060F1307E4
:100C40000B130E0B13060413020313060F130201FA
:100C500013060F13020313060F13020113070B13DE
:100C6000061013020C13020513020C130709130DCF
:100C700009130406130203130403130203130406E7
:100C800013020113060413020513020313020B13CC
:100C9000070B13020113140813070B13020B13079E
:100CA0000B1314081307081306100D0E100D061071
:100CB0000D0E10130610130E100D0E10130E040D52
:100CC0000E04130E040D0E10130E1013060B0D065A
:100CD0000B0D0E0B130E0B13060B0D0E0B13060B49
:100CE000130E0B13070B120E0B01060B010E0B124A
:100CF000060B01060B120E0B12060F120E0B120E34
:100D00000F120E0B12060F12060B12060F010E0F1A
:100D100001060F010E0F12060F120E0F010E0F1219
:100D20000E0B010E0B120E0B010E0F120E0F0D0605
:100D30000B0D0E0F0D0E0B0D0E0F0D060B0D060FEE
:100D400013060F0D0E0F0D060F0D0E0F13060F13CA
:100D50000E0F0D0E0F130E0B0D0E0B130E0B0D0EB3
:100D60000F130E0F130708010A08010708010A08EC
:100D7000130708131408130D09010709010D0901D0
:100D80000709130D091307090106111206100106C0
:100D9000101206100106110D06101306110D061093
:100DA0000106110D06101306111306101206100D80
:100DB00006041206040D06041206100D0610120693
:100DC0000412060F01060F12060F1206040D060F7D
:100DD00012060401060F0106040D06040D060F128B
:100DE00006040D060F0D060413060F13060F0D065D
:100DF0000413060412060F0D060B12060B0D060B4C
:100E000012060F0D060F1304030104061304060156
:100E10000403010406130403130403010203010481
:100E20000301020313040313020313020C0102055E
:100E300013020501020513020C01020C010708153B
:100E4000070813070813020101020B13020B01022A
:100E50000B130201010201130D0901020C13020C14
:100E600001020C130D09010D0913040313020313EE
:100E70000205130205010205010403130203010424
:100E80000301020301040313020313040313020505
:100E900001040313040301070913061101061113CA
:100EA00006110107091307090102060102010104E5
:100EB00006130201010406010201010406130201E6
:100EC00013040613070813060B13070B01060B1573
:100ED000070801070812060B15070801060B0D0687
:100EE0000B15070812060B1507080D060B13060B4A
:100EF00013070815070813060B13020B010A081342
:100F00001408010A0813020B01020B080B0002026D
:100F10000201000904000001020200000524001083
:100F2000010524010101042402060524060001072D
:100F300005810310004009040100020A00000007B7
:100F40000502024000000705830240000004030977
:100F50000412010002EF02014041233C8000010124
:100F600002030141726475696E6F204C4C4300416D
:100F7000726475696E6F204573706C6F72610000EA
:100F8000931911241FBECFEFDAE0DEBFCDBF12E010
:100F9000A0E0B1E0E0E7FAE302C005900D92A23FC5
:100FA000B107D9F728E0A2EFB2E001C01D92AD3041
:100FB000B207E1F717E0C1ECD7E004C02197FE01CA
:100FC0000E942B1DC03CD107C9F70E9429160C9422
:100FD000361D0C940000FC018485958597FD0BC09F
:100FE0009FB7F89482E08093E9008091F2009FBF60
:100FF00090E0019608959FB7F89482E08093E9000D
:101000008091F2009FBF90E008954091FF025091BF
:1010100000032091FD023091FE0242175307B4F401
:101020009091E8009570E1F39091E80092FD19C06D
:101030008093F1008091FF029091000301968F73DD
:101040009927892B19F48EEF8093E8008091FF0295
:10105000909100030196909300038093FF0281E03A
:10106000089580E00895DF92EF92FF920F931F930F
:10107000CF93DF93D82E8A017B01E40EF51EEB019E
:10108000CE15DF0571F0D7FE03C0FE01849101C0CB
:1010900088810E94050821968111F2CF8FEF9FEF82
:1010A00001C0C801DF91CF911F910F91FF90EF9088
:1010B000DF900895615030F02091F100FC01208311
:1010C0000196F8CF289884E68093040308950F933F
:1010D0001F93CF93DF931F92CDB7DEB782E0898352
:1010E00042E450E06BE07FE080E80E9433080E9419
:1010F0002E0EDC0112960D911C911397011511050E
:1011000089F0D801ED91FC910280F381E02DBE01C0
:101110006F5F7F4FC801099597FD04C0F8010085F6
:101120001185ECCF89810F90DF91CF911F910F91A5
:1011300008951F920F920FB60F9211248F939F93D1
:101140008091E1009091E100937F9093E10083FF13
:101150000FC01092E90091E09093EB001092EC0028
:1011600092E39093ED001092050398E09093F000C5
:1011700082FF20C093E09093E9009091F2009923C0
:1011800019F09AE39093E80090910203992339F0C3
:1011900090910203915090930203992389F19091C9
:1011A0000403992339F09091040391509093040320
:1011B000992341F184FF10C08091E2008E7E81600E
:1011C0008093E2008091E1008F7E8093E100809126
:1011D00003038E7E806111C080FF16C08091E20003
:1011E0008E7E80618093E2008091E1008E7E80930C
:1011F000E100809103038E7E81608093030304C02D
:101200005D9ACDCF289AD6CF9F918F910F900FBE28
:101210000F901F9018951F920F920FB60F921124E6
:10122000CF92DF92EF92FF920F931F932F933F93F2
:101230004F935F936F937F938F939F93AF93BF93DE
:10124000EF93FF93CF93DF93CDB7DEB76C97DEBFFD
:10125000CDBF1092E9008091E80083FFFBC168E0F8
:10126000CE0145960E945A0882EF8093E8008D894E
:1012700087FF05C09091E80090FFFCCF03C09EEF70
:101280009093E800982F907609F0C6C09E894F8908
:10129000588D2F89F88C91110CC0803829F48091D9
:1012A000F7028093F10002C01092F1001092F10059
:1012B00045C1913051F4811141C14130510509F0CE
:1012C0003DC18091F7028D7F0BC0933061F4811195
:1012D00035C14130510509F031C18091F70282607A
:1012E0008093F7022BC1953049F48091E80080FF8C
:1012F000FCCF822F80688093E30020C1963009F0F4
:101300005EC00B8D1C8D22E01092E900109200034C
:101310001092FF02F21232C01092FE021092FD02F1
:101320000E94670899E0BE016F5F7F4FDB01E92FE4
:101330001D92EA95E9F79983FA8291E09E8390EAFB
:1013400098879AEF99872091FF0230910003275FD9
:101350003F4F3C832B838D831092E9001092000352
:101360001092FF021093FE020093FD0249E050E04C
:1013700080E00E9433080E946708E0C01093FE02DC
:101380000093FD020E942E0EDC0112960D911C911D
:1013900013970115110509F4BBC0D801ED91FC911B
:1013A0000480F581E02DBE016B5E7F4FC801099579
:1013B000009709F0C7C0F80100851185EACF973082
:1013C00009F445C1983021F481E08093F100B6C062
:1013D000993009F0B3C0837009F039C1E3EDF2E050
:1013E00081E031E096E32081211109C08EE78093EE
:1013F000EA001092EA008F89809305039FC08093D2
:10140000E9003093EB0021912093EC009093ED00E4
:101410008F5F873041F7EACF8B8D9C8D1092E9006A
:10142000109200031092FF029093FE028093FD023F
:10143000898D811153C08E899D89913A49F48132F9
:1014400009F005C147E050E06AE871E080E0BBC008
:10145000913209F0FCC0833269F48F89988DA0E045
:10146000B0E08093860190938701A0938801B093A8
:10147000890164C0803269F48091E80082FFFCCF6A
:1014800067E08AE891E00E945A088BEF8093E800B9
:1014900055C0823209F052C08F8980939101EEEFDE
:1014A000FFE7859194918B3F9C4D19F0E0E0F8E0C7
:1014B00002C0EEEFFAE080918A0190918B01A09139
:1014C0008C01B0918D01803B9440A105B10509F0DC
:1014D0009EC08091910180FF79C099C00E942E0E1C
:1014E000FC01028113810115110509F4B0C0D80176
:1014F000ED91FC910190F081E02DBE016B5E7F4F7C
:10150000C801099581111AC0F80100851185EBCF3A
:10151000F1E0FF1609F44EC0F3E0FF1298C08F8986
:10152000882309F44AC0823089F440E86FE08FE6EE
:101530009FE00E945E19882309F489C08EEF809392
:10154000E80088C018161906CCF381C0813029F450
:1015500040E86BE083E69FE0ECCF833009F077C092
:101560000E942E0EDC011296ED90FC9013978E01D6
:101570000F5F1F4F6801E114F10479F0D701ED917D
:10158000FC910680F781E02DB801C7010995080F8D
:10159000111DF701E084F184EECFD8011C92F60111
:1015A00001900020E9F73197BF016C197D0940E0F7
:1015B000C601BFCF61E57FE002C06DE47FE0FB01C3
:1015C000449150E080E80E943308B8CFEE3F2AE013
:1015D000F20751F0808191818737A7E79A0721F0C0
:1015E0009093FF0A8093FE0A87E797E791838083B1
:1015F00080916000809301039BE088E10FB6F8942E
:10160000A895809360000FBE9093600097CF808173
:1016100091818737974709F091CFA8958091600015
:101620008861809360008091010380936000EE3FA9
:10163000BAE0FB0739F08091FE0A9091FF0A91838E
:1016400080837CCF1092FF0A1092FE0A77CF81E24E
:101650008093EB006C960FB6F894DEBF0FBECDBF43
:10166000DF91CF91FF91EF91BF91AF919F918F91BA
:101670007F916F915F914F913F912F911F910F91AA
:10168000FF90EF90DF90CF900F900FBE0F901F90C4
:1016900018953FB7F8948091F9029091FA02A091C1
:1016A000FB02B091FC0226B5A89B05C02F3F19F0A4
:1016B0000196A11DB11D3FBFBA2FA92F982F8827D2
:1016C000820F911DA11DB11DBC01CD0142E0660F2D
:1016D000771F881F991F4A95D1F708958F929F927F
:1016E000AF92BF92CF92DF92EF92FF926B017C019B
:1016F0000E94490B4B015C01C114D104E104F104C7
:10170000F1F00E94490BDC01CB0188199909AA0963
:10171000BB09883E9340A105B10570F321E0C21AD0
:10172000D108E108F10888EE880E83E0981EA11C1C
:10173000B11CC114D104E104F10419F7DDCFFF900D
:10174000EF90DF90CF90BF90AF909F908F900895D3
:101750001F920F920FB60F9211242F933F938F93E6
:101760009F93AF93BF938091F3029091F402A09165
:10177000F502B091F6023091F80223E0230F2D37E5
:1017800020F40196A11DB11D05C026E8230F029685
:10179000A11DB11D2093F8028093F3029093F402EF
:1017A000A093F502B093F6028091F9029091FA02AB
:1017B000A091FB02B091FC020196A11DB11D809386
:1017C000F9029093FA02A093FB02B093FC02BF913E
:1017D000AF919F918F913F912F910F900FBE0F90DE
:1017E0001F90189520910503211103C08FEF9FEFE3
:1017F00008955FB7F89422E02093E9002091F20069
:1018000030E01216130614F421E030E0422FFC0100
:1018100084E6415038F02898809304039091F100B9
:101820009193F7CF2115310521F08091F2008823A3
:1018300019F05FBFC90108958BE68093E800F9CFE6
:101840002FB7F89483E08093E9009091E800892F06
:10185000807295FF04C09091F20080E4891B2FBF35
:101860000895CF93DF931F92CDB7DEB76983DC0174
:10187000ED91FC910280F381E02D41E050E0BE014A
:101880006F5F7F4F09950F90DF91CF91089583E0AF
:101890008093E9008091F200882319F08AE3809315
:1018A000E80008950E94200C90E00895CF93DF9304
:1018B0001F92CDB7DEB7FC018485958597FD05C0E5
:1018C0002FEF3FEF358724870BC0CE0101960E9492
:1018D000F20B019719F4898190E002C08FEF9FEF1E
:1018E0000F90DF91CF9108950F931F93CF93DF93C4
:1018F0001F92CDB7DEB78C01FC018485958597FFDB
:101900000EC0CE0101960E94F20B019719F4898155
:1019100090E002C08FEF9FEFF80195878487F80170
:10192000848595850F90DF91CF911F910F91089538
:101930008F929F92AF92BF92CF92DF92EF92FF92DF
:101940000F931F93CF93DF936C017B018A018091EA
:101950009101882309F45CC080910503882309F470
:1019600057C08091030380FF05C08091E000826032
:101970008093E000E801B12C8AEFA82E93E0892E35
:101980002AE3922E209711F4BB20D9F10E94200C5B
:1019900081110AC0AA94AA20D9F161E070E080E028
:1019A00090E00E946E0BEECF282F30E0C217D307D5
:1019B0000CF48C2F9FB7F8948092E9002091E800F6
:1019C00025FF1DC0282F30E0C21BD30BF70181502B
:1019D00020F041914093F100FACFE20EF31EBB20BC
:1019E00019F09092E8000AC08091E80085FD07C0D8
:1019F0009092E800BB24B394209709F0B12C9FBFCC
:101A0000C1CF5D9884E6809302031016110644F05E
:101A100081E090E0F6019383828380E090E001C052
:101A2000C801DF91CF911F910F91FF90EF90DF9050
:101A3000CF90BF90AF909F908F9008959C01240FFE
:101A4000311D1216130674F5803891055CF597FF69
:101A500002C080E090E02138310514F020E830E049
:101A6000281BAB014770552731E001C0330F4A9561
:101A7000EAF777FF02C0695F7F4F43E0759567958E
:101A80004A95E1F77695762F662777956795860FC5
:101A9000971FFC01EA5FFC4F215020F08081832BCF
:101AA0008193FACF0895E6E0F3E0A0E0B8E000808B
:101AB0000EBC8111012C1197A0FDFDCF0192B9F749
:101AC0000DB408956F927F929F92AF92BF92CF9282
:101AD000DF92EF92FF920F931F93CF93DF9300D08B
:101AE000CDB7DEB7DC014115510509F4A7C0FA01F5
:101AF000D4903196E4916D2C712C8301080F191F3D
:101B0000101611060CF09AC0803891050CF096C0A2
:101B1000CB018E0F911D181619060CF08FC0603482
:101B200071050CF08BC0F62FF770FF2ECB0177FDFF
:101B3000079623E0959587952A95E1F7F82F77FF8B
:101B400004C0FF2011F0FFEFF80FB7FF05C06627B4
:101B500077276A1B7B0B02C060E070E0003811053C
:101B600024F080E88A1B982E01C09D2C961A0F2F16
:101B70000F2E000C110BFF3F1CF4C02EC09401C0AF
:101B8000C12C91E02E2F277009F490E0E695E695A0
:101B9000E6959E0F090F111D0930110514F098E00C
:101BA0009F1BEC2CEF0E4E5F5F4F8B01DC9C000DFA
:101BB000111D1124400F511F01E010E00F2C02C035
:101BC000000F111F0A94E2F73E2D20E83203A00D0A
:101BD000B11D11249D01260F371F2A5F3C4F9F0F17
:101BE0009E1561F1B901FA01DE2ED41AD91400F55F
:101BF000B490B09E6001B19ED00C1124DA82C982EB
:101C0000E7FC04C0DB01DC90CD28CC92FF2061F022
:101C1000B6E0BE154CF05B0180E8A80EB11CD50102
:101C2000CC90DA80DC28DC9231966F5F7F4FDCCF7E
:101C3000E394460D571D20583F4FD2CF0F900F9081
:101C4000DF91CF911F910F91FF90EF90DF90CF9098
:101C5000BF90AF909F907F906F90089580911507EF
:101C600081110DC082E08093110784E080931207F8
:101C7000109214071092130781E08093150781E1F9
:101C800097E00895CF92DF92EF92FF920F931F9308
:101C9000CF93DF936C017A018B01C0E0D0E0CE15C9
:101CA000DF0581F0D8016D918D01D601ED91FC9198
:101CB0000190F081E02DC6010995892B11F0219644
:101CC000EECF7E01C701DF91CF911F910F91FF9061
:101CD000EF90DF90CF9008950895089580E090E010
:101CE00008958F929F92AF92BF92EF92FF920F93BF
:101CF0001F93CF93DF937C01EB018A01FA012081CE
:101D0000318142815381688179818A819B810E94DE
:101D1000451C4B015C01F8012481358146815781C6
:101D20006C817D818E819F810E94451C9B01AC014D
:101D3000C501B4010E94D11A4B015C01F801208554
:101D4000318542855385688579858A859B850E9482
:101D5000451C9B01AC01C501B4010E94D11AF701D9
:101D60006083718382839383F80120813181428172
:101D700053816C857D858E859F850E94451C4B0116
:101D80005C01F80124813581468157816889798910
:101D90008A899B890E94451C9B01AC01C501B40145
:101DA0000E94D11A4B015C01F801208531854285E2
:101DB00053856C897D898E899F890E94451C9B0172
:101DC000AC01C501B4010E94D11AF7016483758387
:101DD00086839783F8012081318142815381688D08
:101DE000798D8A8D9B8D0E94451C4B015C01F80109
:101DF00024813581468157816C8D7D8D8E8D9F8D9F
:101E00000E94451C9B01AC01C501B4010E94D11A7E
:101E10004B015C01F801208531854285538568A11D
:101E200079A18AA19BA10E94451C9B01AC01C5011F
:101E3000B4010E94D11AF701608771878287938766
:101E4000DF91CF911F910F91FF90EF90BF90AF90D6
:101E50009F908F9008950E94311D2F923F924F9234
:101E60005F926F927F928F929F92AF92BF92CF922A
:101E7000DF92EF92FF920F931F93CF93DF93CDB733
:101E8000DEB7C858D1090FB6F894DEBF0FBECDBF7C
:101E90007C01762E2DB73EB7C957DF4F3983288393
:101EA000C758D04082E4FE013196CB57DF4FF9830B
:101EB000E883C558D040282F11922A95E9F743E0CE
:101EC000D42E2296DFAE22978E010D5B1F4FF801B4
:101ED00011928A95E9F7CD57DF4FD882C358D04089
:101EE00081E0CC57DF4F8883C458D04060916D07A4
:101EF00070916E0780916F07909170070E94421B4E
:101F00004B015C01C70168E671E00E94031DBC0142
:101F1000990F880B990B0E947A1B29E33AEF4EE840
:101F20005CE30E94451C1B012C012396DFAE239726
:101F30000E94B21C6B017C01C201B1010E943D1BD9
:101F4000F1E07F1609F122E0721609F43EC071102B
:101F500058C0412C512C30E8632E3FE3732E498248
:101F60005A826B827C82698B7A8B8B8B9C8BCD8A1D
:101F7000DE8AEF8AF88EF7FAF094F7F8F094CD8EB7
:101F8000DE8EEF8EF8A21CC069837A838B839C83DC
:101F90002601370177FA709477F8709449865A864B
:101FA0006B867C86412C512C20E8622E2FE3722E0A
:101FB000498A5A8A6B8A7C8AC98EDA8EEB8EFC8EAD
:101FC00069A37AA38BA39CA31CC069837A838B83A8
:101FD0009C83CD82DE82EF82F886F7FAF094F7F8E0
:101FE000F094CD86DE86EF86F88A698B7A8B8B8BB0
:101FF0009C8B80E090E0A0E8BFE389A39AA3ABA309
:10200000BCA381E7E82E87E0F82E8114910409F43F
:1020100055C0ADB6BEB6F70180819181A281B38172
:10202000F80180879187A287B387F7018481958122
:10203000A681B781F80184839583A683B783F701CE
:1020400080859185A285B385F80180839183A283E1
:10205000B38322968FAD2297CC57DF4F9881C45817
:10206000D040899F802D11242DB73EB794E089027E
:102070002019310911240FB6F8943EBF0FBE2DBFB1
:10208000EDB7FEB731966F01A801BE016F5F7F4FBC
:10209000CF010E94710E8CE0F601D70101900D92E4
:1020A0008A95E1F70FB6F894BEBE0FBEADBEF1E063
:1020B0008F1A91082CE0E20EF11CA7CFC957DF4F11
:1020C00088819981C758D0400FB6F8949EBF0FBE43
:1020D0008DBFC857DF4F0FB6F894DEBF0FBECDBF20
:1020E000DF91CF911F910F91FF90EF90DF90CF90F4
:1020F000BF90AF909F908F907F906F905F904F9028
:102100003F902F9008952D9A0895BC0180E090E0B3
:102110000C946E0B8FB18095807F669B88601C9BB2
:10212000846008952F923F924F925F926F927F92B8
:102130008F929F92AF92BF92CF92DF92EF92FF92D7
:102140000F931F93CF93DF93CDB7DEB7C057D1095D
:102150000FB6F894DEBF0FBECDBFA1969FAF8EAF76
:10216000A1972B967FAF6EAF2B97AF965FAF4EAF19
:10217000AF972DB73EB7E1963FAF2EAFE1974091B5
:10218000840150918501A3965FAF4EAFA397DB0109
:102190006D917D918D919C910E94421B9B01220F1C
:1021A000331FF901E60FF71FA596FFAFEEAFA59716
:1021B00080E090E0A0E4B0E480936D0790936E0718
:1021C000A0936F07B0937007A1962EAD3FADA19776
:1021D00029963FAF2EAF2997AE014F5F5F4F2596EF
:1021E0005FAF4EAF259729968EAD9FAD2997A196EB
:1021F000AEADBFADA1978A1B9B0BA596EEADFFAD13
:10220000A5978E179F070CF0F7C42996EEADFFAD8A
:10221000299784912B96EEADFFAD2B9724E0829FFA
:10222000E00DF11D112480819181A281B381809301
:10223000710790937207A0937307B0937407299660
:10224000EEADFFAD29973196E4912B964EAD5FAD83
:102250002B9784E0E89F400D511D1124FA018081E5
:102260009181A281B3818093750790937607A093A3
:102270007707B09378072996EEADFFAD2997329690
:10228000E4912B96AEADBFAD2B9724E0E29FA00D5D
:10229000B11D1124FD0180819181A281B3818093C0
:1022A000790790937A07A0937B07B0937C072996D0
:1022B000EEADFFAD29973396E4912B964EAD5FAD11
:1022C0002B9784E0E89F400D511D1124FA01808175
:1022D0009181A281B38180937D0790937E07A09323
:1022E0007F07B09380072996EEADFFAD299734960E
:1022F000E4912B96AEADBFAD2B9724E0E29FA00DED
:10230000B11D1124FD0180819181A281B38180934F
:10231000810790938207A0938307B093840729963F
:10232000EEADFFAD29973596E4912B964EAD5FAD9E
:102330002B9784E0E89F400D511D1124FA01808104
:102340009181A281B3818093850790938607A093A2
:102350008707B09388072996EEADFFAD299736968B
:10236000E4912B96AEADBFAD2B9724E0E29FA00D7C
:10237000B11D1124FD0180819181A281B3818093DF
:10238000890790938A07A0938B07B0938C072996AF
:10239000EEADFFAD29973796E4912B964EAD5FAD2C
:1023A0002B9784E0E89F400D511D1124FA01808194
:1023B0009181A281B38180938D0790938E07A09322
:1023C0008F07B09390072996EEADFFAD2997389609
:1023D000E4912B96AEADBFAD2B9724E0E29FA00D0C
:1023E000B11D1124FD0180819181A281B38180936F
:1023F000910790939207A0939307B093940761E09D
:10240000A3968EAD9FADA3970E942D0F60E08FE045
:1024100090E00E942D0F2596AEADBFAD2597E2E46A
:102420001D92EA95E9F7F3E02296FFAF229781E04B
:1024300023968FAF239760916D0770916E078091FF
:102440006F07909170070E94421B6B0101E717E034
:102450007801C114D10409F44DC08DB69EB6F701C0
:1024600080819181A281B38189879A87AB87BC875C
:1024700084819581A681B7818D839E83AF83B88740
:1024800080859185A285B38589839A83AB83BC833C
:102490008091820123969FAD2397899F802D1124DF
:1024A0002DB73EB744E084022019310911240FB63C
:1024B000F8943EBF0FBE2DBF8DB79EB701965C014D
:1024C000AE014F5F5F4F62E471E00E94710E8CE0DD
:1024D000F501D70101900D928A95E1F70FB6F894B6
:1024E0009EBE0FBE8DBE91E0C91AD108ACE0EA0EC7
:1024F000F11CAFCF60916D0770916E0780916F07EF
:10250000909170070E94421B1B012114310409F4B1
:1025100072C1EDB7FEB76196FFAFEEAF6197D8011C
:102520002D913D914D915C9113972F962CAF3DAF1E
:102530004EAF5FAF2F971496CD90DD90ED90FC904D
:10254000179718968D909D90AD90BC901B97809199
:10255000400124E08202E019F10911240FB6F89439
:10256000FEBF0FBEEDBF4DB75EB74F5F5F4F279603
:102570005FAF4EAF2797209100013091010140914C
:10258000020150910301C501B4010E94451C2B01B9
:102590003C012091040130910501409106015091C8
:1025A0000701C701B6010E94451C9B01AC01C30194
:1025B000B2010E94D11A2B013C01209108013091F7
:1025C000090140910A0150910B012F966CAD7DAD30
:1025D0008EAD9FAD2F970E94451C9B01AC01C3019E
:1025E000B2010E94D11A20910C0130910D0140914D
:1025F0000E0150910F010E94D11A2796AEADBFADCA
:1026000027976D937D938D939C9313972091100141
:10261000309111014091120150911301C501B40193
:102620000E94451C2B013C012091140130911501A1
:102630004091160150911701C701B6010E94451C37
:102640009B01AC01C301B2010E94D11A2B013C01D4
:10265000209118013091190140911A0150911B01EC
:102660002F966CAD7DAD8EAD9FAD2F970E94451C12
:102670009B01AC01C301B2010E94D11A20911C013F
:1026800030911D0140911E0150911F010E94D11AED
:102690002796EEADFFAD2797648375838683978376
:1026A000209120013091210140912201509123017C
:1026B000C501B4010E94451C2B013C01209124015D
:1026C000309125014091260150912701C701B601A3
:1026D0000E94451C9B01AC01C301B2010E94D11AAA
:1026E0002B013C01209128013091290140912A01C0
:1026F00050912B012F966CAD7DAD8EAD9FAD2F9778
:102700000E94451C9B01AC01C301B2010E94D11A79
:1027100020912C0130912D0140912E0150912F01DB
:102720000E94D11A2796AEADBFAD279718966D932C
:102730007D938D939C931B972091300130913101B3
:102740004091320150913301C501B4010E94451CF2
:102750004B015C01209134013091350140913601EB
:1027600050913701C701B6010E94451C9B01AC0185
:10277000C501B4010E94D11A6B017C01209138017E
:102780003091390140913A0150913B012F966CAD47
:102790007DAD8EAD9FAD2F970E94451C9B01AC0176
:1027A000C701B6010E94D11A20913C0130913D0130
:1027B00040913E0150913F010E94D11A2796EEAD03
:1027C000FFAD279764877587868797878CE0D80148
:1027D00001900D928A95E1F761962EAD3FAD61971C
:1027E0000FB6F8943EBF0FBE2DBF31E0231A31085B
:1027F000045F1F4F8ACE60916D0770916E078091C4
:102800006F07909170070E94421B9B01220F331F9C
:10281000A901460F571FA7965FAF4EAFA7978DE64A
:1028200097E027969FAF8EAF2797A1E0B0E02D9657
:10283000BFAFAEAF2D97A7962EAD3FADA7972D9604
:102840004EAD5FAD2D97421753070CF0CBC120E082
:1028500030E040E852E42796AEADBFAD279714961E
:102860006D917D918D919C9117970E94D11A0E9434
:10287000421B63966CAF7DAF8EAF9FAF639761963F
:102880006EAC7FAC619720E030E040E052E42796E8
:10289000EEADFFAD279760857185828593850E9497
:1028A000D11A0E94421B67966CAF7DAF8EAF9FAF6F
:1028B000679765962EAC3FAC659720E030E040E826
:1028C00052E42796AEADBFAD279750966D917D919E
:1028D0008D919C9153970E94D11A0E94421B6B9636
:1028E0006CAF7DAF8EAF9FAF6B9769964EAC5FAC10
:1028F000699720E030E040E052E42796EEADFFAD6E
:10290000279764897589868997890E94D11A0E94C0
:10291000421B6F966CAF7DAF8EAF9FAF6F976D967A
:10292000AEACBFAC6D9720E030E040E852E42796B3
:10293000AEADBFAD27975C966D917D918D919C91C9
:102940005F970E94D11A0E94421B6B017C018B0190
:1029500020E030E040E052E42796EEADFFAD27974F
:1029600060A171A182A193A10E94D11A0E94421B71
:102970004B012D962EAD3FAD2D97275F3F4F2D96E6
:102980003FAF2EAF2D97A214B30424F46215730544
:10299000F4F413C06A157B057CF56D962EAC3FAC44
:1029A0006D976596AEACBFAC659769966EAC7FAC23
:1029B000699761964EAC5FAC61978A149B0494F062
:1029C00083013601322D232D1B01832E922E922D51
:1029D000832D1501A92EB82E962D872D3201492E53
:1029E000582E0AC0322D232D1B01832E922E962D98
:1029F000872D3601092F182F2814390459F546144C
:102A0000570454F0962D872D6414750414F4942DF6
:102A1000852D2301692E782E041515052CF06016DE
:102A200071060CF43801820130E42316310450F0B1
:102A30002796EEADFFAD2797B4962796FFAFEEAF82
:102A40002797F9CE41E0460D401BB101C8010E9415
:102A50001E0DEECFA20146195709A9965FAF4EAFE2
:102A6000A997C50182199309AB969FAF8EAFAB971B
:102A7000D801A619B7096196BFAFAEAF6197F4014F
:102A8000E219F3096596FFAFEEAF65979801241937
:102A9000350969963FAF2EAF6997A4014A195B09C2
:102AA000AD965FAF4EAFAD97A814B90439F0C5012C
:102AB00001976D969FAF8EAF6D9704C06D96BFAEB8
:102AC000AEAE6D978101C12CD12CE12CF12C6D960D
:102AD000AEADBFAD6D97A017B10794F1C701AB962E
:102AE0006EAD7FADAB970E94031D9B01260D371D78
:102AF000C60165966EAD7FAD65970E94031D660D9C
:102B0000771DA996EEADFFADA997EE0EFF1E61965B
:102B10004EAD5FAD6197C40ED51E621773071CF4EE
:102B2000922F9B01692F0034110538F46F5F462FF7
:102B3000421BB801C9010E941E0D0F5F1F4FC7CF76
:102B4000C8018A199B096996AEADBFAD69978A9F86
:102B500070018B9FF00C9A9FF00C1124C801821910
:102B600093096196EEADFFAD61978E9F60018F9FD7
:102B7000D00C9E9FD00C1124801691060CF458CFD7
:102B8000C701AD966EAD7FADAD970E94031D9B0151
:102B9000240D351DC60165966EAD7FAD65970E940B
:102BA000031D660D771D69964EAD5FAD6997E40E06
:102BB000F51E61968EAD9FAD6197C80ED91E621746
:102BC00073071CF4922F9B01692F0034110538F410
:102BD0006F5F462F421BB801C9010E941E0D0F5F97
:102BE0001F4FCACF2996AEADBFAD2997199629962A
:102BF000BFAFAEAF2997F7CAAF964EAD5FADAF97F7
:102C000068E370E08BE290E00E94620DE196EEAD29
:102C1000FFADE1970FB6F894FEBF0FBEEDBFC059F0
:102C2000DF4F0FB6F894DEBF0FBECDBFDF91CF915F
:102C30001F910F91FF90EF90DF90CF90BF90AF90DA
:102C40009F908F907F906F905F904F903F902F90CC
:102C50000895789484B5826084BD84B5816084BD14
:102C600085B5826085BD85B5816085BD80916E002A
:102C7000816080936E00109281008091810082605B
:102C80008093810080918100816080938100809198
:102C900080008160809380008091910082608093A9
:102CA00091008091910081608093910080919000CB
:102CB0008160809390008091C10084608093C10006
:102CC0008091C10082608093C1008091C1008160C9
:102CD0008093C1008091C30081608093C300809184
:102CE000C00082608093C0008091C20081608093A8
:102CF000C20080917A00846080937A0080917A008B
:102D0000826080937A0080917A00816080937A005B
:102D100080917A00806880937A0010920503109267
:102D2000F702109203038091D70081608093D7004F
:102D300080EA8093D80089B5806189BD89B58260B9
:102D400089BD09B400FEFDCF61E070E080E090E055
:102D50000E946E0B8091D8008F7C80618093D80098
:102D60008091E000807F8093E0008091E1008E7E82
:102D70008093E1008DE08093E200559A209A81ECE7
:102D800080937C0085B1806F85B984B1877E84B9DA
:102D900084B1876E84B95E9A5F988AB1806D8AB972
:102DA000769A6E9881B3806F81BB899880B38D705D
:102DB00080BB80E58CBD81E08DBD85E090E00E9408
:102DC00085105F9A85E090E00E9485105E985C987F
:102DD000EAE7F1E087E891E024912EBD00000DB410
:102DE00007FEFDCF31968E179F07B1F75C9A81E8F9
:102DF000809364008091650081608093650080E02D
:102E00000E94530D0E948A1087FF24C05C9885EAB7
:102E10008EBD00000DB407FEFDCF5C9A2E982F9852
:102E20002D988091640080628093640081E083BF6C
:102E3000889513BEFCCF2D980E948A108478843820
:102E400071F00E948A108471843131F188EC90E035
:102E50000E9485100E948A1082FDEDCF3AC00E9428
:102E6000831088EC90E00E9485102F9882E090E01B
:102E70000E94571A8F3F29F06FEF82E090E00E9486
:102E80005F1A84EF91E00E9485102F9A0E948A10A9
:102E900084788438D9F3D5CF0E94831088EC90E0F1
:102EA0000E9485102E9882E090E00E94571A882395
:102EB00029F060E082E090E00E945F1A84EF91E0E8
:102EC0000E9485102E9A0E948A1084718431D9F351
:102ED000BDCF0E94831082E090E00E94571A8823A1
:102EE00019F03E9A3F9A02C03E983F9881E090E0E8
:102EF0000E94571A8470D82E81E090E00E94571AE1
:102F000081FF7FC0D1102E98C0EFDFEF08E010E006
:102F10000E948A1086FF05C02E9A2F9A0E94831065
:102F200070C0DD2029F0C430D10511F42E9A2F98FD
:102F300081E00E94530D9E01D7FF04C02227332752
:102F40002C1B3D0B27703327CE01D7FD079673E06E
:102F5000959587957A95E1F7D7FF05C00197A80168
:102F6000421B530B9A01AC015695542F4427579599
:102F700047954A5F5C4FA0E0B0E04801821A930A8F
:102F80008F3F6FEF96074CF40196A85ABF4F4058F9
:102F90005F4FA03BB105A1F71EC05A01E4E9AE0E98
:102FA000B11C7A0160E070E08F3FFFEF9F0709F4EA
:102FB00059C1FB01EA0FFB1FE653FF4FE491F0E01C
:102FC0003F01022E01C0660C0A94EAF7F7017488EB
:102FD0006728648A47C180E00E94530D8FE090E02B
:102FE0000E9485102196C931D10509F091CFDD20CD
:102FF00011F02F9A2D9880E991E00E9485100E948F
:10300000831082E390E00E9485100E948A10811153
:10301000F8CF89E280930D07809164008E7F8093C2
:10302000640080917A00806480937A0080917A00B5
:1030300086FDFCCFC0917800D09179000E94490BA9
:103040008E0120E030E0980111270027600F711FEA
:10305000821F931F209164002160209364006115FA
:1030600071058105910511F00E944E1A80E090E0F3
:10307000A0E8BFE38093420190934301A0934401F1
:10308000B09345018093520190935301A093540152
:10309000B09355018093620190936301A093640102
:1030A000B093650183E08093830184E080934001C5
:1030B0008093410180E4E6E9F1E0A0E0B1E0019015
:1030C0000D928A95E1F7D1E006E013E080E0E82E6A
:1030D00080E0F82EDD24D39493E0B92E8FB7F894D6
:1030E0004091F3025091F4026091F5027091F60262
:1030F0008FBF80910E07F42FF81B8F2FC0910F0701
:10310000CC2329F0F093100710920F07A4C09091E0
:103110000D07F91740F48F5F891708F09CC0D3BFE3
:10312000889513BE98C0D0920F0740930E078091E8
:10313000090790910A07019690930A07809309075F
:1031400080910B0780930C070E948A1080930B07D5
:103150008C2FF80181118FEF00248193819381934B
:1031600081930394D1F7C091F202C130A9F04CF4DD
:10317000C11121C049EB5AE06AE772E085EE9AE09E
:1031800018C0C23081F0C330B1F44BE852E066EDB4
:1031900071E087EB92E00DC04FE357E06EE372E021
:1031A0008BE697E006C047E654E06AE072E083E908
:1031B00094E00E94921049E052E060E170E083E008
:1031C00090E00E94620D47E851E060E170E08DE51B
:1031D00090E00E94620DC13099F044F4C1111FC00B
:1031E0008091840190918501079615C0C23071F0DD
:1031F000C330A9F4809184019091850103960BC09E
:103200008091840190918501059605C0809184018B
:10321000909185010496909385018093840180911B
:103220000C0785FD04C090910B0795FD3DC086FD00
:1032300004C080910B0786FD3BC08091F20287FDA0
:10324000B092F2028091F202843014F01092F202F5
:1032500080E00E94530DE114F10409F43FCF0E9475
:1032600000003CCF2115310591F0FB01EA0FFB1F57
:10327000E653FF4FE491F0E03F01082C02C0759443
:1032800067940A94E2F7F5017080672860826F5FA7
:103290007F4FFFEFAF1ABF0AEFEFEE1AFE0A683555
:1032A000710509F081CE70CEC150C093F202BFCF3C
:1032B0008091F2028F5F8093F202BFCFDF92EF9294
:1032C000FF920F931F93CF93DF93D82EF92EE42E06
:1032D000062F10E0C8010196880F0E94050883E0C0
:1032E0000E940508CD2DDF2D0C0F1D1FC017D10723
:1032F00089F0E7FE03C0FE01849101C088810E942D
:103300000508F82E80E00E9405088F212196811182
:10331000EDCF01C081E0DF91CF911F910F91FF9020
:10332000EF90DF900895EDE1F7E01382128288EECE
:1033300093E0A0E0B0E084839583A683B7838DED0E
:1033400092E0918380838FEF9FEF95878487E6E0FB
:10335000F7E08FEE92E0918380831582168280E100
:10336000878314821382118608958F929F92AF9261
:10337000BF92CF92DF92EF92FF92CF93DF93EC0157
:10338000688179818A819B8161157105810591052B
:1033900021F464E279ED8BE597E02DE133EF41E034
:1033A00050E00E946D1A49015A019B01AC01A7EA45
:1033B000B1E40E948C1A6B017C01ACEEB4EFA50164
:1033C00094010E949A1ADC01CB018C0D9D1DAE1D4B
:1033D000BF1DB7FF03C00197A109B0488883998337
:1033E000AA83BB83BC01CD019F77DF91CF91FF9072
:1033F000EF90DF90CF90BF90AF909F908F90089507
:103400008F929F92AF92BF92CF92DF92EF92FF92F4
:103410006091920170919301809194019091950136
:10342000611571058105910521F464E279ED8BE563
:1034300097E02DE133EF41E050E00E946D1A490121
:103440005A019B01AC01A7EAB1E40E948C1A6B01FE
:103450007C01ACEEB4EFA50194010E949A1ADC0144
:10346000CB018C0D9D1DAE1DBF1DB7FF03C0019785
:10347000A109B0488093920190939301A093940185
:10348000B0939501BC01CD019F77FF90EF90DF9045
:10349000CF90BF90AF909F908F90089560939201CE
:1034A0007093930180939401909395010895F999F5
:1034B000FECF92BD81BDF89A992780B50895262F39
:1034C000F999FECF1FBA92BD81BD20BD0FB6F89409
:1034D000FA9AF99A0FBE01960895052E97FB1EF4ED
:1034E00000940E94841A57FD07D00E949F1A07FC7F
:1034F00003D04EF40C94841A509540953095219544
:103500003F4F4F4F5F4F089590958095709561950F
:103510007F4F8F4F9F4F08950E94C11AA59F900D16
:10352000B49F900DA49F800D911D11240895B7FFA5
:103530000C948C1A0E948C1A821B930B0895A1E2A2
:103540001A2EAA1BBB1BFD010DC0AA1FBB1FEE1F1D
:10355000FF1FA217B307E407F50720F0A21BB30B68
:10356000E40BF50B661F771F881F991F1A9469F7E4
:1035700060957095809590959B01AC01BD01CF0140
:103580000895A29FB001B39FC001A39F700D811D3C
:103590001124911DB29F700D811D1124911D08955C
:1035A0005058BB27AA270E94E81A0C94F71B0E94C8
:1035B000BE1B38F00E94C51B20F039F49F3F19F460
:1035C00026F40C94BB1B0EF4E095E7FB0C94B51BA2
:1035D000E92F0E941C1C58F3BA176207730784076F
:1035E000950720F079F4A6F50C943E1C0EF4E095B6
:1035F0000B2EBA2FA02D0B01B90190010C01CA01AD
:10360000A0011124FF27591B99F0593F50F4503E57
:1036100068F11A16F040A22F232F342F4427585F49
:10362000F3CF469537952795A795F0405395C9F761
:103630007EF41F16BA0B620B730B840BBAF0915019
:10364000A1F0FF0FBB1F661F771F881FC2F70EC0B8
:10365000BA0F621F731F841F48F48795779567958B
:10366000B795F7959E3F08F0B0CF9395880F08F077
:103670009927EE0F9795879508950E94CE1BE395A5
:103680000C94081C0E94491B6894B1110C943F1CB7
:1036900008950E94241C88F09F5798F0B92F99270D
:1036A000B751B0F0E1F0660F771F881F991F1AF02D
:1036B000BA95C9F714C0B13091F00E943E1CB1E038
:1036C00008950C943E1C672F782F8827B85F39F037
:1036D000B93FCCF3869577956795B395D9F73EF4C6
:1036E00090958095709561957F4F8F4F9F4F08956E
:1036F000E89409C097FB3EF490958095709561958C
:103700007F4F8F4F9F4F9923A9F0F92F96E9BB2741
:103710009395F695879577956795B795F111F8CFBD
:10372000FAF4BB0F11F460FF1BC06F5F7F4F8F4F28
:103730009F4F16C0882311F096E911C0772321F01E
:103740009EE8872F762F05C0662371F096E8862FB6
:1037500070E060E02AF09A95660F771F881FDAF70D
:10376000880F9695879597F9089597F99F6780E850
:1037700070E060E008959FEF80EC089500240A94C3
:103780001616170618060906089500240A9412163C
:1037900013061406050608950C94BB1B0E94241CF6
:1037A000D8F3E894E0E0BB279F57F0F02AED3FE024
:1037B00049EC06C0EE0FBB0F661F771F881F28F06D
:1037C000B23A62077307840728F0B25A620B730B90
:1037D000840BE3959A9572F7803830F49A95BB0F75
:1037E000661F771F881FD2F790480C94BC1C092EC7
:1037F0000394000C11F4882352F0BB0F40F4BF2B4C
:1038000011F460FF04C06F5F7F4F8F4F9F4F08958B
:10381000EF93E0FF07C0A2EA2AED3FE049EC5FEB3F
:103820000E94E81A0E94F71B0F90039401FC905825
:10383000ECEAF0E00C94C81C57FD9058440F551F5B
:1038400059F05F3F71F04795880F97FB991F61F022
:103850009F3F79F087950895121613061406551F99
:10386000F2CF4695F1DF08C0161617061806991F05
:10387000F1CF86957105610508940895E894BB27FA
:1038800066277727CB0197F908950E94581C0C945E
:10389000F71B0E94BE1B38F00E94C51B20F0952329
:1038A00011F00C94B51B0C94BB1B11240C943F1C01
:1038B0000E941C1C70F3959FC1F3950F50E0551F9B
:1038C000629FF001729FBB27F00DB11D639FAA2775
:1038D000F00DB11DAA1F649F6627B00DA11D661FC4
:1038E000829F2227B00DA11D621F739FB00DA11DE5
:1038F000621F839FA00D611D221F749F3327A00D9F
:10390000611D231F849F600D211D822F762F6A2F3A
:1039100011249F5750409AF0F1F088234AF0EE0F9F
:10392000FF1FBB1F661F771F881F91505040A9F7CC
:103930009E3F510580F00C94B51B0C943F1C5F3FDB
:10394000E4F3983ED4F3869577956795B795F79508
:10395000E7959F5FC1F7FE2B880F911D9695879580
:1039600097F908959F930E94CE1B0F9007FCEE5F7E
:103970000C94081C9F3F31F0915020F48795779567
:103980006795B795880F911D9695879597F9089536
:103990009F938F937F936F93FF93EF939B01AC0162
:1039A0000E94451CEF91FF910E94DC1C2F913F91DA
:1039B0004F915F910C94451CDF93CF931F930F930E
:1039C000FF92EF92DF927B018C01689406C0DA2EA1
:1039D000EF010E94581CFE01E894A59125913591B4
:1039E00045915591A6F3EF010E94E81AFE01970157
:1039F000A801DA9469F7DF90EF90FF900F911F9183
:103A0000CF91DF91089597FB072E16F4009407D00D
:103A100077FD09D00E94171D07FC05D03EF4909554
:103A200081959F4F0895709561957F4F0895AA1BCA
:103A3000BB1B51E107C0AA1FBB1FA617B70710F099
:103A4000A61BB70B881F991F5A95A9F780959095CB
:103A5000BC01CD010895EE0FFF1F0590F491E02DFC
:103A6000099481E090E0F8940C94361DF894FFCF0F
:103A70000000000000000000000000000000000046
:103A80000000000000000000000000000000000036
:103A90000000000000000000000000000000000026
:103AA0000000000000000000000000000000000016
:103AB0000301000000000000000000000000000002
:103AC00000000000000000000000000000000000F6
:103AD00000000000000000000000000000000000E6
:103AE00000000000000000000000000000000000D6
:103AF00000000301B400FFFFFFFF00E10000000031
:103B00000000010000000000803F000000000000F5
:103B1000000000000000000000000000803F0000E6
:103B20000000000000000000000000000000000095
:103B30000000000000000000000000000000000085
:103B400000000000803F0000104300000040000023
:103B5000C040000080410000804000002041000083
:103B600000C00000E040000020C1000080C1000053
:103B700000C10000C0C00000A0C0000064430000FD
:103B8000E0400000C0C00000804100008040000014
:103B9000604100000041000080C1000040C1000001
:103BA000C04000004040000040C00000E0C00000F5
:103BB0008D430000E0400000C0C0000080400000D5
:103BC00000C00000A0C00000804100006041000073
:103BD0000041000040C1000080C10000C040000062
:103BE0004040000040C00000E0C00000B1430000C1
:103BF000E040000000C00000A0C00000C0C0000005
:103C000000C1000080400000004000008041000032
:103C100080C10000008000006041000070C1000011
:103C200040C00000C04000000041000040C1000052
:103C300060C1000040400000E0C000000000000043
:103C4000E04000C1808100000000000000310C98BD
:103C50000C520C470CEB07560C740C000000006C67
:023C60000E0054
:00000001FF
