:100000000C94C1070C94E9070C94E9070C94E907D8
:100010000C94E9070C94E9070C94E9070C94E907A0
:100020000C94E9070C94E9070C946B0F0C94DD0F0A
:100030000C94E9070C94E9070C94E9070C94E90780
:100040000C94E9070C94E9070C94E9070C94E90770
:100050000C94E9070C94E9070C94E9070C947A12C4
:100060000C94E9070C94E9070C94E9070C94E90750
:100070000C94E9070C94E9070C94E9070C94E90740
:100080000C94E9070C94E9070C94E9070C94E90730
:100090000C94E9070C94E9070C94E9070C94E90720
:1000A0000C94E9070C94E9070C94E90705A84CCDDA
:1000B000B2D44EB93836A9020C50B9918688083CA2
:1000C000A6AAAA2ABE000000803FF0F89C8E878373
:1000D000878E9CF8F00000FEFF0303030303070E66
:1000E000FCF80000FEFF0303030303070EFCF80007
:1000F00000FFFF00000000000000FFFF0000FEFF07
:100100008383838383C7EE7C380000F8FC0E0703EB
:100110000303070EFCF800003F7FE0C08080C0E0D2
:100120007F3FFFFF01010101010101FFFF0000FF0F
:10013000FF0C0C0C0C1C3E77E3C100007FFFC0C01D
:10014000C0C0C0E0703F1F00001F3F70E0C0C0C0D3
:10015000E0703F1F00007FFFC1C1C1C1C1E3773E16
:100160001C00001F3F70E0C0C0C0E0703F1F0000D7
:1001700000000001FFFF01000000D5F08D14A1C8B0
:1001800081CFD9F1AF200020200000000000000046
:10019000000000000000000000FEFCF8F0E080809D
:1001A000000000000000000000FEFFFFFFFFFFFF57
:1001B000FFFFFFFFFFFFFFFFFFFFFFFFFFFFFFFF4F
:1001C000FFFEFCF8F0E0C08000FFFFFFFFFFFFFF35
:1001D000FFFFFFFFFFFFFFFFFFFFFFFFFFFFFFFF2F
:1001E000FF7F7F3F0F0707030000000000000000B3
:1001F0000000000000000000007F3F3F1F070303D6
:1002000000000000000000000020200000000000AE
:1002100000000000C0C0E0F8FCFCFE000000000090
:10022000000000000000000000000000C0E0E0F05E
:10023000FCFEFEFFFFFFFFFFFFFFFFFFFFFFFFFFD3
:10024000FFFFFFFFFFFFFFFFFFFFFF000103070F9F
:100250001F3F7FFFFFFFFFFFFFFFFFFFFFFFFFFFCE
:10026000FFFFFFFFFFFFFFFFFFFF7F000000000019
:10027000000000000101070F1F3F7F000000000089
:1002800000000000000000000000002A070000003D
:10029000000000000000000000203C0E100C3E009A
:1002A0003C241C00043C0438241C00000000000016
:1002B0000000000000000001020301040501020526
:1002C00001060701040501060301060301040501F7
:1002D00002030104080102090102080106040104E5
:1002E0000501060701040501060401040801060AC8
:1002F00001040801060401060901040801060A01B7
:100300000408010609010209010B0C010604010B96
:1003100004010604010B0C01060A06020301060390
:10032000010203010603060203060603060209068C
:10033000040806020806060A060408060609060658
:10034000090604080602090604050602030602055A
:1003500006060C06040806060A06040806060C062D
:10036000040506060706040506060C060603060431
:1003700005060607060405060603060203060B0427
:1003800006060C060B0C06060C060B0406060706F2
:100390000609010209010609010209060609060209
:1003A0000901040806040501040506040501040802
:1003B000060408060B0C010B04060B04010B0C01D0
:1003C0000B04060B0C06060901060A06060A0106BE
:1003D0000A060609010609060607010603060603C2
:1003E00001060306060701060706020801040801C4
:1003F00002080104080602080604080102090602B0
:10040000080102080602080102090602090604059D
:1004100001020501040501020506040506020501A5
:100420000205060203010203060203010205060299
:1004300005060B0C06060C06060A06060A01060A45
:10044000060B0C060B0C01060A010B0C010604013D
:100450000607010B04060607010B04010607010B42
:1004600004060607060B042A07003E2A3E003C202D
:100470003C003C04003C043C003A003C043C004C82
:10048000547C00003C0E100C3E0038243C20003C04
:10049000043C0001020301040501040301040501F9
:1004A0000203010406010406010203010402010221
:1004B000070104020102030104020102070104080A
:1004C00001040801020701040701040501090601EE
:1004D00009050109060104050104060104020109D8
:1004E000080109020109080104020104080A0902BD
:1004F0000104020109020104020A09020A04020AB3
:1005000004080A09020A09080A09020A04080A0476
:10051000020A04080109080104080109080A04087C
:100520000A09080109080A09020109020A09020167
:1005300009080A09080B04020B09080B09020B0938
:10054000080B04020B04080C09020B04020B09023D
:100550000B04020C09020C04020C02070C04080C28
:1005600004070C04080C02070C04020C02030C0420
:10057000020C02070C04020C02030C04060C040615
:100580000C02030C04050C04050C02030C04030C00
:1005900004080C09020C09080C09020C04080C04DC
:1005A000020C04060C09050C09060C09050C0406CE
:1005B0000C04050C04080B09080B04080B09080CB3
:1005C00004080C09080B09080C09020B09020C09A4
:1005D000020B09080C09080A0905010405010905AF
:1005E0000104050A09050A04050A04060A09050AA0
:1005F00009060A09050A04060A04050A040601098F
:10060000060104060109060A04060A09060109068C
:100610000A09050109050A09050109060A09060B67
:1006200004050B09060B09050B09060B04050B0451
:10063000060C09050B04050B09050B04050C09053F
:100640000C04050C04060B09060B04060B09060C2A
:1006500004060C09060B09060C09050B09050C0913
:10066000050B09060C09060C04030102030104032F
:100670000102030C04030C02030C02070102030C29
:1006800002030102030C02070102070C0207010426
:10069000070102070104070C02070C040701040705
:1006A0000A04080104080A04080104070B04080CE2
:1006B00004070B04080104070B04080C04070C04CE
:1006C000080A04080B04020A04020B04020A0408C4
:1006D0000B04080A04020A04060104060A04060AB6
:1006E00004020B04060A04020104060104020B04BE
:1006F000020B04060A04020B04060B04020C040697
:100700000C04060B04020C04020A04060B04050A7E
:1007100004050B04050A04060B04060A040501047B
:10072000030104050104030A04050C04030B04057A
:100730000C04030A04050C04030B04050C04052A2D
:100740000700000000000000000000000000002082
:100750003E2A3E0018141C507E0018141C10000085
:10076000000000000000000000000001020301047E
:100770000501040301040501020301020501040649
:100780000103070103060104010103070104060137
:10079000030801040301030201040501030201042B
:1007A0000301030701040101030801030801040117
:1007B00001040301030201040501030901040A0104
:1007C000030901040501030901040A01030A0103E5
:1007D00007010B08010B07010B08010307010308C0
:1007E000010302010B09010B02010B0901030201C4
:1007F00003090C0B02010302010B020103020C0BA3
:10080000020C03020C03090C0B020C0B090C0B026B
:100810000C03090C03020C0309010B090103090174
:100820000B090C03090C0B09010B090C0B02010B42
:10083000020C0B02010B090C0B090D03020D0B0935
:100840000D0B020D0B090D03020D03090E0B020D1A
:1008500003020D0B020D03020E0B020E03020E0229
:10086000030E04050E02050E04050E02030E04011C
:100870000E040A0E03090E030A0E04050E03090EE8
:10088000040A0E03020E04050E03080E04010E03F3
:10089000080E04050E03090E04050E03020E0308DC
:1008A0000E04010E03070E04060E03070E04010ECC
:1008B00003070E04060E03060E03090E0B020E0BB1
:1008C000090E0B020E03090E03020E03080E0B079E
:1008D0000E0B080E0B070E03080E03070E03090D7F
:1008E0000B090D03090D0B090E03090E0B090D0B66
:1008F000090E0B020D0B020E0B020D0B090E0B095C
:100900000C0B07010307010B070103070C0B070C76
:1009100003070C03080C0B070C0B080C0B070C034C
:10092000080C03070C0308010B08010308010B085E
:100930000C03080C0B08010B080C0B07010B070C30
:100940000B07010B080C0B080D03070D0B080D0B13
:10095000070D0B080D03070D03080E0B070D03070A
:100960000D0B070D03070E0B070E03070E03080DF3
:100970000B080D03080D0B080E03080E0B080D0BDA
:10098000080E0B070D0B070E0B070D0B080E0B08BF
:100990000E03060104060103060104060E03060EFB
:1009A00004060E02050102030E0203010205010204
:1009B000030E02050E040A01030A01040A01030AD8
:1009C0000E040A0E030A01030A0C03090103090CB1
:1009D000030901030A0D03090E030A0D03090103AC
:1009E0000A0D03090E030A0E03090C03090D030285
:1009F0000C03020D03020C03090D03090C03020C86
:100A000003080103080C03080C03020D03080C0380
:100A1000020103080103020D03020D03080C030287
:100A20000D03080D03020E03080E03080D03020E4A
:100A300003020C03080D03070C03070D03070C0347
:100A4000080D03080C030701030601030701030651
:100A50000C03070E03060D03070E03060C03070E17
:100A600003060D03070E03070E020501040501022C
:100A7000050104050E02050E04050E040A01040515
:100A80000E04050104050E040A01040A0E04010106
:100A900004060E04060104060E040101040101040B
:100AA000030104010102030E040101020301040118
:100AB0000102030E04010E02032A070000000000D9
:100AC000382422320E043C100C301C2C003C040450
:100AD000003F1028243C003C043C003824243F0004
:100AE00000000000000102030104030102050104EB
:100AF00006010203010206010203010406010403C8
:100B0000010708010206010709010708010A080197
:100B1000020B01070801020B010201010708010293
:100B20000101020601020301070901020601020593
:100B300001070901020301020C0107090102050175
:100B4000070901020C010D09010E0B01060F010E30
:100B50000F01070801060401060F01060401070939
:100B600001061001060B01060F010E0B010708011B
:100B7000060F01060B01060401070801070901061B
:100B800010010709010611010604010E10010E04EF
:100B9000010E10010604010610120E0401060401E4
:100BA0000E04010604120E04120604120610120EA0
:100BB00004120E10120E0412061012060412061071
:100BC000010E10010610010E10120610120E100177
:100BD0000E10120E04010E04120E04010E10120E5D
:100BE000100D06040D0E100D0E040D0E100D060452
:100BF0000D0610130E040D06040D0E040D0604134D
:100C00000E04130604130709130610130611130626
:100C10001013020513060413061013070913020C20
:100C2000130610130E04130E10130E0413061013E4
:100C3000060413060F130E0B130E0F13060F1307E4
:100C40000B130E0B13060413020313060F130201FA
:100C500013060F13020313060F13020113070B13DE
:100C6000061013020C13020513020C130709130DCF
:100C700009130406130203130403130203130406E7
:100C800013020113060413020513020313020B13CC
:100C9000070B13020113140813070B13020B13079E
:100CA0000B1314081307081306100D0E100D061071
:100CB0000D0E10130610130E100D0E10130E040D52
:100CC0000E04130E040D0E10130E1013060B0D065A
:100CD0000B0D0E0B130E0B13060B0D0E0B13060B49
:100CE000130E0B13070B120E0B01060B010E0B124A
:100CF000060B01060B120E0B12060F120E0B120E34
:100D00000F120E0B12060F12060B12060F010E0F1A
:100D100001060F010E0F12060F120E0F010E0F1219
:100D20000E0B010E0B120E0B010E0F120E0F0D0605
:100D30000B0D0E0F0D0E0B0D0E0F0D060B0D060FEE
:100D400013060F0D0E0F0D060F0D0E0F13060F13CA
:100D50000E0F0D0E0F130E0B0D0E0B130E0B0D0EB3
:100D60000F130E0F130708010A08010708010A08EC
:100D7000130708131408130D09010709010D0901D0
:100D80000709130D091307090106111206100106C0
:100D9000101206100106110D06101306110D061093
:100DA0000106110D06101306111306101206100D80
:100DB00006041206040D06041206100D0610120693
:100DC0000412060F01060F12060F1206040D060F7D
:100DD00012060401060F0106040D06040D060F128B
:100DE00006040D060F0D060413060F13060F0D065D
:100DF0000413060412060F0D060B12060B0D060B4C
:100E000012060F0D060F1304030104061304060156
:100E10000403010406130403130403010203010481
:100E20000301020313040313020313020C0102055E
:100E300013020501020513020C01020C010708153B
:100E4000070813070813020101020B13020B01022A
:100E50000B130201010201130D0901020C13020C14
:100E600001020C130D09010D0913040313020313EE
:100E70000205130205010205010403130203010424
:100E80000301020301040313020313040313020505
:100E900001040313040301070913061101061113CA
:100EA00006110107091307090102060102010104E5
:100EB00006130201010406010201010406130201E6
:100EC00013040613070813060B13070B01060B1573
:100ED000070801070812060B15070801060B0D0687
:100EE0000B15070812060B1507080D060B13060B4A
:100EF00013070815070813060B13020B010A081342
:100F00001408010A0813020B01020B080B0002026D
:100F10000201000904000001020200000524001083
:100F2000010524010101042402060524060001072D
:100F300005810310004009040100020A00000007B7
:100F40000502024000000705830240000004030977
:100F50000412010002EF02014041233C8000010124
:100F600002030141726475696E6F204C4C4300416D
:100F7000726475696E6F204573706C6F72610000EA
:100F80007B1811241FBECFEFDAE0DEBFCDBF12E029
:100F9000A0E0B1E0E0E4F8E302C005900D92A23BCE
:100FA000B107D9F728E0A2EBB2E001C01D92AD3540
:100FB000B207E1F717E0C1ECD7E004C02197FE01CA
:100FC0000E94131CC03CD107C9F70E9414150C9451
:100FD0001E1C0C940000CF92DF92EF92FF920F93B1
:100FE0001F93CF93DF936C017A018B01C0E0D0E0B7
:100FF000CE15DF0581F0D8016D918D01D601ED91FF
:10100000FC910190F081E02DC6010995892B11F02A
:101010002196EECF7E01C701DF91CF911F910F91F5
:10102000FF90EF90DF90CF9008950895089580E0AD
:1010300090E008950E94191C2F923F924F925F9268
:101040006F927F928F929F92AF92BF92CF92DF92D8
:10105000EF92FF920F931F93CF93DF93CDB7DEB73D
:10106000A8970FB6F894DEBF0FBECDBF9A838983D1
:10107000762E6091B3027091B4028091B502909186
:10108000B6020E942A1A7E8F6D8F89819A8168E646
:1010900071E00E94EB1BBC01990F880B990B0E9419
:1010A000621A29E33AEF4EE85CE30E942D1B4B01E4
:1010B0005C010E949A1B6B017C01C501B4010E9476
:1010C000251A162F78A78FA3092F21E0721649F150
:1010D00082E0781609F44FC0711074C0D701C601C0
:1010E000B05889879A87AB87BC871D8B7E8B9FA161
:1010F0009F8B088F198E1A8E1B8E1C8E19821A8256
:101100001B821C821D821E821F8218861D861E86DF
:101110001F86188A198A1A8AA0E8AB8BBFE3BC8B9A
:1011200074C0D701C601B0588D839E83AF83B88742
:101130001D8B98A59E8BAFA1AF8B088FC98EDA8EC1
:10114000EB8EFC8E198B9A8BAB8B0C8B19861A86C7
:101150001B861C86C12CD12C760110E018A6B0E8A5
:10116000BFA30FE3C982DA82EB82FC821D861E8652
:101170001F86188A4AC0D701C601B05889839A834E
:10118000AB83BC83CD86DE86EF86F88A198B98A563
:101190009A8BAFA1AB8B0C8B1D8A1E8AB0E8BF8BDC
:1011A000EFE3E88F19861A861B861C86198E1A8E25
:1011B0001B8E1C8EC12CD12C7601CD82DE82EF825B
:1011C000F88623C01D8A1E8A1F8A188E19861A86E1
:1011D0001B861C86198E1A8E1B8E1C8EC12CD12C40
:1011E000760110E018A61FA200E0C982DA82EB8225
:1011F000FC82CD82DE82EF82F8861D861E861F86E7
:10120000188A198A1A8A1B8A1C8A83EB282E82E084
:10121000382E8D8D9E8D01979E8F8D8F019609F4AE
:10122000B4C0D10114968D919D910D90BC91A02DCB
:101230008F8F98A3A9A3BAA3D10118968D919D91E0
:101240000D90BC91A02D8BA39CA3ADA3BEA3F101D7
:1012500084849584A684B78429893A894B895C89DA
:10126000C501B4010E942D1B2B013C012D853E853B
:101270004F8558896BA17CA18DA19EA10E942D1B39
:101280009B01AC01C301B2010E94B9192B013C01C1
:101290002D813E814F8158856F8D78A189A19AA1BA
:1012A0000E942D1B9B01AC01C301B2010E94B91920
:1012B000D10114966D937D938D939C9317972981FB
:1012C0003A814B815C81C501B4010E942D1B2B0129
:1012D0003C01212F38A54FA1502F6BA17CA18DA1DE
:1012E0009EA10E942D1B9B01AC01C301B2010E9473
:1012F000B9192B013C01A70196016F8D78A189A135
:101300009AA10E942D1B9B01AC01C301B2010E9456
:10131000B919F1016087718782879387298D3A8D8A
:101320004B8D5C8DC501B4010E942D1B4B015C01EE
:1013300029853A854B855C856BA17CA18DA19EA1F9
:101340000E942D1B9B01AC01C501B4010E94B9197B
:101350004B015C012D893E894F89588D6F8D78A195
:1013600089A19AA10E942D1B9B01AC01C501B4016A
:101370000E94B919D1011C966D937D938D939C9316
:101380001F97BCE02B0E311C44CFA8960FB6F894E3
:10139000DEBF0FBECDBFDF91CF911F910F91FF90A8
:1013A000EF90DF90CF90BF90AF909F908F907F9005
:1013B0006F905F904F903F902F9008952D9A0895D1
:1013C000BC0180E090E00C9440128FB18095807F4A
:1013D000669B88601C9B846008952F923F924F9279
:1013E0005F926F927F928F929F92AF92BF92CF92B5
:1013F000DF92EF92FF920F931F93CF93DF93CDB7BE
:10140000DEB7A4970FB6F894DEBF0FBECDBF998F9D
:10141000888F2B015AA349A3209184013091850123
:101420003B8F2A8FFB0160817181828193810E94B1
:101430002A1A9B01220F331FA901460F571F5B8BEE
:101440004A8BCA0166E070E00E94EB1B892B11F009
:101450000E94191C80E090E0A0ECB0E48093B302FD
:101460009093B402A093B502B093B602688C798CC5
:10147000C301688D798D861B970BEA89FB898E17CE
:101480009F070CF055C4F3018491F20124E0829F80
:10149000E00DF11D112480819181A281B38180939F
:1014A000B7029093B802A093B902B093BA02F301C5
:1014B0003196E491A20164E0E69F400D511D112494
:1014C000FA0180819181A281B3818093BB029093C4
:1014D000BC02A093BD02B093BE02F3013296E49128
:1014E000C20124E0E29F800D911D1124FC01808146
:1014F0009181A281B3818093BF029093C002A09397
:10150000C102B093C202F3013396E491A20164E0F8
:10151000E69F400D511D1124FA0180819181A28125
:10152000B3818093C3029093C402A093C502B09389
:10153000C602F3013496E491C20124E0E29F800DDB
:10154000911D1124FC0180819181A281B38180933E
:10155000C7029093C802A093C902B093CA02F301D4
:101560003596E491A20164E0E69F400D511D1124DF
:10157000FA0180819181A281B3818093CB02909303
:10158000CC02A093CD02B093CE02F3013696E49143
:10159000C20124E0E29F800D911D1124FC01808195
:1015A0009181A281B3818093CF029093D002A093C6
:1015B000D102B093D202F3013796E491A20164E024
:1015C000E69F400D511D1124FA0180819181A28175
:1015D000B3818093D3029093D402A093D502B093A9
:1015E000D602F3013896E491C20124E0E29F800D17
:1015F000911D1124FC0180819181A281B38180938E
:10160000D7029093D802A093D902B093DA02F301E3
:101610003996E491A20164E0E69F400D511D11242A
:10162000FA0180819181A281B3818093DB02909342
:10163000DC02A093DD02B093DE02F3013A96E4915E
:10164000C20124E0E29F800D911D1124FC018081E4
:101650009181A281B3818093DF029093E002A093F5
:10166000E102B093E202F3013B96E491A20164E04F
:10167000E69F400D511D1124FA0180819181A281C4
:10168000B3818093E3029093E402A093E502B093C8
:10169000E602F3013C96E491C20124E0E29F800D52
:1016A000911D1124FC0180819181A281B3818093DD
:1016B000E7029093E802A093E902B093EA02F301F3
:1016C0003D96E491A20164E0E69F400D511D112476
:1016D000FA0180819181A281B3818093EB02909382
:1016E000EC02A093ED02B093EE02F3013E96E4917A
:1016F000C20124E0E29F800D911D1124FC01808134
:101700009181A281B3818093EF029093F002A09324
:10171000F102B093F202F3013F96E491A20164E07A
:10172000E69F400D511D1124FA0180819181A28113
:10173000B3818093F3029093F402A093F502B093E7
:10174000F602F3017096E491C20124E0E29F800D5D
:10175000911D1124FC0180819181A281B38180932C
:10176000F7029093F802A093F902B093FA02F30102
:101770007196E491A20164E0E69F400D511D112491
:10178000FA0180819181A281B3818093FB029093C1
:10179000FC02A093FD02B093FE0261E08A8D9B8D56
:1017A0000E941C0860E08FE090E00E941C0860919D
:1017B000B3027091B4028091B5029091B6020E947A
:1017C0002A1A8B0183EB92E09A878987FC01FA83BE
:1017D000E9830150110908F444C02091520130916D
:1017E00053014091540150915501E981FA8160857E
:1017F0007185828593850E942D1B4B015C01209190
:101800006201309163014091640150916501E98169
:10181000FA8164817581868197810E942D1B6B01FD
:101820007C0120914201309143014091440150914B
:101830004501E981FA8164857585868597850E94D1
:101840002D1BE981FA816483758386839783808663
:101850009186A286B386C486D586E686F7863C96B0
:10186000B6CF6091B3027091B4028091B5029091AD
:10187000B6020E942A1A8B0123EB32E03A832983B5
:1018800001501109A0F120911401309115014091EE
:10189000160150911701E981FA8160857185828571
:1018A00093850E942D1B6B017C01209100013091DA
:1018B00001014091020150910301E981FA8164859F
:1018C0007585868597850E942D1BE981FA81648341
:1018D000758386839783C086D186E286F3861486D5
:1018E0001586168617863C96FA83E983C9CF6091E0
:1018F000B3027091B4028091B5029091B6020E9439
:101900002A1A9B01220F331FA901460F571F5D8F13
:101910004C8F61E070E07F876E87EC8DFD8D2E85AA
:101920003F852E173F070CF0FFC120E030E040E874
:1019300052E4E985FA8564817581868197810E94E8
:10194000B9190E942A1AE62E862F972F9A83898327
:1019500020E030E040E052E4E985FA856085718559
:10196000828593850E94B9190E942A1A6D837E830D
:101970008F8398872D813E813C832B8320E030E04C
:1019800040E852E4E985FA85608971898289938902
:101990000E94B9190E942A1AF62E072FC62E172F59
:1019A00020E030E040E052E4E985FA8564897589F9
:1019B000868997890E94B9190E942A1A4B015C01F5
:1019C0001B0120E030E040E852E4E985FA85648DAF
:1019D000758D868D978D0E94B9190E942A1A6B8782
:1019E000D72E6CA320E030E040E052E4E985FA8590
:1019F00060A171A182A193A10E94B9190E942A1A23
:101A0000AB012E853F85275F3F4F3F872E87EB81B8
:101A1000FC818E169F060CF4ABC16E177F078CF00D
:101A2000CE2CF9820A831F019C828B82A1012B801C
:101A30003C807C836B83CCA2C9801A81FB85F983AF
:101A4000DA822B813C812215330554F4322D232D6B
:101A50002B803C803B832C832C2DC98029831A83C7
:101A60003CA13BA3042F1C2DDC2CD31AD7FE04C0B1
:101A7000D1946FEF6C8702C071E07C872E8EA22C10
:101A8000A01A89818F8FF82E9CA1F91AF7FE04C045
:101A9000F194EFEFEB8702C0F1E0FB872B8128A3E5
:101AA000322F301B3D87DA1434F42D2DDA2CA22E80
:101AB0008824839401C0812C6D85F61634F42F2D73
:101AC000F62E2D8771E07D8301C01D828F2D0F2C96
:101AD000000C990B9D8B8C8BEF2CE594241635060E
:101AE00009F485C0ED2D0D2C000CFF0BF98BE88B54
:101AF000BD2CB594912C892D90E0288939898217C5
:101B000093070CF074C03CA14BA1341718F0432F7D
:101B10002BA102C04BA12CA11F8A892D90E06889BE
:101B200079898617970714F01E8A2AC09394BA0CF5
:101B30008B2D90E0E889F9898E179F0734F0BD1846
:101B4000882091F3FC85FF8BF3CF8110EDCF3CA172
:101B50005C85350F3CA3E1CFEF18FD81FF2399F0A1
:101B60003B853E8B8E2D90E0EC89FD898E179F077B
:101B70009CF75D81511107C06BA17B85670F6BA33B
:101B80006D85E60EEFCF0034B0F48CA1821708F417
:101B9000282F8BA1281708F4822F9CA1491708F43D
:101BA000492FEBA14E1708F44E2F481B602F70E011
:101BB00090E00E94F013811004C0FCA12C85F20F6C
:101BC000FCA33CA14F89340F3CA35D81511104C09B
:101BD0006BA17B85670F6BA38BA19E89890F8BA35C
:101BE0000F5F802F90E02816390609F084CFEF8D23
:101BF000EC19E88BE7FF05C0E195E88B99249A94EE
:101C000002C099249394B8A0FE8DBF1A28892B1581
:101C10002CF4B88AB22EAA24A39401C0A12C38892E
:101C2000232E032E000C3308C32EC594D12C8D2DEA
:101C300090E02816390634F489859A8584969A8727
:101C400089876BCE4BA1141718F0212F342F02C0B7
:101C50002BA1312F8D2D90E0821593051CF0812C46
:101C60001C8625C0CB0C8C2D90E08215930534F09A
:101C70005889C51AAA2099F3892CF2CFA110EFCF69
:101C8000190DD394E7CFEF185D815523D9F06B85FB
:101C90006C878E2D90E04C895D89841795079CF7A1
:101CA0007D8171110FC08BA19B85890F8BA36BA1C7
:101CB000862F90E0E981FA81E817F90719F0FD8590
:101CC000EF0EE7CF0034B0F4812F311708F4832FE3
:101CD000EBA1E81708F48E2F412F121708F4422FBA
:101CE000FBA14F1708F44F2F481B602F70E090E0C6
:101CF0000E94F013A11001C0190D180D2D812111A2
:101D000004C03BA14B85340F3BA35BA16C85560FF0
:101D10005BA30F5F802F90E0EB81FC81E817F90750
:101D20000CF48ACFD39483CFF2E16F0E711CA0CB59
:101D300049A15AA168E370E08BE290E0A4960FB647
:101D4000F894DEBF0FBECDBFDF91CF911F910F91F1
:101D5000FF90EF90DF90CF90BF90AF909F908F90CB
:101D60007F906F905F904F903F902F900C94341421
:101D7000681579050CF474CE59CEFC0184859585DF
:101D800097FD0BC09FB7F89482E08093E9008091A3
:101D9000F2009FBF90E0019608959FB7F89482E00B
:101DA0008093E9008091F2009FBF90E008954091F8
:101DB000EF035091F0032091ED033091EE034217B1
:101DC0005307B4F49091E8009570E1F39091E80026
:101DD00092FD19C08093F1008091EF039091F00380
:101DE00001968F739927892B19F48EEF8093E80061
:101DF0008091EF039091F00301969093F00380930C
:101E0000EF0381E0089580E00895DF92EF92FF9262
:101E10000F931F93CF93DF93D82E8A017B01E40E9B
:101E2000F51EEB01CE15DF0571F0D7FE03C0FE01F4
:101E3000849101C088810E94D70E21968111F2CF32
:101E40008FEF9FEF01C0C801DF91CF911F910F91DC
:101E5000FF90EF90DF900895615030F02091F100F5
:101E6000FC0120830196F8CF289884E68093F40340
:101E700008950F931F93CF93DF931F92CDB7DEB7D3
:101E800082E0898342E450E06BE07FE080E80E94DA
:101E9000050F0E940015DC0112960D911C911397FD
:101EA0000115110589F0D801ED91FC910280F381B3
:101EB000E02DBE016F5F7F4FC801099597FD04C0FB
:101EC000F80100851185ECCF89810F90DF91CF91CA
:101ED0001F910F9108951F920F920FB60F92112428
:101EE0008F939F938091E1009091E100937F909375
:101EF000E10083FF0FC01092E90091E09093EB00A6
:101F00001092EC0092E39093ED001092F50398E0AC
:101F10009093F00082FF20C093E09093E9009091AD
:101F2000F200992319F09AE39093E8009091F2035C
:101F3000992339F09091F20391509093F2039923F1
:101F400089F19091F403992339F09091F403915021
:101F50009093F403992341F184FF10C08091E20033
:101F60008E7E81608093E2008091E1008F7E80937D
:101F7000E1008091F3038E7E806111C080FF16C066
:101F80008091E2008E7E80618093E2008091E1008A
:101F90008E7E8093E1008091F3038E7E816080933A
:101FA000F30304C05D9ACDCF289AD6CF9F918F912D
:101FB0000F900FBE0F901F9018951F920F920FB6A3
:101FC0000F921124CF92DF92EF92FF920F931F9303
:101FD0002F933F934F935F936F937F938F939F9331
:101FE000AF93BF93EF93FF93CF93DF93CDB7DEB75C
:101FF0006C97DEBFCDBF1092E9008091E80083FFAF
:10200000FBC168E0CE0145960E942C0F82EF8093C1
:10201000E8008D8987FF05C09091E80090FFFCCF14
:1020200003C09EEF9093E800982F907609F0C6C009
:102030009E894F89588D2F89F88C91110CC080385A
:1020400029F48091E7038093F10002C01092F1001F
:102050001092F10045C1913051F4811141C14130DC
:10206000510509F03DC18091E7038D7F0BC093308E
:1020700061F4811135C14130510509F031C18091C0
:10208000E70382608093E7032BC1953049F4809188
:10209000E80080FFFCCF822F80688093E30020C19E
:1020A000963009F05EC00B8D1C8D22E01092E90085
:1020B0001092F0031092EF03F21232C01092EE036E
:1020C0001092ED030E94390F99E0BE016F5F7F4FC0
:1020D000DB01E92F1D92EA95E9F79983FA8291E0F5
:1020E0009E8390EA98879AEF99872091EF03309129
:1020F000F003275F3F4F3C832B838D831092E900D1
:102100001092F0031092EF031093EE030093ED038F
:1021100049E050E080E00E94050F0E94390FE0C0C6
:102120001093EE030093ED030E940015DC0112965C
:102130000D911C9113970115110509F4BBC0D8012D
:10214000ED91FC910480F581E02DBE016B5E7F4F27
:10215000C8010995009709F0C7C0F80100851185ED
:10216000EACF973009F445C1983021F481E080939B
:10217000F100B6C0993009F0B3C0837009F039C1DD
:10218000E3E9F2E081E031E096E32081211109C02A
:102190008EE78093EA001092EA008F898093F5031E
:1021A0009FC08093E9003093EB0021912093EC00D5
:1021B0009093ED008F5F873041F7EACF8B8D9C8D38
:1021C0001092E9001092F0031092EF039093EE0347
:1021D0008093ED03898D811153C08E899D89913A39
:1021E00049F4813209F005C147E050E06AE871E046
:1021F00080E0BBC0913209F0FCC0833269F48F8962
:10220000988DA0E0B0E08093860190938701A09321
:102210008801B093890164C0803269F48091E8003C
:1022200082FFFCCF67E08AE891E00E942C0F8BEFE1
:102230008093E80055C0823209F052C08F898093A4
:102240009101EEEFFFE7859194918B3F9C4D19F042
:10225000E0E0F8E002C0EEEFFAE080918A019091B0
:102260008B01A0918C01B0918D01803B9440A10520
:10227000B10509F09EC08091910180FF79C099C09D
:102280000E940015FC01028113810115110509F45A
:10229000B0C0D801ED91FC910190F081E02DBE011C
:1022A0006B5E7F4FC801099581111AC0F801008546
:1022B0001185EBCFF1E0FF1609F44EC0F3E0FF12F9
:1022C00098C08F89882309F44AC0823089F440E895
:1022D0006FE08FE69FE00E944618882309F489C0CA
:1022E0008EEF8093E80088C018161906CCF381C0E1
:1022F000813029F440E86BE083E69FE0ECCF833047
:1023000009F077C00E940015DC011296ED90FC9058
:1023100013978E010F5F1F4F6801E114F10479F0EC
:10232000D701ED91FC910680F781E02DB801C7013E
:102330000995080F111DF701E084F184EECFD80153
:102340001C92F60101900020E9F73197BF016C194A
:102350007D0940E0C601BFCF61E57FE002C06DE4CA
:102360007FE0FB01449150E080E80E94050FB8CF68
:10237000EE3F2AE0F20751F0808191818737A7E78D
:102380009A0721F09093FF0A8093FE0A87E797E768
:1023900091838083809160008093F1039BE088E1CA
:1023A0000FB6F894A895809360000FBE90936000DC
:1023B00097CF808191818737974709F091CFA89572
:1023C000809160008861809360008091F103809328
:1023D0006000EE3FBAE0FB0739F08091FE0A909171
:1023E000FF0A918380837CCF1092FF0A1092FE0A2D
:1023F00077CF81E28093EB006C960FB6F894DEBF46
:102400000FBECDBFDF91CF91FF91EF91BF91AF9103
:102410009F918F917F916F915F914F913F912F91FC
:102420001F910F91FF90EF90DF90CF900F900FBE14
:102430000F901F9018953FB7F8948091E903909101
:10244000EA03A091EB03B091EC0326B5A89B05C06D
:102450002F3F19F00196A11DB11D3FBFBA2FA92F23
:10246000982F8827820F911DA11DB11DBC01CD01A0
:1024700042E0660F771F881F991F4A95D1F708958C
:102480008F929F92AF92BF92CF92DF92EF92FF9284
:102490006B017C010E941B124B015C01C114D10431
:1024A000E104F104F1F00E941B12DC01CB01881958
:1024B0009909AA09BB09883E9340A105B10570F3AB
:1024C00021E0C21AD108E108F10888EE880E83E005
:1024D000981EA11CB11CC114D104E104F10419F728
:1024E000DDCFFF90EF90DF90CF90BF90AF909F90A7
:1024F0008F9008951F920F920FB60F9211242F9371
:102500003F938F939F93AF93BF938091E3039091F9
:10251000E403A091E503B091E6033091E80323E0E2
:10252000230F2D3720F40196A11DB11D05C026E80B
:10253000230F0296A11DB11D2093E8038093E303AE
:102540009093E403A093E503B093E6038091E9033D
:102550009091EA03A091EB03B091EC030196A11DC9
:10256000B11D8093E9039093EA03A093EB03B0932A
:10257000EC03BF91AF919F918F913F912F910F905D
:102580000FBE0F901F9018952091F503211103C0E5
:102590008FEF9FEF08955FB7F89422E02093E90052
:1025A0002091F20030E01216130614F421E030E01E
:1025B000422FFC0184E6415038F028988093F403C0
:1025C0009091F1009193F7CF2115310521F0809181
:1025D000F200882319F05FBFC90108958BE680934C
:1025E000E800F9CF2FB7F89483E08093E900909149
:1025F000E800892F807295FF04C09091F20080E47A
:10260000891B2FBF0895CF93DF931F92CDB7DEB7FD
:102610006983DC01ED91FC910280F381E02D41E0C2
:1026200050E0BE016F5F7F4F09950F90DF91CF9112
:10263000089583E08093E9008091F200882319F0E7
:102640008AE38093E80008950E94F21290E00895D2
:10265000CF93DF931F92CDB7DEB7FC0184859585BC
:1026600097FD05C02FEF3FEF358724870BC0CE01C4
:1026700001960E94C412019719F4898190E002C06A
:102680008FEF9FEF0F90DF91CF9108950F931F93DE
:10269000CF93DF931F92CDB7DEB78C01FC01848509
:1026A000958597FF0EC0CE0101960E94C412019736
:1026B00019F4898190E002C08FEF9FEFF8019587B0
:1026C0008487F801848595850F90DF91CF911F91C4
:1026D0000F9108958F929F92AF92BF92CF92DF9207
:1026E000EF92FF920F931F93CF93DF936C017B01C7
:1026F0008A0180919101882309F45CC08091F503DF
:10270000882309F457C08091F30380FF05C08091AE
:10271000E00082608093E000E801B12C8AEFA82EEF
:1027200093E0892E2AE3922E209711F4BB20D9F151
:102730000E94F21281110AC0AA94AA20D9F161E084
:1027400070E080E090E00E944012EECF282F30E051
:10275000C217D3070CF48C2F9FB7F8948092E9002E
:102760002091E80025FF1DC0282F30E0C21BD30BAD
:10277000F701815020F041914093F100FACFE20E31
:10278000F31EBB2019F09092E8000AC08091E80087
:1027900085FD07C09092E800BB24B394209709F010
:1027A000B12C9FBFC1CF5D9884E68093F2031016D1
:1027B000110644F081E090E0F6019383828380E08B
:1027C00090E001C0C801DF91CF911F910F91FF9060
:1027D000EF90DF90CF90BF90AF909F908F90089533
:1027E0009C01240F311D1216130674F580389105D3
:1027F0005CF597FF02C080E090E02138310514F0CD
:1028000020E830E0281BAB014770552731E001C0BC
:10281000330F4A95EAF777FF02C0695F7F4F43E0C5
:10282000759567954A95E1F77695762F66277795A2
:102830006795860F971FFC01EA50FC4F215020F04E
:102840008081832B8193FACF0895E6EFF3E0A0E037
:10285000B8E000800EBC8111012C1197A0FDFDCFC6
:102860000192B9F70DB408956F927F929F92AF9243
:10287000BF92CF92DF92EF92FF920F931F93CF936D
:10288000DF9300D0CDB7DEB7DC014115510509F467
:10289000A7C0FA01D4903196E4916D2C712C83017C
:1028A000080F191F101611060CF09AC080389105F8
:1028B0000CF096C0CB018E0F911D181619060CF066
:1028C0008FC0603471050CF08BC0F62FF770FF2EAF
:1028D000CB0177FD079623E0959587952A95E1F73B
:1028E000F82F77FF04C0FF2011F0FFEFF80FB7FFBC
:1028F00005C0662777276A1B7B0B02C060E070E08B
:102900000038110524F080E88A1B982E01C09D2C08
:10291000961A0F2F0F2E000C110BFF3F1CF4C02E28
:10292000C09401C0C12C91E02E2F277009F490E0D3
:10293000E695E695E6959E0F090F111D09301105E4
:1029400014F098E09F1BEC2CEF0E4E5F5F4F8B0155
:10295000DC9C000D111D1124400F511F01E010E0FF
:102960000F2C02C0000F111F0A94E2F73E2D20E841
:102970003203A00DB11D11249D01260F371F2A50CF
:102980003C4F9F0F9E1561F1B901FA01DE2ED41A5A
:10299000D91400F5B490B09E6001B19ED00C112402
:1029A000DA82C982E7FC04C0DB01DC90CD28CC923E
:1029B000FF2061F0B6E0BE154CF05B0180E8A80E88
:1029C000B11CD501CC90DA80DC28DC9231966F5FA7
:1029D0007F4FDCCFE394460D571D20583F4FD2CF99
:1029E0000F900F90DF91CF911F910F91FF90EF907B
:1029F000DF90CF90BF90AF909F907F906F900895A1
:102A00008091050881110DC082E08093010884E067
:102A100080930208109204081092030881E08093CA
:102A2000050881E098E00895789484B5826084BDBB
:102A300084B5816084BD85B5826085BD85B58160C2
:102A400085BD80916E00816080936E001092810040
:102A500080918100826080938100809181008160FB
:102A600080938100809180008160809380008091BC
:102A700091008260809391008091910081608093A9
:102A80009100809190008160809390008091C100BE
:102A900084608093C1008091C10082608093C100F6
:102AA0008091C10081608093C1008091C3008160EA
:102AB0008093C3008091C00082608093C0008091A9
:102AC000C20081608093C20080917A00846080930C
:102AD0007A0080917A00826080937A0080917A00F7
:102AE000816080937A0080917A00806880937A0078
:102AF0001092F5031092E7031092F3038091D70030
:102B000081608093D70080EA8093D80089B5806186
:102B100089BD89B5826089BD09B400FEFDCF61E041
:102B200070E080E090E00E9440128091D8008F7C9D
:102B300080618093D8008091E000807F8093E000E6
:102B40008091E1008E7E8093E1008DE08093E20031
:102B5000559A209A81EC80937C0085B1806F85B96D
:102B600084B1877E84B984B1876E84B95E9A5F9898
:102B70008AB1806D8AB9769A6E9881B3806F81BB75
:102B8000899880B38D7080BB80E58CBD81E08DBD60
:102B900085E090E00E94E0095F9A85E090E00E9465
:102BA000E0095E985C98EAE7F1E087E891E024911B
:102BB0002EBD00000DB407FEFDCF31968E179F0786
:102BC000B1F75C9A81E88093640080916500816030
:102BD0008093650080E00E9425140E94E50987FF2C
:102BE00024C05C9885EA8EBD00000DB407FEFDCFC1
:102BF0005C9A2E982F982D98809164008062809323
:102C0000640081E083BF889513BEFCCF2D980E949D
:102C1000E5098478843871F00E94E5098471843173
:102C200031F188EC90E00E94E0090E94E50982FD04
:102C3000EDCF3AC00E94DE0988EC90E00E94E009E6
:102C40002F9882E090E00E943F198F3F29F06FEFAC
:102C500082E090E00E94471984EF91E00E94E00931
:102C60002F9A0E94E50984788438D9F3D5CF0E9441
:102C7000DE0988EC90E00E94E0092E9882E090E066
:102C80000E943F19882329F060E082E090E00E94D2
:102C9000471984EF91E00E94E0092E9A0E94E5090D
:102CA00084718431D9F3BDCF0E94DE0982E090E0C7
:102CB0000E943F19882319F03E9A3F9A02C03E981D
:102CC0003F9881E090E00E943F198470D82E81E007
:102CD00090E00E943F1981FF7FC0D1102E98C0EF75
:102CE000DFEF08E010E00E94E50986FF05C02E9A9C
:102CF0002F9A0E94DE0970C0DD2029F0C430D10572
:102D000011F42E9A2F9881E00E9425149E01D7FF7E
:102D100004C0222733272C1B3D0B27703327CE01FD
:102D2000D7FD079673E0959587957A95E1F7D7FFDC
:102D300005C00197A801421B530B9A01AC0156959F
:102D4000542F4427579547954A505C4FA0E0B0E078
:102D50004801821A930A8F3F6FEF96074CF4019651
:102D6000A85ABF4F40585F4FA03BB105A1F71EC006
:102D70005A01E4E9AE0EB11C7A0160E070E08F3FC9
:102D8000FFEF9F0709F455C1FB01EA0FFB1FE65354
:102D9000FF4FE491F0E03F01022E01C0660C0A945F
:102DA000EAF7F70174886728648A43C180E00E94CB
:102DB00025148FE090E00E94E0092196C931D105E9
:102DC00009F091CFDD2011F02F9A2D9880E991E044
:102DD0000E94E0090E94DE0982E390E00E94E0097F
:102DE0000E94E5098111F8CF89E28093FD07809167
:102DF00064008E7F8093640080917A008064809369
:102E00007A0080917A0086FDFCCFC0917800D09145
:102E100079000E941B128E0120E030E098011127FA
:102E20000027600F711F821F931F20916400216093
:102E300020936400611571058105910511F00E94D0
:102E4000361980E090E0A0E8BFE3809342019093C0
:102E50004301A0934401B0934501809352019093A4
:102E60005301A0935401B093550180936201909354
:102E70006301A0936401B093650123E02093830173
:102E800024E020934001209341018093000190931E
:102E90000101A0930201B093030180931401909368
:102EA0001501A0931601B093170180933C019093F4
:102EB0003D01A0933E01B0933F01FF24F394C4E68B
:102EC000D0E000E010E0EE24E39483E0D82E8FB74A
:102ED000F8944091E3035091E4036091E50370910D
:102EE000E6038FBF8091FE07F42FF81B8F2F909180
:102EF000FF07992329F0F09300081092FF0792C072
:102F00009091FD07F91740F48F5F891708F08AC088
:102F1000F3BE889513BE86C0E092FF074093FE077C
:102F20008091F9079091FA0701969093FA078093A0
:102F3000F9078091FB078093FC070E94E5098093C5
:102F4000FB07B090B20221E0B216C1F02B154CF095
:102F5000B11023C049EB5AE06AE372E085EE9AE0D3
:102F60001AC042E0B41689F053E0B51216C04BE81F
:102F700052E066E971E087EB92E00DC04FE357E065
:102F80006EEF71E08BE697E006C047E654E06AEC2E
:102F900071E083E994E00E94ED0949E052E060E1CC
:102FA00070E083E090E00E94341447E851E060E173
:102FB00070E08DE590E00E9434148091000864E692
:102FC000869FC00111246091FD0770E00E94EB1BF9
:102FD000CB01BE010E94EB1B809184019091850181
:102FE000680F791F70938501609384019091FC07AD
:102FF00095FD04C08091FB0785FD3DC096FD04C092
:103000008091FB0786FD3CC08091B20287FDD09283
:10301000B2028091B202843014F01092B20281E0C8
:103020000E9425140115110509F451CF0E940000DA
:103030004ECF2115310591F0FB01EA0FFB1FE6533E
:10304000FF4FE491F0E03F01082C02C075946794B3
:103050000A94E2F7F5017080672860826F5F7F4F06
:10306000FFEFAF1ABF0AEFEFEE1AFE0A68357105DF
:1030700009F085CE74CE8FEF8B0D8093B202BECF58
:103080008091B2028F5F8093B202BECFDF92EF9247
:10309000FF920F931F93CF93DF93D82EF92EE42E38
:1030A000062F10E0C8010196880F0E94D70E83E01A
:1030B0000E94D70ECD2DDF2D0C0F1D1FC017D1077D
:1030C00089F0E7FE03C0FE01849101C088810E945F
:1030D000D70EF82E80E00E94D70E8F212196811105
:1030E000EDCF01C081E0DF91CF911F910F91FF9053
:1030F000EF90DF900895EDE0F8E01382128288EE01
:1031000093E0A0E0B0E084839583A683B7838DE944
:1031100092E0918380838FEF9FEF95878487E6EF1E
:10312000F7E08FEA92E0918380831582168280E136
:10313000878314821382118608958F929F92AF9293
:10314000BF92CF92DF92EF92FF92CF93DF93EC0189
:10315000688179818A819B8161157105810591055D
:1031600021F464E279ED8BE597E02DE133EF41E066
:1031700050E00E94551949015A019B01AC01A7EA90
:10318000B1E40E9474196B017C01ACEEB4EFA501AF
:1031900094010E948219DC01CB018C0D9D1DAE1D96
:1031A000BF1DB7FF03C00197A109B0488883998369
:1031B000AA83BB83BC01CD019F77DF91CF91FF90A4
:1031C000EF90DF90CF90BF90AF909F908F90089539
:1031D0008F929F92AF92BF92CF92DF92EF92FF9227
:1031E0006091920170919301809194019091950169
:1031F000611571058105910521F464E279ED8BE596
:1032000097E02DE133EF41E050E00E94551949016C
:103210005A019B01AC01A7EAB1E40E9474196B0149
:103220007C01ACEEB4EFA50194010E948219DC018F
:10323000CB018C0D9D1DAE1DBF1DB7FF03C00197B7
:10324000A109B0488093920190939301A0939401B7
:10325000B0939501BC01CD019F77FF90EF90DF9077
:10326000CF90BF90AF909F908F9008956093920100
:103270007093930180939401909395010895F99927
:10328000FECF92BD81BDF89A992780B50895262F6B
:10329000F999FECF1FBA92BD81BD20BD0FB6F8943B
:1032A000FA9AF99A0FBE01960895052E97FB1EF41F
:1032B00000940E946C1957FD07D00E94871907FCE3
:1032C00003D04EF40C946C1950954095309521958F
:1032D0003F4F4F4F5F4F0895909580957095619542
:1032E0007F4F8F4F9F4F08950E94A919A59F900D62
:1032F000B49F900DA49F800D911D11240895B7FFD8
:103300000C9474190E947419821B930B0895A1E206
:103310001A2EAA1BBB1BFD010DC0AA1FBB1FEE1F4F
:10332000FF1FA217B307E407F50720F0A21BB30B9A
:10333000E40BF50B661F771F881F991F1A9469F716
:1033400060957095809590959B01AC01BD01CF0172
:103350000895A29FB001B39FC001A39F700D811D6E
:103360001124911DB29F700D811D1124911D08958E
:103370005058BB27AA270E94D0190C94DF1A0E942C
:10338000A61A38F00E94AD1A20F039F49F3F19F4C4
:1033900026F40C94A31A0EF4E095E7FB0C949D1A06
:1033A000E92F0E94041B58F3BA17620773078407BA
:1033B000950720F079F4A6F50C94261B0EF4E09501
:1033C0000B2EBA2FA02D0B01B90190010C01CA01DF
:1033D000A0011124FF27591B99F0593F50F4503E8A
:1033E00068F11A16F040A22F232F342F4427585F7C
:1033F000F3CF469537952795A795F0405395C9F794
:103400007EF41F16BA0B620B730B840BBAF091504B
:10341000A1F0FF0FBB1F661F771F881FC2F70EC0EA
:10342000BA0F621F731F841F48F4879577956795BD
:10343000B795F7959E3F08F0B0CF9395880F08F0A9
:103440009927EE0F9795879508950E94B61AE395F0
:103450000C94F01A0E94311A6894B1110C94271B35
:1034600008950E940C1B88F09F5798F0B92F992758
:10347000B751B0F0E1F0660F771F881F991F1AF05F
:10348000BA95C9F714C0B13091F00E94261BB1E083
:1034900008950C94261B672F782F8827B85F39F082
:1034A000B93FCCF3869577956795B395D9F73EF4F8
:1034B00090958095709561957F4F8F4F9F4F0895A0
:1034C000E89409C097FB3EF49095809570956195BE
:1034D0007F4F8F4F9F4F9923A9F0F92F96E9BB2774
:1034E0009395F695879577956795B795F111F8CFF0
:1034F000FAF4BB0F11F460FF1BC06F5F7F4F8F4F5B
:103500009F4F16C0882311F096E911C0772321F050
:103510009EE8872F762F05C0662371F096E8862FE8
:1035200070E060E02AF09A95660F771F881FDAF73F
:10353000880F9695879597F9089597F99F6780E882
:1035400070E060E008959FEF80EC089500240A94F5
:103550001616170618060906089500240A9412166E
:1035600013061406050608950C94A31A0E940C1B5A
:10357000D8F3E894E0E0BB279F57F0F02AED3FE056
:1035800049EC06C0EE0FBB0F661F771F881F28F09F
:10359000B23A62077307840728F0B25A620B730BC2
:1035A000840BE3959A9572F7803830F49A95BB0FA7
:1035B000661F771F881FD2F790480C94A41B092E12
:1035C0000394000C11F4882352F0BB0F40F4BF2B7E
:1035D00011F460FF04C06F5F7F4F8F4F9F4F0895BE
:1035E000EF93E0FF07C0A2EA2AED3FE049EC5FEB72
:1035F0000E94D0190E94DF1A0F90039401FC90588A
:10360000ECEAF0E00C94B01B57FD9058440F551FA6
:1036100059F05F3F71F04795880F97FB991F61F054
:103620009F3F79F087950895121613061406551FCB
:10363000F2CF4695F1DF08C0161617061806991F37
:10364000F1CF86957105610508940895E894BB272C
:1036500066277727CB0197F908950E94401B0C94A9
:10366000DF1A0E94A61A38F00E94AD1A20F09523A6
:1036700011F00C949D1A0C94A31A11240C94271B7E
:103680000E94041B70F3959FC1F3950F50E0551FE6
:10369000629FF001729FBB27F00DB11D639FAA27A7
:1036A000F00DB11DAA1F649F6627B00DA11D661FF6
:1036B000829F2227B00DA11D621F739FB00DA11D17
:1036C000621F839FA00D611D221F749F3327A00DD1
:1036D000611D231F849F600D211D822F762F6A2F6D
:1036E00011249F5750409AF0F1F088234AF0EE0FD2
:1036F000FF1FBB1F661F771F881F91505040A9F7FF
:103700009E3F510580F00C949D1A0C94271B5F3F3F
:10371000E4F3983ED4F3869577956795B795F7953A
:10372000E7959F5FC1F7FE2B880F911D96958795B2
:1037300097F908959F930E94B61A0F9007FCEE5FC9
:103740000C94F01A9F3F31F0915020F487957795B3
:103750006795B795880F911D9695879597F9089568
:103760009F938F937F936F93FF93EF939B01AC0194
:103770000E942D1BEF91FF910E94C41B2F913F913E
:103780004F915F910C942D1BDF93CF931F930F9359
:10379000FF92EF92DF927B018C01689406C0DA2ED3
:1037A000EF010E94401BFE01E894A59125913591FF
:1037B00045915591A6F3EF010E94D019FE019701A2
:1037C000A801DA9469F7DF90EF90FF900F911F91B5
:1037D000CF91DF91089597FB072E16F4009407D040
:1037E00077FD09D00E94FF1B07FC05D03EF49095A1
:1037F00081959F4F0895709561957F4F0895AA1BFD
:10380000BB1B51E107C0AA1FBB1FA617B70710F0CB
:10381000A61BB70B881F991F5A95A9F780959095FD
:10382000BC01CD010895EE0FFF1F0590F491E02D2E
:10383000099481E090E0F8940C941E1CF894FFCF5A
:103840000000000000000000000000000000000078
:103850000000000000000000000000000000000068
:103860000000000000000000000000000000000058
:103870000000000000000000000000000000000048
:103880000301000000000000000000000000000034
:103890000000000000000000000000000000000028
:1038A0000000000000000000000000000000000018
:1038B0000000000000000000000000000000000008
:1038C00000000301B400FFFFFFFF00E10000000063
:1038D0000000010000000000104300000040000054
:1038E000C0400000804100008040000020410000F6
:1038F00000C00000E040000020C1000080C10000C6
:1039000000C10000C0C00000A0C00000644300006F
:10391000E0400000C0C00000804100008040000086
:10392000604100000041000080C1000040C1000073
:10393000C04000004040000040C00000E0C0000067
:103940008D430000E0400000C0C000008040000047
:1039500000C00000A0C000008041000060410000E5
:103960000041000040C1000080C10000C0400000D4
:103970004040000040C00000E0C00000B143000033
:10398000E040000000C00000A0C00000C0C0000077
:1039900000C10000804000000040000080410000A5
:1039A00080C10000008000006041000070C1000084
:1039B00040C00000C04000000041000040C10000C5
:1039C00060C1000040400000E0C0000000000000B6
:1039D000E04000C180810000000000000003136A85
:1039E0001324131913BD0E281346130000000015ED
:0239F0000800CD
:00000001FF
