:100000000C9469070C9491070C9491070C94910738
:100010000C9491070C9491070C9491070C94910700
:100020000C9491070C9491070C9453190C94CC19CF
:100030000C9491070C9491070C9491070C949107E0
:100040000C9491070C9491070C9491070C949107D0
:100050000C9491070C9491070C9491070C94921FA7
:100060000C9491070C9491070C9491070C949107B0
:100070000C9491070C9491070C9491070C949107A0
:100080000C9491070C9491070C9491070C94910790
:100090000C9491070C9491070C9491070C94910780
:1000A0000C9491070C9491070C94910705A84CCDE2
:1000B000B2D44EB93836A9020C50B9918688083CA2
:1000C000A6AAAA2ABE000000803FD5F08D14A1C8C0
:1000D00081CFD9F1AF2000202000000000000000F7
:1000E000000000000000000000FEFCF8F0E080804E
:1000F000000000000000000000FEFFFFFFFFFFFF08
:10010000FFFFFFFFFFFFFFFFFFFFFFFFFFFFFFFFFF
:10011000FFFEFCF8F0E0C08000FFFFFFFFFFFFFFE5
:10012000FFFFFFFFFFFFFFFFFFFFFFFFFFFFFFFFDF
:10013000FF7F7F3F0F070703000000000000000063
:100140000000000000000000007F3F3F1F07030386
:10015000000000000000000000202000000000005F
:1001600000000000C0C0E0F8FCFCFE000000000041
:10017000000000000000000000000000C0E0E0F00F
:10018000FCFEFEFFFFFFFFFFFFFFFFFFFFFFFFFF84
:10019000FFFFFFFFFFFFFFFFFFFFFF000103070F50
:1001A0001F3F7FFFFFFFFFFFFFFFFFFFFFFFFFFF7F
:1001B000FFFFFFFFFFFFFFFFFFFF7F0000000000CA
:1001C000000000000101070F1F3F7F00000000003A
:1001D00000000000000000000000002A07000000EE
:1001E000000000000000000000203C0E100C3E004B
:1001F0003C241C00043C0438241C000000000000C7
:1002000000000000000000010203010405010205D6
:1002100001060701040501060301060301040501A7
:100220000203010408010209010208010604010495
:100230000501060701040501060401040801060A78
:1002400001040801060401060901040801060A0167
:100250000408010609010209010B0C010604010B47
:1002600004010604010B0C01060A06020301060341
:10027000010203010603060203060603060209063D
:10028000040806020806060A060408060609060609
:10029000090604080602090604050602030602050B
:1002A00006060C06040806060A06040806060C06DE
:1002B000040506060706040506060C0606030604E2
:1002C00005060607060405060603060203060B04D8
:1002D00006060C060B0C06060C060B0406060706A3
:1002E00006090102090106090102090606090602BA
:1002F00009010408060405010405060405010408B3
:10030000060408060B0C010B04060B04010B0C0180
:100310000B04060B0C06060901060A06060A01066E
:100320000A06060901060906060701060306060372
:100330000106030606070106070602080104080174
:100340000208010408060208060408010209060260
:10035000080102080602080102090602090604054E
:100360000102050104050102050604050602050156
:10037000020506020301020306020301020506024A
:1003800005060B0C06060C06060A06060A01060AF6
:10039000060B0C060B0C01060A010B0C01060401EE
:1003A0000607010B04060607010B04010607010BF3
:1003B00004060607060B042A07003E2A3E003C20DE
:1003C0003C003C04003C043C003A003C043C004C33
:1003D000547C00003C0E100C3E0038243C20003CB5
:1003E000043C0001020301040501040301040501AA
:1003F00002030104060104060102030104020102D2
:1004000007010402010203010402010207010408BA
:10041000010408010207010407010405010906019E
:100420000905010906010405010406010402010988
:10043000080109020109080104020104080A09026D
:100440000104020109020104020A09020A04020A63
:1004500004080A09020A09080A09020A04080A0427
:10046000020A04080109080104080109080A04082D
:100470000A09080109080A09020109020A09020118
:1004800009080A09080B04020B09080B09020B09E9
:10049000080B04020B04080C09020B04020B0902EE
:1004A0000B04020C09020C04020C02070C04080CD9
:1004B00004070C04080C02070C04020C02030C04D1
:1004C000020C02070C04020C02030C04060C0406C6
:1004D0000C02030C04050C04050C02030C04030CB1
:1004E00004080C09020C09080C09020C04080C048D
:1004F000020C04060C09050C09060C09050C04067F
:100500000C04050C04080B09080B04080B09080C63
:1005100004080C09080B09080C09020B09020C0954
:10052000020B09080C09080A09050104050109055F
:100530000104050A09050A04050A04060A09050A50
:1005400009060A09050A04060A04050A040601093F
:10055000060104060109060A04060A09060109063D
:100560000A09050109050A09050109060A09060B18
:1005700004050B09060B09050B09060B04050B0402
:10058000060C09050B04050B09050B04050C0905F0
:100590000C04050C04060B09060B04060B09060CDB
:1005A00004060C09060B09060C09050B09050C09C4
:1005B000050B09060C09060C0403010203010403E0
:1005C0000102030C04030C02030C02070102030CDA
:1005D00002030102030C02070102070C02070104D7
:1005E000070102070104070C02070C0407010407B6
:1005F0000A04080104080A04080104070B04080C93
:1006000004070B04080104070B04080C04070C047E
:10061000080A04080B04020A04020B04020A040874
:100620000B04080A04020A04060104060A04060A66
:1006300004020B04060A04020104060104020B046E
:10064000020B04060A04020B04060B04020C040647
:100650000C04060B04020C04020A04060B04050A2F
:1006600004050B04050A04060B04060A040501042C
:10067000030104050104030A04050C04030B04052B
:100680000C04030A04050C04030B04050C04052ADE
:100690000700000000000000000000000000002033
:1006A0003E2A3E0018141C507E0018141C10000036
:1006B000000000000000000000000001020301042F
:1006C00005010403010405010203010205010406FA
:1006D00001030701030601040101030701040601E8
:1006E00003080104030103020104050103020104DC
:1006F00003010307010401010308010308010401C8
:1007000001040301030201040501030901040A01B4
:10071000030901040501030901040A01030A010395
:1007200007010B08010B07010B0801030701030870
:10073000010302010B09010B02010B090103020174
:1007400003090C0B02010302010B020103020C0B53
:10075000020C03020C03090C0B020C0B090C0B021C
:100760000C03090C03020C0309010B090103090125
:100770000B090C03090C0B09010B090C0B02010BF3
:10078000020C0B02010B090C0B090D03020D0B09E6
:100790000D0B020D0B090D03020D03090E0B020DCB
:1007A00003020D0B020D03020E0B020E03020E02DA
:1007B000030E04050E02050E04050E02030E0401CD
:1007C0000E040A0E03090E030A0E04050E03090E99
:1007D000040A0E03020E04050E03080E04010E03A4
:1007E000080E04050E03090E04050E03020E03088D
:1007F0000E04010E03070E04060E03070E04010E7D
:1008000003070E04060E03060E03090E0B020E0B61
:10081000090E0B020E03090E03020E03080E0B074E
:100820000E0B080E0B070E03080E03070E03090D2F
:100830000B090D03090D0B090E03090E0B090D0B16
:10084000090E0B020D0B020E0B020D0B090E0B090C
:100850000C0B07010307010B070103070C0B070C27
:1008600003070C03080C0B070C0B080C0B070C03FD
:10087000080C03070C0308010B08010308010B080F
:100880000C03080C0B08010B080C0B07010B070CE1
:100890000B07010B080C0B080D03070D0B080D0BC4
:1008A000070D0B080D03070D03080E0B070D0307BB
:1008B0000D0B070D03070E0B070E03070E03080DA4
:1008C0000B080D03080D0B080E03080E0B080D0B8B
:1008D000080E0B070D0B070E0B070D0B080E0B0870
:1008E0000E03060104060103060104060E03060EAC
:1008F00004060E02050102030E02030102050102B5
:10090000030E02050E040A01030A01040A01030A88
:100910000E040A0E030A01030A0C03090103090C61
:10092000030901030A0D03090E030A0D030901035C
:100930000A0D03090E030A0E03090C03090D030235
:100940000C03020D03020C03090D03090C03020C36
:1009500003080103080C03080C03020D03080C0331
:10096000020103080103020D03020D03080C030238
:100970000D03080D03020E03080E03080D03020EFB
:1009800003020C03080D03070C03070D03070C03F8
:10099000080D03080C030701030601030701030602
:1009A0000C03070E03060D03070E03060C03070EC8
:1009B00003060D03070E03070E02050104050102DD
:1009C000050104050E02050E04050E040A010405C6
:1009D0000E04050104050E040A01040A0E040101B7
:1009E00004060E04060104060E04010104010104BC
:1009F000030104010102030E0401010203010401C9
:100A00000102030E04010E02032A07000000000089
:100A1000382422320E043C100C301C2C003C040400
:100A2000003F1028243C003C043C003824243F00B4
:100A3000000000000001020301040301020501049B
:100A40000601020301020601020301040601040378
:100A5000010708010206010709010708010A080148
:100A6000020B01070801020B010201010708010244
:100A70000101020601020301070901020601020544
:100A800001070901020301020C0107090102050126
:100A9000070901020C010D09010E0B01060F010EE1
:100AA0000F01070801060401060F010604010709EA
:100AB00001061001060B01060F010E0B01070801CC
:100AC000060F01060B0106040107080107090106CC
:100AD00010010709010611010604010E10010E04A0
:100AE000010E10010604010610120E040106040195
:100AF0000E04010604120E04120604120610120E51
:100B000004120E10120E0412061012060412061021
:100B1000010E10010610010E10120610120E100127
:100B20000E10120E04010E04120E04010E10120E0D
:100B3000100D06040D0E100D0E040D0E100D060402
:100B40000D0610130E040D06040D0E040D060413FD
:100B50000E041306041307091306101306111306D7
:100B60001013020513060413061013070913020CD1
:100B7000130610130E04130E10130E041306101395
:100B8000060413060F130E0B130E0F13060F130795
:100B90000B130E0B13060413020313060F130201AB
:100BA00013060F13020313060F13020113070B138F
:100BB000061013020C13020513020C130709130D80
:100BC0000913040613020313040313020313040698
:100BD00013020113060413020513020313020B137D
:100BE000070B13020113140813070B13020B13074F
:100BF0000B1314081307081306100D0E100D061022
:100C00000D0E10130610130E100D0E10130E040D02
:100C10000E04130E040D0E10130E1013060B0D060A
:100C20000B0D0E0B130E0B13060B0D0E0B13060BF9
:100C3000130E0B13070B120E0B01060B010E0B12FA
:100C4000060B01060B120E0B12060F120E0B120EE4
:100C50000F120E0B12060F12060B12060F010E0FCB
:100C600001060F010E0F12060F120E0F010E0F12CA
:100C70000E0B010E0B120E0B010E0F120E0F0D06B6
:100C80000B0D0E0F0D0E0B0D0E0F0D060B0D060F9F
:100C900013060F0D0E0F0D060F0D0E0F13060F137B
:100CA0000E0F0D0E0F130E0B0D0E0B130E0B0D0E64
:100CB0000F130E0F130708010A08010708010A089D
:100CC000130708131408130D09010709010D090181
:100CD0000709130D09130709010611120610010671
:100CE000101206100106110D06101306110D061044
:100CF0000106110D06101306111306101206100D31
:100D000006041206040D06041206100D0610120643
:100D10000412060F01060F12060F1206040D060F2D
:100D200012060401060F0106040D06040D060F123B
:100D300006040D060F0D060413060F13060F0D060D
:100D40000413060412060F0D060B12060B0D060BFC
:100D500012060F0D060F1304030104061304060107
:100D60000403010406130403130403010203010432
:100D70000301020313040313020313020C0102050F
:100D800013020501020513020C01020C01070815EC
:100D9000070813070813020101020B13020B0102DB
:100DA0000B130201010201130D0901020C13020CC5
:100DB00001020C130D09010D09130403130203139F
:100DC00002051302050102050104031302030104D5
:100DD00003010203010403130203130403130205B6
:100DE000010403130403010709130611010611137B
:100DF0000611010709130709010206010201010496
:100E00000613020101040601020101040613020196
:100E100013040613070813060B13070B01060B1523
:100E2000070801070812060B15070801060B0D0637
:100E30000B15070812060B1507080D060B13060BFA
:100E400013070815070813060B13020B010A0813F2
:100E50001408010A0813020B01020B080B0002021E
:100E60000201000904000001020200000524001034
:100E700001052401010104240206052406000107DE
:100E800005810310004009040100020A0000000768
:100E90000502024000000705830240000004030928
:100EA0000412010002EF02014041233680000101DB
:100EB00002030141726475696E6F204C4C4300411E
:100EC000726475696E6F204C656F6E6172646F003D
:100ED000AD2411241FBECFEFDAE0DEBFCDBF12E09C
:100EE000A0E0B1E0E6EFF0E502C005900D92AE3E65
:100EF000B107D9F728E0AEEEB2E001C01D92A930EB
:100F0000B207E1F717E0C9E6D7E004C02197FE0178
:100F10000E946E28C836D107C9F70E94DC1F0C94C6
:100F200079280C940000CF93DF931F92CDB7DEB7E2
:100F3000DC011C968D919C911D9797FD04C00F902C
:100F4000DF91CF9108958091F00681110AC08FEF53
:100F50009FEF1D969C938E931C970F90DF91CF91DE
:100F600008954FB7F89482E08093E9008091F200F1
:100F700090E01816190614F481E090E00097D9F07B
:100F8000FE0131969E012E5F3F4F84E628988093A4
:100F900092079091F1009193E217F307B9F78091CE
:100FA000F200811103C08BE68093E8004FBF998166
:100FB000892F90E0CECF892B91F74FBFC8CFFC018E
:100FC0008485958597FD0BC09FB7F89482E0809348
:100FD000E9008091F2009FBF90E0019608959FB7CD
:100FE000F89482E08093E9008091F2009FBF90E046
:100FF00008950895089580E090E008952F923F921B
:101000004F925F926F927F928F929F92AF92BF9218
:10101000CF92DF92EF92FF920F931F93CF93DF93C4
:10102000CDB7DEB7E6970FB6F894DEBF0FBECDBFE3
:101030004C01B62E6091F2067091F3068091F40691
:101040009091F5060E9461266B017C018B01C40121
:1010500068E671E00E944628BC01990F880B990B45
:101060000E94992629E33AEF4EE85CE30E94882724
:101070002B013C010E94F5276FA778AB89AB9AAB97
:10108000C301B2010E945C266B8B7C8B8D8B9E8B87
:1010900021E0B21609F408C332E0B31609F41DC109
:1010A000BB20E9F0C114D10409F02FC3E6960FB6B6
:1010B000F894DEBF0FBECDBFDF91CF911F910F918E
:1010C000FF90EF90DF90CF90BF90AF909F908F9068
:1010D0007F906F905F904F903F902F9008958FA5D5
:1010E00098A9A9A9BAA9B0588BAB9CABADABBEABC4
:1010F000C114D104D9F26F8F78A3FD89F9A32E8989
:101100002AA36FA378A7F9A72AA71BA61CA61DA62A
:101110001EA61B8A1C8A30E83D8B8FE38E8B1B8EAC
:101120001C8E1D8E1E8E1F8A188E198E1A8E1BA263
:101130001CA21DA21EA206EF16E01601DE011196EA
:10114000BA8BA98BD8018D919D910D90BC91A02D4A
:101150008D879E87AF87B88BF80184809580A680A5
:10116000B780C084D184E284F38420E030E0A90118
:10117000C701B6010E945726811115C020E030E05A
:10118000A901C501B4010E94572681110CC020E0BD
:1011900030E0A9016D857E858F8598890E9457264C
:1011A000882309F48AC02B8D3C8D4D8D5E8DC50141
:1011B000B4010E9488272B013C012B893C894D8971
:1011C0005E89C701B6010E9488279B01AC01C3015B
:1011D000B2010E94EB252B013C012F89388D498DEE
:1011E0005A8D6D857E858F8598890E9488279B0101
:1011F000AC01C301B2010E94EB2569837A838B8322
:101200009C832FA138A549A55AA5C501B4010E9408
:1012100088272B013C012BA13CA14DA15EA1C70158
:10122000B6010E9488279B01AC01C301B2010E9454
:10123000EB252B013C012FA538A949A95AA96D8599
:101240007E858F8598890E9488279B01AC01C30108
:10125000B2010E94EB256D837E838F8398872BA537
:101260003CA54DA55EA5C701B6010E9488276B016C
:101270007C012BA93CA94DA95EA9C501B4010E941E
:1012800088279B01AC01C701B6010E94EB256B01C9
:101290007C012F8D38A149A15AA16D857E858F854E
:1012A00098890E9488279B01AC01C701B6010E9462
:1012B000EB2569877A878B879C878CE0E989FA8997
:1012C000D80101900D928A95E1F7045F1F4FF1E07C
:1012D0002F1A310809F036CFE9CEE92F8FA598A94A
:1012E000A9A9BAA9B0588BA39CA3ADA3BEA39B89FF
:1012F0009FA3AC89A8A7BD89B9A7EAA7FFA5FB8FC3
:1013000028A92C8F39A93D8F8AA98E8F1F8E18A2EC
:1013100090E899A3AFE3AAA31BA61CA61DA61EA630
:101320001F8A188E198E1A8E012B09F4BFCE20E069
:1013300030E0A9016B897C898D899E890E9457269E
:101340008111DAC120E030E0A9016F89788D898DA3
:101350009A8D0E94572620E030E0A9016B8D7C8D8C
:10136000882309F4E8C18D8D9E8D0E94572606EFD3
:1013700016E016019E012F5F3F4F3A8B298B882381
:1013800009F4C9C0D8018D919D910D90BC91A02DFB
:101390008D879E87AF87B88BF80184809580A68063
:1013A000B780C084D184E284F38420E030E0A901D6
:1013B000C701B6010E945726811115C020E030E018
:1013C000A901C501B4010E94572681110CC020E07B
:1013D00030E0A9016D857E858F8598890E9457260A
:1013E000882309F488C0A70196016B897C898D89BF
:1013F0009E890E9488272B013C01A50194016B8DD9
:101400007C8D8D8D9E8D0E9488279B01AC01C30130
:10141000B2010E94EB252B013C012D853E854F85B5
:1014200058896F89788D898D9A8D0E9488279B01B4
:10143000AC01C301B2010E94EB2569837A838B83DF
:101440009C83A70196016BA17CA18DA19EA10E9406
:1014500088272B013C01A50194016FA178A589A5DE
:101460009AA50E9488279B01AC01C301B2010E948A
:10147000EB252B013C0120E030E0A9016D857E8544
:101480008F8598890E9488279B01AC01C301B20116
:101490000E94EB256D837E838F839887A701960139
:1014A0006BA57CA58DA59EA50E9488276B017C015C
:1014B00020E030E0A901C501B4010E9488279B010A
:1014C000AC01C701B6010E94EB256B017C012D85A3
:1014D0003E854F8558896F8D78A189A19AA10E9478
:1014E00088279B01AC01C701B6010E94EB256987E3
:1014F0007A878B879C878CE0E989FA89D8010190EB
:101500000D928A95E1F7045F1F4FF1E02F1A310821
:1015100009F038CFCBCDD8018D919D910D90BC9124
:10152000A02D8D879E87AF87B88BF801848095802A
:10153000A680B780C084D184E284F38420E030E0C8
:10154000A901C701B6010E945726811115C020E0EC
:1015500030E0A901C501B4010E94572681110CC0D9
:1015600020E030E0A9016D857E858F8598890E94F5
:101570005726882309F488C0A70196016B897C89C6
:101580008D899E890E9488272B013C01A501940129
:101590006B8D7C8D8D8D9E8D0E9488279B01AC016B
:1015A000C301B2010E94EB252B013C012D853E8534
:1015B0004F8558896F89788D898D9A8D0E948827EB
:1015C0009B01AC01C301B2010E94EB2569837A83C0
:1015D0008B839C83A70196016BA17CA18DA19EA109
:1015E0000E9488272B013C01A50194016FA178A5D9
:1015F00089A59AA50E9488279B01AC01C301B2016D
:101600000E94EB252B013C0120E030E0A9016D8513
:101610007E858F8598890E9488279B01AC01C30134
:10162000B2010E94EB256D837E838F839887A7018B
:1016300096016BA57CA58DA59EA50E9488276B01B0
:101640007C0120E030E0A901C501B4010E94882797
:101650009B01AC01C701B6010E94EB256B017C0127
:101660002D853E854F8558896F8D78A189A19AA1D6
:101670000E9488279B01AC01C701B6010E94EB259F
:1016800069877A878B879C878CE0E989FA89D801FA
:1016900001900D928A95E1F7045F1F4FF1E02F1A38
:1016A000310809F038CF02CDE92F8FA598A9A9A953
:1016B000BAA9B0588F8B988FA98FBA8F9B899F8FAB
:1016C000AC89A8A3BD89B9A3EAA3FFA5FBA728A954
:1016D0002CA739A93DA78AA98EA71FA218A690E812
:1016E00099A7AFE3AAA71BA21CA21DA21EA21B8E34
:1016F0001C8E1D8E1E8E18CE1FA618AA19AA1AAAF5
:101700001BAA1CAA1DAA1EAA16CD86EF96E01601DA
:101710009E012F5F3F4F3A8B298BA9012CE0FA01E4
:10172000DC0101900D922A95E1F70C9631E0231A25
:101730003108A1F7BBCC8D8D9E8D0E945726882342
:1017400021F306EF16E016019E012F5F3F4F3A8B03
:10175000298BD8018D919D910D90BC91A02D8D87E5
:101760009E87AF87B88BF80184809580A680B7806C
:10177000C084D184E284F38420E030E0A901C70171
:10178000B6010E945726811115C020E030E0A90162
:10179000C501B4010E94572681110CC020E030E041
:1017A000A9016D857E858F8598890E94572688239B
:1017B00009F488C0A70196016B897C898D899E896F
:1017C0000E9488272B013C01A50194016B8D7C8D23
:1017D0008D8D9E8D0E9488279B01AC01C301B201B3
:1017E0000E94EB252B013C012D853E854F855889B4
:1017F0006F89788D898D9A8D0E9488279B01AC0115
:10180000C301B2010E94EB2569837A838B839C8399
:10181000A70196016BA17CA18DA19EA10E948827A2
:101820002B013C01A50194016FA178A589A59AA57A
:101830000E9488279B01AC01C301B2010E94EB25E5
:101840002B013C0120E030E0A9016D857E858F856C
:1018500098890E9488279B01AC01C301B2010E94B4
:10186000EB256D837E838F839887A70196016BA5F7
:101870007CA58DA59EA50E9488276B017C0120E098
:1018800030E0A901C501B4010E9488279B01AC0189
:10189000C701B6010E94EB256B017C012D853E85B9
:1018A0004F8558896F8D78A189A19AA10E948827B8
:1018B0009B01AC01C701B6010E94EB2569877A87BD
:1018C0008B879C878CE0E989FA89D80101900D9279
:1018D0008A95E1F7045F1F4FF1E02F1A310809F0F4
:1018E00038CFE4CB2F923F924F925F926F927F92CC
:1018F0008F929F92AF92BF92CF92DF92EF92FF9220
:101900000F931F93CF93DF93CDB7DEB729970FB611
:10191000F894DEBF0FBECDBF3901402E512C92018D
:10192000280F391F121613060CF0B6C08038910527
:101930000CF0B2C0FB01EE0DF11D1E161F060CF0DF
:10194000ABC0603471050CF0A7C04115510509F416
:10195000A3C0162F1770812EFB0177FDE7C1F59507
:10196000E795F595E795F595E795AE2F77FDD8C105
:1019700097FDD0C160E0E0E0F0E0203831050CF4E4
:10198000A4C020E8922E981A961A2A2F0A2E000C2C
:10199000330BAF3F0CF4B8C160E070E010E001E041
:1019A000BE2DB77009F400E0E694E694E694302E7C
:1019B0003E0C230D311D293031051CF028E0322E5C
:1019C0003A1A311A312F3A0F20E83203800D911D57
:1019D00011248E0F9F1F6E0F7F1F460F571FE1E0D0
:1019E000F0E05F01082C02C0AA0CBB1C0A94E2F7CD
:1019F000A3E0CA1609F4D3C2AC1508F47AC0B1E06A
:101A0000CB1609F4ABC1E2E0CE1246C02FEF2A9DFF
:101A1000B0012B9D700D1124609570957A836983B8
:101A20003320D1F1E92DF0E04E1A5F0AA0E8B0E0D2
:101A30003D016E1A7F0A2A81330ECC24CA94C90C48
:101A4000D12C0FEFC01AD00A9920F9F037FDD5C07C
:101A500037300CF4B9C0DC01A151BD4F8A010C0D27
:101A60001D1D811035C0FA01F490FA9CF001FB9C19
:101A7000F00D1124FC91F623EF2BED934F5F5F4F98
:101A80004017510781F78C0D9D1D3F5F440D551D7B
:101A9000860D971D3311D8CF29960FB6F894DEBF67
:101AA0000FBECDBFDF91CF911F910F91FF90EF90AF
:101AB000DF90CF90BF90AF909F908F907F906F906E
:101AC0005F904F903F902F900895902E961A5DCF83
:101AD000FA01F490FA9CF001FB9CF00D1124FC91AA
:101AE000F623EF2BED934F5F5F4F4017510781F7C0
:101AF000CACFFAEFCF1609F497C22BEFE22ECE1021
:101B0000CBCF332049F2692D70E0461A570AE0E83E
:101B1000F0E06F01C61AD70A330E0FEF090D10E07F
:101B20000F5F1F4F9920F1F037FD84C037309CF1D3
:101B3000DC01A151BD4FBA01600F711F81101AC0A5
:101B4000FA0124912A9DF0012B9DF00D1124E095BE
:101B50002C91E223ED934F5F5F4F4617570781F7B4
:101B6000800F911F3F5F440D551D8C0D9D1D33113E
:101B7000D9CF92CFFA0124912A9DF0012B9DF00D2F
:101B80001124E0952C91E223ED934F5F5F4F4617B0
:101B9000570781F7E5CF811093C0DC01A151BD4FFC
:101BA000BA01600F711FFA0124912A9DF0012B9D4B
:101BB000F00D1124E0952C91E223ED934F5F5F4FE0
:101BC0004617570781F7CCCF811051C0DC01A151D6
:101BD000BD4F8A010C0D1D1DFA01F490FA9CF00115
:101BE000FB9CF00D1124FC91F623EF2BED934F5F3E
:101BF0005F4F4017510781F746CF882009F4A3C0F3
:101C0000DC01A159BC4F8A010C0D1D1DFA01F49095
:101C1000FA9CF001FB9CF00D1124FC83EB83EC910A
:101C2000E223FC81EF2BED934F5F5F4F401751078D
:101C300069F729CF882009F47BC0DC01A159BC4F8A
:101C4000BA01600F711FFA0124912A9DF0012B9DAA
:101C5000F00D1124FC83EB832C812095EC912E2335
:101C60002D934F5F5F4F4617570769F779CF8C0168
:101C700001511D4FDC01A159BC4FBE83AD837A01D8
:101C8000EC0CFD1CFA0124902A9CF0012B9CF00D19
:101C90001124FC83EB83D801FC91F623EF2BED9309
:101CA0008D01AD81BE81EC91E223FC81EF2BED93A0
:101CB000BE83AD834F5F5F4F4E155F0519F7E3CECF
:101CC000BC0161517D4FDC01A159BC4F7A01E00E8E
:101CD000F11EFA0124912A9DF0012B9DF00D112493
:101CE000FC83EB837E2E7094FB01208127212193BE
:101CF000BF012C812095EC912E232D934F5F5F4FD8
:101D00004E155F0531F72CCF122F1095019FB001B2
:101D1000112445CEEE27FF27E81BF90B6E2F2DCEA1
:101D2000882009F425CEAFEFAE0F22CE379617CE1E
:101D3000BA01600F711FFA0124914F5F5F4F461780
:101D40005707C9F70DCFDA01AC0DBD1DFA0114918B
:101D50004F5F5F4FA417B507C9F795CE660D771D86
:101D6000332009F499CEE92DF0E04E1A5F0AA0E87D
:101D7000B0E08D010E1B1F0B1E830D83330E3F82BF
:101D800066246A94690C712C1FEF611A710A9920FC
:101D900091F137FD67C037300CF43AC0811090C024
:101DA0008C0101511D4F78016A01C60CD71C8B01B3
:101DB000F80124912A9DD0012B9DB00D1124A095EE
:101DC000B095FA0124912A9D10012B9D300C11240D
:101DD000F7012081A223E22DEA2BD701ED937D01AB
:101DE0000F5F1F4F4F5F5F4FC416D50609F7860D73
:101DF000971D660D771D3F5F440D551D640D751DC4
:101E00000D811E81800F911F1F813113C0CF44CEE1
:101E1000FC01E151FD4F81107BC07F016A01C60CBE
:101E2000D71C8B01F80124912A9DD0012B9DB00D68
:101E30001124A095B095FA0124912A9D10012B9DA3
:101E4000300C1124F7012081A223E22DEA2BD701C7
:101E5000ED937D010F5F1F4F4F5F5F4FC416D50697
:101E600009F7C5CF882009F48BC08C0101591C4F9C
:101E70007A01E60CF71CDB01FD0124912A9DF0019B
:101E80002B9DF00D1124E095F095FA83E983FA017A
:101E900024912A9DF0012B9DF00D1124FC83EB83EE
:101EA000F801D0802A812D21EC812E2BF80121937D
:101EB0008F0111964F5F5F4FE416F506E9F697CF55
:101EC000FC01E151FD4F7F016A01C60CD71C8B015B
:101ED000F80124912A9DD0012B9DB00D1124A095CD
:101EE000B095FA0124912A9D10012B9D300C1124EC
:101EF000F7012081A223E22DEA2BD701ED937D018A
:101F00000F5F1F4F4F5F5F4FC416D50609F76FCFA6
:101F10006F018C0101591C4F78011A01260C371CE6
:101F20008B01F80124912A9DD0012B9DB00D112425
:101F3000A095B095BA83A983FA0124912A9DF00156
:101F40002B9DF00D1124F987E887FC83EB83F601C4
:101F50002081A223E885EA2BD601ED936D01D701FC
:101F6000EC912A812E23EC812E2BF70121937F0106
:101F70000F5F1F4F4F5F5F4F4215530591F637CFED
:101F80008A01060D171DDB01FD012491FA01249140
:101F900011964F5F5F4F04171507B1F728CF092D32
:101FA00010E0FA01E60FF71FDC01A151BD4F40E838
:101FB00050E0401B510B401A510AB201660F771FC7
:101FC000292D132D902ECF93DF93ED01EF96EF96F1
:101FD00022964590C590882059F04A9C2001CA9CC1
:101FE000600137302CF4F880D094FD20F528F99268
:101FF00033233AF0FC90C094FC20F428FD920C941A
:10200000021011962A9529F71A9551F0292D33952A
:102010001124E60FF11DA40FB11DC40FD11DD9CF9E
:10202000DF91CF91112438CD332009F435CD692DBE
:1020300070E0461A570AE0E8F0E06F01C61AD70AC6
:10204000330E0FEF090D10E00F5F1F4F9920E9F0DD
:1020500037FD4BC037308CF1DC01A151BD4FBA01C7
:10206000600F711F811019C0FA0124912A9DF0019F
:102070002B9DF00D11242C91E22BED934F5F5F4FC0
:102080004617570789F7800F911F3F5F440D551D75
:102090008C0D9D1D3311DACFFFCCFA0124912A9DBE
:1020A000F0012B9DF00D11242C91E22BED934F5F4D
:1020B0005F4F4617570789F7E6CF811032C0DC0122
:1020C000A151BD4FBA01600F711FFA0124912A9DE1
:1020D000F0012B9DF00D11242C91E22BED934F5F1D
:1020E0005F4F4617570789F7CECF882009F43AC0CB
:1020F000DC01A159BC4FBA01600F711FFA01249194
:102100002A9DF0012B9DF00D1124FC83EB83EC91B3
:102110002C812E2B2D934F5F5F4F4617570771F77A
:10212000B2CFBC0161517D4FDC01A159BC4F7A0196
:10213000E00EF11EFA0124912A9D30012B9D700CB6
:1021400011247C826B82FB01208126292193BF010F
:10215000EC912C812E2B2D934F5F5F4F4E155F0519
:1021600049F791CFBA01600F711FFA0124914F5FB7
:102170005F4F64177507C9F786CF0F931F938C01C4
:1021800020E030E09FB7F8944091A8075091A9074C
:102190006091AA077091AB0786B5A89B06C08F3FD8
:1021A00021F04F5F5F4F6F4F7F4F9FBF762F652F9F
:1021B000542F4427480F511D611D711D440F551F99
:1021C000661F771F440F551F661F771F01151105E6
:1021D00021053105C9F1FFB7F8948091A8079091C6
:1021E000A907A091AA07B091AB07E6B5A89B05C0C7
:1021F000EF3F19F00196A11DB11DFFBFBA2FA92F06
:10220000982F88278E0F911DA11DB11D880F991F32
:10221000AA1FBB1F880F991FAA1FBB1F841B950BEA
:10222000A60BB70B883E9340A105B105A0F2015063
:1022300011092109310948515C4F6F4F7F4F01153A
:1022400011052105310539F61F910F9108952F923F
:102250003F924F925F926F927F928F929F92AF9236
:10226000BF92CF92DF92EF92FF920F931F93CF9383
:10227000DF93CDB7DEB7C055D1090FB6F894DEBFF6
:102280000FBECDBF8C0129967FAF6EAF29976196A7
:102290005FAF4EAF619720918401309185012F96F9
:1022A0003FAF2EAF2F97DB016D917D918D919C916A
:1022B0000E9461269B01220F331FF901E60FF71FD1
:1022C0002D96FFAFEEAF2D9780E090E0A0E4B0E454
:1022D0008093F2069093F306A093F406B093F5066C
:1022E0001E161F060CF09DC526960FAF2697279643
:1022F0001FAF27972B961FAE1EAE2B972796EEADDE
:10230000FFAD279784912996EEADFFAD299724E084
:10231000829FE00DF11D112480819181A281B38102
:102320008093F6069093F706A093F806B093F9060B
:102330002796EEADFFAD27973196E49129964EADE5
:102340005FAD299784E0E89F400D511D1124FA01EB
:1023500080819181A281B3818093FA069093FB06DC
:10236000A093FC06B093FD062796EEADFFAD279730
:102370003296E4912996AEADBFAD299724E0E29F55
:10238000A00DB11D1124FD0180819181A281B38135
:102390008093FE069093FF06A0930007B093010779
:1023A0002796EEADFFAD27973396E49129964EAD73
:1023B0005FAD299784E0E89F400D511D1124FA017B
:1023C00080819181A281B38180930207909303075A
:1023D000A0930407B09305072796EEADFFAD2797AE
:1023E0003496E4912996AEADBFAD299724E0E29FE3
:1023F000A00DB11D1124FD0180819181A281B381C5
:102400008093060790930707A0930807B0930907E6
:102410002796EEADFFAD27973596E49129964EAD00
:102420005FAD299784E0E89F400D511D1124FA010A
:1024300080819181A281B38180930A0790930B07D9
:10244000A0930C07B0930D072796EEADFFAD27972D
:102450003696E4912996AEADBFAD299724E0E29F70
:10246000A00DB11D1124FD0180819181A281B38154
:1024700080930E0790930F07A0931007B093110756
:102480002796EEADFFAD27973796E49129964EAD8E
:102490005FAD299784E0E89F400D511D1124FA019A
:1024A00080819181A281B381809312079093130759
:1024B000A0931407B09315072796EEADFFAD2797AD
:1024C0003896E4912996AEADBFAD299724E0E29FFE
:1024D000A00DB11D1124FD0180819181A281B381E4
:1024E0008093160790931707A0931807B0931907C6
:1024F00061E02F968EAD9FAD2F970E94FE0760E0A2
:102500008FE090E00E94FE076091F2067091F30662
:102510008091F4069091F5060E946126611571057F
:1025200009F45AC520914201309143014091440180
:1025300050914501298F3A8F4B8F5C8FF6EF2F2EEC
:10254000F6E03F2E7E8B6D8B8101D8018D919D91A0
:102550000D90BC91A02D898B9A8BAB8BBC8BF80115
:1025600084809580A680B780C084D184E284F3847F
:1025700020E030E0A901698D7A8D8B8D9C8D0E94C1
:10258000572681111FC020E030E0A901609146016B
:102590007091470180914801909149010E9457260E
:1025A000811110C020E030E0A90160914A017091D2
:1025B0004B0180914C0190914D010E945726882338
:1025C00009F4C8C020E030E0A901C701B6010E94AB
:1025D0005726811115C020E030E0A901C501B401E2
:1025E0000E94572681110CC020E030E0A9016989C2
:1025F0007A898B899C890E945726882309F4AAC06E
:102600002091460130914701409148015091490184
:10261000C501B4010E9488272B013C01298D3A8D08
:102620004B8D5C8DC701B6010E9488279B01AC01D0
:10263000C301B2010E94EB252B013C0120914A010C
:1026400030914B0140914C0150914D0169897A893B
:102650008B899C890E9488279B01AC01C301B20130
:102660000E94EB2569837A838B839C8320914E01A2
:1026700030914F014091500150915101C701B60175
:102680000E9488272B013C01209152013091530177
:102690004091540150915501C501B4010E94882711
:1026A0009B01AC01C301B2010E94EB252B013C014F
:1026B0002091560130915701409158015091590194
:1026C00069897A898B899C890E9488279B01AC0142
:1026D000C301B2010E94EB256D837E838F839887AF
:1026E00020915A0130915B0140915C0150915D0154
:1026F000C701B6010E9488276B017C0120915E0111
:1027000030915F014091600150916101C501B401B8
:102710000E9488279B01AC01C701B6010E94EB25EE
:102720006B017C0120916201309163014091640151
:102730005091650169897A898B899C890E948827D3
:102740009B01AC01C701B6010E94EB2569877A871E
:102750008B879C878CE0FE013196D80101900D9209
:102760008A95E1F7045F1F4F2D893E892150310979
:102770003E8B2D8B232B09F0E8CE6091F2067091F1
:10278000F3068091F4069091F5060E94612661158A
:10279000710509F421C4209100013091010140919B
:1027A0000201509103012D8B3E8B4F8B588F20914E
:1027B0000401309105014091060150910701298FD4
:1027C0003A8F4B8F5C8F2091080130910901409125
:1027D0000A0150910B012D8F3E8F4F8F58A32091EE
:1027E0000C0130910D0140910E0150910F0129A370
:1027F0003AA34BA35CA320911001309111014091A9
:102800001201509113012DA73EA74FA758AB20915D
:1028100014013091150140911601509117012DA31B
:102820003EA34FA358A72091180130911901409160
:102830001A0150911B0129A73AA74BA75CA7209129
:102840001C0130911D0140911E0150911F0129ABC7
:102850003AAB4BAB5CAB2091200130912101409110
:102860002201509123012DAB3EAB4FAB58AF2091CD
:10287000240130912501409126015091270129AF73
:102880003AAF4BAF5CAF20912801309129014091C4
:102890002A0150912B0121962CAF3DAF4EAF5FAF77
:1028A000219720912C0130912D0140912E015091C2
:1028B0002F0125962CAF3DAF4EAF5FAF25978B0113
:1028C000D1018D919D910D90BC91A02D898B9A8BFA
:1028D000AB8BBC8BF101C480D580E680F78080840F
:1028E0009184A284B3842D893E894F89588DC50176
:1028F000B4010E9488272B013C01298D3A8D4B8D14
:102900005C8DC701B6010E9488279B01AC01C30101
:10291000B2010E94EB252B013C012D8D3E8D4F8D88
:1029200058A169897A898B899C890E9488279B0193
:10293000AC01C301B2010E94EB2529A13AA14BA130
:102940005CA10E94EB2569837A838B839C832DA5F0
:102950003EA54FA558A9C501B4010E9488272B01A7
:102960003C012DA13EA14FA158A5C701B6010E946F
:1029700088279B01AC01C301B2010E94EB252B010A
:102980003C0129A53AA54BA55CA569897A898B8963
:102990009C890E9488279B01AC01C301B2010E945F
:1029A000EB2529A93AA94BA95CA90E94EB256D83C7
:1029B0007E838F8398872DA93EA94FA958ADC50165
:1029C000B4010E9488274B015C0129AD3AAD4BADA3
:1029D0005CADC701B6010E9488279B01AC01C5010F
:1029E000B4010E94EB256B017C0121962CAD3DAD1D
:1029F0004EAD5FAD219769897A898B899C890E9448
:102A000088279B01AC01C701B6010E94EB252596E2
:102A10002CAD3DAD4EAD5FAD25970E94EB2569878E
:102A20007A878B879C878CE0FE013196D1010190DB
:102A30000D928A95E1F7FCE02F0E311C015011092F
:102A400009F03ECF6091F2067091F3068091F40692
:102A50009091F5060E946126CB01880F991F9C0179
:102A6000260F371F3AAB29AB42EF56E05E8B4D8BFA
:102A700081E090E09EA78DA7FC01E217F3070CF020
:102A8000B6C120E030E040E852E4AD89BE8914963A
:102A90006D917D918D919C9117970E94EB250E94DD
:102AA00061266DA37EA38FA398A7EDA1FEA1FA8B4B
:102AB000E98B20E030E040E052E4AD89BE89189611
:102AC0006D917D918D919C911B970E94EB250E94A9
:102AD00061264B015C011B0120E030E040E852E43C
:102AE000ED89FE8960897189828993890E94EB252D
:102AF0000E9461266B017C013B0120E030E040E058
:102B000052E4AD89BE8954966D917D918D919C91D1
:102B100057970E94EB250E94612669A77AA78BA789
:102B20009CA7E9A5FAA5FAA3E9A320E030E040E8D4
:102B300052E4AD89BE895C966D917D918D919C9199
:102B40005F970E94EB250E946126698F7A8F8B8F99
:102B50009C8F098D1A8D20E030E040E052E4ED8931
:102B6000FE8960A171A182A193A10E94EB250E9420
:102B700061267E8F6D8F2DA53EA5275F3F4F3EA717
:102B80002DA749A15AA1481559050CF096C1681501
:102B900079050CF004C26DA07EA0DA8AC98A9B0177
:102BA000241735070CF026C22215330509F499C104
:102BB000A90129893A89201B310B3A8F298F89A0D5
:102BC0009AA0841A950A2301401A510A5101A41AA5
:102BD000B50AF30129893A89E21BF30BFEA3EDA3A1
:102BE000A10189A19AA1481B590B5AA749A73C01E9
:102BF0008215930519F091E0691A7108ED8DFE8D2B
:102C00006E167F060CF4E4C1C12CD12CE12CF12C02
:102C100005C031966E167F060CF457C0C701B4018B
:102C20000E9446289B01200F311FC601B5010E945A
:102C30004628600F711F498D5A8DE40EF51EC40C95
:102C4000D51C621773071CF0962FB901292FE034A9
:102C5000F105F8F62F5F261BCB01820F911D181688
:102C60001906BCF660387105A4F677FDAEC181384F
:102C7000910514F080E890E0861BDF01B595A795DB
:102C8000B595A795B595A795B695BA2FAA27B795E7
:102C9000A795A60FB71FA151BD4F9F0127703327DE
:102CA00051E001C0550F2A95EAF7252F9FEF980FA5
:102CB000882309F4AECF8C91822B8D939150D8F755
:102CC00031966E167F060CF0A9CF8FEF681A780A3E
:102CD000C301ED8DFE8D8E1B9F0B849D7001859D24
:102CE000F00C949DF00C1124C30129A13AA1821B80
:102CF000930B4DA15EA1849FF001859FF00D949FE1
:102D0000F00D1124261437040CF464C04A01C9A440
:102D1000DAA407C08FEF681A780A261437040CF477
:102D200059C0CF01B6010E94462829893A89260F49
:102D3000371FC701B5010E944628600F711FE80DBB
:102D4000F91DE40CF51C621773071CF0962FB901EE
:102D5000292F50E465167104E8F62F5F261BCB017E
:102D6000820F911D18161906ACF66038710594F69D
:102D700077FD28C18138910514F080E890E0861B2A
:102D8000D301B595A795B595A795B595A795B69592
:102D9000BA2FAA27B795A795A60FB71FA151BD4F68
:102DA00093012770332791E001C0990F2A95EAF724
:102DB000292F9FEF980F882309F4ACCF8C91822B99
:102DC0008D939150D8F78FEF681A780A261437043C
:102DD0000CF0A7CFAD89BE899496BE8BAD8BEDA5C7
:102DE000FEA529A93AA9E217F3070CF44ACE2B96BF
:102DF000AEADBFAD2B9719962B96BFAFAEAF2B974D
:102E00002796EEADFFAD279739962796FFAFEEAF29
:102E100027972D962EAD3FAD2D97A217B3070CF433
:102E200071CA61962EAD3FAD61972115310559F1FB
:102E3000F90124913196E491822F90E08535910536
:102E40000CF025E581E09E2F977009F4C8C0E69547
:102E5000E695E6958E0FB9F06196EEADFFAD619700
:102E60003296222381F0AAE9B6E0215030E02F5FAC
:102E70003F4F2E0F3F1F84919C91892B8D9331964C
:102E8000E217F307C1F7C05BDF4F0FB6F894DEBF60
:102E90000FBECDBFDF91CF911F910F91FF90EF90AB
:102EA000DF90CF90BF90AF909F908F907F906F906A
:102EB0005F904F903F902F9008959A014D8D5E8DB9
:102EC000421753070CF476C038019E8E8D8E1B017D
:102ED0000DA11EA1DA8AC98A94012215330509F0D1
:102EE00067CE49895A89401751075CF0902F812F8E
:102EF0000417150714F499898A891A8B098B092FED
:102F0000182F89899A896816790634F006151705ED
:102F10000CF4830169887A88ED8DFE8DE034F1052B
:102F200008F058CF0F5F06199301200F311D1216BC
:102F300013060CF04FCFF0E86F1671040CF04ACF77
:102F4000C30177FC54C02138310514F020E830E08B
:102F5000322F381BED8DFE8DF595E795F595E795AC
:102F6000F595E795F695FE2FEE27F795E795E80F8F
:102F7000F91FE151FD4F8D8D9E8D8770992721E0BE
:102F800001C0220F8A95EAF79FEF930F332309F4CC
:102F900021CF8081822B81939150D8F71BCF3801AC
:102FA000E9A5FAA5FE8FED8F9AA289A21B018601E1
:102FB0009F01FACD29A43AA49AA289A29A0149A113
:102FC0005AA1EECD60E070E0D5CE60E070E04FCE6B
:102FD0003F01E12CF12C88CE60E070E03DCD80E037
:102FE000E695E695E6958E0F09F036CF4CCF80E05A
:102FF00090E0A9CF5E8F4D8F7AA369A309891A89C2
:10300000898D9A8D9A8B898B9A01CECD83E080939E
:10301000E9008091F200882319F08AE38093E800A8
:1030200008952FB7F89483E08093E9008091E80039
:1030300085FF07C09091F20080E4891B90E02FBFCC
:10304000089580E090E02FBF0895CF93DF931F9203
:10305000CDB7DEB7FC018485958597FD08C02FEFBD
:103060003FEF358724870F90DF91CF9108958091AE
:10307000F006811103C08FEF9FEFF5CF4FB7F894A3
:1030800082E08093E9008091F20090E01816190622
:1030900014F481E090E00097E9F0FE0131969E0182
:1030A0002E5F3F4F94E62898909392078091F1000D
:1030B0008193E217F307B9F78091F200811103C001
:1030C0008BE68093E8004FBF898190E00F90DF91FD
:1030D000CF910895892B81F74FBFCDCF0E947428DF
:1030E000CF93DF93EC019B0190918D01911109C069
:1030F00081E090E09B838A8380E090E0DF91CF9134
:1031000008958091F006882399F38091EF0680FF5F
:1031100005C08091E00082608093E000BA01C9019F
:103120000E94F81D181619061CF7DF91CF9108951B
:10313000AF92BF92CF92DF92EF92FF920F931F93C5
:10314000CF93DF931F92CDB7DEB74115510509F438
:103150005BC05A016C017B0100E010E0F601A08128
:10316000B1812D913C911197F70161917F01F9E1B6
:1031700027303F07F9F469831296ED91FC9113977C
:1031800088E1E037F807C1F580918D0181111DC0FC
:1031900081E090E0F60193838283C8010F90DF9174
:1031A000CF911F910F91FF90EF90DF90CF90BF9044
:1031B000AF900895C601F9010995892B71F30F5F4E
:1031C0001F4FA016B10651F6E8CF8091F006882374
:1031D000F9F28091EF0680FF05C08091E0008260E7
:1031E0008093E00061E070E0CE0101960E94F81D3E
:1031F0001816190624F3CCCF41E050E0BE016F5FF2
:103200007F4FC6010995D9CF00E010E0C6CF0F93DC
:103210001F93CF93DF931F92CDB7DEB78C016983E5
:10322000DC01ED91FC910280F381E02DB8E1E03703
:10323000FB0769F580918D0181110DC081E090E05F
:10324000F8019383828380E090E00F90DF91CF912B
:103250001F910F9108958091F006882379F3809152
:10326000EF0680FF05C08091E00082608093E0005F
:1032700061E070E0CE0101960E94F81D1816190653
:10328000ECF60F90DF91CF911F910F91089541E0DF
:1032900050E0BE016F5F7F4F09950F90DF91CF9196
:1032A0001F910F9108951F920F920FB60F92112444
:1032B0008F939F938091E1009091E100937F909391
:1032C000E10083FF0FC01092E90091E09093EB00C2
:1032D0001092EC0092E39093ED001092F00698E0CB
:1032E0009093F00082FF1AC093E09093E9009091D0
:1032F000F200992319F09AE39093E8009091AC07BB
:10330000992341F09091AC0791509093AC079111A3
:1033100001C05D9A9091920791111CC084FD24C058
:1033200080FF11C08091E2008E7E80618093E20078
:103330008091E1008E7E8093E1008091EF068E7E89
:1033400081608093EF069F918F910F900FBE0F9039
:103350001F90189590919207915090939207911118
:10336000DDCF289A84FFDCCF8091E2008E7E8160E1
:103370008093E2008091E1008F7E8093E100809154
:10338000EF068E7E80618093EF069F918F910F9064
:103390000FBE0F901F9018951F920F920FB60F92AD
:1033A0001124CF92DF92EF92FF920F931F932F93EE
:1033B0003F934F935F936F937F938F939F93AF93BD
:1033C000BF93EF93FF93CF93DF93CDB7DEB76D97A6
:1033D000DEBFCDBF1092E9008091E80083FF9EC060
:1033E0008091F1008D8B8091F1008E8B8091F100A6
:1033F0008F8B8091F100888F8091F100898F80916F
:10340000F1008A8F8091F1008B8F8091F1008C8F79
:10341000289884E68093920782EF8093E8009D8944
:1034200097FD4FC08EEF8093E800892F807609F0DA
:1034300051C08E894F89588D2F89D88C882309F4E3
:1034400094C0813009F449C1833009F452C18530F8
:1034500009F483C0863009F47BC1873009F45BC06E
:10346000883009F471C1893009F086C0937009F081
:1034700052C081E08093E9008093EB0091EC90933F
:10348000EC0096E39093ED0022E02093E900809316
:10349000EB0020E82093EC009093ED0023E02093D4
:1034A000E9008093EB0081E88093EC009093ED00BD
:1034B0008EE78093EA001092EA008F898093F006ED
:1034C0005BC08091E80080FDB0CF8091E80080FF74
:1034D000F8CFABCF8B8D9C8D1092E9001092A30793
:1034E0001092A2079093A1078093A007298D222311
:1034F00009F446C080919807811107C182E080934A
:10350000940784E08093950710929707109296078E
:1035100081E08093980781E28093EB006D960FB66F
:10352000F894DEBF0FBECDBFDF91CF91FF91EF9139
:10353000BF91AF919F918F917F916F915F914F91CB
:103540003F912F911F910F91FF90EF90DF90CF90BF
:103550000F900FBE0F901F9018958091E80080FF8C
:10356000FCCF20682093E30007C0903809F4AEC078
:103570001092F1001092F1008EEF8093E800CECF10
:103580003E892D89213A09F468C0213221F633326F
:1035900009F450C13032C9F1323271F78F8980930A
:1035A0008D01EEEFFFE7859194918B3F9C4D09F4DF
:1035B00093C1E0E0F8E080E098E04091860150910E
:1035C00087016091880170918901403B54406105F9
:1035D000710509F45DC1208131812737374761F6D4
:1035E000A8952091600028612093600020919307A6
:1035F000209360008E3F9A4009F4E2C28091FE0A57
:103600009091FF0A91838083B7CF8091E80082FF79
:10361000FCCF8091F100809386018091F10080932E
:1036200087018091F100809388018091F10080935F
:1036300089018091F10080938A018091F10080934B
:103640008B018091F10080938C01289884E680930F
:1036500092078BEF8093E8008FCF313209F05BCF78
:10366000E6E8F1E020E030E04EEF10C02F5F3F4F82
:103670003093A3072093A2073196B1E0ED38FB0702
:1036800009F47ACF8091A0079091A10728173907F4
:103690006CF78091E8008570E1F38091E80082FD8D
:1036A0006BCF80818093F1002091A2073091A30716
:1036B0002F5F3F4FC9018F739927892BC9F640931C
:1036C000E8002091A2073091A307D0CF8091EE02AD
:1036D0008093F1001092F1004FCF91114DCF413006
:1036E000510509F049CF8091EE028D7F8093EE0263
:1036F00043CF911141CF4130510509F03DCF809129
:10370000EE0282608093EE0237CF0091960710910F
:1037100097070115110509F4FECEFE0175967F018C
:1037200007C0F801008511850115110509F4F3CED4
:10373000D801ED91FC910190F081E02DB701C80115
:103740000995882371F318CF81E08093F10014CF9D
:1037500022E0D21609F4C5C08B8D9C8D1092E90031
:103760001092A3071092A2079093A1078093A0073D
:103770008091980781116BC082E08093940784E068
:1037800080939507109297071092960781E0809397
:103790009807F1E0DF1609F49BC1F3E0DF12BBCE1E
:1037A0008F89882309F40FC2823009F41AC281304C
:1037B00009F410C2833009F0AECE809198078111D0
:1037C0000DC082E08093940784E080939507109267
:1037D00097071092960781E08093980700919607CB
:1037E00010919707CE0101967C016C010EC0D801A3
:1037F000ED91FC910680F781E02DB601C801099595
:10380000C80ED11CF801008511850115110579F745
:10381000D6011C92F70101900020E9F73197BF0112
:103820006E197F0940E0C7010E94E323882309F451
:1038300072CEA2CE8F89988DA0E0B0E080938E01E9
:1038400090938F01A0939001B093910195CE009138
:103850009607109197070115110509F49ACFCE012B
:1038600045967C0107C0F8010085118501151105F9
:1038700009F48FCFD801ED91FC910480F581E02D02
:10388000B701C8010995009771F30CF075CE43CECE
:1038900020918D0120FD9FCE8E3F9A4051F0808176
:1038A0009181873747E7940721F09093FF0A80932F
:1038B000FE0A87E797E79183808380916000809379
:1038C00093079BE088E10FB6F894A8958093600079
:1038D0000FBE9093600050CEEEEFFAE08EEF9AE0CC
:1038E0006CCE0B8D1C8D1092E9001092A3071092E4
:1038F000A2071092A1071092A007D982EBE5FEE083
:1039000020E030E080E090E05EEF44918217930782
:103910007CF001969093A3078093A20731964EE026
:10392000ED39F40701F12091A0073091A107EDCF07
:103930008091E8008570E1F38091E80082FD13C07A
:103940004093F1008091A2079091A30701969C01FA
:103950002F733327232BF1F65093E8008091A207B1
:103960009091A307D6CF809198078111EEC082E095
:103970008093940784E080939507109297071092A4
:10398000960781E080939807CE0101967C012981FA
:1039900089E0D701E82F1D92EA95E9F7898382E053
:1039A0008A8381E08E8380EA88878AEF8987809185
:1039B000A2079091A30709969C838B832D83109275
:1039C000E9001092A3071092A2071093A107009399
:1039D000A007F701AE01465F5F4F20E030E09EEFA9
:1039E0000AC02F5F3F4F3093A3072093A207319661
:1039F000E417F50731F1201731079CF78091E800B3
:103A00008570E1F38091E80082FD1BC08081809386
:103A1000F1002091A2073091A3072F5F3F4FB9011A
:103A20006F737727672B41F49093E8002091A207EA
:103A30003091A3072F5F3F4F0091A0071091A1077E
:103A4000D2CF82E08D8FEBE5FEE04EEF0FC02F5F0F
:103A50003F4F3093A3072093A20731968EE0ED39B4
:103A6000F80721F10091A0071091A1079491201768
:103A700031076CF78091E8008570E1F38091E800F0
:103A800082FD14C09093F1002091A2073091A3070A
:103A90002F5F3F4FC9018F739927892BD1F6409330
:103AA000E8002091A2073091A307D1CF8091980719
:103AB000811169C082E08093940784E08093950728
:103AC000109297071092960781E08093980754CD43
:103AD00061EA7EE0FB014491442309F44DCD8091DD
:103AE000A2079091A307BEEF50E0A4912091A007F8
:103AF0003091A107821793076CF001969093A3076A
:103B00008093A20731969F01241B350B2617370798
:103B100061F732CD8091E8008570E1F38091E80093
:103B200082FD2ACDA093F1008091A2079091A30776
:103B300001969C012F733327232B01F7B093E800E4
:103B40008091A2079091A307D8CFC0909607D090FC
:103B50009707C114D104D1F1FE0131967F0107C04E
:103B6000F601C084D184C114D10409F410CFD60168
:103B7000ED91FC910280F381E02DB701C60109951A
:103B800097FD05CFEDCF009196071091970701158E
:103B9000110541F4F1CCF8010085118501151105DD
:103BA00009F4EACCD801ED91FC910280F381E02D7B
:103BB000BE01635E7F4FC801099597FDDDCCEBCF59
:103BC00011821082D9CC6DE97EE084CFDE0111969E
:103BD0007D01DDCE40E86BE083EB9EE00E94E323B5
:103BE00025CE40E860E18FEB9EE00E94E3231ECEED
:103BF0009F92AF92BF92CF92DF92EF92FF920F937C
:103C00001F93CF93DF93962EA72E262F372FA0E05A
:103C1000FAEFE3E0B0E41AE32115310519F4AA2321
:103C200009F4ADC05FB7F894E093E9004091E80073
:103C300045FF31C04091F2006B2F641B462F5FBFE0
:103C4000662351F170E0261737070CF4422F0FB7A7
:103C5000F894E093E9005091E80055FF1AC0241B46
:103C60003109FF24FA94F40E442369F0EC014F2D3E
:103C700059915093F1004150D8F74F2D50E04F5FCC
:103C80005F4F840F951FAA2309F45DC01093E800CD
:103C9000A0E00FBFC1CF5FBFF15009F462C05FB7B2
:103CA000F894C090A807D090A907E090AA07F090D8
:103CB000AB0746B5A89B07C04F3F29F0CFEFCC1A02
:103CC000DC0AEC0AFC0A5FBFFE2CED2CDC2CCC24B9
:103CD000C40ED11CE11CF11CCC0CDD1CEE1CFF1C25
:103CE000CC0CDD1CEE1CFF1CBFB6F8944091A8075D
:103CF0005091A9076091AA077091AB0706B5A89BE0
:103D000006C00F3F21F04F5F5F4F6F4F7F4FBFBE29
:103D1000762F652F542F4427400F511D611D711DB3
:103D2000440F551F661F771F440F551F661F771FCF
:103D30004C195D096E097F09483E534061057105C4
:103D400008F06ACFD1CF4091E80045FDA2CF109393
:103D5000E800A1E02115310509F49BCFA0E00FBFD9
:103D60005BCF8FEF9FEFDF91CF911F910F91FF906E
:103D7000EF90DF90CF90BF90AF909F9008955D98A7
:103D800084E68093AC07892D9A2DEDCF0F931F9376
:103D90009FB7F8944091A8075091A9076091AA078E
:103DA0007091AB0786B5A89B06C08F3F21F04F5F8F
:103DB0005F4F6F4F7F4F9FBF762F652F542F442744
:103DC000480F511D611D711D440F551F661F771F40
:103DD000440F551F661F771F02E310E020E030E01C
:103DE000FFB7F8948091A8079091A907A091AA071E
:103DF000B091AB07E6B5A89B05C0EF3F19F001965F
:103E0000A11DB11DFFBFBA2FA92F982F88278E0F94
:103E1000911DA11DB11D880F991FAA1FBB1F880FDF
:103E2000991FAA1FBB1F841B950BA60BB70B883EBF
:103E30009340A105B105A0F20150110921093109F2
:103E400048515C4F6F4F7F4F01151105210531051A
:103E500039F61F910F9108950F931F939FB7F89410
:103E60004091A8075091A9076091AA077091AB07EC
:103E700086B5A89B06C08F3F21F04F5F5F4F6F4F05
:103E80007F4F9FBF762F652F542F4427480F511D1A
:103E9000611D711D440F551F661F771F440F551F6D
:103EA000661F771F08EC10E020E030E0FFB7F894C1
:103EB0008091A8079091A907A091AA07B091AB079C
:103EC000E6B5A89B05C0EF3F19F00196A11DB11DF5
:103ED000FFBFBA2FA92F982F88278E0F911DA11DE4
:103EE000B11D880F991FAA1FBB1F880F991FAA1FFA
:103EF000BB1F841B950BA60BB70B883E9340A105F7
:103F0000B105A0F2015011092109310948515C4F56
:103F10006F4F7F4F011511052105310539F61F91AE
:103F20000F9108951F920F920FB60F9211242F93A5
:103F30003F938F939F93AF93BF938091A4079091EA
:103F4000A507A091A607B091A7073091080823E024
:103F5000230F2D3768F126E8230F0296A11DB11D0E
:103F6000209308088093A4079093A507A093A60721
:103F7000B093A7078091A8079091A907A091AA07DD
:103F8000B091AB070196A11DB11D8093A807909336
:103F9000A907A093AA07B093AB07BF91AF919F91D8
:103FA0008F913F912F910F900FBE0F901F901895FA
:103FB0000196A11DB11DD4CFCF93DF93CDB7DEB74E
:103FC000A1970FB6F894DEBF0FBECDBF789484B52D
:103FD000826084BD84B5816084BD85B5826085BD05
:103FE00085B5816085BD80916E00816080936E0093
:103FF0001092810080918100826080938100809185
:104000008100816080938100809180008160809335
:104010008000809191008260809391008091910056
:1040200081608093910080919000816080939000E6
:104030008091C10084608093C1008091C100826042
:104040008093C1008091C10081608093C100809104
:10405000C30081608093C3008091C0008260809320
:10406000C0008091C20081608093C20080917A007C
:10407000846080937A0080917A00826080937A00D5
:1040800080917A00816080937A0080917A008068C4
:1040900080937A001092F0061092EE021092EF06D2
:1040A0008091D70081608093D70080EA8093D80008
:1040B00089B5806189BD89B5826089BD09B400FE7A
:1040C000FDCF3FB7F8948091A8079091A907A091E0
:1040D000AA07B091AB0726B5A89B05C02F3F19F0E2
:1040E0000196A11DB11D3FBF4427582F692F7A2F7C
:1040F000420F511D611D711D440F551F661F771F13
:10410000440F551F661F771F3FB7F8948091A8078B
:104110009091A907A091AA07B091AB0726B5A89BDB
:1041200005C02F3F19F00196A11DB11D3FBFBA2F49
:10413000A92F982F8827820F911DA11DB11D880FCF
:10414000991FAA1FBB1F880F991FAA1FBB1F841B83
:10415000950BA60BB70B883E9340A105B105A0F2C5
:104160008091D8008F7C80618093D8008091E0009E
:10417000807F8093E0008091E1008E7E8093E1005B
:104180008DE08093E200559A209A8FEF9FEF9093F5
:10419000BA078093B90781EC80937C0085B1806F6A
:1041A00085B984B1877E84B984B1876E84B95E9AFB
:1041B0005F988AB1806D8AB9769A6E9881B3806F64
:1041C00081BB899880B38D7080BB80E58CBD81E018
:1041D0008DBD85E090E00E94BD105F9A85E090E083
:1041E0000E94BD105E985C98EAECF0E087ED90E0EC
:1041F00024912EBD00000DB407FEFDCF31968E1721
:104200009F07B1F75C9A81E8809364008091650014
:104210008160809365003FEE832E32E0932EF4019F
:1042200080E0A0E0B8E000800EBC8111012C119765
:10423000A0FDFDCF0192B9F70DB48FB18095807FBD
:10424000669B88601C9B846087FF1AC040C12D98C4
:104250008FB18095807F669B88601C9B846084788A
:10426000843809F4EBC08FB18095807F669B8860AD
:104270001C9B84608471843109F403C10E942C1F4B
:104280008FB18095807F669B88601C9B846082FDD7
:10429000DECF2D9A82E090E00E947125811114C139
:1042A0003E983F980E94C61E8FB18095807F669988
:1042B00008C083B10E94C61E8FB18095807F669B27
:1042C000F8CF1C9BEFCF8111EDCF89E280930408DA
:1042D000809164008E7F8093640080917A00806476
:1042E00080937A0080917A0086FDFCCF60917800FF
:1042F00070917900CB01A0E0B0E0BC0155274427C4
:104300003FB7F8948091A8079091A907A091AA07B8
:10431000B091AB0726B5A89B05C02F3F19F00196B9
:10432000A11DB11D3FBFBA2FA92F982F8827820F3B
:10433000911DA11DB11D880F991FAA1FBB1F880FBA
:10434000991FAA1FBB1F8C019D01040F151F261F5B
:10435000371FC901B801012B022B032B11F00E945A
:1043600068258091640081608093640080E090E023
:10437000A0E8BFE38093420190934301A0934401DE
:10438000B09345018093520190935301A09354013F
:10439000B09355018093620190936301A0936401EF
:1043A000B093650183E08093830184E080934001B2
:1043B0008093410180E4E6E9F1E0A0E0B1E0019002
:1043C0000D928A95E1F7F8ED2F2EF0E03F2EA0E058
:1043D000AA2EA0E0BA2EF12CBAE04B2E512C612C63
:1043E000712CDD24D3940CC090910408191708F0A7
:1043F00083C08F5F891708F48CC1A114B104D9F46C
:104400008FB7F8944091A4075091A5076091A60733
:104410007091A7078FBF80910508142F181B812F5B
:1044200090910608992301F310930708109206084B
:10443000A114B10429F30E940000E2CF2D9A0E943A
:104440002C1F2F9882E090E00E9471258F3F29F069
:104450006FEF82E090E00E94792584EF91E00E9466
:10446000BD102F9A8FB18095807F982F98606699A4
:10447000982F892F84601C99892F8478843891F330
:10448000F2CE2D9A0E942C1F2E9882E090E00E947E
:104490007125882329F060E082E090E00E94792570
:1044A00084EF91E00E94BD102E9A8FB18095807F9D
:1044B000982F98606699982F892F84601C99892F6E
:1044C0008471843191F3DACE3E9A3F9AEBCE5C98B8
:1044D00085EA8EBD00000DB407FEFDCF5C9A2E98D4
:1044E0002F982D988091640080628093640081E011
:1044F00083BF889513BEFCCFD09206084093050871
:104500008091000890910108019690930108809392
:10451000000880910208809303088FB18095807F06
:10452000669B88601C9B8460809302088F2DF40139
:1045300081118FEF00248193819381938193039460
:10454000D1F71091F106113009F4E8C00CF4D2C093
:10455000123009F4F6C0133041F44BED51E066ED32
:1045600071E087E092E00E942711E9E5F1E0049113
:10457000EAE5F1E0E490EAEFCE2E20E030E04BE512
:1045800051E060E170E083E090E00E94720CE7EDA2
:10459000F0E00491F101E49020E030E049ED50E0DA
:1045A00060E170E08DE590E00E94720C113009F43A
:1045B000BEC00CF493C0123009F4CCC0133049F4DF
:1045C0008091840190918501039690938501809359
:1045D00084018091030885FD07C09091020895FF32
:1045E00003C011501093F10686FD07C080910208A8
:1045F00086FF03C01F5F1093F10617FD86C01430BD
:1046000014F01092F106F40180E098E000800EBCF6
:10461000F110012C019780FDFDCF0192B9F70DB487
:1046200040910008509101089A01ABEABAEA0E9451
:10463000DB25929582958F7089279F7089279C0131
:10464000220F331F820F931F880F991F880F991F06
:10465000880F991F4817590709F0CFCE8091070896
:1046600004E6809FC00111246091040870E00E945C
:1046700046289B01770F440B550B19A28E010F5D45
:104680001F4FCA01B901A30192010E94B925605DC3
:10469000F80162938F01211531054105510589F714
:1046A000309789F001900020E9F73197BF01601B36
:1046B000710B80918D01811170C001E010E01093A9
:1046C000B0070093AF0780918D0181114DC021E0AB
:1046D00030E03093B0072093AF078FCE111179CF20
:1046E0008091840190918501079690938501809334
:1046F00084016FCF111139CF49E05AE06AE772E0C7
:1047000085E39AE00E94271130CFF3E0F093F106A1
:104710007ACF21E023BF889513BE6FCE4FE856E0D5
:104720006EE372E08BEB96E00E9427111ECF809122
:104730008401909185010596909385018093840171
:1047400048CF47EB53E06AE072E083EE93E00E94CB
:1047500027110BCF8091840190918501049690934D
:1047600085018093840135CF8091F006882309F478
:10477000AECF8091EF0680FF05C08091E00082609F
:104780008093E00062E070E08AEE92E00E94F81D03
:10479000181619060CF431CE9ACF8091F0068823B2
:1047A00009F48BCF8091EF0680FF05C08091E00077
:1047B00082608093E000C8010E94F81D1816190657
:1047C0000CF481CF7ACFE091A207F091A30720915A
:1047D000A0073091A107E217F307D4F42091E80075
:1047E0002570E1F32091E80022FD1CC0262F220F46
:1047F0002E5F2093F1002091A2073091A3072F5F35
:104800003F4F2F733327232B19F42EEF2093E8000B
:104810002091A2073091A3072F5F3F4F3093A3074A
:104820002093A207E091A207F091A3072091A0078F
:104830003091A107E217F307C4F42091E800257036
:10484000E1F32091E80022FD1AC023E02093F1005B
:104850002091A2073091A3072F5F3F4F2F7333277B
:10486000232B19F42EEF2093E8002091A20730911A
:10487000A3072F5F3F4F3093A3072093A207582F22
:10488000FC017EEF8E2F851B861708F064C047FF62
:1048900002C0949101C09081A091A207B091A3079A
:1048A0002091A0073091A107A217B307ACF4809123
:1048B000E8008570E1F38091E80082FD18C09093D4
:1048C000F1008091A2079091A30701968F73992719
:1048D000892B11F47093E8008091A2079091A307AF
:1048E00001969093A3078093A20781E001C080E026
:1048F000A091A207B091A3072091A0073091A10732
:10490000A217B307B4F49091E8009570E1F3909189
:10491000E80092FD1AC01092F1002091A207309198
:10492000A3072F5F3F4F2F733327232B11F470936F
:10493000E8002091A2073091A3072F5F3F4F3093EB
:10494000A3072093A20791E001C090E0892331964C
:10495000811198CF089581E00895EDEAF7E0138280
:10496000128288EE93E0A0E0B0E084839583A68372
:10497000B78386ED92E0918380838FEF9FEF9587D9
:104980008487EDEFF7E088EE92E0918380831582D3
:10499000168280E1878314821382118608958F9294
:1049A0009F92AF92BF92CF92DF92EF92FF92CF93FE
:1049B000DF93EC01688179818A819B8161157105A2
:1049C0008105910521F464E279ED8BE597E02DE115
:1049D00033EF41E050E00E94872549015A019B01D5
:1049E000AC01A7EAB1E40E94A6256B017C01ACEE04
:1049F000B4EFA50194010E94B425DC01CB018C0D1C
:104A00009D1DAE1DBF1DB7FF03C00197A109B04892
:104A100088839983AA83BB83BC01CD019F77DF91F3
:104A2000CF91FF90EF90DF90CF90BF90AF909F908D
:104A30008F9008958F929F92AF92BF92CF92DF9204
:104A4000EF92FF9260919201709193018091940195
:104A500090919501611571058105910521F464E23C
:104A600079ED8BE597E02DE133EF41E050E00E94D6
:104A7000872549015A019B01AC01A7EAB1E40E94D4
:104A8000A6256B017C01ACEEB4EFA50194010E9458
:104A9000B425DC01CB018C0D9D1DAE1DBF1DB7FFE4
:104AA00003C00197A109B0488093920190939301AC
:104AB000A0939401B0939501BC01CD019F77FF9025
:104AC000EF90DF90CF90BF90AF909F908F90089520
:104AD0006093920170939301809394019093950158
:104AE0000895F999FECF92BD81BDF89A992780B5B6
:104AF0000895262FF999FECF1FBA92BD81BD20BD22
:104B00000FB6F894FA9AF99A0FBE01960895052EF9
:104B100097FB1EF400940E949E2557FD07D00E942B
:104B2000B92507FC03D04EF40C949E255095409572
:104B3000309521953F4F4F4F5F4F08959095809549
:104B4000709561957F4F8F4F9F4F08950E94DB2591
:104B5000A59F900DB49F900DA49F800D911D1124D1
:104B60000895B7FF0C94A6250E94A625821B930BDF
:104B70000895A1E21A2EAA1BBB1BFD010DC0AA1F9E
:104B8000BB1FEE1FFF1FA217B307E407F50720F0B6
:104B9000A21BB30BE40BF50B661F771F881F991F31
:104BA0001A9469F760957095809590959B01AC017A
:104BB000BD01CF010895A29FB001B39FC001A39F83
:104BC000700D811D1124911DB29F700D811D112446
:104BD000911D08955058BB27AA270E9402260C94C5
:104BE0003A270E94012738F00E94082720F039F464
:104BF0009F3F19F426F40C94FE260EF4E095E7FB93
:104C00000C94F826E92F0E945F2758F3BA17620721
:104C100073078407950720F079F4A6F50C94812793
:104C20000EF4E0950B2EBA2FA02D0B01B9019001C7
:104C30000C01CA01A0011124FF27591B99F0593F0B
:104C400050F4503E68F11A16F040A22F232F342F53
:104C50004427585FF3CF469537952795A795F040A1
:104C60005395C9F77EF41F16BA0B620B730B840BB6
:104C7000BAF09150A1F0FF0FBB1F661F771F881F6E
:104C8000C2F70EC0BA0F621F731F841F48F48795C6
:104C900077956795B795F7959E3F08F0B0CF9395B8
:104CA000880F08F09927EE0F9795879508950E9431
:104CB000D42608F481E008950E941127E3950C940E
:104CC0004B270E9468266894B1110C94822708959E
:104CD0000E94672788F09F5798F0B92F9927B751FE
:104CE000B0F0E1F0660F771F881F991F1AF0BA9590
:104CF000C9F714C0B13091F00E948127B1E0089546
:104D00000C948127672F782F8827B85F39F0B93F37
:104D1000CCF3869577956795B395D9F73EF4909542
:104D20008095709561957F4F8F4F9F4F0895E894C0
:104D300009C097FB3EF490958095709561957F4FE3
:104D40008F4F9F4F9923A9F0F92F96E9BB27939591
:104D5000F695879577956795B795F111F8CFFAF4A1
:104D6000BB0F11F460FF1BC06F5F7F4F8F4F9F4FD2
:104D700016C0882311F096E911C0772321F09EE830
:104D8000872F762F05C0662371F096E8862F70E096
:104D900060E02AF09A95660F771F881FDAF7880F70
:104DA0009695879597F90895990F0008550FAA0BC6
:104DB000E0E8FEEF16161706E807F907C0F012162E
:104DC0001306E407F50798F0621B730B840B950B31
:104DD00039F40A2661F0232B242B252B21F4089586
:104DE0000A2609F4A140A6958FEF811D811D089523
:104DF00097F99F6780E870E060E008959FEF80EC8E
:104E0000089500240A941616170618060906089530
:104E100000240A94121613061406050608950C942D
:104E2000FE260E946727D8F3E894E0E0BB279F574F
:104E3000F0F02AED3FE049EC06C0EE0FBB0F661F15
:104E4000771F881F28F0B23A62077307840728F09B
:104E5000B25A620B730B840BE3959A9572F7803804
:104E600030F49A95BB0F661F771F881FD2F79048C2
:104E70000C94FF27092E0394000C11F4882352F0A0
:104E8000BB0F40F4BF2B11F460FF04C06F5F7F4F76
:104E90008F4F9F4F0895EF93E0FF07C0A2EA2AEDDE
:104EA0003FE049EC5FEB0E9402260E943A270F90F8
:104EB000039401FC9058ECEAF0E00C940B2857FDA9
:104EC0009058440F551F59F05F3F71F04795880F78
:104ED00097FB991F61F09F3F79F08795089512160F
:104EE00013061406551FF2CF4695F1DF08C01616BB
:104EF00017061806991FF1CF86957105610508946C
:104F00000895E894BB2766277727CB0197F9089582
:104F10000E949B270C943A270E94012738F00E9498
:104F2000082720F0952311F00C94F8260C94FE2607
:104F300011240C9482270E945F2770F3959FC1F380
:104F4000950F50E0551F629FF001729FBB27F00D37
:104F5000B11D639FAA27F00DB11DAA1F649F66278C
:104F6000B00DA11D661F829F2227B00DA11D621FDB
:104F7000739FB00DA11D621F839FA00D611D221F95
:104F8000749F3327A00D611D231F849F600D211D79
:104F9000822F762F6A2F11249F5750409AF0F1F0FC
:104FA00088234AF0EE0FFF1FBB1F661F771F881F65
:104FB00091505040A9F79E3F510580F00C94F8267F
:104FC0000C9482275F3FE4F3983ED4F3869577955F
:104FD0006795B795F795E7959F5FC1F7FE2B880F0B
:104FE000911D9695879597F908959F930E94112793
:104FF0000F9007FCEE5F0C944B279F3F31F09150D0
:1050000020F4879577956795B795880F911D9695AC
:10501000879597F908959F938F937F936F93FF934D
:10502000EF939B01AC010E948827EF91FF910E94B2
:105030001F282F913F914F915F910C948827DF9308
:10504000CF931F930F93FF92EF92DF927B018C011E
:10505000689406C0DA2EEF010E949B27FE01E894B7
:10506000A5912591359145915591A6F3EF010E94A7
:105070000226FE019701A801DA9469F7DF90EF900C
:10508000FF900F911F91CF91DF91089597FB072E0D
:1050900016F4009407D077FD09D00E945A2807FC27
:1050A00005D03EF4909581959F4F08957095619538
:1050B0007F4F0895AA1BBB1B51E107C0AA1FBB1F4E
:1050C000A617B70710F0A61BB70B881F991F5A9594
:1050D000A9F780959095BC01CD010895EE0FFF1FB3
:1050E0000590F491E02D099481E090E0F8940C94FF
:0650F0007928F894FFCFBF
:1050F60000000000000000000000000000000000AA
:105106000000000000000000000000000000000099
:105116000000000000000000000000000000000089
:105126000000000000000000000000000000000079
:105136000301000000000000000000000000000065
:105146000000000000000000000000000000000059
:105156000000000000000000000000000000000049
:105166000000000000000000000000000000000039
:1051760000000301B40000E1000000000000FFFF92
:10518600FFFF010000000000803F0000000000005B
:10519600000000000000000000000000803F00004A
:1051A60000000000000000000000000000000000F9
:1051B60000000000000000000000000000000000E9
:1051C60000000000803F0000104300000040000087
:1051D600C0400000804100008040000020410000E7
:1051E60000C00000E040000020C1000080C10000B7
:1051F60000C10000C0C00000A0C000006443000061
:10520600E0400000C0C00000804100008040000077
:10521600604100000041000080C1000040C1000064
:10522600C04000004040000040C00000E0C0000058
:105236008D430000E0400000C0C000008040000038
:1052460000C00000A0C000008041000060410000D6
:105256000041000040C1000080C10000C0400000C5
:105266004040000040C00000E0C00000B143000024
:10527600E040000000C00000A0C00000C0C0000068
:1052860000C1000080400000004000008041000096
:1052960080C10000008000006041000070C1000075
:1052A60040C00000C04000000041000040C10000B6
:1052B60060C1000040400000E0C0000000000000A7
:1052C600E040000000000719701811180618DF07E3
:0E52D6002518930700000000F9070D0A0000DC
:00000001FF
