:100000000C94DF070C9407080C9407080C9407085D
:100010000C9407080C9407080C9407080C94070824
:100020000C9407080C9407080C943E140C94AF141D
:100030000C9407080C9407080C9407080C94070804
:100040000C9407080C9407080C9407080C940708F4
:100050000C9407080C9407080C9407080C94EB16F2
:100060000C9407080C9407080C9407080C940708D4
:100070000C9407080C9407080C9407080C940708C4
:100080000C9407080C9407080C9407080C940708B4
:100090000C9407080C9407080C9407080C940708A4
:1000A0000C9407080C9407080C94070805A84CCD7D
:1000B000B2D44EB93836A9020C50B9918688083CA2
:1000C000A6AAAA2ABE000000803FD5F08D14A1C8C0
:1000D00081CFD9F1AF200004081E21211E22213F2B
:1000E00020223129273225251F0E0A3F0832231DE1
:1000F000011C26251D03211D033B25251B2325252A
:100100001F20200000000000000000000000000090
:10011000000000FEFCF8F0E080800000000000001D
:10012000000000FEFFFFFFFFFFFFFFFFFFFFFFFFDD
:10013000FFFFFFFFFFFFFFFFFFFFFFFEFCF8F0E008
:10014000C08000FFFFFFFFFFFFFFFFFFFFFFFFFF7C
:10015000FFFFFFFFFFFFFFFFFFFFFF7F7F3F0F0757
:100160000703000000000000000000000000000085
:100170000000007F3F3F1F07030300000000000056
:100180000000002020000000000000000000C0C0AF
:10019000E0F8FCFCFE000000000000000000000091
:1001A000000000000000C0E0E0F0FCFEFEFFFFFFEA
:1001B000FFFFFFFFFFFFFFFFFFFFFFFFFFFFFFFF4F
:1001C000FFFFFFFFFF000103070F1F3F7FFFFFFF40
:1001D000FFFFFFFFFFFFFFFFFFFFFFFFFFFFFFFF2F
:1001E000FFFFFFFF7F000000000000000000010192
:1001F000070F1F3F7F00000000000000000000000C
:1002000000000000002A07000000000000000000BD
:10021000000000203C0E100C3E003C241C00043C5E
:100220000438241C00000000000000000000000052
:10023000000102030104050102050106070104058E
:10024000010603010603010405010203010408017C
:100250000209010208010604010405010607010460
:100260000501060401040801060A01040801060448
:1002700001060901040801060A0104080106090132
:100280000209010B0C010604010B04010604010B19
:100290000C01060A0602030106030102030106031C
:1002A00006020306060306020906040806020806FB
:1002B000060A0604080606090606090604080602D8
:1002C0000906040506020306020506060C060408D4
:1002D00006060A06040806060C06040506060706B6
:1002E000040506060C0606030604050606070604B2
:1002F00005060603060203060B0406060C060B0C95
:1003000006060C060B04060607060609010209018B
:100310000609010209060609060209010408060485
:1003200005010405060405010408060408060B0C73
:10033000010B04060B04010B0C010B04060B0C064D
:10034000060901060A06060A01060A06060901064A
:10035000090606070106030606030106030606074B
:100360000106070602080104080102080104080644
:100370000208060408010209060208010208060232
:100380000801020906020906040501020501040527
:100390000102050604050602050102050602030125
:1003A0000203060203010205060205060B0C0606FF
:1003B0000C06060A06060A01060A060B0C060B0CBA
:1003C00001060A010B0C010604010607010B0406D5
:1003D0000607010B04010607010B04060607060BBE
:1003E000042A07003E2A3E003C203C003C04003C1E
:1003F000043C003A003C043C004C547C00003C0EA1
:10040000100C3E0038243C20003C043C0001020358
:1004100001040501040301040501020301040601AE
:1004200004060102030104020102070104020102A1
:100430000301040201020701040801040801020784
:100440000104070104050109060109050109060166
:100450000405010406010402010908010902010959
:10046000080104020104080A090201040201090248
:100470000104020A09020A04020A04080A09020A1B
:1004800009080A09020A04080A04020A0408010900
:10049000080104080109080A04080A0908010908F2
:1004A0000A09020109020A09020109080A09080BDE
:1004B00004020B09080B09020B09080B04020B04C8
:1004C000080C09020B04020B09020B04020C0902BE
:1004D0000C04020C02070C04080C04070C04080CA2
:1004E00002070C04020C02030C04020C02070C04A9
:1004F000020C02030C04060C04060C02030C040597
:100500000C04050C02030C04030C04080C09020C77
:1005100009080C09020C04080C04020C04060C095E
:10052000050C09060C09050C04060C04050C04084E
:100530000B09080B04080B09080C04080C09080B2C
:1005400009080C09020B09020C09020B09080C0925
:10055000080A09050104050109050104050A090540
:100560000A04050A04060A09050A09060A09050A11
:1005700004060A04050A0406010906010406010925
:10058000060A04060A09060109060A090501090501
:100590000A09050109060A09060B04050B09060BE1
:1005A00009050B09060B04050B04060C09050B04D1
:1005B000050B09050B04050C09050C04050C0406C4
:1005C0000B09060B04060B09060C04060C09060BA6
:1005D00009060C09050B09050C09050B09060C0990
:1005E000060C04030102030104030102030C0403CB
:1005F0000C02030C02070102030C02030102030CAC
:1006000002070102070C02070104070102070104A7
:10061000070C02070C04070104070A040801040878
:100620000A04080104070B04080C04070B04080162
:1006300004070B04080C04070C04080A04080B0444
:10064000020A04020B04020A04080B04080A04024A
:100650000A04060104060A04060A04020B04060A38
:1006600004020104060104020B04020B04060A043E
:10067000020B04060B04020C04060C04060B040215
:100680000C04020A04060B04050A04050B04050AFF
:1006900004060B04060A0405010403010405010411
:1006A000030A04050C04030B04050C04030A0405E7
:1006B0000C04030B04050C04052A070000000000CD
:1006C000000000000000000000203E2A3E00181438
:1006D0001C507E0018141C100000000000000000D8
:1006E00000000000000102030104050104030104ED
:1006F00005010203010205010406010307010306C7
:1007000001040101030701040601030801040301B8
:1007100003020104050103020104030103070104AC
:10072000010103080103080104010104030103029C
:1007300001040501030901040A010309010405017B
:10074000030901040A01030A010307010B08010B55
:1007500007010B08010307010308010302010B094C
:10076000010B02010B090103020103090C0B020139
:100770000302010B020103020C0B020C03020C0327
:10078000090C0B020C0B090C0B020C03090C0302E5
:100790000C0309010B09010309010B090C03090CE6
:1007A0000B09010B090C0B02010B020C0B02010BD4
:1007B000090C0B090D03020D0B090D0B020D0B09A2
:1007C0000D03020D03090E0B020D03020D0B020DAA
:1007D00003020E0B020E03020E02030E04050E02AC
:1007E000050E04050E02030E04010E040A0E030991
:1007F0000E030A0E04050E03090E040A0E03020E70
:1008000004050E03080E04010E03080E04050E0372
:10081000090E04050E03020E03080E04010E030761
:100820000E04060E03070E04010E03070E04060E47
:1008300003060E03090E0B020E0B090E0B020E032C
:10084000090E03020E03080E0B070E0B080E0B0712
:100850000E03080E03070E03090D0B090D03090D06
:100860000B090E03090E0B090D0B090E0B020D0BE4
:10087000020E0B020D0B090E0B090C0B07010307EF
:10088000010B070103070C0B070C03070C03080CF3
:100890000B070C0B080C0B070C03080C03070C03CD
:1008A00008010B08010308010B080C03080C0B08D6
:1008B000010B080C0B07010B070C0B07010B080CB5
:1008C0000B080D03070D0B080D0B070D0B080D038F
:1008D000070D03080E0B070D03070D0B070D03078C
:1008E0000E0B070E03070E03080D0B080D03080D72
:1008F0000B080E03080E0B080D0B080E0B070D0B53
:10090000070E0B070D0B080E0B080E03060104065D
:100910000103060104060E03060E04060E0205017D
:1009200002030E02030102050102030E02050E047A
:100930000A01030A01040A01030A0E040A0E030A4B
:1009400001030A0C03090103090C030901030A0D41
:1009500003090E030A0D030901030A0D03090E031F
:100960000A0E03090C03090D03020C03020D030216
:100970000C03090D03090C03020C03080103080C06
:1009800003080C03020D03080C0302010308010312
:10099000020D03020D03080C03020D03080D0302F0
:1009A0000E03080E03080D03020E03020C03080DCC
:1009B00003070C03070D03070C03080D03080C03C2
:1009C000070103060103070103060C03070E0306D4
:1009D0000D03070E03060C03070E03060D03070E97
:1009E00003070E02050104050102050104050E02BC
:1009F000050E04050E040A0104050E040501040594
:100A00000E040A01040A0E04010104060E04060184
:100A100004060E04010104010104030104010102A2
:100A2000030E04010102030104010102030E04018B
:100A30000E02032A070000000000382422320E04B0
:100A40003C100C301C2C003C0404003F1028243CBB
:100A5000003C043C003824243F000000000000015A
:100A6000020301040301020501040601020301025D
:100A7000060102030104060104030107080102063E
:100A8000010709010708010A0801020B0107080113
:100A9000020B010201010708010201010206010225
:100AA000030107090102060102050107090102030A
:100AB00001020C01070901020501070901020C01ED
:100AC0000D09010E0B01060F010E0F0107080106AB
:100AD0000401060F01060401070901061001060BB7
:100AE00001060F010E0B01070801060F01060B019D
:100AF000060401070801070901061001070901069C
:100B000011010604010E10010E04010E100106046D
:100B1000010610120E04010604010E04010604125F
:100B20000E04120604120610120E04120E10120EFB
:100B300004120610120604120610010E100106100F
:100B4000010E10120610120E10010E10120E0401EA
:100B50000E04120E04010E10120E100D06040D0EDE
:100B6000100D0E040D0E100D06040D0610130E04CC
:100B70000D06040D0E040D0604130E0413060413D3
:100B800007091306101306111306101302051306A6
:100B90000413061013070913020C130610130E0496
:100BA000130E10130E0413061013060413060F136E
:100BB0000E0B130E0F13060F13070B130E0B13065A
:100BC0000413020313060F13020113060F1302038B
:100BD00013060F13020113070B13061013020C1355
:100BE000020513020C130709130D0913040613025F
:100BF0000313040313020313040613020113060470
:100C000013020513020313020B13070B1302011344
:100C1000140813070B13020B13070B131408130705
:100C2000081306100D0E100D06100D0E10130610F1
:100C3000130E100D0E10130E040D0E04130E040DE2
:100C40000E10130E1013060B0D060B0D0E0B130ECC
:100C50000B13060B0D0E0B13060B130E0B13070BCA
:100C6000120E0B01060B010E0B12060B01060B12E6
:100C70000E0B12060F120E0B120E0F120E0B120697
:100C80000F12060B12060F010E0F01060F010E0FB9
:100C900012060F120E0F010E0F120E0B010E0B1289
:100CA0000E0B010E0F120E0F0D060B0D0E0F0D0E7B
:100CB0000B0D0E0F0D060B0D060F13060F0D0E0F6D
:100CC0000D060F0D0E0F13060F130E0F0D0E0F1343
:100CD0000E0B0D0E0B130E0B0D0E0F130E0F130735
:100CE00008010A08010708010A0813070813140875
:100CF000130D09010709010D09010709130D091356
:100D0000070901061112061001061012061001064D
:100D1000110D06101306110D06100106110D061017
:100D20001306111306101206100D06041206040D08
:100D300006041206100D061012060412060F010614
:100D40000F12060F1206040D060F12060401060FFD
:100D50000106040D06040D060F1206040D060F0D04
:100D6000060413060F13060F0D06041306041206DD
:100D70000F0D060B12060B0D060B12060F0D060FBC
:100D800013040301040613040601040301040613FB
:100D90000403130403010203010403010203130407
:100DA0000313020313020C010205130205010205DD
:100DB00013020C01020C010708150708130708139A
:100DC000020101020B13020B01020B1302010102CB
:100DD00001130D0901020C13020C01020C130D0981
:100DE000010D091304031302031302051302050185
:100DF00002050104031302030104030102030104B9
:100E00000313020313040313020501040313040371
:100E10000107091306110106111306110107091331
:100E2000070901020601020101040613020101047F
:100E30000601020101040613020113040613070848
:100E400013060B13070B01060B1507080107081201
:100E5000060B15070801060B0D060B1507081206F1
:100E60000B1507080D060B13060B130708150708CB
:100E700013060B13020B010A08131408010A0813C6
:100E8000020B01020B4018000000000000000000EF
:100E900000000000000000C0C0C0C0C08080800012
:100EA0000000000000000000000000000000000042
:100EB0000040C0C000000000000000000000000072
:100EC00000000000000000000000000000606464FA
:100ED000646464240400E0FE1F1918F8EC07038022
:100EE000FE3E0280C0FE1E0280983C32F2E2060006
:100EF000C0FC3F0702C2FE1E0000606464646464BC
:100F000004000000000000000000000000000000DD
:100F100000000000000101010100010101010000C9
:100F200001010101010101000101010101000001B4
:100F300001010100010101010000000000000000AA
:100F400000000000000000080B000202020000097F
:100F50000400000102020000052400100105240124
:100F6000010104240206052406000107058103107F
:100F7000004009040100020A0000000705020240C7
:100F80000000070583024000000403090412010069
:100F900002EF0201404123368000010102030141BA
:100FA000726475696E6F204C4C43004172647569C0
:100FB0006E6F204C656F6E6172646F00351711247F
:100FC0001FBECFEFDAE0DEBFCDBF13E0A0E0B1E09F
:100FD000EAE5FFE302C005900D92A630B107D9F70C
:100FE00028E0A6E0B3E001C01D92A634B207E1F705
:100FF00017E0CFEDD7E004C02197FE010E94A51FA6
:10100000CE3DD107C9F70E9457170C94AB1F0C9423
:1010100000009C01480F592F511D4115510541F108
:10102000803891052CF54138510514F040E850E026
:10103000421BCB018770992791E001C0990F8A95D7
:10104000EAF7FB0183E0F595E7958A95E1F7F695D8
:10105000FE2FEE27F795E795E20FF31FE551FC4FC2
:10106000415030F08191DF011197892B8C93F8CF9B
:10107000089590914108982329F49091400898236D
:1010800081E009F480E00895EBEEF3E0A0E0B8E041
:1010900000800EBC8111012C1197A0FDFDCF0192A3
:1010A000B9F70DB40895FC0180914A03882311F12A
:1010B0003FB7F89482E08093E9002091F200822FFC
:1010C00090E01816190614F481E090E0882339F0B6
:1010D000289844E6409349034091F100408322233D
:1010E00039F02091F200211103C02BE62093E80093
:1010F0003FBF08958FEF9FEF08952FB7F89483E0D7
:101100008093E9009091E800892F807295FF04C0D8
:101110009091F20080E4891B2FBF089580914103D4
:1011200081110DC082E080933D0384E080933E03F3
:101130001092400310923F0381E0809341038DE3BE
:1011400093E00895CF93DF931F92CDB7DEB7698305
:10115000DC01ED91FC910280F381E02D41E050E053
:10116000BE016F5F7F4F09950F90DF91CF9108957A
:1011700083E08093E9008091F200882319F08AE3EC
:101180008093E80008950E947D0890E00895CF9331
:10119000DF931F92CDB7DEB7FC018485958597FD5F
:1011A00008C02FEF3FEF358724870F90DF91CF9155
:1011B0000895CE0101960E945308019719F4898180
:1011C00090E0F3CF8FEF9FEFF0CF0F931F93CF936C
:1011D000DF931F92CDB7DEB78C01FC018485958526
:1011E00097FF0BC0CE0101960E945308019771F43E
:1011F000898190E0F80195878487F8018485958539
:101200000F90DF91CF911F910F9108958FEF9FEF76
:10121000F1CFFC018485958597FD0BC09FB7F894AD
:1012200082E08093E9008091F2009FBF90E00196F8
:1012300008959FB7F89482E08093E9008091F200CE
:101240009FBF90E00895409137035091380320915B
:1012500035033091360342175307B4F49091E800F8
:101260009570E1F39091E80092FD19C08093F10030
:10127000809137039091380301968F739927892BBA
:1012800019F48EEF8093E800809137039091380332
:101290000196909338038093370381E0089580E0AE
:1012A0000895EF92FF920F931F93CF93DF93F82E41
:1012B000192FE62E042F81E0860F880F0E94230944
:1012C00083E00E942309CF2DD12FEC0EFD2EF11CBF
:1012D000CE15DF05B9F007FF13C0FE0184910E940F
:1012E0002309182F80E00E94230981232196811170
:1012F000EFCFDF91CF911F910F91FF90EF90089565
:101300008881EDCF81E0F5CFDF92EF92FF920F93CE
:101310001F93CF93DF93D82E8A01EB017B01E40E5C
:10132000F51ECE15DF0559F0D7FE12C0FE018491DF
:101330000E94230921968111F4CF0FEF1FEFC801FE
:10134000DF91CF911F910F91FF90EF90DF90089563
:101350008881EECF0F931F93CF93DF931F92CDB76A
:10136000DEB782E0898342E450E067E47FE080E812
:101370000E9484090E948E08DC0112960D911C9136
:101380000115110589F0D801ED91FC910280F381DE
:10139000E02DBE016F5F7F4FC801099597FD04C026
:1013A000F80100851185ECCF89810F90DF91CF91F5
:1013B0001F910F910895615030F02091F100FC01D0
:1013C00020830196F8CF289884E6809349030895F6
:1013D000789484B5826084BD84B5816084BD85B510
:1013E000826085BD85B5816085BDEEE6F0E08081D7
:1013F00081608083E1E8F0E01082808182608083F8
:10140000808181608083E0E8F0E08081816080837A
:10141000E1E9F0E080818260808380818160808367
:10142000E0E9F0E0808181608083E1ECF0E08081A0
:1014300084608083808182608083808181608083FA
:10144000E3ECF0E0808181608083E0ECF0E080817B
:1014500082608083E2ECF0E0808181608083EAE753
:10146000F0E08081846080838081826080838081DD
:101470008160808380818068808308950F931F93AB
:101480008B019C019FB7F89440910703509108038A
:101490006091090370910A0386B5A89B06C08F3F2F
:1014A00021F04F5F5F4F6F4F7F4F9FBF762F652FAC
:1014B000542F4427480F511D611D711D440F551FA6
:1014C000661F771F440F551F661F771F01151105F3
:1014D00021053105C9F1FFB7F89480910703909178
:1014E0000803A0910903B0910A03E6B5A89B05C0C3
:1014F000EF3F19F00196A11DB11DFFBFBA2FA92F13
:10150000982F88278E0F911DA11DB11D880F991F3F
:10151000AA1FBB1F880F991FAA1FBB1F841B950BF7
:10152000A60BB70B883E9340A105B105A0F2015070
:1015300011092109310948515C4F6F4F7F4F011547
:1015400011052105310539F61F910F91089565E0C8
:1015500070E080E090E00C943E0A8F929F92AF92F0
:10156000BF92CF92DF92EF92FF920F931F93CF9390
:10157000DF936C017B018A0180911001882309F4BB
:101580005DC080914A03882309F458C080913C03D0
:1015900080FF05C08091E00082608093E000E80158
:1015A000B12C8AEFA82E93E0892E2AE3922E209761
:1015B00011F4BB20E1F10E947D0881110AC0AA94B8
:1015C000AA20E1F161E070E080E090E00E943E0A34
:1015D000EECF8C171D0611F00CF08C2F9FB7F894EE
:1015E0008092E9002091E80025FD02C09FBFDFCF77
:1015F000282F30E0C21BD30BF701815020F041911E
:101600004093F100FACFE20EF31EBB2021F090923E
:10161000E800B12CEBCF8091E80085FDE7CF9092F8
:10162000E800BB24B394209709F3B12CDFCF5D9879
:1016300084E680933B03101611063CF081E090E0B5
:10164000F6019383828310E000E0C801DF91CF911F
:101650001F910F91FF90EF90DF90CF90BF90AF90D0
:101660009F908F9008956F927F929F92AF92BF92BA
:10167000CF92DF92EF92FF920F931F93CF93DF935E
:10168000DC01FA01C4913196E4914E5F5F4FFE2F69
:10169000F770E695E695E695EC2EF12C2223D1F035
:1016A00081E090E0F11102C090E080E08E0F911D8A
:1016B0008E9D80018F9D100D9E9D100D1124209FE9
:1016C000C001219F900D1124480F591F411551054C
:1016D00009F45CC0862F8770982E93E07595679506
:1016E0009A95E1F7362F87010A0F1B1F20E82A1B66
:1016F000003811050CF42C2F91E0F11101C090E09D
:101700009E0FFB01E90FF11D399714F098E0961B2D
:10171000FB01F695FE2FEE27F795E795AE0FBF1F5D
:10172000C92C092C000CDD08E32FE61BE91770F526
:10173000ED01C551DC4F10E000E0021708F5FA0199
:10174000E00FF11FE491F0E03F010C2C02C0660CA9
:10175000771C0A94E2F737FD03C0B880B628B88238
:10176000992051F0373044F45E01E0E8AE0EB11C30
:10177000F5018081872980830F5F1F4F2196DDCF80
:101780004E0D5F1DA058BF4F3F5FCECFDF91CF9171
:101790001F910F91FF90EF90DF90CF90BF90AF908F
:1017A0009F907F906F9008958FB18095807F669B0A
:1017B00088601C9B8460089580389105B8F460347B
:1017C0007105A0F420E191E061FD94E060FD990FC6
:1017D00062FD9295687F269FD0011124A80FA55124
:1017E000BC4F8C91442319F0892B8C9308959095CC
:1017F0008923FBCF2F923F924F925F926F927F92FD
:101800008F929F92AF92BF92CF92DF92EF92FF9210
:101810000F931F93CF93DF93EC018B017A01690142
:10182000C61AD70AD7FE03C0D194C194D108470184
:101830008C1A9D0A97FE03C09194819491088C1490
:101840009D0454F49E2D8F2D7901292F382F9C2F24
:101850008D2FE801092F182FEC16FD0654F4902F58
:10186000812F8901292F382F9C2F8D2FE701E92EF9
:10187000F82E17012C1A3D0A2901401A510A57FE69
:1018800003C0519441945108310137FE03C08FEFDA
:10189000681A780A759467948FEF021713070CF48F
:1018A00081E0A82E880FBB08EC16FD06BCF041E0D5
:1018B0008C149D0474F4BE01C8010E94DC0B6418F2
:1018C000750877FE04C00A0D1B1D620C731C21965F
:1018D000EBCFB801CE010E94DC0BF1CFDF91CF91AD
:1018E0001F910F91FF90EF90DF90CF90BF90AF903E
:1018F0009F908F907F906F905F904F903F902F9030
:1019000008950895CF92DF92EF92FF920F931F9365
:10191000CF93DF93A0E3B0E050E040E0F0E0E0E000
:10192000CC24C394D12C182F1770282F26952695D8
:10193000269500E8209F9001112425513C4F2A0F45
:10194000311DE901288130E07601012E02C0EE0C44
:10195000FF1C0A94E2F72E213F2102C035952795FE
:101960001A95E2F7222379F031960197403251051A
:10197000D1F6CF01DF91CF911F910F91FF90EF90A2
:10198000DF90CF900895119601966115710529F0A9
:101990009B01240F351FE90188834F5F5F4FE6CF1E
:1019A0008F929F92AF92BF92EF92FF920F931F93ED
:1019B000CF93DF937C01EB018A01FA012081318111
:1019C00042815381688179818A819B810E94BF1EF7
:1019D0004B015C01F80124813581468157816C817E
:1019E0007D818E819F810E94BF1E9B01AC01C5013C
:1019F000B4010E944B1D4B015C01F801208531852B
:101A000042855385688579858A859B850E94BF1E9E
:101A10009B01AC01C501B4010E944B1DF70160831D
:101A2000718382839383F8012081318142815381C4
:101A30006C857D858E859F850E94BF1E4B015C0154
:101A4000F8012481358146815781688979898A899D
:101A50009B890E94BF1E9B01AC01C501B4010E947D
:101A60004B1D4B015C01F801208531854285538572
:101A70006C897D898E899F890E94BF1E9B01AC0164
:101A8000C501B4010E944B1DF701648375838683F1
:101A90009783F8012081318142815381688D798D4E
:101AA0008A8D9B8D0E94BF1E4B015C01F801248131
:101AB0003581468157816C8D7D8D8E8D9F8D0E94E5
:101AC000BF1E9B01AC01C501B4010E944B1D4B011F
:101AD0005C01F801208531854285538568A179A193
:101AE0008AA19BA10E94BF1E9B01AC01C501B4014C
:101AF0000E944B1DF7016087718782879387DF9172
:101B0000CF911F910F91FF90EF90BF90AF909F905A
:101B10008F9008952F923F924F925F926F927F9293
:101B20008F929F92AF92BF92CF92DF92EF92FF92ED
:101B30000F931F93CF93DF93CDB7DEB7C55BD1096A
:101B40000FB6F894DEBF0FBECDBFC955DF4F9983E6
:101B50008883C75AD040C756DF4F79836883C959F5
:101B6000D0408901FB0160817181828193810E9453
:101B7000BC1D9B01220F331FA901460F571FC755DC
:101B8000DF4F59834883C95AD04080E090E0A0E4F9
:101B9000B0E480934B0390934C03A0934D03B09318
:101BA0004E03C80168E671E00E94911FC955DF4FDE
:101BB000E881F981C75AD040C956DF4FF983E883DD
:101BC000C759D04023E430E02C0F3D1F2C5F3F4F1E
:101BD000C055DF4F39832883C05BD040AE014F5FD3
:101BE0005F4FCF56DF4F59834883C159D0409C0186
:101BF000990F440B550BCE54DF4F288339834A830A
:101C00005B83C25BD040C956DF4F88819981C75939
:101C1000D040C955DF4F48815981C75AD040841BF5
:101C2000950BC755DF4FE881F981C95AD0408E170F
:101C30009F070CF0F4C5C956DF4FE881F981C759F9
:101C4000D040949124E0929FF0011124C756DF4FB9
:101C500048815981C959D040E40FF51F8081918195
:101C6000A281B38180934F0390935003A0935103BB
:101C7000B0935203C956DF4FE881F981C759D0406C
:101C80003196E49154E0E59FF0011124C756DF4FEF
:101C900088819981C959D040E80FF91F80819181CD
:101CA000A281B3818093530390935403A09355036F
:101CB000B0935603C956DF4FE881F981C759D04028
:101CC0003296E49194E0E99FF0011124C756DF4F6A
:101CD00028813981C959D040E20FF31F8081918159
:101CE000A281B3818093570390935803A093590323
:101CF000B0935A03C956DF4FE881F981C759D040E4
:101D00003396E49134E0E39FF0011124C756DF4F8E
:101D100048815981C959D040E40FF51F80819181D4
:101D2000A281B38180935B0390935C03A0935D03D6
:101D3000B0935E03C956DF4FE881F981C759D0409F
:101D40003496E49154E0E59FF0011124C756DF4F2B
:101D500088819981C959D040E80FF91F808191810C
:101D6000A281B38180935F0390936003A09361038A
:101D7000B0936203C956DF4FE881F981C759D0405B
:101D80003596E49194E0E99FF0011124C756DF4FA6
:101D900028813981C959D040E20FF31F8081918198
:101DA000A281B3818093630390936403A09365033E
:101DB000B0936603C956DF4FE881F981C759D04017
:101DC0003696E49134E0E39FF0011124C756DF4FCB
:101DD00048815981C959D040E40FF51F8081918114
:101DE000A281B3818093670390936803A0936903F2
:101DF000B0936A03C956DF4FE881F981C759D040D3
:101E00003796E49154E0E59FF0011124C756DF4F67
:101E100088819981C959D040E80FF91F808191814B
:101E2000A281B38180936B0390936C03A0936D03A5
:101E3000B0936E03C956DF4FE881F981C759D0408E
:101E40003896E49194E0E99FF0011124C756DF4FE2
:101E500028813981C959D040E20FF31F80819181D7
:101E6000A281B38180936F0390937003A093710359
:101E7000B09372038CE3C055DF4FE881F981C05BFA
:101E8000D04011928A95E9F713E0CD57DF4F1883C0
:101E9000C358D04080E4CF56DF4FE881F981C15963
:101EA000D04011928A95E9F722961FAF229781E0E0
:101EB00023968FAF239760914B0370914C038091D1
:101EC0004D0390914E030E94BC1D7B01CE54DF4F09
:101ED000688179818A819B81C25BD0400E94F41D18
:101EE00029E33AEF4EE85CE30E94BF1E2B013C0160
:101EF000CC57DF4F1883C458D0400E942C1F4B0191
:101F00005C01C301B2010E94B71D27966CAF7DAF83
:101F10008EAF9FAF27979501840130582F960CAF55
:101F20001DAF2EAF3FAF2F9720E030E040E85FE3DA
:101F300067962CAF3DAF4EAF5FAF67976F968CAE95
:101F40009DAEAEAEBFAE6F97A7966CAF7DAF8EAFB6
:101F50009FAFA7974BE453E0C456DF4F59834883A4
:101F6000CC59D0408A0151E0E51AF10808F44CC080
:101F7000F80184819581A681B78189879A87AB878B
:101F8000BC8780859185A285B3858D839E83AF8331
:101F9000B88784859585A685B78589839A83AB8321
:101FA000BC83AE014F5F5F4FBE016D5B7F4FCE01C3
:101FB0008B579F4F0E94D00CCB57DF4F8881998160
:101FC000AA81BB81C558D040F80184839583A6833C
:101FD000B783C757DF4F88819981AA81BB81C958D0
:101FE000D04080879187A287B387C357DF4F88810E
:101FF0009981AA81BB81CD58D04084879587A687D7
:10200000B787045F1F4FAFCF80E4CF56DF4FE88123
:10201000F981C159D04011928A95E9F783E022965F
:102020008FAF229781E023968FAF239760914B0368
:1020300070914C0380914D0390914E030E94BC1D02
:102040007B010BE413E0F1E0EF1AF10808F445C05E
:10205000F80184819581A681B78189879A87AB87AA
:10206000BC8780859185A285B3858D839E83AF8350
:10207000B88784859585A685B78589839A83AB8340
:10208000BC83AE014F5F5F4F61E171E0CE018D5BBC
:102090009F4F0E94D00C27968CAD9DADAEADBFADCD
:1020A0002797F80184839583A683B7832B968CADFD
:1020B0009DADAEADBFAD2B9780879187A287B387CB
:1020C0002F968CAD9DADAEADBFAD2F978487958714
:1020D000A687B787045F1F4FB6CF60914B037091FF
:1020E0004C0380914D0390914E030E94BC1D7B01D7
:1020F0000BE413E0F1E0EF1AF10808F441C020917D
:10210000A5013091A6014091A7015091A801F801C5
:1021100060857185828593850E94BF1E2B013C01DD
:102120002091B5013091B6014091B7015091B801AD
:10213000F80164817581868197810E94BF1E4B01E1
:102140005C01209195013091960140919701509149
:102150009801F80164857585868597850E94BF1E64
:10216000F8016483758386839783408651866286EF
:10217000738684869586A686B786045F1F4FBACF7E
:1021800060914B0370914C0380914D0390914E03ED
:102190000E94BC1D7B010BE413E0F1E0EF1AF10893
:1021A00080F120916701309168014091690150915F
:1021B0006A01F80160857185828593850E94BF1E42
:1021C0004B015C0120915301309154014091550124
:1021D00050915601F80164857585868597850E9422
:1021E000BF1EF801648375838683978380869186FA
:1021F000A286B3861486158616861786045F1F4F3F
:10220000CCCF60914B0370914C0380914D03909122
:102210004E030E94BC1D9B01220F331FA901460FD4
:10222000571FC555DF4F59834883CB5AD04081E0B3
:1022300090E0CF55DF4F99838883C15AD040C55570
:10224000DF4F28813981CB5AD040CF55DF4F4881AD
:102250005981C15AD040421753070CF0BEC220E04A
:1022600030E040E852E4C456DF4FE881F981CC59B0
:10227000D04064817581868197810E944B1D0E94A8
:10228000BC1D5B01CD56DF4F79836883C359D040B5
:1022900020E030E040E052E4C456DF4FE881F981AD
:1022A000CC59D04060857185828593850E944B1DF5
:1022B0000E94BC1D6B01CB56DF4F79836883C559E3
:1022C000D04020E030E040E852E4C456DF4FE881DF
:1022D000F981CC59D04060897189828993890E94A3
:1022E0004B1D0E94BC1D862E962E172F20E030E03D
:1022F00040E052E4C456DF4FE881F981CC59D04028
:1023000064897589868997890E944B1D0E94BC1D2E
:102310002B011B0120E030E040E852E4C456DF4FBF
:10232000E881F981CC59D040648D758D868D978D6B
:102330000E944B1D0E94BC1DC556DF4F6883CB59C0
:10234000D040C256DF4F7883CE59D040062F20E0D0
:1023500030E040E052E4C456DF4FE881F981CC59C7
:10236000D04060A171A182A193A10E944B1D0E9447
:10237000BC1DAB01CF55DF4F28813981C15AD040F8
:10238000275F3F4FCF55DF4F39832883C15AD04055
:102390004C145D040CF430C26C157D052CF1CB5649
:1023A000DF4F48815981C559D040CB56DF4F7983E3
:1023B0006883C559D040CD56DF4F0881C359D040FE
:1023C000C556DF4FF881CB59D040CD56DF4FF8834B
:1023D000C359D040C256DF4F2881CE59D040CC5689
:1023E000DF4F2883C459D040CB56DF4F8881998175
:1023F000C559D04082159305ECF4322D232D1C01D4
:10240000CB56DF4F3883C559D040CA56DF4F28839B
:10241000C659D040292DCD56DF4F9880C359D040A2
:10242000CD56DF4F2883C359D040CC56DF4F188399
:10243000C459D040102FE42EF92CB92CB01AB7FE95
:10244000A1C0B1949FEFC056DF4F9883C05AD040CF
:10245000C355DF4F2882CD5AD040722C7E18CD56FE
:10246000DF4FF881C359D040C255DF4FF883CE5AB1
:10247000D040DF2ED01AD7FE8CC0D1942FEFC55696
:10248000DF4F2883CB59D040CB56DF4F8881C559C9
:10249000D040C155DF4F8883CF5AD040982F9E1926
:1024A000C256DF4F9883CE59D040B7140CF078C095
:1024B0002B2DB72C722EE1E0C156DF4FE883CF59A8
:1024C000D040C256DF4FF881CE59D040A12CDF1644
:1024D0004CF42D2DDF2EC256DF4F2883CE59D0402D
:1024E000AA24A3942D2D0D2C000C330BCD55DF4FBA
:1024F00039832883C35AD040CD2CC5944215530547
:1025000009F4CAC04B2C0B2C000C55088B2C85945D
:10251000612C641415040CF0BFC0902F212F0117FB
:1025200010F4912F202FCB55DF4F1882C55AD04081
:10253000641415040CF048C06394870C84141504CB
:10254000ACF18B18C156DF4F3881CF59D0403323BF
:10255000D9F1C056DF4F4881C05AD040CB55DF4F2C
:102560004883C55AD040EACFC456DF4FE881F9818D
:10257000CC59D040B496C456DF4FF983E883CC5988
:10258000D0405DCEE1E0C056DF4FE883C05AD04076
:102590005FCF31E0C556DF4F3883CB59D04074CF81
:1025A000C156DF4F1882CF59D0408BCFC156DF4F75
:1025B0005881CF59D040511107C0C056DF4F888194
:1025C000C05AD040080FB4CFCA55DF4F1882C65A40
:1025D000D040C256DF4FE881CE59D040CE0ECD5507
:1025E000DF4F48815981C35AD040C416150674F094
:1025F000CD18AA20A1F0C556DF4F5881CB59D04045
:10260000CA55DF4F5883C65AD040E9CFA11007C042
:10261000C556DF4F8881CB59D040180FDACFEFE392
:10262000EE15A0F0802F201708F4822F181708F459
:10263000812F402F091708F4492F411708F4412F23
:10264000481B6E2D70E090E00E940908C156DF4FD4
:10265000F881CF59D040F11106C0C056DF4F288114
:10266000C05AD040020FCB55DF4F3881C55AD040F9
:10267000030FA11006C0C556DF4F4881CB59D0408B
:10268000140FCA55DF4F5881C65AD040150FE39436
:10269000E214130409F03DCFC255DF4F0881CE5A32
:1026A000D04009196624639407FF03C0019566248E
:1026B0006A94C155DF4FB880CF5AD040C355DF4F21
:1026C0008881CD5AD040B81A772473940B1524F022
:1026D0008B2DB02E082F712C2B2C0B2C000C3308BB
:1026E0008B2C8594912C9214130411F00CF03CCF98
:1026F0002F2D912FF11610F4212F9F2D92141304DA
:1027000044F4800E821413043CF18B18562C711083
:1027100001C0512C412CCD56DF4FE881F981C359BE
:10272000D0401E171F0631F1C256DF4FF881CE5937
:10273000D040CF0ECD55DF4F48815981C35AD0408C
:10274000C416150674F0CD18AA20A1F0C556DF4FA7
:102750004880CB59D040EECF7110DBCFF60C93946C
:10276000CDCFA11007C0C556DF4F5881CB59D040FF
:10277000150FD1CF8FE38E15A8F08F2D9F1508F47C
:10278000892F181708F4812F9F2DF21608F4922F25
:10279000412F191708F4492F481B6E2D70E090E067
:1027A0000E940908711001C0F60CF50CA11006C0BA
:1027B000C556DF4F9881CB59D040190F140DE394C3
:1027C000CB56DF4FE881F981C559D040EE161F0680
:1027D00011F00CF0C9CE939486CFC956DF4F2881F3
:1027E0003981C759D040275F3F4FC956DF4F3983E2
:1027F0002883C759D04007CA641575050CF41ACE52
:10280000CD56DF4F8882C359D0409A2C1B2DCB5612
:10281000DF4F59824882C559D0401601C0CDCB54F4
:10282000DF4F0FB6F894DEBF0FBECDBFDF91CF9163
:102830001F910F91FF90EF90DF90CF90BF90AF90DE
:102840009F908F907F906F905F904F903F902F90D0
:102850000895CF93DF93EA012091030130910401A1
:102860004FE050E00E948A0D20E0AE0168E370E086
:102870008BE290E0DF91CF910C94330B1F920F927B
:102880000FB60F9211248F939F938091E100909146
:10289000E100937F9093E10083FF0FC01092E90065
:1028A00091E09093EB001092EC0092E39093ED0096
:1028B00010924A0398E09093F00082FF22C093E0C8
:1028C0009093E9009091F200992319F09AE3909384
:1028D000E80090913B03992341F090913B03915084
:1028E00090933B03911101C05D9A90914903992304
:1028F00041F090914903915090934903911101C087
:10290000289A84FF18C08091E2008E7E81608093B7
:10291000E2008091E1008F7E8093E10080913C0392
:102920008E7E806180933C039F918F910F900FBEAC
:102930000F901F90189580FFF7CF8091E2008E7E58
:1029400080618093E2008091E1008E7E8093E100BF
:1029500080913C038E7E816080933C03E5CF1F9283
:102960000F920FB60F921124CF92DF92EF92FF9247
:102970000F931F932F933F934F935F936F937F9387
:102980008F939F93AF93BF93EF93FF93CF93DF9377
:10299000CDB7DEB76C97DEBFCDBF1092E900809156
:1029A000E80083FF25C068E0CE0145960E94DB0960
:1029B00082EF8093E8008D8987FF39C09091E8000D
:1029C00090FFFCCF982F907609F03CC19E894F89EB
:1029D000588D2F89F88C911133C0803861F5809122
:1029E0003A038093F1001092F1008EEF8093E8009B
:1029F0006C960FB6F894DEBF0FBECDBFDF91CF91BE
:102A0000FF91EF91BF91AF919F918F917F916F91C6
:102A10005F914F913F912F911F910F91FF90EF90F8
:102A2000DF90CF900F900FBE0F901F9018959EEFE4
:102A30009093E800C7CF1092F1001092F100D5CF2B
:102A4000913059F48111D1CF4130510571F6809107
:102A50003A038D7F80933A03C8CF933059F48111A4
:102A6000C4CF4130510509F680913A0382608093CA
:102A70003A03BBCF953041F48091E80080FFFCCF52
:102A800020682093E300B1CF963009F0ADC00B8DE4
:102A90001C8D22E01092E900109238031092370347
:102AA000F2122EC010923603109235030E94AA092A
:102AB0001F8299E09983FA8291E09E8390EA988739
:102AC0009AEF99872091370330913803275F3F4F62
:102AD0003C832B838D831092E9001092380310926F
:102AE0003703109336030093350349E050E0BE01ED
:102AF0006F5F7F4F80E00E9484090E94AA0975CF12
:102B000010933603009335030E948E08DC01129661
:102B10000D911C910115110509F457C1D801ED91D2
:102B2000FC910480F581E02DBE016B5E7F4FC801F2
:102B30000995009709F044C1F80100851185EACF95
:102B4000F3E0FF120EC08F89882309F444C082305D
:102B500061F440E860E18BEA9FE00E945109811135
:102B600044CF81E28093EB0043CF813039F440E8D9
:102B70006BE08FE99FE00E945109F1CF833089F724
:102B80000E948E08DC011296ED90FC908E010F5F82
:102B90001F4F6801E114F10479F0D701ED91FC9128
:102BA0000680F781E02DB801C7010995080F111DB6
:102BB000F701E084F184EECFD8011C92F601019078
:102BC0000020E9F73197BF016C197D0940E0C6018B
:102BD0000E945109C4CF69E87FE0FB01449150E0B5
:102BE00080E80E94840901CF973009F4BACF983069
:102BF00021F481E08093F100F8CE993009F0F5CE10
:102C0000837009F0AECFE8EEF2E081E031E096E3C8
:102C10002191222371F08093E9003093EB00DF01D2
:102C200011972C912093EC009093ED008F5F8730EB
:102C300079F78EE78093EA001092EA008F898093FB
:102C40004A03D3CE8B8D9C8D1092E90010923803ED
:102C5000109237039093360380933503898D811149
:102C600094C08E899D89913A59F4813209F079CFC7
:102C700047E050E069E071E080E00E948409B5CE51
:102C8000913209F06ECF833269F48F89988DB0E06C
:102C9000A0E08093050190930601A0930701B093F3
:102CA0000801A3CE803269F48091E80082FFFCCF56
:102CB00067E089E091E00E94DB098BEF8093E800F8
:102CC00094CE823209F091CE8F8980931001EEEF7D
:102CD000FFE7859194918B3F9C4D51F1E0E0F8E046
:102CE0008091090190910A01A0910B01B0910C0112
:102CF000803B9440A105B105F1F48091100180FD65
:102D00001AC0EE3F8AE0F80789F587E797E79183D5
:102D10008083809160008093390388E19BE00FB647
:102D2000F894A895809360000FBE909360005DCEEC
:102D3000EEEFFAE0D5CF808191818737974709F090
:102D400054CEA89580916000886180936000809146
:102D5000390380936000EE3F2AE0F20789F080910A
:102D6000FE0A9091FF0A918380833FCE80819181FA
:102D70008737980751F29093FF0A8093FE0AC5CFD8
:102D80001092FF0A1092FE0A30CE0E948E08DC01DB
:102D900012960D911C910115110509F4E2CED8018E
:102DA000ED91FC910190F081E02DBE016B5E7F4FB3
:102DB000C8010995811119CEF80100851185EBCF65
:102DC000181619060CF411CECCCEF1E0FF12B8CED5
:102DD0006DE87FE002CF1F920F920FB60F92112481
:102DE0002F933F938F939F93AF93BF9380910B0348
:102DF00090910C03A0910D03B0910E033091060346
:102E000023E0230F2D3768F126E8230F0296A11D3A
:102E1000B11D2093060380930B0390930C03A093A2
:102E20000D03B0930E038091070390910803A091C6
:102E30000903B0910A030196A11DB11D80930703F8
:102E400090930803A0930903B0930A03BF91AF9135
:102E50009F918F913F912F910F900FBE0F901F90D8
:102E600018950196A11DB11DD4CFEBEEF7E01382AA
:102E7000128288EE93E0A0E0B0E084839583A6837D
:102E8000B78382EF92E0918380838FEF9FEF9587E6
:102E90008487EBE3F8E084E093E0918380831582FC
:102EA000168280E187831482138211860895CF935E
:102EB000DF9300D000D000D0CDB7DEB70E94E80984
:102EC00010924A0310923A0310923C038091D7006B
:102ED00081608093D70080EA8093D80089B58061B3
:102EE00089BD89B5826089BD09B400FEFDCF61E06E
:102EF00070E080E090E00E943E0A8091D8008F7CD4
:102F000080618093D8008091E000807F8093E00012
:102F10008091E1008E7E8093E1008DE08093E2005D
:102F2000559A209A81EC80937C0085B1806F85B999
:102F300084B1877E84B984B1876E84B95E9A5F98C4
:102F40008AB1806D8AB9769A6E9881B3806F81BBA1
:102F5000899880B38D7080BB80E58CBD81E08DBD8C
:102F60000E94A70A5F9A0E94A70A5E985C98EAEC02
:102F7000F0E087ED90E024912EBD00000DB407FE37
:102F8000FDCF31968E179F07B1F75C9A81E8809349
:102F900064008091650081608093650089E2809380
:102FA0004208809164008E7F8093640080917A0053
:102FB000806480937A0080917A0086FDFCCF009136
:102FC00078001091790030E020E098011127002767
:102FD0005FB7F8948091070390910803A0910903CB
:102FE000B0910A0346B5A89B05C04F3F19F0019662
:102FF000A11DB11D5FBFBA2FA92F982F8827BC0133
:10300000CD01640F711D811D911DE2E0660F771FD8
:10301000881F991FEA95D1F7600F711F821F931FB8
:103020002091640021602093640061157105810581
:10303000910511F00E949D1C80E090E0A0E8BFE3A4
:103040008093950190939601A0939701B093980176
:103050008093A5019093A601A093A701B093A80126
:103060008093B5019093B601A093B701B093B801D6
:1030700023E02093D60134E0309393013093940100
:103080008093530190935401A0935501B09356013E
:103090008093670190936801A0936901B0936A01DE
:1030A00080938F0190939001A0939101B09392012E
:1030B0008093110190931201A0931301B093140116
:1030C0008AEE96E4A7E7BFE3809321019093220163
:1030D000A0932301B093240142EF53E864E87EE318
:1030E0004093250150932601609327017093280196
:1030F00042EF53E864E87EEB4093290150932A01A4
:1031000060932B0170932C0180932D0190932E01DD
:10311000A0932F01B093300120935201F3E04F2E82
:10312000512C612C712CA0E18A2E912CA12CB12C58
:1031300022242394312C8FB7F89440910B035091A3
:103140000C0360910D0370910E038FBF80914308B3
:10315000242F281B822F10914408112359F020930B
:1031600045081092440880E090E0892B21F30E94EA
:103170000000DECF90914208291740F48F5F891735
:1031800090F781E083BF889513BEEDCF01E00093F7
:1031900044084093430880913E0890913F0801966F
:1031A00090933F0880933E088091400880934108A7
:1031B0000E94D40B8093400880913E0890913F0874
:1031C0006FEF70E00E947D1F892B29F480913403FA
:1031D00008270093340380913303813009F409C137
:1031E0000CF055C0882309F4F8C01091330388E02F
:1031F0000E943908882321F08FEF810F80933303D9
:1032000084E00E943908882329F0809133038F5F7E
:103210008093330380913303181614F01092330314
:103220008091330384301CF083E0809333038091DA
:103230003303181709F4DFC2823009F0DFC280E0DF
:10324000EBEEF3E081118FEF002481938193819362
:1032500081930394D1F780910F03843008F0C6C2A4
:1032600090E0880F991FFC01ED51FE4F6081718144
:1032700085529E4FFC01808191812EE031E050E02B
:1032800040E00E948A0D80E00E9444086CCF8230AA
:1032900009F430C1833009F0A8CF00913403809144
:1032A0000F03002309F426C2843008F0F2C190E035
:1032B000880F991FFC01ED51FE4F6081718185528D
:1032C0009E4FFC0180819181209103013091040186
:1032D0004FE050E00E948A0D2CE231E0309304016F
:1032E0002093030180910201815360E08F3138F413
:1032F0000E944E1CA50194010E94E71C102F809192
:10330000030190910401262F30E04091020140FD1D
:10331000C9C1820F931F909304018093030161112F
:10332000BDC180910101815080930101112309F4F5
:10333000C0C162E1E62E63E0F62E00E310E00E94D9
:103340004E1CF7012081422F4650550B6A01A30104
:1033500092010E94E71C6C0D7D2D711D41E0C8019A
:103360000E94DC0B52E0E50EF11C0E5F1F4F003592
:10337000110529F7809102018F5F803608F0B3C1F3
:10338000809302016091100370911103072E000CCD
:10339000880B990B2AE0AE014F5F5F4F0E94A61C7D
:1033A0000BE710E035E0F32EFA943FEFF31609F443
:1033B0001CCFE1E0F0E0EC0FFD1FEF0DF11D2081CF
:1033C00020532A3038F447ED50E060E270E0C80145
:1033D0000E94330B05501109E7CF20E045E85EE07D
:1033E00064E170E080E290E00E94330B10923203BF
:1033F000FCCE10910F03113009F46AC00CF051C0DB
:10340000112309F45CC020E043E851E060E170E082
:1034100083E090E00E94330B20E041E051E060E166
:1034200070E08DE590E00E94330B8091450834E612
:10343000839FC00111246091420870E00E94911F97
:10344000CB0164E670E00E94911F8091030190918E
:103450000401680F791F709304016093030180E2F7
:103460000E943908882319F0115010930F0380E44B
:103470000E943908882329F080910F038F5F809381
:103480000F0380910F0387FF03C083E080930F0336
:1034900080910F03843014F010920F0310923203C6
:1034A000A4CE1230F1F0133009F0ADCF45E052E078
:1034B0006BEE71E081E392E00E942914A4CF43E314
:1034C0005AE06FE872E08FE59AE00E9429149BCFE2
:1034D00049EB56E063E572E085EE96E00E94291420
:1034E00092CF41EE53E06FE172E08DE094E00E94F4
:1034F000291489CF62E173E080E290E00E94820C9F
:10350000F12CE12C08E110E00032110539F070E0F7
:1035100060E0C8010E94820CE80EF91E0F5F1F4F89
:103520000832110589F780910F03833009F461C0D7
:1035300080E190E08E9D90018F9D300D9E9D300D1D
:10354000112430931103209310030E94D40B85FFA4
:103550000FC01091320340E070E060E0812F90E0F6
:103560000E94DC0B112309F447C011501093320361
:103570000E94D40B86FF0EC01091320340E070E031
:1035800060E0812F90E00E94DC0B1F37C0F51F5FC9
:10359000109332030091320310E041E070E060E0EC
:1035A000C8010E94DC0B61E0A80145515C4F7A0123
:1035B0006F5F262F2770E62FE695E695E69550E893
:1035C000E59FF0011124EE0DFF1D808190E0A10127
:1035D000022E02C0440F551F0A94E2F7842395235C
:1035E00002C0959587952A95E2F7882361F0D62E3B
:1035F0000EC086E090E09ECF10923203B9CF8FE7E5
:1036000080933203C7CF603499F6DD24DA940E94A8
:10361000D40B87FF0DC08FEFD81651F092E09D15A7
:103620003CF4DA946D2D70E041E0C8010E94DC0B9F
:103630000E94D40B84FFD9CDEFEFDE1609F4D5CD6F
:1036400081E08D0D282F2770869586958695F0E868
:103650008F9FC0011124E80EF91EF701808190E0D0
:10366000A101022E02C0440F551F0A94E2F78423E1
:10367000952302C0959587952A95E2F7882309F44A
:10368000B4CD6D2DDD0C770B40E0C8010E94DC0B42
:10369000ACCD90E080E070E060E016CE8CE18093ED
:1036A000010144CE821B930B90930401809303018C
:1036B0003DCE05E0015009F45DCE0E944E1C1091F4
:1036C000010128E030E040E050E00E94E71C812F3B
:1036D000860F9927991FBC018091020141E090E07B
:1036E0000E94DC0BE7CF80E28093020188E28093A6
:1036F000010148CE843008F070C090E0880F991F17
:10370000FC01ED51FE4FE080F18085529E4FFC019F
:103710000081118127ED30E03093040120930301F3
:103720000E944E1C24E030E040E050E00E94E71C84
:103730002091030130910401260F371F30930401BB
:10374000209303014FE050E0B701C8010E948A0DA9
:103750002FE330E04AE450E070E060E08AE090E07F
:103760000E94FA0B2FE330E04DE650E070E060E09D
:103770008DE290E00E94FA0B1091000102EE010F21
:10378000602F002E000C770B812F012E000C990B5F
:103790009B012F5F3F4FAC014F5F5F4F0E94FA0BC1
:1037A0004EE1F42EF10E802F065F602F002E000CEC
:1037B000770B885D082E000C990B9B012F5F3F4F04
:1037C000AC014F5F5F4F0E94FA0BF012ECCF113249
:1037D00049F01F5F10930001D5CD10E000E0F12CFF
:1037E000E12C98CF8EE180930001CCCD90E080E079
:1037F00070E060E042CD123009F445CD81E00E94D6
:103800004408B1CC8F929F92AF92BF92CF92DF9239
:10381000EF92FF92CF93DF93EC01688179818A81E7
:103820009B81611571058105910521F464E279EDB3
:103830008BE597E02DE133EF41E050E00E94E71C7B
:1038400049015A019B01AC01A7EAB1E40E94061D9F
:103850006B017C01ACEEB4EFA50194010E94141D34
:10386000C60ED71EE81EF91EF7FE06C081E0C81A74
:10387000D108E10880E8F80AC882D982EA82FB828E
:10388000C701B6019F77DF91CF91FF90EF90DF9056
:10389000CF90BF90AF909F908F9008958F929F92FE
:1038A000AF92BF92CF92DF92EF92FF926091D701D9
:1038B0007091D8018091D9019091DA01611571055B
:1038C0008105910521F464E279ED8BE597E02DE126
:1038D00033EF41E050E00E94E71C49015A019B018F
:1038E000AC01A7EAB1E40E94061D6B017C01ACEEBD
:1038F000B4EFA50194010E94141DC60ED71EE81E48
:10390000F91EF7FE06C081E0C81AD108E10880E878
:10391000F80AC092D701D092D801E092D901F09272
:10392000DA01C701B6019F77FF90EF90DF90CF904B
:10393000BF90AF909F908F9008956093D701709340
:10394000D8018093D9019093DA010895BB272A30DA
:1039500051F4992342F4BDE290958095709561955C
:103960007F4F8F4F9F4F0C94B61CBB27FA01A62F99
:103970006217710581059105330B30FB66F0AA27AC
:10398000660F771F881F991FAA1FA21710F0A21B8E
:1039900063953850A9F7A05DAA3308F0A95DA193FB
:1039A00036F7B111B1931082CA010C94D71CDC0117
:1039B000FC01672F71917723E1F7329704C07C9166
:1039C0006D9370836291AE17BF07C8F30895052EFB
:1039D00097FB1EF400940E94FE1C57FD07D00E9426
:1039E000191D07FC03D04EF40C94FE1C5095409515
:1039F000309521953F4F4F4F5F4F0895909580959B
:103A0000709561957F4F8F4F9F4F08950E943B1D8A
:103A1000A59F900DB49F900DA49F800D911D112422
:103A20000895B7FF0C94061D0E94061D821B930B80
:103A30000895A1E21A2EAA1BBB1BFD010DC0AA1FEF
:103A4000BB1FEE1FFF1FA217B307E407F50720F007
:103A5000A21BB30BE40BF50B661F771F881F991F82
:103A60001A9469F760957095809590959B01AC01CB
:103A7000BD01CF010895A29FB001B39FC001A39FD4
:103A8000700D811D1124911DB29F700D811D112497
:103A9000911D08955058BB27AA270E94621D0C94BF
:103AA000711E0E94381E38F00E943F1E20F039F42B
:103AB0009F3F19F426F40C94351E0EF4E095E7FBB5
:103AC0000C942F1EE92F0E94961E58F3BA17620716
:103AD00073078407950720F079F4A6F50C94B81EB7
:103AE0000EF4E0950B2EBA2FA02D0B01B901900119
:103AF0000C01CA01A0011124FF27591B99F0593F5D
:103B000050F4503E68F11A16F040A22F232F342FA4
:103B10004427585FF3CF469537952795A795F040F2
:103B20005395C9F77EF41F16BA0B620B730B840B07
:103B3000BAF09150A1F0FF0FBB1F661F771F881FBF
:103B4000C2F70EC0BA0F621F731F841F48F4879517
:103B500077956795B795F7959E3F08F0B0CF939509
:103B6000880F08F09927EE0F9795879508950E9482
:103B7000481EE3950C94821E0E94C31D6894B111E7
:103B80000C94B91E08950E949E1E88F09F5798F0CD
:103B9000B92F9927B751B0F0E1F0660F771F881F52
:103BA000991F1AF0BA95C9F714C0B13091F00E946C
:103BB000B81EB1E008950C94B81E672F782F88279F
:103BC000B85F39F0B93FCCF3869577956795B39593
:103BD000D9F73EF490958095709561957F4F8F4F02
:103BE0009F4F0895E89409C097FB3EF49095809507
:103BF000709561957F4F8F4F9F4F9923A9F0F92FB3
:103C000096E9BB279395F695879577956795B79530
:103C1000F111F8CFFAF4BB0F11F460FF1BC06F5F16
:103C20007F4F8F4F9F4F16C0882311F096E911C028
:103C3000772321F09EE8872F762F05C0662371F049
:103C400096E8862F70E060E02AF09A95660F771F5D
:103C5000881FDAF7880F9695879597F9089597F951
:103C60009F6780E870E060E008959FEF80EC089522
:103C700000240A941616170618060906089500244B
:103C80000A94121613061406050608950C94351EA0
:103C90000E949E1ED8F3E894E0E0BB279F57F0F007
:103CA0002AED3FE049EC06C0EE0FBB0F661F771F01
:103CB000881F28F0B23A62077307840728F0B25AC7
:103CC000620B730B840BE3959A9572F7803830F48E
:103CD0009A95BB0F661F771F881FD2F790480C94E8
:103CE000361F092E0394000C11F4882352F0BB0FE9
:103CF00040F4BF2B11F460FF04C06F5F7F4F8F4F04
:103D00009F4F0895EF93E0FF07C0A2EA2AED3FE03E
:103D100049EC5FEB0E94621D0E94711E0F9003949C
:103D200001FC9058ECEAF0E00C94421F57FD9058CB
:103D3000440F551F59F05F3F71F04795880F97FB6F
:103D4000991F61F09F3F79F0879508951216130629
:103D50001406551FF2CF4695F1DF08C01616170658
:103D60001806991FF1CF869571056105089408958D
:103D7000E894BB2766277727CB0197F908950E941F
:103D8000D21E0C94711E0E94381E38F00E943F1EF5
:103D900020F0952311F00C942F1E0C94351E112445
:103DA0000C94B91E0E94961E70F3959FC1F3950F57
:103DB00050E0551F629FF001729FBB27F00DB11DAF
:103DC000639FAA27F00DB11DAA1F649F6627B00D3F
:103DD000A11D661F829F2227B00DA11D621F739F28
:103DE000B00DA11D621F839FA00D611D221F749F36
:103DF0003327A00D611D231F849F600D211D822F7D
:103E0000762F6A2F11249F5750409AF0F1F08823A3
:103E10004AF0EE0FFF1FBB1F661F771F881F9150D0
:103E20005040A9F79E3F510580F00C942F1E0C9432
:103E3000B91E5F3FE4F3983ED4F386957795679576
:103E4000B795F795E7959F5FC1F7FE2B880F911DFA
:103E50009695879597F908959F930E94481E0F9015
:103E600007FCEE5F0C94821E9F3F31F0915020F4CE
:103E7000879577956795B795880F911D9695879546
:103E800097F908959F938F937F936F93FF93EF9389
:103E90009B01AC010E94BF1EEF91FF910E94561F33
:103EA0002F913F914F915F910C94BF1EDF93CF9361
:103EB0001F930F93FF92EF92DF927B018C01689426
:103EC00006C0DA2EEF010E94D21EFE01E894A591F1
:103ED0002591359145915591A6F3EF010E94621D00
:103EE000FE019701A801DA9469F7DF90EF90FF9047
:103EF0000F911F91CF91DF910895AA1BBB1B51E138
:103F000007C0AA1FBB1FA617B70710F0A61BB70B49
:103F1000881F991F5A95A9F780959095BC01CD01EE
:103F2000089597FB072E16F4009407D077FD09D06B
:103F30000E947D1F07FC05D03EF4909581959F4F10
:103F40000895709561957F4F0895EE0FFF1F0590BE
:0A3F5000F491E02D0994F894FFCFDE
:103F5A001E2820B400FFFFFFFF00E1000000000060
:103F6A000000000000000000000000000000000047
:103F7A000000000000000000000000000000000037
:103F8A000000000000000000000000000000000027
:103F9A000000000000000000000000000000000017
:103FAA000003010000000000000000000000000003
:103FBA0000000000000000000000000000000000F7
:103FCA0000000000000000000000000000000000E7
:103FDA0000000000000000000000000000000000D7
:103FEA0000000003010000000000000000000000C3
:103FFA0000000000000000000000000000000000B7
:10400A0000000000000000000000000000000000A6
:10401A000000000000000000000000000000000096
:10402A0000000000000301010000005F0AE5060D20
:10403A000431028F0253021F02EB010000104300F9
:10404A000000400000C040000080410000804000A5
:10405A00002041000000C00000E040000020C10034
:10406A000080C1000000C10000C0C00000A0C00064
:10407A000064430000E0400000C0C000008041002E
:10408A000080400000604100000041000080C10043
:10409A000040C10000C04000004040000040C00095
:1040AA0000E0C000008D430000E0400000C0C000F6
:1040BA00008040000000C00000A0C0000080410055
:1040CA0000604100000041000040C1000080C100C2
:1040DA0000C04000004040000040C00000E0C000B6
:1040EA0000B1430000E040000000C00000A0C00092
:1040FA0000C0C0000000C100008040000000400075
:10410A00008041000080C100000080000060410082
:10411A000070C1000040C00000C040000000410023
:10412A000040C1000060C1000040400000E0C00043
:10413A000000000000E04000C18081000000000093
:10414A000000A208AD0AC308B8080909C708E508AB
:06415A0000000000810CD2
:00000001FF
