:100000000C9469070C9491070C9491070C94910738
:100010000C9491070C9491070C9491070C94910700
:100020000C9491070C9491070C9408180C943F11B0
:100030000C9491070C9491070C9491070C949107E0
:100040000C9491070C9491070C9491070C949107D0
:100050000C9491070C9491070C9491070C948118BF
:100060000C9491070C9491070C9491070C949107B0
:100070000C9491070C9491070C9491070C949107A0
:100080000C9491070C9491070C9491070C94910790
:100090000C9491070C9491070C9491070C94910780
:1000A0000C9491070C9491070C94910705A84CCDE2
:1000B000B2D44EB93836A9020C50B9918688083CA2
:1000C000A6AAAA2ABE000000803FD5F08D14A1C8C0
:1000D00081CFD9F1AF2000202000000000000000F7
:1000E000000000000000000000FEFCF8F0E080804E
:1000F000000000000000000000FEFFFFFFFFFFFF08
:10010000FFFFFFFFFFFFFFFFFFFFFFFFFFFFFFFFFF
:10011000FFFEFCF8F0E0C08000FFFFFFFFFFFFFFE5
:10012000FFFFFFFFFFFFFFFFFFFFFFFFFFFFFFFFDF
:10013000FF7F7F3F0F070703000000000000000063
:100140000000000000000000007F3F3F1F07030386
:10015000000000000000000000202000000000005F
:1001600000000000C0C0E0F8FCFCFE000000000041
:10017000000000000000000000000000C0E0E0F00F
:10018000FCFEFEFFFFFFFFFFFFFFFFFFFFFFFFFF84
:10019000FFFFFFFFFFFFFFFFFFFFFF000103070F50
:1001A0001F3F7FFFFFFFFFFFFFFFFFFFFFFFFFFF7F
:1001B000FFFFFFFFFFFFFFFFFFFF7F0000000000CA
:1001C000000000000101070F1F3F7F00000000003A
:1001D00000000000000000000000002A07000000EE
:1001E000000000000000000000203C0E100C3E004B
:1001F0003C241C00043C0438241C000000000000C7
:1002000000000000000000010203010405010205D6
:1002100001060701040501060301060301040501A7
:100220000203010408010209010208010604010495
:100230000501060701040501060401040801060A78
:1002400001040801060401060901040801060A0167
:100250000408010609010209010B0C010604010B47
:1002600004010604010B0C01060A06020301060341
:10027000010203010603060203060603060209063D
:10028000040806020806060A060408060609060609
:10029000090604080602090604050602030602050B
:1002A00006060C06040806060A06040806060C06DE
:1002B000040506060706040506060C0606030604E2
:1002C00005060607060405060603060203060B04D8
:1002D00006060C060B0C06060C060B0406060706A3
:1002E00006090102090106090102090606090602BA
:1002F00009010408060405010405060405010408B3
:10030000060408060B0C010B04060B04010B0C0180
:100310000B04060B0C06060901060A06060A01066E
:100320000A06060901060906060701060306060372
:100330000106030606070106070602080104080174
:100340000208010408060208060408010209060260
:10035000080102080602080102090602090604054E
:100360000102050104050102050604050602050156
:10037000020506020301020306020301020506024A
:1003800005060B0C06060C06060A06060A01060AF6
:10039000060B0C060B0C01060A010B0C01060401EE
:1003A0000607010B04060607010B04010607010BF3
:1003B00004060607060B042A07003E2A3E003C20DE
:1003C0003C003C04003C043C003A003C043C004C33
:1003D000547C00003C0E100C3E0038243C20003CB5
:1003E000043C0001020301040501040301040501AA
:1003F00002030104060104060102030104020102D2
:1004000007010402010203010402010207010408BA
:10041000010408010207010407010405010906019E
:100420000905010906010405010406010402010988
:10043000080109020109080104020104080A09026D
:100440000104020109020104020A09020A04020A63
:1004500004080A09020A09080A09020A04080A0427
:10046000020A04080109080104080109080A04082D
:100470000A09080109080A09020109020A09020118
:1004800009080A09080B04020B09080B09020B09E9
:10049000080B04020B04080C09020B04020B0902EE
:1004A0000B04020C09020C04020C02070C04080CD9
:1004B00004070C04080C02070C04020C02030C04D1
:1004C000020C02070C04020C02030C04060C0406C6
:1004D0000C02030C04050C04050C02030C04030CB1
:1004E00004080C09020C09080C09020C04080C048D
:1004F000020C04060C09050C09060C09050C04067F
:100500000C04050C04080B09080B04080B09080C63
:1005100004080C09080B09080C09020B09020C0954
:10052000020B09080C09080A09050104050109055F
:100530000104050A09050A04050A04060A09050A50
:1005400009060A09050A04060A04050A040601093F
:10055000060104060109060A04060A09060109063D
:100560000A09050109050A09050109060A09060B18
:1005700004050B09060B09050B09060B04050B0402
:10058000060C09050B04050B09050B04050C0905F0
:100590000C04050C04060B09060B04060B09060CDB
:1005A00004060C09060B09060C09050B09050C09C4
:1005B000050B09060C09060C0403010203010403E0
:1005C0000102030C04030C02030C02070102030CDA
:1005D00002030102030C02070102070C02070104D7
:1005E000070102070104070C02070C0407010407B6
:1005F0000A04080104080A04080104070B04080C93
:1006000004070B04080104070B04080C04070C047E
:10061000080A04080B04020A04020B04020A040874
:100620000B04080A04020A04060104060A04060A66
:1006300004020B04060A04020104060104020B046E
:10064000020B04060A04020B04060B04020C040647
:100650000C04060B04020C04020A04060B04050A2F
:1006600004050B04050A04060B04060A040501042C
:10067000030104050104030A04050C04030B04052B
:100680000C04030A04050C04030B04050C04052ADE
:100690000700000000000000000000000000002033
:1006A0003E2A3E0018141C507E0018141C10000036
:1006B000000000000000000000000001020301042F
:1006C00005010403010405010203010205010406FA
:1006D00001030701030601040101030701040601E8
:1006E00003080104030103020104050103020104DC
:1006F00003010307010401010308010308010401C8
:1007000001040301030201040501030901040A01B4
:10071000030901040501030901040A01030A010395
:1007200007010B08010B07010B0801030701030870
:10073000010302010B09010B02010B090103020174
:1007400003090C0B02010302010B020103020C0B53
:10075000020C03020C03090C0B020C0B090C0B021C
:100760000C03090C03020C0309010B090103090125
:100770000B090C03090C0B09010B090C0B02010BF3
:10078000020C0B02010B090C0B090D03020D0B09E6
:100790000D0B020D0B090D03020D03090E0B020DCB
:1007A00003020D0B020D03020E0B020E03020E02DA
:1007B000030E04050E02050E04050E02030E0401CD
:1007C0000E040A0E03090E030A0E04050E03090E99
:1007D000040A0E03020E04050E03080E04010E03A4
:1007E000080E04050E03090E04050E03020E03088D
:1007F0000E04010E03070E04060E03070E04010E7D
:1008000003070E04060E03060E03090E0B020E0B61
:10081000090E0B020E03090E03020E03080E0B074E
:100820000E0B080E0B070E03080E03070E03090D2F
:100830000B090D03090D0B090E03090E0B090D0B16
:10084000090E0B020D0B020E0B020D0B090E0B090C
:100850000C0B07010307010B070103070C0B070C27
:1008600003070C03080C0B070C0B080C0B070C03FD
:10087000080C03070C0308010B08010308010B080F
:100880000C03080C0B08010B080C0B07010B070CE1
:100890000B07010B080C0B080D03070D0B080D0BC4
:1008A000070D0B080D03070D03080E0B070D0307BB
:1008B0000D0B070D03070E0B070E03070E03080DA4
:1008C0000B080D03080D0B080E03080E0B080D0B8B
:1008D000080E0B070D0B070E0B070D0B080E0B0870
:1008E0000E03060104060103060104060E03060EAC
:1008F00004060E02050102030E02030102050102B5
:10090000030E02050E040A01030A01040A01030A88
:100910000E040A0E030A01030A0C03090103090C61
:10092000030901030A0D03090E030A0D030901035C
:100930000A0D03090E030A0E03090C03090D030235
:100940000C03020D03020C03090D03090C03020C36
:1009500003080103080C03080C03020D03080C0331
:10096000020103080103020D03020D03080C030238
:100970000D03080D03020E03080E03080D03020EFB
:1009800003020C03080D03070C03070D03070C03F8
:10099000080D03080C030701030601030701030602
:1009A0000C03070E03060D03070E03060C03070EC8
:1009B00003060D03070E03070E02050104050102DD
:1009C000050104050E02050E04050E040A010405C6
:1009D0000E04050104050E040A01040A0E040101B7
:1009E00004060E04060104060E04010104010104BC
:1009F000030104010102030E0401010203010401C9
:100A00000102030E04010E02032A07000000000089
:100A1000382422320E043C100C301C2C003C040400
:100A2000003F1028243C003C043C003824243F00B4
:100A3000000000000001020301040301020501049B
:100A40000601020301020601020301040601040378
:100A5000010708010206010709010708010A080148
:100A6000020B01070801020B010201010708010244
:100A70000101020601020301070901020601020544
:100A800001070901020301020C0107090102050126
:100A9000070901020C010D09010E0B01060F010EE1
:100AA0000F01070801060401060F010604010709EA
:100AB00001061001060B01060F010E0B01070801CC
:100AC000060F01060B0106040107080107090106CC
:100AD00010010709010611010604010E10010E04A0
:100AE000010E10010604010610120E040106040195
:100AF0000E04010604120E04120604120610120E51
:100B000004120E10120E0412061012060412061021
:100B1000010E10010610010E10120610120E100127
:100B20000E10120E04010E04120E04010E10120E0D
:100B3000100D06040D0E100D0E040D0E100D060402
:100B40000D0610130E040D06040D0E040D060413FD
:100B50000E041306041307091306101306111306D7
:100B60001013020513060413061013070913020CD1
:100B7000130610130E04130E10130E041306101395
:100B8000060413060F130E0B130E0F13060F130795
:100B90000B130E0B13060413020313060F130201AB
:100BA00013060F13020313060F13020113070B138F
:100BB000061013020C13020513020C130709130D80
:100BC0000913040613020313040313020313040698
:100BD00013020113060413020513020313020B137D
:100BE000070B13020113140813070B13020B13074F
:100BF0000B1314081307081306100D0E100D061022
:100C00000D0E10130610130E100D0E10130E040D02
:100C10000E04130E040D0E10130E1013060B0D060A
:100C20000B0D0E0B130E0B13060B0D0E0B13060BF9
:100C3000130E0B13070B120E0B01060B010E0B12FA
:100C4000060B01060B120E0B12060F120E0B120EE4
:100C50000F120E0B12060F12060B12060F010E0FCB
:100C600001060F010E0F12060F120E0F010E0F12CA
:100C70000E0B010E0B120E0B010E0F120E0F0D06B6
:100C80000B0D0E0F0D0E0B0D0E0F0D060B0D060F9F
:100C900013060F0D0E0F0D060F0D0E0F13060F137B
:100CA0000E0F0D0E0F130E0B0D0E0B130E0B0D0E64
:100CB0000F130E0F130708010A08010708010A089D
:100CC000130708131408130D09010709010D090181
:100CD0000709130D09130709010611120610010671
:100CE000101206100106110D06101306110D061044
:100CF0000106110D06101306111306101206100D31
:100D000006041206040D06041206100D0610120643
:100D10000412060F01060F12060F1206040D060F2D
:100D200012060401060F0106040D06040D060F123B
:100D300006040D060F0D060413060F13060F0D060D
:100D40000413060412060F0D060B12060B0D060BFC
:100D500012060F0D060F1304030104061304060107
:100D60000403010406130403130403010203010432
:100D70000301020313040313020313020C0102050F
:100D800013020501020513020C01020C01070815EC
:100D9000070813070813020101020B13020B0102DB
:100DA0000B130201010201130D0901020C13020CC5
:100DB00001020C130D09010D09130403130203139F
:100DC00002051302050102050104031302030104D5
:100DD00003010203010403130203130403130205B6
:100DE000010403130403010709130611010611137B
:100DF0000611010709130709010206010201010496
:100E00000613020101040601020101040613020196
:100E100013040613070813060B13070B01060B1523
:100E2000070801070812060B15070801060B0D0637
:100E30000B15070812060B1507080D060B13060BFA
:100E400013070815070813060B13020B010A0813F2
:100E50001408010A0813020B01020B080B0002021E
:100E60000201000904000001020200000524001034
:100E700001052401010104240206052406000107DE
:100E800005810310004009040100020A0000000768
:100E90000502024000000705830240000004030928
:100EA0000412010002EF02014041233680000101DB
:100EB00002030141726475696E6F204C4C4300411E
:100EC000726475696E6F204C656F6E6172646F003D
:100ED000D11C11241FBECFEFDAE0DEBFCDBF12E080
:100EE000A0E0B1E0E8E5F2E402C005900D92A83977
:100EF000B107D9F727E0A8E9B2E001C01D92A336F7
:100F0000B207E1F717E0C9E6D7E004C02197FE0178
:100F10000E941F21C836D107C9F70E94CB180C9434
:100F20002A210C940000AF92BF92CF92DF92EF92F1
:100F3000FF920F931F93CF93DF931F92CDB7DEB72E
:100F400041155105C1F15A017C016B0100E010E02F
:100F500013C069831296ED91FC91139741E050E024
:100F6000BE016F5F7F4FC7010995892BB9F00F5FF5
:100F70001F4FA016B10691F0F701A081B1812D910C
:100F80003C911197F60161916F01F6E128353F0719
:100F900001F3C701F9010995892B49F7C8010F90A1
:100FA000DF91CF911F910F91FF90EF90DF90CF9045
:100FB000BF90AF90089500E010E0F0CF089508953D
:100FC00080E090E008950E9425212F923F924F9259
:100FD0005F926F927F928F929F92AF92BF92CF92C9
:100FE000DF92EF92FF920F931F93CF93DF93CDB7D2
:100FF000DEB7A8970FB6F894DEBF0FBECDBF8C0149
:10100000B62E6091990670919A0680919B069091F8
:101010009C060E94361F6B017C017A836983C8019C
:1010200068E671E00E94F720BC01990F880B990BCC
:101030000E946E1F29E33AEF4EE85CE30E943920DC
:101040002B013C010E94A6206D837E838F839887AD
:10105000C301B2010E94311F1B018C0121E0B216B5
:1010600009F45AC132E0B31609F429C1BB2009F4CE
:1010700001C11D8E1E8E1F8E18A219861A861B8610
:101080001C8619A21AA21BA21CA21D821E821F82EC
:101090001886212C312C00E010E0198A1A8A1B8A4C
:1010A0001C8A1D861E861F86188A1D8A1E8A1F8A14
:1010B000188E198E1A8E1B8E1C8EC601892B09F470
:1010C000C0C0ADE9B6E0C601880F991FC80ED91E91
:1010D000C601880F991F880F991FFC01E356F94F2D
:1010E000FEA3EDA3B8A7AFA38D919D910D90BC91E8
:1010F000A02D89839A83AB83BC83EFA1F8A5C4801C
:10110000D580E680F78080849184A284B384298D81
:101110003A8D4B8D5C8DC501B4010E9439202B01A5
:101120003C012D893E894F89588DC701B6010E9427
:1011300039209B01AC01C301B2010E94C51E2B01E5
:101140003C012D853E854F85588969817A818B8147
:101150009C810E9439209B01AC01C301B2010E9415
:10116000C51EAFA1B8A56D937D938D939C931397E6
:1011700029893A894B895C89C501B4010E943920CB
:101180002B013C019101A801C701B6010E94392041
:101190009B01AC01C301B2010E94C51E2B013C01A1
:1011A0002D813E814F81588569817A818B819C8117
:1011B0000E9439209B01AC01C301B2010E94C51EEF
:1011C000EFA1F8A5648375838683978329A13AA14B
:1011D0004BA15CA1C501B4010E9439204B015C0107
:1011E00029853A854B855C85C701B6010E94392067
:1011F0009B01AC01C501B4010E94C51E6B017C01BD
:101200002D8D3E8D4F8D58A169817A818B819C8176
:101210000E9439209B01AC01C701B6010E94C51E86
:10122000AFA1B8A518966D937D938D939C931B9752
:101230001C96B8A7AFA3EDA1FEA1EA17FB0709F022
:1012400053CFA8960FB6F894DEBF0FBECDBFDF9187
:10125000CF911F910F91FF90EF90DF90CF90BF90B3
:10126000AF909F908F907F906F905F904F903F9046
:101270002F9008958D819E81AF81B885B058898760
:101280009A87AB87BC872D8E3E8E0F8F18A319A22D
:101290001AA21BA21CA2198A1A8A1B8A1C8A1D86E2
:1012A0001E861F86188A1D8A1E8A1F8A188E198E0E
:1012B0001A8E90E89B8FAFE3AC8FC601FFCE8D8175
:1012C0009E81AF81B885B058898B9A8BAB8BBC8BD4
:1012D0009D819D8BAE81AE8BBF81BF8BE885E88FF2
:1012E000298E3A8E0B8F1C8F1D8E1E8EF0E8FF8F7D
:1012F0002FE328A319861A861B861C8619A21AA218
:101300001BA21CA21D821E821F8218861D861E869D
:101310001F86188AC601D2CE8D819E81AF81B88585
:10132000B0588D879E87AF87B88B2D8E3E8E0F8FDE
:1013300018A39D8199A3AE81AAA3BF81BBA3E88511
:10134000ECA3298E3A8E0B8F1C8F19861A861B866A
:101350001C861D821E821F821886212C312C00E8DB
:101360001FE3198A1A8A1B8A1C8A1D8A1E8A1F8AF1
:10137000188EC601A3CE0F931F938C0120E030E09E
:101380009FB7F89440914E0750914F0760915007D6
:101390007091510786B5A89B06C08F3F21F04F5F23
:1013A0005F4F6F4F7F4F9FBF762F652F542F44277E
:1013B000480F511D611D711D440F551F661F771F7A
:1013C000440F551F661F771F0115110521053105B3
:1013D000C9F1FFB7F89480914E0790914F07A09103
:1013E0005007B0915107E6B5A89B05C0EF3F19F033
:1013F0000196A11DB11DFFBFBA2FA92F982F8827D5
:101400008E0F911DA11DB11D880F991FAA1FBB1F13
:10141000880F991FAA1FBB1F841B950BA60BB70B28
:10142000883E9340A105B105A0F2015011092109A0
:10143000310948515C4F6F4F7F4F01151105210550
:10144000310539F61F910F9108952F923F924F92D7
:101450005F926F927F928F929F92AF92BF92CF9244
:10146000DF92EF92FF920F931F93CF93DF93CDB74D
:10147000DEB7C254D1090FB6F894DEBF0FBECDBFA0
:101480008D83998378AF6FAB5AAF49AF20918401B8
:101490003091850121963FAF2EAF2197DB016D91F1
:1014A0007D918D919C910E94361F9B01220F331FCD
:1014B000F901E60FF71FFEAFEDAF80E090E0A0E48A
:1014C000B0E48093990690939A06A0939B06B093FC
:1014D0009C061E161F060CF0E3C5ED80EDAAE98000
:1014E000EEAA1CAE1BAEEDA9FEA98491EFA9F8AD42
:1014F00024E0829FE00DF11D112480819181A28161
:10150000B38180939D0690939E06A0939F06B0930F
:10151000A006EDA9FEA93196E4914FA958AD84E04B
:10152000E89F400D511D1124FA0180819181A28113
:10153000B3818093A1069093A206A093A306B093D3
:10154000A406EDA9FEA93296E491AFA9B8AD24E0B6
:10155000E29FA00DB11D1124FD0180819181A28126
:10156000B3818093A5069093A606A093A706B09397
:10157000A806EDA9FEA93396E4914FA958AD84E0E1
:10158000E89F400D511D1124FA0180819181A281B3
:10159000B3818093A9069093AA06A093AB06B0935B
:1015A000AC06EDA9FEA93496E491AFA9B8AD24E04C
:1015B000E29FA00DB11D1124FD0180819181A281C6
:1015C000B3818093AD069093AE06A093AF06B0931F
:1015D000B006EDA9FEA93596E4914FA958AD84E077
:1015E000E89F400D511D1124FA0180819181A28153
:1015F000B3818093B1069093B206A093B306B093E3
:10160000B406EDA9FEA93696E491AFA9B8AD24E0E1
:10161000E29FA00DB11D1124FD0180819181A28165
:10162000B3818093B5069093B606A093B706B093A6
:10163000B806EDA9FEA93796E4914FA958AD84E00C
:10164000E89F400D511D1124FA0180819181A281F2
:10165000B3818093B9069093BA06A093BB06B0936A
:10166000BC06EDA9FEA93896E491AFA9B8AD24E077
:10167000E29FA00DB11D1124FD0180819181A28105
:10168000B3818093BD069093BE06A093BF06B0932E
:10169000C00661E021968EAD9FAD21970E94E507BF
:1016A00060E08FE090E00E94E507609199067091FC
:1016B0009A0680919B0690919C060E94361F6115A8
:1016C000710509F4C8C52091420130914301409150
:1016D0004401509145012D833E834F8358872091CB
:1016E00046013091470140914801509149012987B5
:1016F0003A874B875C8720914A0130914B0140919A
:101700004C0150914D012D873E874F87588B20917A
:101710004E0130914F014091500150915101298B60
:101720003A8B4B8B5C8B209152013091530140914D
:101730005401509155012D8B3E8B4F8B588F20912A
:101740005601309157014091580150915901298F0C
:101750003A8F4B8F5C8F20915A0130915B01409101
:101760005C0150915D012D8F3E8F4F8F58A32091CA
:101770005E0130915F01409160015091610129A3A8
:101780003AA34BA35CA32091620130916301409185
:101790006401509165012DA33EA34FA358A70DE905
:1017A00016E09B01220F331FA901460F571F440F5C
:1017B000551F440F551FCA018356994F1C011AA784
:1017C00009A7A9A5BAA52D913D914D915C911397BB
:1017D00029833A834B835C831496CD90DD90ED9002
:1017E000FC90179718968D909D90AD90BC901B978C
:1017F0002D813E814F815885C501B4010E94392059
:101800002B013C0129853A854B855C85C701B601D2
:101810000E9439209B01AC01C301B2010E94C51E88
:101820002B013C012D853E854F85588969817A8140
:101830008B819C810E9439209B01AC01C301B201C4
:101840000E94C51EE9A5FAA56083718382839383F4
:1018500029893A894B895C89C501B4010E943920E4
:101860002B013C012D893E894F89588DC701B60156
:101870000E9439209B01AC01C301B2010E94C51E28
:101880002B013C01298D3A8D4B8D5C8D69817A81CC
:101890008B819C810E9439209B01AC01C301B20164
:1018A0000E94C51EA9A5BAA514966D937D938D932C
:1018B0009C9317972D8D3E8D4F8D58A1C501B40176
:1018C0000E9439204B015C0129A13AA14BA15CA1E6
:1018D000C701B6010E9439209B01AC01C501B401CA
:1018E0000E94C51E6B017C012DA13EA14FA158A5F0
:1018F00069817A818B819C810E9439209B01AC0196
:10190000C701B6010E94C51EE9A5FAA560877187C7
:10191000828793873C96FAA7E9A72E163F0609F01F
:1019200050CF6091990670919A0680919B06909194
:101930009C060E94361F6115710509F48CC4209124
:1019400000013091010140910201509103012D836A
:101950003E834F83588720910401309105014091C7
:1019600006015091070129873A874B875C872091B0
:1019700008013091090140910A0150910B012D8716
:101980003E874F87588B20910C0130910D0140917B
:101990000E0150910F01298B3A8B4B8B5C8B209160
:1019A00010013091110140911201509113012D8BC2
:1019B0003E8B4F8B588F209114013091150140912F
:1019C000160150911701298F3A8F4B8F5C8F209110
:1019D00018013091190140911A0150911B012D8F6E
:1019E0003E8F4F8F58A320911C0130911D014091D3
:1019F0001E0150911F0129A33AA34BA35CA3209180
:101A000020013091210140912201509123012DA309
:101A10003EA34FA358A72091240130912501409166
:101A200026015091270129A73AA74BA75CA720912F
:101A300028013091290140912A0150912B012DA7B5
:101A40003EA74FA758AB20912C0130912D0140911A
:101A50002E0150912F0129AB3AAB4BAB5CAB9B01F4
:101A6000220F331FA901460F571F440F551F440F64
:101A7000551FCA018356994F23969FAF8EAF239768
:101A8000D8012D913D914D915C91139729833A8313
:101A90004B835C831496CD90DD90ED90FC9017976E
:101AA00018968D909D90AD90BC901B972D813E8196
:101AB0004F815885C501B4010E9439202B013C019A
:101AC00029853A854B855C85C701B6010E9439207E
:101AD0009B01AC01C301B2010E94C51E2B013C0158
:101AE0002D853E854F85588969817A818B819C81BE
:101AF0000E9439209B01AC01C301B2010E94C51EA6
:101B000029893A894B895C890E94C51EF801608346
:101B10007183828393832D893E894F89588DC501B6
:101B2000B4010E9439202B013C01298D3A8D4B8D47
:101B30005C8DC701B6010E9439209B01AC01C30135
:101B4000B2010E94C51E2B013C012D8D3E8D4F8D93
:101B500058A169817A818B819C810E9439209B01E7
:101B6000AC01C301B2010E94C51E29A13AA14BA13B
:101B70005CA10E94C51ED80114966D937D938D9330
:101B80009C9317972DA13EA14FA158A5C501B40163
:101B90000E9439204B015C0129A53AA54BA55CA503
:101BA000C701B6010E9439209B01AC01C501B401F7
:101BB0000E94C51E6B017C012DA53EA54FA558A90D
:101BC00069817A818B819C810E9439209B01AC01C3
:101BD000C701B6010E94C51E29A93AA94BA95CA953
:101BE0000E94C51EF8016087718782879387045F12
:101BF0001F4F23962EAD3FAD23970217130709F011
:101C00003FCF6091990670919A0680919B069091C2
:101C10009C060E94361FCB01880F991FAC01460F0E
:101C2000571F5AA349A389E996E09E838D83A1E0BB
:101C3000B0E0BA8BA98B9D01241735070CF01EC2AA
:101C400020E030E040E852E4AD81BE8114966D9111
:101C50007D918D919C9117970E94C51E0E94361F01
:101C6000062FB72E862E972E20E030E040E052E47B
:101C7000ED81FE8160857185828593850E94C51EF8
:101C80000E94361F6B017C012B0120E030E040E810
:101C900052E4AD81BE8150966D917D918D919C9164
:101CA00053970E94C51E0E94361F162F6D87772EF0
:101CB00020E030E040E052E4ED81FE8164897589E6
:101CC000868997890E94C51E0E94361F69877A8778
:101CD0008B879C8729853A853A83298320E030E0E9
:101CE00040E852E4AD81BE815C966D917D918D910D
:101CF0009C915F970E94C51E0E94361F6D8BA72E78
:101D00006DA320E030E040E052E4ED81FE8160A16F
:101D100071A182A193A10E94C51E0E94361FAB0132
:101D200029893A89275F3F4F3A8B298BA981BA814C
:101D3000AC15BD050CF45AC26C157D052CF0A20142
:101D40002B018DA28D889A2CE981FA814E165F06AF
:101D500054F499818A815A824982492E582E8D8560
:101D60008D86882E972C1DA1C42EED852E2E211A2E
:101D700027FC6CC2BB24B394E12EF981FD8B2F2F7D
:101D80002C19898E782C7E1877FC4BC2AA24A39438
:101D90004D8E342D3C1922160CF04CC281E08987FF
:101DA00073160CF04EC266246394632F032E000C4E
:101DB000770B832F8595A981BA81A417B50709F4FC
:101DC0002EC2A22F022E000CBB0B922F9595FDA1C7
:101DD00000E09EA28DA239849E2EF9A7CDA6402FA9
:101DE00050E04A175B070CF083C0E9A51E1708F006
:101DF000E9C1F12F3110EBC10F5F920D492F50E077
:101E00004A175B070CF4B3C1921BC12C6110BAC115
:101E1000870D482F50E0461757070CF4A4C1831BC9
:101E2000D12C4DA5403408F04CC01F1708F4F12FF9
:101E3000FF2E59A55F1708F4F52EE11708F4E12FDE
:101E4000F9A5EF1708F4EF2FEE2EEF184F2D50E005
:101E5000FA01EE0DF11DFA87E987EF2B91F1FFE70B
:101E6000FF1578F1E985FA85E138F10514F0E0E82D
:101E7000F0E0EF19FDA5EF2EF12CF594E794F59421
:101E8000E794F594E794F694FE2CEE24F794E79407
:101E9000E40EF51EA70148565D4F5A874987F77033
:101EA000EE24E39401C0EE0CFA95EAF75FEF5E0FC3
:101EB000EE2339F0E985FA8540814E29419351504E
:101EC000D8F7311001C01B0D1C0D611003C059A5BE
:101ED0005A0D59A7E9A5ED0DE9A7FDA5FF5FFDA7DF
:101EE0004F2F50E0E981FA81E417F50709F077CF29
:101EF000E92D8DA09EA0F9A5CDA4198DED841E1904
:101F000017FD80C101E0FD8C2D89F21A1F150CF020
:101F100081C122242394AF2D0F2C000CBB0B9F2DCD
:101F20009595B7FD9EC020E040E050E0372CBF2CD7
:101F30007A2CAC2CEF1708F034C1F983E987211013
:101F400035C14A175B070CF0FCC0910F492F50E0D8
:101F50004A175B070CF4EDC09B19D12C4F2F50E0B2
:101F60008416950609F4F4C0611078C1830D482FDA
:101F700050E0461757070CF4EDC0831BC12C4FE30C
:101F80004A1508F459C05985E51708F4E987F9841A
:101F9000FF1508F4FF2EE980EE1608F4E983498165
:101FA0004F1708F4F983E980EF184F2D50E05A835A
:101FB00049834E0D511D5A874987452BE9F15FE74B
:101FC0005F15D0F149855A854138510514F040E834
:101FD00050E0E42EEF18E986EA2CF12CF594E79412
:101FE000F594E794F594E794F694FE2CEE24F79498
:101FF000E79449815A81E40EF51EA70148565D4FCA
:102000005A8349835A2D5770FF24F39401C0FF0C63
:102010005A95EAF759855150E984EE2069F0EE2E81
:10202000F987E981FA8140814F294193FA83E98355
:102030005150C8F7EE2DF985211001C0E00FED0DCC
:10204000611001C0F70DFC0DA3944A2D50E0441619
:1020500055063CF02F5F422F50E0A417B5070CF057
:1020600069CFED81FE81B496FE83ED8329893A899B
:1020700049A15AA1241735070CF4E2CD2BAD3CAD94
:10208000275F3F4F3CAF2BAF4DA95EA9475F5F4F26
:102090005EAB4DAB8DAD9EAD281739070CF423CA4E
:1020A00029AD3AAD2115310551F1F90184913196EF
:1020B000E491282F30E0253531050CF085E591E0DD
:1020C0002E2F277009F490E0E695E695E6959E0F91
:1020D000B1F0E9ADFAAD3296882389F0A3E4B6E019
:1020E0002FEF280F30E02F5F3F4F2E0F3F1F8491BF
:1020F0009C91892B8D933196E217F307C1F7CE5B44
:10210000DF4F0FB6F894DEBF0FBECDBFDF91CF918A
:102110001F910F91FF90EF90DF90CF90BF90AF9005
:102120009F908F907F906F905F904F903F902F90F7
:102130000895E00F2F5F422F50E04A175B070CF421
:1021400004CFD12C4F2F50E08416950609F00CCF08
:10215000C12C15CFF70D4F2F50E08416950609F0CE
:1021600005CFC12C0CCFE9A4EA0CE9A651CE1B0D7A
:10217000402F50E04A175B070CF43ECEC12C66207E
:1021800009F446CE870D482F50E0461757070CF448
:1021900074C0831B482F50E046175707D4F7DA2C3A
:1021A00040CEE983F987222009F4CBCE4A175B079A
:1021B00044F6910F492F50E04A175B0714F29B1920
:1021C000D02ECCCEFE2FE12F332009F415CE0F5F99
:1021D000920D492F50E04A175B0784F2921B492F5A
:1021E00050E04A175B07D4F7CB2C10CE6A177B0759
:1021F0000CF4B9CD812E0D877B2C49845A84DA8268
:10220000C9829DCD11950FEFFD8C2D89F21A1F15F6
:102210000CF47FCE9F2DF12E192F212C7CCEFDA109
:102220006CCE7194AA24AA944D8E342D3C1922169A
:102230000CF4B4CD822F222D282E198673160CF49F
:10224000B2CD832F372D782E612CAFCD2194BB24B6
:10225000BA94E12E92CD60E070E0DDCC830D482F82
:1022600050E0461757070CF473CF831B482F50E0FC
:1022700046175707D4F7C72C82CED12CD2CD1F9248
:102280000F920FB60F921124CF92DF92EF92FF922E
:102290000F931F932F933F934F935F936F937F936E
:1022A0008F939F93AF93BF93EF93FF93CF93DF935E
:1022B000CDB7DEB76D97DEBFCDBF1092E90080913C
:1022C000E80083FF9EC08091F1008D8B8091F1002A
:1022D0008E8B8091F1008F8B8091F100888F80919F
:1022E000F100898F8091F1008A8F8091F1008B8FAE
:1022F0008091F1008C8F289884E680934B0782EFC1
:102300008093E8009D8997FD4FC08EEF8093E80091
:10231000892F807609F051C08E894F89588D2F8979
:10232000D88C882309F494C0813009F449C18330E2
:1023300009F452C1853009F483C0863009F47BC1A9
:10234000873009F45BC0883009F471C1893009F025
:1023500086C0937009F052C081E08093E9008093B9
:10236000EB0091EC9093EC0096E39093ED0022E06B
:102370002093E9008093EB0020E82093EC009093F9
:10238000ED0023E02093E9008093EB0081E8809347
:10239000EC009093ED008EE78093EA001092EA0043
:1023A0008F8980934D075BC08091E80080FDB0CF9E
:1023B0008091E80080FFF8CFABCF8B8D9C8D109281
:1023C000E90010923C0710923B0790933A078093E4
:1023D0003907298D222309F446C0809143078111D2
:1023E00007C182E080933F0784E08093400710920A
:1023F00042071092410781E08093430781E2809376
:10240000EB006D960FB6F894DEBF0FBECDBFDF9127
:10241000CF91FF91EF91BF91AF919F918F917F915C
:102420006F915F914F913F912F911F910F91FF906D
:10243000EF90DF90CF900F900FBE0F901F901895E8
:102440008091E80080FFFCCF20682093E30007C064
:10245000903809F4AEC01092F1001092F1008EEFA6
:102460008093E800CECF3E892D89213A09F468C0D7
:10247000213221F6333209F450C13032C9F13232FF
:1024800071F78F8980939101EEEFFFE78591949129
:102490008B3F9C4D09F493C1E0E0F8E080E098E0C8
:1024A00040918A0150918B0160918C0170918D0156
:1024B000403B54406105710509F45DC120813181C3
:1024C0002737374761F6A89520916000286120934F
:1024D000600020913E07209360008E3F9A4009F4EF
:1024E000E2C28091FE0A9091FF0A91838083B7CF68
:1024F0008091E80082FFFCCF8091F10080938A01F7
:102500008091F10080938B018091F10080938C0188
:102510008091F10080938D018091F10080938E0174
:102520008091F10080938F018091F1008093900160
:10253000289884E680934B078BEF8093E8008FCF39
:10254000313209F05BCFEAE8F1E020E030E04EEF15
:1025500010C02F5F3F4F30933C0720933B073196CD
:10256000B1E0E139FB0709F47ACF80913907909106
:102570003A07281739076CF78091E8008570E1F376
:102580008091E80082FD6BCF80818093F1002091E3
:102590003B0730913C072F5F3F4FC9018F7399274D
:1025A000892BC9F64093E80020913B0730913C0706
:1025B000D0CF80913D078093F1001092F1004FCF72
:1025C00091114DCF4130510509F049CF80913D0720
:1025D0008D7F80933D0743CF911141CF413051050D
:1025E00009F03DCF80913D07826080933D0737CF52
:1025F00000914107109142070115110509F4FECE23
:10260000FE0175967F0107C0F8010085118501154F
:10261000110509F4F3CED801ED91FC910190F08100
:10262000E02DB701C8010995882371F318CF81E027
:102630008093F10014CF22E0D21609F4C5C08B8D2F
:102640009C8D1092E90010923C0710923B079093EA
:102650003A07809339078091430781116BC082E06C
:1026600080933F0784E080934007109242071092C6
:10267000410781E080934307F1E0DF1609F49BC135
:10268000F3E0DF12BBCE8F89882309F40FC28230BA
:1026900009F41AC2813009F410C2833009F0AECEB9
:1026A0008091430781110DC082E080933F0784E051
:1026B00080934007109242071092410781E0809377
:1026C00043070091410710914207CE0101967C011A
:1026D0006C010EC0D801ED91FC910680F781E02DD0
:1026E000B601C8010995C80ED11CF80100851185F5
:1026F0000115110579F7D6011C92F7010190002010
:10270000E9F73197BF016E197F0940E0C7010E94C8
:10271000DF1C882309F472CEA2CE8F89988DA0E0A9
:10272000B0E08093860190938701A0938801B093D5
:10273000890195CE009141071091420701151105BD
:1027400009F49ACFCE0145967C0107C0F8010085B7
:1027500011850115110509F48FCFD801ED91FC9178
:102760000480F581E02DB701C8010995009771F348
:102770000CF075CE43CE2091910120FD9FCE8E3F6F
:102780009A4051F080819181873747E7940721F083
:102790009093FF0A8093FE0A87E797E791838083EF
:1027A0008091600080933E079BE088E10FB6F8942B
:1027B000A895809360000FBE9093600050CEEEEF1E
:1027C000FAE08EEF9AE06CCE0B8D1C8D1092E90032
:1027D00010923C0710923B0710923A07109239076B
:1027E000D982EBE5FEE020E030E080E090E05EEFB3
:1027F0004491821793077CF0019690933C07809355
:102800003B0731964EE0ED39F40701F1209139078D
:1028100030913A07EDCF8091E8008570E1F3809127
:10282000E80082FD13C04093F10080913B07909136
:102830003C0701969C012F733327232BF1F650930D
:10284000E80080913B0790913C07D6CF80914307E9
:102850008111EEC082E080933F0784E080934007BF
:10286000109242071092410781E080934307CE0106
:1028700001967C01298189E0D701E82F1D92EA9514
:10288000E9F7898382E08A8381E08E8380EA888702
:102890008AEF898780913B0790913C0709969C833A
:1028A0008B832D831092E90010923C0710923B0716
:1028B00010933A0700933907F701AE01465F5F4F67
:1028C00020E030E09EEF0AC02F5F3F4F30933C077F
:1028D00020933B073196E417F50731F120173107B4
:1028E0009CF78091E8008570E1F38091E80082FD1B
:1028F0001BC080818093F10020913B0730913C0701
:102900002F5F3F4FB9016F737727672B41F4909387
:10291000E80020913B0730913C072F5F3F4F00912B
:10292000390710913A07D2CF82E08D8FEBE5FEE0B8
:102930004EEF0FC02F5F3F4F30933C0720933B0774
:1029400031968EE0ED39F80721F1009139071091A9
:102950003A079491201731076CF78091E800857051
:10296000E1F38091E80082FD14C09093F100209182
:102970003B0730913C072F5F3F4FC9018F73992769
:10298000892BD1F64093E80020913B0730913C071A
:10299000D1CF80914307811169C082E080933F07C6
:1029A00084E080934007109242071092410781E033
:1029B0008093430754CD61EA7EE0FB0144914423B8
:1029C00009F44DCD80913B0790913C07BEEF50E05C
:1029D000A4912091390730913A07821793076CF040
:1029E000019690933C0780933B0731969F01241BEF
:1029F000350B2617370761F732CD8091E8008570D7
:102A0000E1F38091E80082FD2ACDA093F10080914E
:102A10003B0790913C0701969C012F733327232B92
:102A200001F7B093E80080913B0790913C07D8CF25
:102A3000C0904107D0904207C114D104D1F1FE01EA
:102A400031967F0107C0F601C084D184C114D1043E
:102A500009F410CFD601ED91FC910280F381E02DB5
:102A6000B701C601099597FD05CFEDCF009141074C
:102A7000109142070115110541F4F1CCF8010085D0
:102A800011850115110509F4EACCD801ED91FC91ED
:102A90000280F381E02DBE01635E7F4FC80109957E
:102AA00097FDDDCCEBCF11821082D9CC6DE97EE0B1
:102AB00084CFDE0111967D01DDCE40E86BE083EB33
:102AC0009EE00E94DF1C25CE40E860E18FEB9EE097
:102AD0000E94DF1C1ECE6F927F929F92AF92BF9298
:102AE000CF92DF92EF92FF920F931F93CF93DF93DA
:102AF0003C0120919101211115C021E030E0F3014A
:102B00003383228380E090E0DF91CF911F910F917A
:102B1000FF90EF90DF90CF90BF90AF909F907F900D
:102B20006F90089520914D07222339F320914C078F
:102B300020FDAEC0FA0190E0BAEFA3E080E4A82E39
:102B40002AE3B22E309719F4992309F4A7C03FB7AE
:102B5000F894A093E9002091E80025FF34C020916B
:102B6000F2008A2D821B282F3FBF882369F1082F8E
:102B700010E0E017F1070CF42E2FFFB6F894A093A5
:102B8000E9003091E80035FF1CC0E21BF109EE249A
:102B9000EA94E20E222379F08B012E2DE80139917F
:102BA0008E013093F1002150C8F72E2D30E02F5FB9
:102BB0003F4F620F731F992309F45DC0B092E80084
:102BC00090E0FFBEBFCF3FBFB15009F496CF3FB7F3
:102BD000F894C0904E07D0904F07E0905007F090C7
:102BE000510726B5A89B07C02F3F29F0CFEFCC1A7D
:102BF000DC0AEC0AFC0A3FBFFE2CED2CDC2CCC24BA
:102C0000C20ED11CE11CF11CCC0CDD1CEE1CFF1C07
:102C1000CC0CDD1CEE1CFF1C9FB6F89400914E07F7
:102C200010914F07209150073091510786B5A89B0E
:102C300006C08F3F21F00F5F1F4F2F4F3F4F9FBEAA
:102C4000322F212F102F0027080F111D211D311D9C
:102C5000000F111F221F331F000F111F221F331FD0
:102C60000C191D092E093F09083E134021053105A5
:102C700008F068CFD1CF2091E80025FDA2CFB09217
:102C8000E80091E0309709F49CCF90E0FFBE5ACF66
:102C90002091E00022602093E0004CCF5D9824E674
:102CA00020935D07141615060CF027CFCA012CCF10
:102CB000CF93DF931F92CDB7DEB76983DC01ED912F
:102CC000FC910280F381E02D41E050E0BE016F5F96
:102CD0007F4F09950F90DF91CF91089583E0809306
:102CE000E9008091F200882319F08AE38093E800DC
:102CF00008952FB7F89483E08093E9008091E8006D
:102D000085FF07C09091F20080E4891B90E02FBFFF
:102D1000089580E090E02FBF0895CF93DF931F9236
:102D2000CDB7DEB7FC018485958597FD08C02FEFF0
:102D30003FEF358724870F90DF91CF9108958091E1
:102D40004D07811103C08FEF9FEFF5CF4FB7F89478
:102D500082E08093E9008091F20090E01816190655
:102D600014F481E090E00097E9F0FE0131969E01B5
:102D70002E5F3F4F94E6289890934B078091F10087
:102D80008193E217F307B9F78091F200811103C034
:102D90008BE68093E8004FBF898190E00F90DF9130
:102DA000CF910895892B81F74FBFCDCFCF93DF937C
:102DB0001F92CDB7DEB7DC011C968D919C911D97BB
:102DC00097FD04C00F90DF91CF91089580914D073A
:102DD00081110AC08FEF9FEF1D969C938E931C97D5
:102DE0000F90DF91CF9108954FB7F89482E08093D0
:102DF000E9008091F20090E01816190614F481E0C1
:102E000090E00097D9F0FE0131969E012E5F3F4F72
:102E100084E6289880934B079091F1009193E217F4
:102E2000F307B9F78091F200811103C08BE680931C
:102E3000E8004FBF9981892F90E0CECF892B91F781
:102E40004FBFC8CFFC018485958597FD0BC09FB708
:102E5000F89482E08093E9008091F2009FBF90E0B7
:102E6000019608959FB7F89482E08093E9008091DD
:102E7000F2009FBF90E008950F931F939FB7F894BF
:102E800040914E0750914F07609150077091510744
:102E900086B5A89B06C08F3F21F04F5F5F4F6F4FF5
:102EA0007F4F9FBF762F652F542F4427480F511D0A
:102EB000611D711D440F551F661F771F440F551F5D
:102EC000661F771F02E310E020E030E0FFB7F894C0
:102ED00080914E0790914F07A0915007B0915107F4
:102EE000E6B5A89B05C0EF3F19F00196A11DB11DE5
:102EF000FFBFBA2FA92F982F88278E0F911DA11DD4
:102F0000B11D880F991FAA1FBB1F880F991FAA1FE9
:102F1000BB1F841B950BA60BB70B883E9340A105E6
:102F2000B105A0F2015011092109310948515C4F46
:102F30006F4F7F4F011511052105310539F61F919E
:102F40000F9108950F931F939FB7F89440914E07E8
:102F500050914F07609150077091510786B5A89B1B
:102F600006C08F3F21F04F5F5F4F6F4F7F4F9FBF76
:102F7000762F652F542F4427480F511D611D711D59
:102F8000440F551F661F771F440F551F661F771F7D
:102F900008EC10E020E030E0FFB7F89480914E0795
:102FA00090914F07A0915007B0915107E6B5A89BAB
:102FB00005C0EF3F19F00196A11DB11DFFBFBA2F4B
:102FC000A92F982F88278E0F911DA11DB11D880F45
:102FD000991FAA1FBB1F880F991FAA1FBB1F841B05
:102FE000950BA60BB70B883E9340A105B105A0F247
:102FF000015011092109310948515C4F6F4F7F4F32
:10300000011511052105310539F61F910F9108951C
:103010001F920F920FB60F9211248F939F9380915E
:10302000E1009091E100937F9093E10083FF0FC056
:103030001092E90091E09093EB001092EC0092E383
:103040009093ED0010924D0798E09093F00082FF6E
:103050001AC093E09093E9009091F200992319F03F
:103060009AE39093E80090915D07992341F0909145
:103070005D07915090935D07911101C05D9A909109
:103080004B0791111CC084FD24C080FF11C08091AA
:10309000E2008E7E80618093E2008091E1008E7E6E
:1030A0008093E10080914C078E7E816080934C0775
:1030B0009F918F910F900FBE0F901F901895909138
:1030C0004B07915090934B079111DDCF289A84FFC5
:1030D000DCCF8091E2008E7E81608093E20080915F
:1030E000E1008F7E8093E10080914C078E7E8061AD
:1030F00080934C079F918F910F900FBE0F901F9060
:1031000018951F920F920FB60F9211242F933F9391
:103110008F939F93AF93BF9380915E0790915F07CA
:10312000A0916007B09161073091620723E0230FFF
:103130002D3768F126E8230F0296A11DB11D2093BB
:10314000620780935E0790935F07A0936007B09338
:10315000610780914E0790914F07A0915007B09161
:1031600051070196A11DB11D80934E0790934F0703
:10317000A0935007B0935107BF91AF919F918F914A
:103180003F912F910F900FBE0F901F9018950196B1
:10319000A11DB11DD4CF789484B5826084BD84B55F
:1031A000816084BD85B5826085BD85B5816085BD42
:1031B00080916E00816080936E00109281008091FA
:1031C0008100826080938100809181008160809382
:1031D00081008091800081608093800080919100C7
:1031E0008260809391008091910081608093910032
:1031F000809190008160809390008091C1008460F4
:103200008093C1008091C10082608093C100809151
:10321000C10081608093C1008091C3008160809370
:10322000C3008091C00082608093C0008091C20082
:1032300081608093C20080917A00846080937A00DC
:1032400080917A00826080937A0080917A00816018
:1032500080937A0080917A00806880937A0010923F
:103260004D0710923D0710924C078091D700816066
:103270008093D70080EA8093D80089B5806189BDAA
:1032800089B5826089BD09B400FEFDCF3FB7F894CF
:1032900080914E0790914F07A0915007B091510730
:1032A00026B5A89B05C02F3F19F00196A11DB11DA1
:1032B0003FBF4427582F692F7A2F420F511D611DA0
:1032C000711D440F551F661F771F440F551F661F42
:1032D000771F3FB7F89480914E0790914F07A091C8
:1032E0005007B091510726B5A89B05C02F3F19F094
:1032F0000196A11DB11D3FBFBA2FA92F982F882776
:10330000820F911DA11DB11D880F991FAA1FBB1F00
:10331000880F991FAA1FBB1F841B950BA60BB70B09
:10332000883E9340A105B105A0F28091D8008F7C22
:1033300080618093D8008091E000807F8093E000DE
:103340008091E1008E7E8093E1008DE08093E20029
:10335000559A209A81EC80937C0085B1806F85B965
:1033600084B1877E84B984B1876E84B95E9A5F9890
:103370008AB1806D8AB9769A6E9881B3806F81BB6D
:10338000899880B38D7080BB80E58CBD81E08DBD58
:1033900085E090E00E94BB095F9A85E090E00E9482
:1033A000BB095E985C98EAECF0E084918EBD000069
:1033B0000DB407FEFDCF319610E0E73DF107A9F708
:1033C0005C9A81E8809364008091650081608093BD
:1033D000650008E9A02E02E0B02EF50180E0A0E033
:1033E000B8E000800EBC8111012C1197A0FDFDCF2B
:1033F0000192B9F70DB48FB18095807F669B88608C
:103400001C9B846087FD3EC18FB18095807F669B49
:1034100088601C9B846082FF5EC02D988FB1809570
:10342000807F669B88601C9B84608478843869F008
:103430008FB18095807F669B88601C9B84608471BF
:10344000843131F10E94A217DFCF2D9A0E94A2177A
:103450002F9882E090E00E944B1E8F3F29F06FEF83
:1034600082E090E00E94531E84EF91E00E94BB092D
:103470002F9A8FB18095807F982F98606699982FAA
:10348000892F84601C99892F8478843891F3D0CF58
:103490002D9A0E94A2172E9882E090E00E944B1E67
:1034A000882329F060E082E090E00E94531E84EFC0
:1034B00091E00E94BB092E9A8FB18095807F982F52
:1034C00098606699982F892F84601C99892F847140
:1034D000843191F3B7CF2D9A82E090E00E944B1E89
:1034E0008111E7C03E983F980E943C178FB18095AC
:1034F000807F669BDCC01C9BF7CF8111F5CF89E2F2
:1035000080935907809164008E7F8093640080913E
:103510007A00806480937A0080917A0086FDFCCFE7
:103520006091780070917900CB01A0E0B0E0BC011F
:10353000552744273FB7F89480914E0790914F0745
:10354000A0915007B091510726B5A89B05C02F3F09
:1035500019F00196A11DB11D3FBFBA2FA92F982FB9
:103560008827820F911DA11DB11D880F991FAA1FC9
:10357000BB1F880F991FAA1FBB1F8C019D01040F41
:10358000151F261F371FC901B801012B022B032B62
:1035900011F00E94421E809164008160809364005B
:1035A00080E090E0A0E8BFE3809342019093430164
:1035B000A0934401B093450180935201909353012D
:1035C000A0935401B09355018093620190936301DD
:1035D000A0936401B093650123E02093830124E06C
:1035E00020934001209341018093000190930101B9
:1035F000A0930201B09303018093140190931501ED
:10360000A0931601B093170180933C0190933D0164
:10361000A0933E01B0933F01B9E54B2EB1E05B2E84
:1036200000E010E099249394DD24D39418010CC099
:1036300090915907191708F03FC08F5F891708F458
:103640008CC121143104D9F48FB7F89440915E07EE
:1036500050915F0760916007709161078FBF809103
:103660005A07142F181B812F90915B07992301F3A0
:1036700010935C0710925B072114310429F30E9418
:103680000000E2CF5C9885EA8EBD00000DB407FE15
:10369000FDCF5C9A2E982F982D98809164008062BF
:1036A0008093640081E083BF889513BEFCCF83B113
:1036B0001BCF3E9A3F9A18CFD0925B0740935A0790
:1036C00080915507909156070196909356078093E5
:1036D0005507C0905707C09258078FB18095807FDB
:1036E000669B88601C9B84608093570710919806A6
:1036F000113009F436C10CF41FC1123009F43CC179
:10370000133051F44BED51E066E971E087E092E04F
:103710000E94250AC0905807F2016490EAE5F1E0A2
:103720009491662D70E06D3771050CF0DEC0AB0131
:1037300081E0292F277009F480E09695969596955B
:10374000890F873008F4E5C086E0641B750BC0E87C
:10375000D0E0C619D109E2E07E2E780EF2E08F2E7D
:10376000EBE5F1E023E031E04FEF460D50E04F5F35
:103770005F4FF12E662009F4CFC087FCA8C0D901A5
:10378000A856BD4F8F01040F151F84919C91892B62
:103790008D933196E017F107C1F7240F351F8394FD
:1037A000F801E60FF71F2C0F3D1F7810E3CF1F2DF8
:1037B000E7EDF0E06490E8EDF0E09491C62DD0E004
:1037C000C332D1050CF08CC0AE0181E0292F2770E7
:1037D00009F480E0969596959695890F873008F4C0
:1037E00089C086E090E8E92EF12CE618F108C41BA8
:1037F000D50B22E0722E780E32E0832EE9EDF0E058
:103800004DE551E06FEF660D70E06F5F7F4F662012
:1038100009F484C087FC52C0DA01A856BD4F9F014D
:10382000260F371F84919C91892B8D9331962E17EB
:103830003F07C1F7460F571F8394F901EC0FFD1F97
:103840004E0D5F1D7810E3CF113009F458C01230CF
:103850000CF466C0123009F49AC0133049F4809118
:103860008401909185010396909385018093840152
:10387000C5FC07C08091570785FF03C01150109306
:103880009806C6FC07C08091570786FF03C01F5FDC
:103890001093980617FD5DC0143014F0109298062E
:1038A000F50180E098E000800EBC9110012C01979A
:1038B00080FDFDCF0192B9F70DB4C3CE9F01260F55
:1038C000371F84913196E217F307D9F7B3CF8F01F1
:1038D000040F151F84913196E017F107D9F75DCFDA
:1038E00043E250E063E2662E70CF4DE750E0ADE773
:1038F0006A2E1ECF811176CF113009F0A8CF8091AA
:1039000084019091850105969093850180938401AF
:10391000AFCF81111ACF4CCF8F0141CF9F018CCFF8
:103920001111A6CF80918401909185010796909303
:103930008501809384019CCF1111EECE49E05AE0BD
:103940006AE372E085E39AE00E94250AC090580776
:10395000E3CEF3E0F0939806A3CF93BE889513BE11
:1039600070CE4FE856E06EEF71E08BEB96E00E9470
:10397000250AC0905807D0CE47EB53E06AEC71E0BF
:1039800083EE93E00E94250AC0905807C5CE80912F
:103990008401909185010496909385018093840120
:1039A00067CFE2E5F7E086E992E0918380831582B4
:1039B000168280E187831482138211860895E09134
:1039C0003B07F0913C072091390730913A07E21705
:1039D000F307D4F42091E8002570E1F32091E8008A
:1039E00022FD1CC0262F220F2E5F2093F100209174
:1039F0003B0730913C072F5F3F4F2F733327232B1B
:103A000019F42EEF2093E80020913B0730913C07FA
:103A10002F5F3F4F30933C0720933B07E0913B07DC
:103A2000F0913C072091390730913A07E217F307EC
:103A3000C4F42091E8002570E1F32091E80022FD14
:103A40001AC023E02093F10020913B0730913C07FE
:103A50002F5F3F4F2F733327232B19F42EEF209323
:103A6000E80020913B0730913C072F5F3F4F309398
:103A70003C0720933B07582FFC017EEF8E2F851BC0
:103A8000861708F064C047FF02C0949101C090817E
:103A9000A0913B07B0913C072091390730913A073C
:103AA000A217B307ACF48091E8008570E1F3809130
:103AB000E80082FD18C09093F10080913B0790913F
:103AC0003C0701968F739927892B11F47093E800B6
:103AD00080913B0790913C07019690933C0780931F
:103AE0003B0781E001C080E0A0913B07B0913C071B
:103AF0002091390730913A07A217B307B4F4909197
:103B0000E8009570E1F39091E80092FD1AC01092E0
:103B1000F10020913B0730913C072F5F3F4F2F73FF
:103B20003327232B11F47093E80020913B07309149
:103B30003C072F5F3F4F30933C0720933B0791E0BA
:103B400001C090E089233196811198CF089581E0DA
:103B500008958F929F92AF92BF92CF92DF92EF9291
:103B6000FF92CF93DF93EC01688179818A819B81F9
:103B7000611571058105910521F464E279ED8BE50C
:103B800097E02DE133EF41E050E00E94611E4901D2
:103B90005A019B01AC01A7EAB1E40E94801E6B01AF
:103BA0007C01ACEEB4EFA50194010E948E1EDC01F5
:103BB000CB018C0D9D1DAE1DBF1DB7FF03C001972E
:103BC000A109B04888839983AA83BB83BC01CD0136
:103BD0009F77DF91CF91FF90EF90DF90CF90BF90D4
:103BE000AF909F908F9008958F929F92AF92BF92C7
:103BF000CF92DF92EF92FF926091920170919301C8
:103C0000809194019091950161157105810591054F
:103C100021F464E279ED8BE597E02DE133EF41E0AB
:103C200050E00E94611E49015A019B01AC01A7EAC4
:103C3000B1E40E94801E6B017C01ACEEB4EFA501E3
:103C400094010E948E1EDC01CB018C0D9D1DAE1DCA
:103C5000BF1DB7FF03C00197A109B048809392012F
:103C600090939301A0939401B0939501BC01CD0171
:103C70009F77FF90EF90DF90CF90BF90AF909F9095
:103C80008F900895609392017093930180939401B3
:103C9000909395010895F999FECF92BD81BDF89A50
:103CA000992780B50895262FF999FECF1FBA92BDA6
:103CB00081BD20BD0FB6F894FA9AF99A0FBE01960D
:103CC0000895052E97FB1EF400940E94781E57FD60
:103CD00007D00E94931E07FC03D04EF40C94781E6C
:103CE00050954095309521953F4F4F4F5F4F089528
:103CF00090958095709561957F4F8F4F9F4F089558
:103D00000E94B51EA59F900DB49F900DA49F800D9D
:103D1000911D11240895B7FF0C94801E0E94801EEF
:103D2000821B930B0895A1E21A2EAA1BBB1BFD0157
:103D30000DC0AA1FBB1FEE1FFF1FA217B307E4078A
:103D4000F50720F0A21BB30BE40BF50B661F771FE2
:103D5000881F991F1A9469F76095709580959095C2
:103D60009B01AC01BD01CF010895A29FB001B39F9B
:103D7000C001A39F700D811D1124911DB29F700D74
:103D8000811D1124911D08955058BB27AA270E9418
:103D9000DC1E0C94EB1F0E94B21F38F00E94B91F6A
:103DA00020F039F49F3F19F426F40C94AF1F0EF461
:103DB000E095E7FB0C94A91FE92F0E94102058F30F
:103DC000BA17620773078407950720F079F4A6F500
:103DD0000C9432200EF4E0950B2EBA2FA02D0B017F
:103DE000B90190010C01CA01A0011124FF27591B40
:103DF00099F0593F50F4503E68F11A16F040A22F46
:103E0000232F342F4427585FF3CF469537952795B6
:103E1000A795F0405395C9F77EF41F16BA0B620BB5
:103E2000730B840BBAF09150A1F0FF0FBB1F661FFC
:103E3000771F881FC2F70EC0BA0F621F731F841F3F
:103E400048F4879577956795B795F7959E3F08F065
:103E5000B0CF9395880F08F09927EE0F9795879527
:103E600008950E94C21FE3950C94FC1F0E943D1F01
:103E70006894B1110C94332008950E94182088F0A2
:103E80009F5798F0B92F9927B751B0F0E1F0660F1E
:103E9000771F881F991F1AF0BA95C9F714C0B1305F
:103EA00091F00E943220B1E008950C943220672FE7
:103EB000782F8827B85F39F0B93FCCF3869577958E
:103EC0006795B395D9F73EF4909580957095619577
:103ED0007F4F8F4F9F4F0895E89409C097FB3EF4A2
:103EE00090958095709561957F4F8F4F9F4F992347
:103EF000A9F0F92F96E9BB279395F69587957795C5
:103F00006795B795F111F8CFFAF4BB0F11F460FF84
:103F10001BC06F5F7F4F8F4F9F4F16C0882311F0DC
:103F200096E911C0772321F09EE8872F762F05C0F0
:103F3000662371F096E8862F70E060E02AF09A958B
:103F4000660F771F881FDAF7880F9695879597F980
:103F5000089597F99F6780E870E060E008959FEF0B
:103F600080EC089500240A94161617061806090610
:103F7000089500240A9412161306140605060895DF
:103F80000C94AF1F0E941820D8F3E894E0E0BB2700
:103F90009F57F0F02AED3FE049EC06C0EE0FBB0F53
:103FA000661F771F881F28F0B23A620773078407DD
:103FB00028F0B25A620B730B840BE3959A9572F753
:103FC000803830F49A95BB0F661F771F881FD2F791
:103FD00090480C94B020092E0394000C11F488230F
:103FE00052F0BB0F40F4BF2B11F460FF04C06F5FB1
:103FF0007F4F8F4F9F4F0895EF93E0FF07C0A2EAD6
:104000002AED3FE049EC5FEB0E94DC1E0E94EB1FB3
:104010000F90039401FC9058ECEAF0E00C94BC2063
:1040200057FD9058440F551F59F05F3F71F0479569
:10403000880F97FB991F61F09F3F79F0879508954E
:10404000121613061406551FF2CF4695F1DF08C06D
:10405000161617061806991FF1CF8695710561058A
:1040600008940895E894BB2766277727CB0197F932
:1040700008950E944C200C94EB1F0E94B21F38F050
:104080000E94B91F20F0952311F00C94A91F0C94E5
:10409000AF1F11240C9433200E94102070F3959FC1
:1040A000C1F3950F50E0551F629FF001729FBB272F
:1040B000F00DB11D639FAA27F00DB11DAA1F649FCB
:1040C0006627B00DA11D661F829F2227B00DA11D7E
:1040D000621F739FB00DA11D621F839FA00D611D04
:1040E000221F749F3327A00D611D231F849F600D25
:1040F000211D822F762F6A2F11249F5750409AF04E
:10410000F1F088234AF0EE0FFF1FBB1F661F771FD9
:10411000881F91505040A9F79E3F510580F00C94A4
:10412000A91F0C9433205F3FE4F3983ED4F38695A7
:1041300077956795B795F795E7959F5FC1F7FE2B44
:10414000880F911D9695879597F908959F930E94E2
:10415000C21F0F9007FCEE5F0C94FC1F9F3F31F0D5
:10416000915020F4879577956795B795880F911DA5
:104170009695879597F908959F938F937F936F9363
:10418000FF93EF939B01AC010E943920EF91FF91C7
:104190000E94D0202F913F914F915F910C94392034
:1041A000DF93CF931F930F93FF92EF92DF927B01E8
:1041B0008C01689406C0DA2EEF010E944C20FE01AB
:1041C000E894A5912591359145915591A6F3EF017C
:1041D0000E94DC1EFE019701A801DA9469F7DF90C6
:1041E000EF90FF900F911F91CF91DF91089597FB72
:1041F000072E16F4009407D077FD09D00E940B21FA
:1042000007FC05D03EF4909581959F4F08957095D9
:1042100061957F4F0895AA1BBB1B51E107C0AA1FE0
:10422000BB1FA617B70710F0A61BB70B881F991F57
:104230005A95A9F780959095BC01CD010895EE0F90
:10424000FF1F0590F491E02D099481E090E0F8942F
:084250000C942A21F894FFCF21
:104258000000000000000000000000000000000056
:104268000000000000000000000000000000000046
:104278000000000000000000000000000000000036
:104288000000000000000000000000000000000026
:104298000301000000000000000000000000000012
:1042A8000000000000000000000000000000000006
:1042B80000000000000000000000000000000000F6
:1042C80000000000000000000000000000000000E6
:1042D80000000301B400FFFFFFFF00E10000000041
:1042E8000000010000000000104300000040000032
:1042F800C0400000804100008040000020410000D4
:1043080000C00000E040000020C1000080C10000A3
:1043180000C10000C0C00000A0C00000644300004D
:10432800E0400000C0C00000804100008040000064
:10433800604100000041000080C1000040C1000051
:10434800C04000004040000040C00000E0C0000045
:104358008D430000E0400000C0C000008040000025
:1043680000C00000A0C000008041000060410000C3
:104378000041000040C1000080C10000C0400000B2
:104388004040000040C00000E0C00000B143000011
:10439800E040000000C00000A0C00000C0C0000055
:1043A80000C1000080400000004000008041000083
:1043B80080C10000008000006041000070C1000062
:1043C80040C00000C04000000041000040C10000A3
:1043D80060C1000040400000E0C000000000000094
:0843E800E04000000000DE07C8
:00000001FF
