:100000000C94BB0C0C94E30C0C94E30C0C94E30CDC
:100010000C94E30C0C94E30C0C94E30C0C94E30CA4
:100020000C94E30C0C94E30C0C94FD190C946C1AD6
:100030000C94E30C0C94E30C0C94E30C0C94E30C84
:100040000C94E30C0C94E30C0C94E30C0C94E30C74
:100050000C94E30C0C94E30C0C94E30C0C949E1C99
:100060000C94E30C0C94E30C0C94E30C0C94E30C54
:100070000C94E30C0C94E30C0C94E30C0C94E30C44
:100080000C94E30C0C94E30C0C94E30C0C94E30C34
:100090000C94E30C0C94E30C0C94E30C0C94E30C24
:1000A0000C94E30C0C94E30C0C94E30C05A84CCDDD
:1000B000B2D44EB93836A9020C50B9918688083CA2
:1000C000A6AAAA2ABE000000803F01010101010189
:1000D000010101010101010101010202020201010C
:1000E0000101010101010101010101010101010100
:1000F00001010202020201010101010101010101EC
:1001000001010101010101010101010101010101DF
:1001100001010101010101010101010101010101CF
:1001200001010101010101010101010101010101BF
:1001300001020101010101010101010101010101AE
:10014000010101010101010101010101010101019F
:10015000010101010101020101010101010101018E
:10016000010101010101010101010101010101017F
:10017000010101010101010101010101010101016F
:10018000010101010101010101010101010101015F
:10019000010101010101010101010101010101014F
:1001A000010101010101010101010101010101013F
:1001B000010101010101010101010101010101012F
:1001C0000000010101010101010101010101010121
:1001D000010101010101010101010101010101010F
:1001E00001010101010101010101010101010101FF
:1001F00001010101010101010101010101010101EF
:1002000001010101010100010101010101010101DF
:1002100001010101010101010101010101010101CE
:1002200001010101010101010101010101010101BE
:1002300001010101010101010101010101010101AE
:100240000101010100000101010101010101040896
:100250001E21211E20213F20223129262125253F34
:10026000080C0A3F2725253D3F2929392111090777
:100270003B2D2D3B2725253FD5F08D14A1C881CFDF
:10028000D9F1AF2000804000000000000000000015
:10029000000000000000000000000000000000005E
:1002A000000000000000000000000000000000004E
:1002B000000000000000000000000000000000003E
:1002C000000000000000000000000000000000002E
:1002D000000000000000000000000000000000001E
:1002E000000000000000000000000000000000000E
:1002F00000000000000000000000000000000000FE
:1003000000000000000000000000000000000000ED
:1003100000000000000000000000000000000000DD
:1003200000000000000000000000000000000000CD
:1003300000000000000000000000000000000000BD
:1003400000000000000000000000000000000000AD
:10035000000000000000000000000000000000009D
:10036000000000000000000000000000000000008D
:10037000000000000000000000000000000000007D
:10038000000000000000000000000000000000006D
:10039000000000000000000000000000000000005D
:1003A000000000000000000000000000000000004D
:1003B000000000000000000000000000000000003D
:1003C000000000000000000000000000000000002D
:1003D000000000000000000000000000000000001D
:1003E000000000000000000000000000000000000D
:1003F00000000000000000000000000000000000FD
:1004000000000000000000000000000000000000EC
:1004100000000000000000000000000000000000DC
:10042000F8FC6C6CECEC00F0FCBC0C0CFCF800F084
:10043000FCBC0C0CFCF800E0F07030303000E0F058
:1004400070303030000000000080E0F03CFCFC0028
:100450000080808080E0F0703030300030F0E000CC
:10046000E0F03000FEFE00F4F400F0F03030F0F088
:1004700000E0F0703030FEFE00C0F0F0B0B0F0E010
:1004800000F0F0301000000000000000000000004C
:10049000000000000000000000000000000000005C
:1004A00007070606070700010707060607030001FE
:1004B00007070606070300010707060606000107EF
:1004C0000706060600000000000101010107070100
:1004D00000000000000107070606060020313F3F2C
:1004E0000F010000070700070700070700000707C4
:1004F00000030707060607070003070606060606A9
:1005000000070700000000000000000000000000DD
:1005100000000000000000000000000000000000DB
:1005200000000000000000000000000000000000CB
:1005300000000000000000000000000000000000BB
:1005400000000000000000000000000000000000AB
:10055000000000000000000000000000000000009B
:10056000000000000000000000000000000000008B
:10057000000000000000000000000000000000007B
:10058000000000000000000000000000000000006B
:10059000000000000000000000000000000000005B
:1005A000000000000000000000000000000000004B
:1005B000000000000000000000000000000000003B
:1005C000000000000000000000000000000000002B
:1005D000000000000000000000000000000000001B
:1005E000000000000000000000000000000000000B
:1005F00000000000000000000000000000000000FB
:1006000000000000000000000000000000000000EA
:1006100000000000000000000000000000000000DA
:1006200000000000000000000000000000000000CA
:1006300000000000000000000000000000000000BA
:1006400000000000000000000000000000000000AA
:10065000000000000000000000000000000000009A
:10066000000000000000000000000000000000008A
:10067000000000000000000000000000000000007A
:1006800000000000000000804000000000000000AA
:10069000000000000000000000000000000000005A
:1006A000000000000000000000000000000000004A
:1006B000000000000000000000000000000000003A
:1006C000000000000000000000000000000000002A
:1006D000000000000000000000000000000000001A
:1006E000000000000000000000000000000000000A
:1006F00000000000000000000000000000000000FA
:1007000000000000000000000000000000000000E9
:1007100000000000000000000000000000000000D9
:1007200000000000000000000000000000000000C9
:1007300000000000000000000000000000000000B9
:100740000000000000000000000000000080000029
:100750008000000000000000000000008080000019
:100760000000000000000000000000000000000089
:1007700000000000000000000000800000000000F9
:100780000000000000000000000000000000000069
:10079000000000000000000000000000417F7F40DA
:1007A000400040403C7F4F7B79790000007F7F40D4
:1007B000404040000000181C177F7F100010100000
:1007C000387C444C44000CBCF8F83C0C007F000022
:1007D0007C00007C0C0C7C78007C44447F7F007C97
:1007E00054545C5C007C040C00000101017F7F011B
:1007F0007D40407C7C007C040C007F44646C7C0069
:100800007C44447C40000000000000000000000028
:1008100000000000000000000000000000000000D8
:1008200000000000000000000000000000000000C8
:1008300000000000000000000000000000000000B8
:1008400000000000000001010100000000000000A5
:100850000000000000000000000000000000000098
:100860000000000000000000000000000000000088
:100870000000000000000000000000000000000078
:100880000000000000000000000000000000000068
:100890000000000000000000000000000000000058
:1008A0000000000000000000000000000000000048
:1008B0000000000000000000000000000000000038
:1008C0000000000000000000000000000000000028
:1008D0000000000000000000000000000000000018
:1008E0000000000000000000000000000000000008
:1008F00000000000000000000000000000000000F8
:1009000000000000000000000000000000000000E7
:1009100000000000000000000000000062636B7F28
:100920007F7F0040400141717F0F030000007F7F07
:1009300040404040000000071F7C707C1F033C7F4C
:100940004F7B7979000000000000000000000000EB
:100950000000000000000000000000000000000097
:100960000000000000000000000000000000000087
:100970000000000000000000000000000000000077
:100980000000000000000000000000000000000067
:100990000000000000000000000000000000000057
:1009A0000000000000000000000000000000000047
:1009B0000000000000000000000000000000000037
:1009C0000000000000000000000000000000000027
:1009D0000000000000000000000000000000000017
:1009E0000000000000000000000000000000000007
:1009F00000000000000000000000000000000000F7
:100A000000000000000000000000000000000000E6
:100A100000000000000000000000000000000000D6
:100A200000000000000000000000000000000000C6
:100A300000000000000000000000000000000000B6
:100A400000000000000000000000000000000000A6
:100A50000000000000000000000000000000000096
:100A60000000000000000000000000000000000086
:100A70000000000000000000000000000000000076
:100A80000000000000000000002020000000000026
:100A90000000000000000000000000FEFCF8F0E094
:100AA0008080000000000000000000FEFFFFFFFF4C
:100AB000FFFFFFFFFFFFFFFFFFFFFFFFFFFFFFFF46
:100AC000FFFFFFFEFCF8F0E0C08000FFFFFFFFFF2C
:100AD000FFFFFFFFFFFFFFFFFFFFFFFFFFFFFFFF26
:100AE000FFFFFF7F7F3F0F070703000000000000AC
:100AF00000000000000000000000007F3F3F1F07D3
:100B0000030300000000000000000020200000009F
:100B1000000000000000C0C0E0F8FCFCFE00000087
:100B20000000000000000000000000000000C0E025
:100B3000E0F0FCFEFEFFFFFFFFFFFFFFFFFFFFFFF8
:100B4000FFFFFFFFFFFFFFFFFFFFFFFFFF000103AE
:100B5000070F1F3F7FFFFFFFFFFFFFFFFFFFFFFFAD
:100B6000FFFFFFFFFFFFFFFFFFFFFFFF7F00000012
:100B70000000000000000101070F1F3F7F00000080
:100B8000000000000000000000000000002A070034
:100B90000000000000000000000000203C0E100CCF
:100BA0003E003C241C00043C0438241C00000000CF
:100BB0000000000000000000000102030104050124
:100BC00002050106070104050106030106030104ED
:100BD00005010203010408010209010208010604DB
:100BE00001040501060701040501060401040801CA
:100BF000060A0104080106040106090104080106A9
:100C00000A010408010609010209010B0C0106048E
:100C1000010B04010604010B0C01060A0602030184
:100C20000603010203010603060203060603060289
:100C30000906040806020806060A0604080606094C
:100C4000060609060408060209060405060203064C
:100C5000020506060C06040806060A06040806062F
:100C60000C06040506060706040506060C06060320
:100C70000604050606070604050606030602030623
:100C80000B0406060C060B0C06060C060B040606E7
:100C900007060609010209010609010209060609FB
:100CA00006020901040806040501040506040501FD
:100CB0000408060408060B0C010B04060B04010BC8
:100CC0000C010B04060B0C06060901060A06060AAF
:100CD00001060A06060901060906060701060306BB
:100CE00006030106030606070106070602080104BB
:100CF00008010208010408060208060408010209A6
:100D00000602080102080602080102090602090695
:100D10000405010205010405010205060405060299
:100D20000501020506020301020306020301020592
:100D3000060205060B0C06060C06060A06060A0144
:100D4000060A060B0C060B0C01060A010B0C010629
:100D500004010607010B04060607010B0401060740
:100D6000010B04060607060B042A07003E2A3E0074
:100D70003C203C003C04003C043C003A003C043C69
:100D8000004C547C00003C0E100C3E0038243C20EB
:100D9000003C043C000102030104050104030104BA
:100DA0000501020301040601040601020301040215
:100DB000010207010402010203010402010207010A
:100DC00004080104080102070104070104050109E0
:100DD00006010905010906010405010406010402D2
:100DE0000109080109020109080104020104080AB5
:100DF00009020104020109020104020A09020A04AB
:100E0000020A04080A09020A09080A09020A04086F
:100E10000A04020A04080109080104080109080A71
:100E200004080A09080109080A09020109020A0955
:100E3000020109080A09080B04020B09080B090240
:100E40000B09080B04020B04080C09020B04020B2B
:100E500009020B04020C09020C04020C02070C0428
:100E6000080C04070C04080C02070C04020C020313
:100E70000C04020C02070C04020C02030C04060C06
:100E800004060C02030C04050C04050C02030C04FC
:100E9000030C04080C09020C09080C09020C0408D4
:100EA0000C04020C04060C09050C09060C09050CBF
:100EB00004060C04050C04080B09080B04080B09B4
:100EC000080C04080C09080B09080C09020B09029C
:100ED0000C09020B09080C09080A0905010405019F
:100EE00009050104050A09050A04050A04060A0998
:100EF000050A09060A09050A04060A04050A040681
:100F00000109060104060109060A04060A09060188
:100F100009060A09050109050A09050109060A0960
:100F2000060B04050B09060B09050B09060B040546
:100F30000B04060C09050B04050B09050B04050C35
:100F400009050C04050C04060B09060B04060B0925
:100F5000060C04060C09060B09060C09050B09050D
:100F60000C09050B09060C09060C04030102030118
:100F700004030102030C04030C02030C0207010228
:100F8000030C02030102030C02070102070C020713
:100F90000104070102070104070C02070C04070102
:100FA00004070A04080104080A04080104070B04E2
:100FB000080C04070B04080104070B04080C0407C1
:100FC0000C04080A04080B04020A04020B04020AB7
:100FD00004080B04080A04020A04060104060A04B1
:100FE000060A04020B04060A0402010406010402B4
:100FF0000B04020B04060A04020B04060B04020C89
:1010000004060C04060B04020C04020A04060B047A
:10101000050A04050B04050A04060B04060A040568
:101020000104030104050104030A04050C04030B75
:1010300004050C04030A04050C04030B04050C044A
:10104000052A07000000000000000000000000006A
:1010500000203E2A3E0018141C507E0018141C105C
:10106000000000000000000000000000000102037A
:101070000104050104030104050102030102050145
:10108000040601030701030601040101030701042B
:101090000601030801040301030201040501030220
:1010A000010403010307010401010308010308010E
:1010B0000401010403010302010405010309010401
:1010C0000A01030901040501030901040A01030AD5
:1010D000010307010B08010B07010B0801030701BE
:1010E0000308010302010B09010B02010B090103B3
:1010F000020103090C0B02010302010B02010302AE
:101100000C0B020C03020C03090C0B020C0B090C58
:101110000B020C03090C03020C0309010B09010368
:1011200009010B090C03090C0B09010B090C0B023B
:10113000010B020C0B02010B090C0B090D03020D34
:101140000B090D0B020D0B090D03020D03090E0B0C
:10115000020D03020D0B020D03020E0B020E030221
:101160000E02030E04050E02050E04050E02030E08
:1011700004010E040A0E03090E030A0E04050E03F1
:10118000090E040A0E03020E04050E03080E0401E4
:101190000E03080E04050E03090E04050E03020ECD
:1011A00003080E04010E03070E04060E03070E04C7
:1011B000010E03070E04060E03060E03090E0B02B2
:1011C0000E0B090E0B020E03090E03020E03080E8E
:1011D0000B070E0B080E0B070E03080E03070E037A
:1011E000090D0B090D03090D0B090E03090E0B095F
:1011F0000D0B090E0B020D0B020E0B020D0B090E4F
:101200000B090C0B07010307010B070103070C0B6C
:10121000070C03070C03080C0B070C0B080C0B073F
:101220000C03080C03070C0308010B080103080159
:101230000B080C03080C0B08010B080C0B07010B27
:10124000070C0B07010B080C0B080D03070D0B080F
:101250000D0B070D0B080D03070D03080E0B070DF3
:1012600003070D0B070D03070E0B070E03070E03F5
:10127000080D0B080D03080D0B080E03080E0B08D4
:101280000D0B080E0B070D0B070E0B070D0B080EB1
:101290000B080E03060104060103060104060E03F3
:1012A000060E04060E02050102030E0203010205EA
:1012B0000102030E02050E040A01030A01040A01D9
:1012C000030A0E040A0E030A01030A0C03090103B0
:1012D000090C030901030A0D03090E030A0D030992
:1012E00001030A0D03090E030A0E03090C03090D7D
:1012F00003020C03020D03020C03090D03090C0386
:10130000020C03080103080C03080C03020D030878
:101310000C03020103080103020D03020D03080C74
:1013200003020D03080D03020E03080E03080D034C
:10133000020E03020C03080D03070C03070D03073D
:101340000C03080D03080C03070103060103070142
:1013500003060C03070E03060D03070E03060C031A
:10136000070E03060D03070E03070E020501040511
:101370000102050104050E02050E04050E040A0112
:1013800004050E04050104050E040A01040A0E04F6
:10139000010104060E04060104060E040101040105
:1013A0000104030104010102030E0401010203010F
:1013B00004010102030E04010E02032A07000000CB
:1013C0000000382422320E043C100C301C2C003C4F
:1013D0000404003F1028243C003C043C0038242432
:1013E0003F000000000000010203010403010205A8
:1013F00001040601020301020601020301040601C1
:101400000403010708010206010709010708010A90
:101410000801020B01070801020B01020101070884
:10142000010201010206010203010709010206018E
:10143000020501070901020301020C01070901026B
:101440000501070901020C010D09010E0B01060F30
:10145000010E0F01070801060401060F0106040131
:10146000070901061001060B01060F010E0B01070B
:101470000801060F01060B01060401070801070910
:10148000010610010709010611010604010E1001F1
:101490000E04010E10010604010610120E040106CE
:1014A00004010E04010604120E04120604120610B2
:1014B000120E04120E10120E04120610120604125E
:1014C0000610010E10010610010E10120610120E69
:1014D00010010E10120E04010E04120E04010E1063
:1014E000120E100D06040D0E100D0E040D0E100D33
:1014F00006040D0610130E040D06040D0E040D0651
:1015000004130E041306041307091306101306111F
:10151000130610130205130604130610130709130C
:10152000020C130610130E04130E10130E041306F0
:101530001013060413060F130E0B130E0F13060FD2
:1015400013070B130E0B13060413020313060F13DA
:10155000020113060F13020313060F1302011307F0
:101560000B13061013020C13020513020C130709C8
:10157000130D0913040613020313040313020313C8
:1015800004061302011306041302051302031302D7
:101590000B13070B13020113140813070B13020B91
:1015A00013070B1314081307081306100D0E100D64
:1015B00006100D0E10130610130E100D0E10130E44
:1015C000040D0E04130E040D0E10130E1013060B53
:1015D0000D060B0D0E0B130E0B13060B0D0E0B133E
:1015E000060B130E0B13070B120E0B01060B010E4D
:1015F0000B12060B01060B120E0B12060F120E0B2E
:10160000120E0F120E0B12060F12060B12060F010E
:101610000E0F01060F010E0F12060F120E0F010E14
:101620000F120E0B010E0B120E0B010E0F120E0FEE
:101630000D060B0D0E0F0D0E0B0D0E0F0D060B0DE7
:10164000060F13060F0D0E0F0D060F0D0E0F1306CE
:101650000F130E0F0D0E0F130E0B0D0E0B130E0BA3
:101660000D0E0F130E0F130708010A0801070801DA
:101670000A08130708131408130D09010709010DBF
:1016800009010709130D09130709010611120610B4
:101690000106101206100106110D06101306110D99
:1016A00006100106110D061013061113061012067E
:1016B000100D06041206040D06041206100D061085
:1016C00012060412060F01060F12060F1206040D71
:1016D000060F12060401060F0106040D06040D068E
:1016E0000F1206040D060F0D060413060F13060F46
:1016F0000D060413060412060F0D060B12060B0D41
:10170000060B12060F0D060F130403010406130443
:101710000601040301040613040313040301020376
:1017200001040301020313040313020313020C0157
:10173000020513020501020513020C01020C010748
:101740000815070813070813020101020B13020B07
:1017500001020B130201010201130D0901020C1316
:10176000020C01020C130D09010D091304031302ED
:10177000031302051302050102050104031302030A
:1017800001040301020301040313020313040313FE
:1017900002050104031304030107091306110106DE
:1017A00011130611010709130709010206010201BD
:1017B00001040613020101040601020101040613DB
:1017C000020113040613070813060B13070B010687
:1017D0000B15070801070812060B15070801060B71
:1017E0000D060B15070812060B1507080D060B133F
:1017F000060B13070815070813060B13020B010A43
:1018000008131408010A0813020B01020B40180008
:10181000000000000000000000000000000000C008
:10182000C0C0C0C080808000000000000000000038
:1018300000000000000000000040C0C000000000E8
:101840000000000000000000000000000000000098
:101850000000000000606464646464240400E0FE2E
:101860001F1918F8EC070380FE3E0280C0FE1E021E
:1018700080983C32F2E20600C0FC3F0702C2FE1E26
:101880000000606464646464040000000000000000
:101890000000000000000000000000000001010145
:1018A000010001010101000001010101010101002C
:1018B000010101010100000101010100010101011B
:1018C0000000000000000000000000000000001BFD
:1018D0000806FEF87C0E3EF0FC3E0200FBFB00FC1E
:1018E000FC0C04FCF80078FC8484FFFF14080F3C17
:1018F0003C071C3C0F00700E003F083424003CA441
:10190000A4FC080B0002020200000904000001020E
:101910000200000524001001052401010104240235
:101920000605240600010705810310004009040193
:1019300000020A00000007050202400000070583BC
:10194000024000000403090412010002EF020140FA
:101950004123378000010102030141726475696E01
:101960006F204C4C430041726475696E6F204D6965
:1019700063726F00E81C11241FBECFEFDAE0DEBFF8
:10198000CDBF13E0A0E0B1E0E8E9FDE402C00590BE
:101990000D92A831B107D9F728E0A8E1B3E001C062
:1019A0001D92AF35B207E1F71CE0CBEBDCE004C0E1
:1019B0002197FE010E94C426CA3BD107C9F70E94A5
:1019C0000A1D0C94CA260C94000090915A08982382
:1019D00029F490915908982381E009F480E0089552
:1019E000462F477066956695669590E8699FB001A9
:1019F00011246F597C4F860F972F911DFC01808118
:101A000090E021E030E0042E02C0220F331F0A9440
:101A1000E2F78223932302C0959587954A95E2F7D2
:101A20000895E1E6F3E0A0E0B8E000800EBC81118B
:101A3000012C1197A0FDFDCF0192B9F70DB40895C7
:101A4000FC0180916003882311F13FB7F89482E094
:101A50008093E9002091F200822F90E01816190679
:101A600014F481E090E0882339F0289A44E640930A
:101A70005F034091F1004083222339F02091F2006E
:101A8000211103C02BE62093E8003FBF08958FEF9C
:101A90009FEF08952FB7F89483E08093E900909129
:101AA000E800892F807295FF04C09091F20080E4D5
:101AB000891B2FBF08958091570381110DC082E0CB
:101AC0008093530384E08093540310925603109242
:101AD000550381E08093570383E593E00895CF9306
:101AE000DF931F92CDB7DEB76983DC01ED91FC91E6
:101AF0000280F381E02D41E050E0BE016F5F7F4F37
:101B000009950F90DF91CF91089583E08093E900CC
:101B10008091F200882319F08AE38093E800089509
:101B20000E944A0D90E00895CF93DF931F92CDB7A6
:101B3000DEB7FC018485958597FD08C02FEF3FEF48
:101B4000358724870F90DF91CF910895CE010196BC
:101B50000E94200D019719F4898190E0F3CF8FEF57
:101B60009FEFF0CF0F931F93CF93DF931F92CDB7CB
:101B7000DEB78C01FC018485958597FF0BC0CE01F3
:101B800001960E94200D019771F4898190E0F8017F
:101B900095878487F801848595850F90DF91CF9193
:101BA0001F910F9108958FEF9FEFF1CFFC01848576
:101BB000958597FD0BC09FB7F89482E08093E9006C
:101BC0008091F2009FBF90E0019608959FB7F8942E
:101BD00082E08093E9008091F2009FBF90E0089539
:101BE00040914D0350914E0320914B0330914C0393
:101BF00042175307B4F49091E8009570E1F3909187
:101C0000E80092FD19C08093F10080914D039091FE
:101C10004E0301968F739927892B19F48EEF8093C9
:101C2000E80080914D0390914E03019690934E03EE
:101C300080934D0381E0089580E00895EF92FF9234
:101C40000F931F93CF93DF93F82E192FE62E042FB7
:101C500081E0860F880F0E94F00D83E00E94F00D56
:101C6000CF2DD12FEC0EFD2EF11CCE15DF05B9F0D6
:101C700007FF13C0FE0184910E94F00D182F80E031
:101C80000E94F00D812321968111EFCFDF91CF913A
:101C90001F910F91FF90EF9008958881EDCF81E023
:101CA000F5CFDF92EF92FF920F931F93CF93DF93C5
:101CB000D82E8A01EB017B01E40EF51ECE15DF055F
:101CC00059F0D7FE12C0FE0184910E94F00D2196BA
:101CD0008111F4CF0FEF1FEFC801DF91CF911F915A
:101CE0000F91FF90EF90DF9008958881EECF0F93D2
:101CF0001F93CF93DF931F92CDB7DEB782E0898326
:101D000042E450E062E079E180E80E94510E0E94D6
:101D10005B0DDC0112960D911C910115110589F0E6
:101D2000D801ED91FC910280F381E02DBE016F5F3F
:101D30007F4FC801099597FD04C0F8010085118502
:101D4000ECCF89810F90DF91CF911F910F91089572
:101D5000615030F02091F100FC0120830196F8CF12
:101D6000289A84E680935F0308953FB7F8948091A2
:101D7000190390911A03A0911B03B0911C0326B57F
:101D8000A89B05C02F3F19F00196A11DB11D3FBFB3
:101D9000BA2FA92F982F8827BC01CD01620F711D82
:101DA000811D911D42E0660F771F881F991F4A957C
:101DB000D1F708958F929F92AF92BF92CF92DF9208
:101DC000EF92FF926B017C010E94B50E4B015C010A
:101DD000C114D104E104F104B9F00E94B50E6819F0
:101DE00079098A099B09683E73408105910580F352
:101DF00021E0C21AD108E108F10888EE880E83E0DC
:101E0000981EA11CB11CE4CFFF90EF90DF90CF9003
:101E1000BF90AF909F908F90089565E070E080E054
:101E200090E00C94DA0E8F929F92AF92BF92CF9275
:101E3000DF92EF92FF920F931F93CF93DF936C018A
:101E40007B018A0180911101882309F45CC0809193
:101E50006003882309F457C08091520380FF05C0B6
:101E60008091E00082608093E000E801B12C8AEF6D
:101E7000A82E93E0892E2AE3922E209711F4BB20FE
:101E8000D9F10E944A0D81110AC0AA94AA20D9F161
:101E900061E070E080E090E00E94DA0EEECF8C17F7
:101EA0001D0611F00CF08C2F9FB7F8948092E9007A
:101EB0002091E80025FD02C09FBFDFCF282F30E032
:101EC000C21BD30BF701815020F041914093F100E8
:101ED000FACFE20EF31EBB2021F09092E800B12C65
:101EE000EBCF8091E80085FDE7CF9092E800BB241E
:101EF000B394209709F3F3CF5D9A84E6809351035E
:101F0000101611063CF081E090E0F6019383828385
:101F100010E000E0C801DF91CF911F910F91FF9079
:101F2000EF90DF90CF90BF90AF909F908F900895EB
:101F30006F927F929F92AF92BF92CF92DF92EF9279
:101F4000FF920F931F93CF93DF93DC01FA01C491AB
:101F50003196E4914E5F5F4FEC2EF12C2223E1F09D
:101F600001E010E09E2F977011F410E000E08E2F3A
:101F7000869586958695800F912F911D8E9D800167
:101F80008F9D100D9E9D100D1124209FC001219F3B
:101F9000900D1124480F591FC7018A0F9B1F0097EE
:101FA00009F467C09B012E0F311D232B09F461C07A
:101FB0004115510509F45DC0F62FF7709F2E23E0FF
:101FC000759567952A95E1F7362F20E82A1B80380A
:101FD00091050CF42C2F91E08E2F877009F490E07E
:101FE000E695E695E6959E0FFB01E90FF11D399701
:101FF00014F098E0961BFB01F695FE2FEE27F7955F
:10200000E795AE0FBF1FC92C092C000CDD08832FEC
:10201000861B891770F5ED01CF59DC4F10E000E009
:10202000021708F5FA01E00FF11FE491F0E03F011B
:102030000C2C02C0660C771C0A94E2F737FD03C033
:10204000888186298883992051F0373044F45E01D5
:1020500080E8A80EB11CF5018081872980830F5F7D
:102060001F4F2196DDCF4E0D5F1DA058BF4F3F5F24
:10207000CECFDF91CF911F910F91FF90EF90DF9026
:10208000CF90BF90AF909F907F906F9008958FB149
:102090008095807F669B88601C9B84600895480FB4
:1020A000592F511D41155105B1F1803891059CF50D
:1020B0004138510514F040E850E0481BFB0133E083
:1020C000F595E7953A95E1F7F695FE2FEE27F7950A
:1020D000E795E80FF91FEF59FC4F6770772781E00C
:1020E00090E001C0880F6A95EAF7382F222351F05B
:1020F000213089F4415078F08191DF011197832BD1
:102100008C93F8CF8095415030F09191DF01119779
:1021100098239C93F8CF089520E191E061FD94E02D
:1021200060FD990F62FD9295687F269FD001112472
:10213000A80FAF59BC4F8C91442319F0892B8C9375
:10214000089590958923FBCF8038910528F4603459
:10215000710510F40C948C1008952F923F924F92B9
:102160005F926F927F928F929F92AF92BF92CF9227
:10217000DF92EF92FF920F931F93CF93DF93EC01C7
:102180008B017A016901C61AD70AD7FE03C0D19420
:10219000C194D10847018C1A9D0A97FE03C09194FF
:1021A000819491088C149D0454F49E2D8F2D7901F7
:1021B000292F382F9C2F8D2FE801092F182FEC166F
:1021C000FD0654F4902F812F8901292F382F9C2F41
:1021D0008D2FE701E92EF82E17012C1A3D0A29014F
:1021E000401A510A57FE03C05194419451083101DD
:1021F00037FE03C08FEF681A780A759467948FEFE3
:10220000021713070CF481E0A82E880FBB08EC1608
:10221000FD06A4F041E0BE01C8018C149D0414F039
:10222000B801CE010E94A4106418750877FE04C09E
:102230000A0D1B1D620C731C2196E9CFDF91CF9113
:102240001F910F91FF90EF90DF90CF90BF90AF90D4
:102250009F908F907F906F905F904F903F902F90C6
:1022600008950895AF92BF92CF92DF92EF92FF92BE
:102270000F931F93CF93DF93EC015B0180E3C82E94
:10228000D12C10E000E0F12CE12C6C2F8C2D0E9461
:10229000F00C882399F08FEFE81AF80A21970032A2
:1022A000110599F7C701DF91CF911F910F91FF9011
:1022B000EF90DF90CF90BF90AF9008958FEFC81A46
:1022C000D80A2196A114B10421F0F501E00FF11F05
:1022D000C0830F5F1F4FE3CF8F929F92AF92BF9249
:1022E000EF92FF920F931F93CF93DF937C01EB014B
:1022F0008A01FA012081318142815381688179818B
:102300008A819B810E94DE254B015C01F8012481BA
:102310003581468157816C817D818E819F810E94AC
:10232000DE259B01AC01C501B4010E94F8234B01DD
:102330005C01F80120853185428553856885798562
:102340008A859B850E94DE259B01AC01C501B401F5
:102350000E94F823F7016083718382839383F801DD
:1023600020813181428153816C857D858E859F8559
:102370000E94DE254B015C01F801248135814681F4
:102380005781688979898A899B890E94DE259B010A
:10239000AC01C501B4010E94F8234B015C01F801B6
:1023A00020853185428553856C897D898E899F89F9
:1023B0000E94DE259B01AC01C501B4010E94F823F7
:1023C000F7016483758386839783F80120813181C7
:1023D00042815381688D798D8A8D9B8D0E94DE2587
:1023E0004B015C01F80124813581468157816C8D58
:1023F0007D8D8E8D9F8D0E94DE259B01AC01C501D8
:10240000B4010E94F8234B015C01F801208531855D
:102410004285538568A179A18AA19BA10E94DE25EE
:102420009B01AC01C501B4010E94F823F70160874C
:10243000718782879387DF91CF911F910F91FF90D2
:10244000EF90BF90AF909F908F900895382F882382
:1024500081F0813071F0823071F40E94FB2222E021
:1024600030E040E050E00E94942331E0672B09F413
:1024700030E0832F08959091610721E0911120E0D1
:102480009F5F931721F090936107322FF2CF109244
:102490006107FBCF2F923F924F925F926F927F9294
:1024A0008F929F92AF92BF92CF92DF92EF92FF9264
:1024B0000F931F93CF93DF93CDB7DEB7CA5BD109DC
:1024C0000FB6F894DEBF0FBECDBFC655DF4F998360
:1024D0008883CA5AD040C756DF4F79836883C95969
:1024E000D040C455DF4F59834883CC5AD040FB01BC
:1024F00060817181828193810E94DB249B01220F84
:10250000331FA901460F571FC255DF4F5983488318
:10251000CE5AD04080E090E0A0E4B0E4809364071D
:1025200090936507A0936607B093670710926307BF
:1025300010926207C80168E671E00E94B026C65595
:10254000DF4F28803980CA5AD040E3E4F0E0EC0F36
:10255000FD1F3496CB54DF4FF983E883C55BD04031
:102560009E012F5F3F4FCF56DF4F39832883C159DC
:10257000D0409C01990F440B550BC954DF4F288361
:1025800039834A835B83C75BD040C101C655DF4FA7
:1025900048815981CA5AD040841B950BC255DF4FE0
:1025A000E881F981CE5AD0408E179F070CF0A9C65A
:1025B000F101949124E0929FF0011124C756DF4F5E
:1025C00048815981C959D040E40FF51F808191811C
:1025D000A281B3818093680790936907A0936A07EB
:1025E000B0936B07F1013196E49154E0E59FF0015F
:1025F0001124C756DF4F88819981C959D040E80F0F
:10260000F91F80819181A281B38180936C0790939F
:102610006D07A0936E07B0936F07F1013296E491B6
:1026200094E0E99FF0011124C756DF4F28813981DA
:10263000C959D040E20FF31F80819181A281B381FB
:102640008093700790937107A0937207B0937307FC
:10265000F1013396E49134E0E39FF0011124C75671
:10266000DF4F48815981C959D040E40FF51F80815F
:102670009181A281B3818093740790937507A09391
:102680007607B0937707F1013496E49154E0E59F23
:10269000F0011124C756DF4F88819981C959D04074
:1026A000E80FF91F80819181A281B381809378071F
:1026B00090937907A0937A07B0937B07F101359641
:1026C000E49194E0E99FF0011124C756DF4F28817F
:1026D0003981C959D040E20FF31F80819181A281D5
:1026E000B38180937C0790937D07A0937E07B0937E
:1026F0007F07F1013696E49134E0E39FF001112465
:10270000C756DF4F48815981C959D040E40FF51FA2
:1027100080819181A281B38180938007909381070A
:10272000A0938207B0938307F1013796E49154E0B8
:10273000E59FF0011124C756DF4F88819981C9595F
:10274000D040E80FF91F80819181A281B3818093ED
:10275000840790938507A0938607B0938707F101BC
:102760003896E49194E0E99FF0011124C756DF4FB9
:1027700028813981C959D040E20FF31F80819181AE
:10278000A281B3818093880790938907A0938A07D9
:10279000B0938B078CE3CB54DF4FE881F981C55BA5
:1027A000D04011928A95E9F713E0CD57DF4F188397
:1027B000C358D04080E4CF56DF4FE881F981C1593A
:1027C000D04011928A95E9F722961FAF229781E0B7
:1027D00023968FAF2397609164077091650780916E
:1027E0006607909167070E94DB247B01C954DF4F85
:1027F000688179818A819B81C75BD0400E941325C3
:1028000029E33AEF4EE85CE30E94DE252B013C0110
:10281000CC57DF4F1883C458D0400E944B264B0141
:102820005C01C301B2010E94642427966CAF7DAFA6
:102830008EAF9FAF27979501840130582F960CAF2C
:102840001DAF2EAF3FAF2F9720E030E040E85FE3B1
:1028500067962CAF3DAF4EAF5FAF67976F968CAE6C
:102860009DAEAEAEBFAE6F97A7966CAF7DAF8EAF8D
:102870009FAFA79744E657E0C256DF4F598348837E
:10288000CE59D0408A0151E0E51AF10808F44CC055
:10289000F80184819581A681B78189879A87AB8762
:1028A000BC8780859185A285B3858D839E83AF8308
:1028B000B88784859585A685B78589839A83AB83F8
:1028C000BC83AE014F5F5F4FBE016D5B7F4FCE019A
:1028D0008B579F4F0E946C11CB57DF4F8881998196
:1028E000AA81BB81C558D040F80184839583A68313
:1028F000B783C757DF4F88819981AA81BB81C958A7
:10290000D04080879187A287B387C357DF4F8881E4
:102910009981AA81BB81CD58D04084879587A687AD
:10292000B787045F1F4FAFCF80E4CF56DF4FE881FA
:10293000F981C159D04011928A95E9F783E0229636
:102940008FAF229781E023968FAF23976091640722
:102950007091650780916607909167070E94DB245C
:102960007B0104E617E0F1E0EF1AF10808F445C036
:10297000F80184819581A681B78189879A87AB8781
:10298000BC8780859185A285B3858D839E83AF8327
:10299000B88784859585A685B78589839A83AB8317
:1029A000BC83AE014F5F5F4F62E171E0CE018D5B92
:1029B0009F4F0E946C1127968CAD9DADAEADBFAD03
:1029C0002797F80184839583A683B7832B968CADD4
:1029D0009DADAEADBFAD2B9780879187A287B387A2
:1029E0002F968CAD9DADAEADBFAD2F9784879587EB
:1029F000A687B787045F1F4FB6CF609164077091B9
:102A0000650780916607909167070E94DB247B0130
:102A100004E617E0F1E0EF1AF10808F441C0209154
:102A2000A6013091A7014091A8015091A901F80198
:102A300060857185828593850E94DE252B013C018E
:102A40002091B6013091B7014091B8015091B90180
:102A5000F80164817581868197810E94DE254B0192
:102A60005C0120919601309197014091980150911D
:102A70009901F80164857585868597850E94DE2514
:102A8000F8016483758386839783408651866286C6
:102A9000738684869586A686B786045F1F4FBACF55
:102AA0006091640770916507809166079091670750
:102AB0000E94DB247B0104E617E0F1E0EF1AF10845
:102AC00080F1209168013091690140916A01509133
:102AD0006B01F80160857185828593850E94DE25F2
:102AE0004B015C01209154013091550140915601F8
:102AF00050915701F80164857585868597850E94F8
:102B0000DE25F801648375838683978380869186AA
:102B1000A286B3861486158616861786045F1F4F15
:102B2000CCCF6091640770916507809166079091A2
:102B300067070E94DB249B01220F331FA901460F68
:102B4000571FC055DF4F59834883C05BD04081E099
:102B500090E0CD55DF4F99838883C35AD040C0554C
:102B6000DF4F28813981C05BD040CD55DF4F488190
:102B70005981C35AD040421753070CF098C320E044
:102B800030E040E852E4C256DF4FE881F981CE5987
:102B9000D04064817581868197810E94F8230E94CC
:102BA000DB246B01CB56DF4F79836883C559D04056
:102BB00020E030E040E052E4C256DF4FE881F98186
:102BC000CE59D04060857185828593850E94F82317
:102BD0000E94DB244B01C956DF4F79836883C759B4
:102BE000D04020E030E040E852E4C256DF4FE881B8
:102BF000F981CE59D04060897189828993890E9478
:102C0000F8230E94DB24062FC356DF4F6883CD597B
:102C1000D040C556DF4F7883CB59D04020E030E01C
:102C200040E052E4C256DF4FE881F981CE59D040EE
:102C300064897589868997890E94F8230E94DB241C
:102C40002B01CD56DF4F79836883C359D04020E0F4
:102C500030E040E852E4C256DF4FE881F981CE59B6
:102C6000D040648D758D868D978D0E94F8230E94CB
:102C7000DB24C456DF4F6883CC59D040C056DF4FA9
:102C80007883C05AD040162F20E030E040E052E474
:102C9000C256DF4FE881F981CE59D04060A171A1C1
:102CA00082A193A10E94F8230E94DB24AB01CD55A1
:102CB000DF4F28813981C35AD040275F3F4FCD5520
:102CC000DF4F39832883C35AD040C455DF4FE88192
:102CD000F981CC5AD040EF2B09F456C1E09162073C
:102CE000F09163079F012F5F3F4F3093630720935D
:102CF0006207C455DF4F28813981CC5AD040E20F9A
:102D0000F31F3491CB55DF4F3883C55AD040109212
:102D10006107C956DF4F28813981C759D040CD5648
:102D2000DF4FE881F981C359D040E217F3070CF473
:102D3000C2C2421753072CF1C956DF4F488159814F
:102D4000C759D040C956DF4F79836883C759D040EF
:102D5000CB56DF4F1881C559D040C456DF4FF8819C
:102D6000CC59D040CB56DF4FF883C559D040C05620
:102D7000DF4F2881C05AD040CA56DF4F2883C6593A
:102D8000D040CD56DF4F88819981C359D040C95674
:102D9000DF4FE881F981C759D040E817F907C4F53A
:102DA000CD56DF4F3881C359D040CC56DF4F2881F4
:102DB000C459D040CD56DF4FF983E883C359D04082
:102DC000C956DF4F3883C759D040C856DF4F2883D4
:102DD000C859D040C356DF4F2881CD59D040CB567B
:102DE000DF4FF881C559D040C356DF4FF883CD5926
:102DF000D040CB56DF4F2883C559D040C556DF4F52
:102E00002881CB59D040CA56DF4F2883C659D040BD
:102E1000012FE42EC356DF4FF880CD59D040BF2C90
:102E2000B11AB7FEB8C0B1943FEFCE55DF4F38832B
:102E3000C25AD040CD56DF4F9881C359D040CE54AE
:102E4000DF4F9883C25BD040992E9E18CB56DF4F40
:102E5000E881C559D040CD54DF4FE883C35BD040F3
:102E6000DE2ED11AD7FE9EC0D194FFEFC456DF4F9D
:102E7000F883CC59D040C956DF4F3881C759D0406C
:102E8000CC54DF4F3883C45BD040832F8E19C0569B
:102E9000DF4F8883C05AD040B9140CF08AC02B2D64
:102EA000B92C922E91E0CF55DF4F9883C15AD04074
:102EB000C056DF4FE881C05AD040DE160CF07FC00C
:102EC0002D2DDE2EC056DF4F2883C05AD040F1E0B2
:102ED000C556DF4FF883CB59D0402D2D0D2C000C5B
:102EE000330BCA55DF4F39832883C65AD040CD2CC7
:102EF000C594CD56DF4F88819981C359D04048177A
:102F0000590709F4F6C06B2C0B2C000C7708AB2C7E
:102F1000A594812C861417040CF0EBC0280110171F
:102F200010F4502E412EC855DF4F1882C85AD04099
:102F3000861417040CF057C08394A90CA614170428
:102F40000CF443C0AB18CF55DF4F9881C15AD04025
:102F5000992309F448C0CE55DF4FE881C25AD040CA
:102F6000C855DF4FE883C85AD040E8CFC256DF4F7C
:102F7000E881F981CE59D040B496C256DF4FF9832B
:102F8000E883CE59D040EBCDE1E0CB55DF4FE8836D
:102F9000C55AD040BCCE81E0CE55DF4F8883C25A9F
:102FA000D04048CF21E0C456DF4F2883CC59D040D1
:102FB00062CFCF55DF4F1882C15AD04079CFC55666
:102FC000DF4F1882CB59D04088CFCF55DF4FF881E3
:102FD000C15AD040F11107C0CE55DF4F2881C25AE7
:102FE000D040120FA5CFC755DF4F1882C95AD04025
:102FF000C056DF4F3881C05AD040C30ECA55DF4F8C
:1030000048815981C65AD040C41615069CF0CD1887
:10301000C556DF4F5881CB59D0405523C9F0C4560F
:10302000DF4F8881CC59D040C755DF4F8883C95ABC
:10303000D040E4CFC556DF4F9881CB59D040911195
:1030400007C0C456DF4FE881CC59D0400E0FD0CF17
:10305000CB55DF4F8881C55AD0400E942612FFE32E
:10306000FE15B0F0912F411608F4942D091708F4BD
:10307000902F412F151508F4452D401708F4402FC7
:10308000491B6E2D70E0282F892F90E00E944F1071
:10309000CF55DF4F2881C15AD040211106C0CE55EF
:1030A000DF4F3881C25AD040130FC855DF4F4881D7
:1030B000C85AD040140FC556DF4F5881CB59D04065
:1030C000511106C0C456DF4F8881CC59D040080F3B
:1030D000C755DF4F9881C95AD040090FE394CD56A8
:1030E000DF4FE881F981C359D040EE161F0609F081
:1030F00011CFCD54DF4F1881C35BD040C356DF4F93
:10310000F881CD59D0401F1B7724739417FF03C05B
:10311000119577247A94CC54DF4FB880C45BD040AB
:10312000CE54DF4F2881C25BD040B21A88248394EA
:103130001B1524F08B2DB12E182F812C4B2D0B2C11
:10314000000C550BCD56DF4F59834883C359D040EF
:103150009B2C9594A12CCD56DF4F88819981C35922
:10316000D040A816190611F00CF000CF5F2C402EAD
:10317000F01610F4502E4F2CCD56DF4FE881F98118
:10318000C359D040AE161F0644F4910E9E161F067A
:10319000ACF19B18672C811001C0612CC356DF4F26
:1031A0001882CD59D040CB56DF4F28813981C5597F
:1031B000D04002171306A9F1C056DF4F3881C05A1C
:1031C000D040C30ECA55DF4F48815981C65AD040FE
:1031D000C4161506C4F0CD18C556DF4F5881CB591B
:1031E000D0405523F1F0C456DF4F8881CC59D040F0
:1031F000C356DF4F8883CD59D040E4CF8110CDCF67
:10320000F70CA394B9CFC556DF4F9881CB59D04066
:10321000911107C0C456DF4FE881CC59D0400E0F42
:10322000C2CFCB55DF4F8881C55AD0400E942612AD
:10323000FFE3FE15B8F09F2D4F1408F4942D0917E5
:1032400008F4902F3F2DF51408F4352D402F031767
:1032500008F4432F491B6E2D70E0282F892F90E032
:103260000E944F10811001C0F70CF60CC556DF4FBD
:103270002881CB59D040211106C0C456DF4F388178
:10328000CC59D040030FC356DF4F4881CD59D040B1
:10329000040FE394C956DF4F88819981C759D04004
:1032A000E816190611F00CF061CEA39454CF99E002
:1032B000290E311C6AC9CD56DF4FE881F981C35907
:1032C000D0404E175F070CF4A3CDCB56DF4F0883D9
:1032D000C559D040C356DF4FC882CD59D040C556DE
:1032E000DF4FD882CB59D040C956DF4F5982488230
:1032F000C759D040CD56DF4F99828882C359D040FC
:103300001BCDC654DF4F0FB6F894DEBF0FBECDBF46
:10331000DF91CF911F910F91FF90EF90DF90CF90B1
:10332000BF90AF909F908F907F906F905F904F90E5
:103330003F902F9008950F931F93CF93DF93EA014F
:1033400000910301109104012FE030E050E040E0D3
:103350000E944A1220E0AE0168E370E08BE290E048
:10336000DF91CF911F910F910C94980FAF92BF9264
:10337000CF92DF92EF92FF921F93CF93DF9300D013
:1033800000D000D0CDB7DEB75B019E012F5F3F4F6D
:10339000690126E0F60111922A95E9F7BC01990F1F
:1033A000880B990B2AE0A6010E9453238BE7E82E95
:1033B000F12C15E0115088F0F601E10FF11D20818C
:1033C00020532A3030F44EE452E0B501C7010E9488
:1033D000980FF5E0EF1AF108EDCF26960FB6F894A6
:1033E000DEBF0FBECDBFDF91CF911F91FF90EF9059
:1033F000DF90CF90BF90AF9008951F920F920FB6BD
:103400000F9211248F939F938091E1009091E1009E
:10341000937F9093E10083FF0FC01092E90091E049
:103420009093EB001092EC0092E39093ED001092D9
:10343000600398E09093F00082FF22C093E09093A5
:10344000E9009091F200992319F09AE39093E80033
:1034500090915103992341F0909151039150909391
:103460005103911101C05D9890915F03992341F040
:1034700090915F03915090935F03911101C0289840
:1034800084FF18C08091E2008E7E81608093E2000C
:103490008091E1008F7E8093E100809152038E7EC7
:1034A0008061809352039F918F910F900FBE0F9078
:1034B0001F90189580FFF7CF8091E2008E7E80618B
:1034C0008093E2008091E1008E7E8093E100809104
:1034D00052038E7E8160E5CF1F920F920FB60F923E
:1034E0001124CF92DF92EF92FF920F931F932F93AD
:1034F0003F934F935F936F937F938F939F93AF937C
:10350000BF93EF93FF93CF93DF93CDB7DEB76C9765
:10351000DEBFCDBF1092E9008091E80083FF25C097
:1035200068E0CE0145960E94A80E82EF8093E800E5
:103530008D8987FF39C09091E80090FFFCCF982FCC
:10354000907609F034C19E894F89588D2F89F88C67
:10355000911131C0803861F5809150038093F10062
:103560001092F1008EEF8093E8006C960FB6F894FD
:10357000DEBF0FBECDBFDF91CF91FF91EF91BF9125
:10358000AF919F918F917F916F915F914F913F91FB
:103590002F911F910F91FF90EF90DF90CF900F90A0
:1035A0000FBE0F901F9018959EEF9093E800C7CF25
:1035B0001092F100D5CF913059F48111D3CF413021
:1035C000510581F6809150038D7F80935003CACFBF
:1035D000933049F48111C6CF4130510519F68091DD
:1035E00050038260F2CF953041F48091E80080FF73
:1035F000FCCF20682093E300B5CF963009F0A9C036
:103600000B8D1C8D22E01092E90010924E03109257
:103610004D03F2122EC010924C0310924B030E94E5
:10362000770E1F8299E09983FA8291E09E8390EA57
:1036300098879AEF998720914D0330914E03275F29
:103640003F4F3C832B838D831092E90010924E03F1
:1036500010924D0310934C0300934B0349E050E04C
:10366000BE016F5F7F4F80E00E94510E0E94770E77
:1036700079CF10934C0300934B030E945B0DDC0148
:1036800012960D911C910115110509F451C1D80133
:10369000ED91FC910480F581E02DBE016B5E7F4FC2
:1036A000C8010995009709F03EC1F8010085118510
:1036B000EACFF3E0FF120EC08F89882309F440C0DF
:1036C000823061F440E86DE086E699E10E941E0ECA
:1036D000811148CF81E28093EB0047CF813029F4FC
:1036E00040E86BE08AE599E1F1CF833099F70E94D9
:1036F0005B0DDC011296ED90FC908E010F5F1F4F69
:103700006801E114F10479F0D701ED91FC91068094
:10371000F781E02DB801C7010995080F111DF701C8
:10372000E084F184EECFD8011C92F60101900020D4
:10373000E9F73197BF016C197D0940E0C601C6CF9A
:1037400064E479E1FB01449150E080E80E94510E6D
:1037500009CF973009F4BECF983021F481E08093EF
:10376000F10000CF993009F0FDCE837009F0B2CF9F
:10377000E9EFF2E081E031E096E32191222371F05C
:103780008093E9003093EB00DF0111972C91209397
:10379000EC009093ED008F5F873079F78EE7809390
:1037A000EA001092EA008F8980936003DBCE8B8D54
:1037B0009C8D1092E90010924E0310924D0390934D
:1037C0004C0380934B03898D811192C08E899D8912
:1037D000913A49F4813209F07DCF47E050E06AE048
:1037E00071E080E0B3CF913209F074CF833269F495
:1037F0008F89988DB0E0A0E0809306019093070137
:10380000A0930801B0930901ADCE803269F4809194
:10381000E80082FFFCCF67E08AE091E00E94A80EFA
:103820008BEF8093E8009ECE823209F09BCE8F8989
:1038300080931101EEEFFFE7859194918B3F9C4DB2
:1038400051F1E0E0F8E080910A0190910B01A09124
:103850000C01B0910D01803B9440A105B105F1F43C
:103860008091110180FD1AC0EE3F8AE0F80789F5CA
:1038700087E797E7918380838091600080934F036F
:1038800088E19BE00FB6F894A895809360000FBE86
:103890009093600067CEEEEFFAE0D5CF8081918102
:1038A0008737974709F05ECEA895809160008861C0
:1038B0008093600080914F0380936000EE3F2AE088
:1038C000F20789F08091FE0A9091FF0A918380832C
:1038D00049CE808191818737980751F29093FF0AF2
:1038E0008093FE0AC5CF1092FF0A1092FE0A3ACECC
:1038F0000E945B0DDC0112960D911C9101151105C2
:1039000009F4E8CED801ED91FC910190F081E02D11
:10391000BE016B5E7F4FC8010995811123CEF8016E
:1039200000851185EBCF181619060CF41BCED2CEEC
:10393000F1E0FF12BECE68E479E104CF1F920F924E
:103940000FB60F9211242F933F938F939F93AF93B2
:10395000BF9380911D0390911E03A0911F03B0910E
:1039600020033091180323E0230F2D3758F50196DB
:10397000A11DB11D2093180380931D0390931E0376
:10398000A0931F03B09320038091190390911A0311
:10399000A0911B03B0911C030196A11DB11D809342
:1039A000190390931A03A0931B03B0931C03BF91B8
:1039B000AF919F918F913F912F910F900FBE0F90DC
:1039C0001F90189526E8230F0296A11DB11DD2CF96
:1039D000E4E0F8E01382128288EE93E0A0E0B0E029
:1039E00084839583A683B78383E093E09183808368
:1039F0008FEF9FEF95878487E4E5F8E085E193E01A
:103A0000918380831582168280E1878314821382DA
:103A100011860895789484B5826084BD84B58160F0
:103A200084BD85B5826085BD85B5816085BD809189
:103A30006E00816080936E00109281008091810001
:103A400082608093810080918100816080938100F9
:103A500080918000816080938000809191008260DD
:103A6000809391008091910081608093910080917A
:103A700090008160809390008091C1008460809369
:103A8000C1008091C10082608093C1008091C1001B
:103A900081608093C1008091C30081608093C300E6
:103AA0008091C00082608093C0008091C2008160DC
:103AB0008093C20080917A00846080937A00809124
:103AC0007A00826080937A0080917A00816080938E
:103AD0007A0080917A00806880937A001092600367
:103AE00010925003109252038091D700816080930E
:103AF000D70080EA8093D80089B5806189BD89B5F7
:103B0000826089BD09B400FEFDCF61E070E080E015
:103B100090E00E94DA0E8091D8008F7C80618093C3
:103B2000D8008091E000807F8093E0008091E100E8
:103B30008E7E8093E1008DE08093E200559A209A7A
:103B40005D98289881EC80937C0085B1806F85B961
:103B500084B1877E84B984B1876E84B95E9A5F9898
:103B60008AB1806D8AB9769A6E9881B3806F81BB75
:103B7000899880B38D7080BB80E58CBD81E08DBD60
:103B80000E940D0F5F9A0E940D0F5E985C98E8E707
:103B9000F2E085E892E024912EBD00000DB407FE0E
:103BA000FDCF31968E179F07B1F75C9A81E880931D
:103BB00064008091650081608093650089E2809354
:103BC0005B08809164008E7F8093640080917A000E
:103BD000806480937A0080917A0086FDFCCFC0914A
:103BE0007800D09179000E94B50EAB01BC01CE01E6
:103BF000B0E0A0E0DC01992788278C019D01040F2B
:103C0000151F261F371FC901B801209164002160CC
:103C100020936400611571058105910511F00E94E2
:103C20004A2380E090E0A0E8BFE380939601909360
:103C30009701A0939801B09399018093A601909366
:103C4000A701A093A801B093A9018093B601909316
:103C5000B701A093B801B093B90123E02093D70135
:103C600034E0309394013093950180935401909304
:103C70005501A0935601B09357018093680190932A
:103C80006901A0936A01B0936B01809390019093B6
:103C90009101A0939201B0939301809312019093AC
:103CA0001301A0931401B09315018AEE96E4A7E7DF
:103CB000BFE38093220190932301A0932401B0934A
:103CC000250142EF53E864E87EE3409326015093D8
:103CD0002701609328017093290142EF53E864E8BB
:103CE0007EEB40932A0150932B0160932C0170933B
:103CF0002D0180932E0190932F01A0933001B0935A
:103D000031012093530168E0462E512C612C712C17
:103D100053E0C52ED12CE12CF12C8FB7F8944091B3
:103D20001D0350911E0360911F03709120038FBFEC
:103D300080915C08142F181B812FC0915D08CC2343
:103D400059F010935E0810925D0880E090E0892B96
:103D500021F30E940000DCCF90915B08191740F41A
:103D60008F5F891790F781E083BF889513BEEDCFF1
:103D7000D1E0D0935D0840935C0880915708909102
:103D800058080196909358088093570880915908D5
:103D900080935A080E9447108093590880915708D1
:103DA0009091580860E670E00E949C26892B29F4C7
:103DB00080914A038D2780934A0380914903823082
:103DC00009F4ACC10CF06EC0882309F41DC1813028
:103DD00009F424C1C091490388E00E94E50C8823BE
:103DE00021F081E08C0F8093490384E00E94E50C70
:103DF000882329F080914903815080934903809161
:103E00004903181614F01092490380914903853034
:103E10001CF084E08093490380914903C81741F165
:103E2000833031F580E0E1E6F3E081118FEF00248B
:103E300081938193819381930394D1F7809123039C
:103E4000843008F0E3C290E0880F991FFC01EC5128
:103E5000FE4F6081718184529E4FFC01808191816F
:103E60000EE011E030E020E050E040E00E944A1215
:103E700080914903C81709F46EC3833009F0E4C286
:103E800082E290E090932203809321038091480383
:103E9000811106C080E390E0909322038093210378
:103EA00080E056C3833009F46DC1843009F092CFAD
:103EB000D0914A0380912303DD2309F414C2843096
:103EC00008F0E4C1282F30E0220F331FF901EC5134
:103ED000FE4F60817181F901E452FE4F8081918132
:103EE0002C503E4FF9014081518100910301109106
:103EF00004012FE030E00E944A128CE291E090939E
:103F000004018093030180910201815360E08F31AD
:103F100048F40E94FB2220E130E040E050E00E94A3
:103F20009423CD2F8091030190910401262F30E03E
:103F30004091020140FDB1C1820F931F9093040193
:103F40008093030180910101815061118CE1809384
:103F50000101CC2309F4A8C108E213E0C0E3D0E0DA
:103F60000E94FB22F8012081422F4650550B5A0136
:103F7000A70196010E9494236A0D7B2D711D41E0DB
:103F8000CE010E94A4100E5F1F4F2296C035D105AE
:103F900039F780915E08E4E68E9FC001112460919C
:103FA0005B0870E00E94B026CB0164E670E00E94DE
:103FB000B02680910201680F603608F08DC16093D1
:103FC000020120E04CEE58E165E070E080E690E010
:103FD0000E94980F20E04FEC58E166E170E080E627
:103FE00090E00E94980F6FE070E08091260390911E
:103FF00027030E94B61960E270E08091240390913B
:1040000025030E94B619E6CE20E04DE058E164E1B8
:1040100070E080E290E00E94980FDCCE8091230354
:10402000813009F46DC00CF056C0882309F45FC0DC
:1040300020E04BE05BE060E170E083E090E00E9414
:10404000980F20E049E85AE060E170E08DE590E0EB
:104050000E94980F80915E0824E6829FC00111247F
:1040600060915B0870E00E94B026CB0164E670E0CE
:104070000E94B0268091030190910401680F791F7E
:10408000709304016093030180E20E94E50C882391
:1040900029F08091230381508093230380E40E94C0
:1040A000E50C882329F0809123038F5F80932303FD
:1040B0008091230387FF03C083E0809323038091D3
:1040C0002303843014F01092230380E280930501CF
:1040D000109248037FCE8230D1F0833009F0A8CF10
:1040E0004DE85BE06CEF71E089EB9BE006C04BEBC9
:1040F00053E160EA72E087EE93E10E949B1998CF4A
:1041000041E450E164E672E08DE690E1F6CF49E6E5
:104110005DE060E372E085E99DE0EFCF90912303DD
:10412000933089F48093480341E06EE170E084E0CD
:1041300090E00E948C1020E045E852E070E060E0E2
:1041400090E080E068CF80E80E94E50C8111109239
:10415000480380E10E94E50C882319F081E08093F8
:1041600048038091480341E062E170E0882311F048
:104170006AE270E084E090E00E948C1020E047E862
:1041800056E0DCCF0E94471085FF0EC0C0910501AC
:1041900040E070E060E08C2F90E00E94A410C132FB
:1041A00048F1C150C09305010E94471086FF0EC020
:1041B000C091050140E070E060E08C2F90E00E942B
:1041C000A410C036D8F4CF5FC0930501B0900501AC
:1041D000CB2DD0E041E070E060E0CE010E94A41061
:1041E00011E01F5F612F8B2D0E94F00C882351F08E
:1041F000A12E0CC080E280930501D6CF80E680938B
:104200000501E4CF103469F7AA24AA940E9447104C
:1042100087FF16C03FEFA31699F042E04A1584F4D9
:10422000AA946A2D70E041E0CE010E94A410809112
:1042300021039091220301969093220380932103FE
:104240000E94471084FFC6CD5FEFA51609F4C2CDCA
:1042500000912103109122030115110509F4BACD33
:1042600061E06A0D8B2D0E94F00C882309F4B2CD19
:104270006A2DAA0C770B40E0CE010E94A4100150D9
:1042800011091093220300932103A4CD50E040E0D4
:1042900090E080E070E060E028CE821B930B90936A
:1042A00004018093030155CED5E0D15009F471CEBD
:1042B0000E94FB22C0910101A30192010E9494235C
:1042C0008C2F860F9927991FBC018091020141E034
:1042D00090E00E94A410E9CF80E28093020188E27E
:1042E000809301016ECE843008F085C090E0880F85
:1042F000991FFC01EC51FE4FA080B180FC01E452FB
:10430000FE4FC081D18184519E4FFC0180809180FD
:1043100087ED90E090930401809303010E94FB22BB
:1043200024E030E040E050E00E949423009103013B
:1043300010910401060F171F10930401009303014D
:104340002FE030E0A401B501CE010E944A122FE314
:1043500030E04AE450E070E060E08AE090E00E94E3
:10436000AD102FE330E04DE650E070E060E08DE20C
:1043700090E00E94AD10C0910001D2EEDC0F6D2FD5
:104380000D2E000C770B8C2F0C2E000C990B9B0123
:104390002F5F3F4FAC014F5F5F4F0E94AD101EE19A
:1043A0001C0F8D2FD65F6D2F0D2E000C770B885DA7
:1043B000082E000C990B9B012F5F3F4FAC014F5F04
:1043C0005F4F0E94AD101D13ECCF1F33DCF48091C2
:1043D0005E08F4E68F9FC001112460915B0870E0D5
:1043E0000E94B026CB0164E670E00E94B026C60FA2
:1043F000C0930001E6CD912C812CD0E0C0E0B12C1F
:10440000A12C86CF8EE180930001DBCD90E080E08F
:1044100070E060E025CD20E030E046E153E4C501E6
:10442000B4010E94F8234B015C016EE477E580E063
:1044300090E051C0C501B4010E94DB244CC06AE188
:104440007DE180E090E047C0C33009F080C0843057
:1044500009F07DC010E0D0E0C0E000E0602F812FC7
:104460000E94F00C21E030E0811102C030E020E039
:10447000C20FD31F0F5F003489F71F5F103869F731
:10448000BE01DD0F880B990B0E9413254B015C01C7
:104490003090230320E030E040E850E4332039F04E
:1044A000F3E03F1651F020E030E040EA50E4C5016F
:1044B000B4010E94DE254B015C01809148038130EC
:1044C00009F4A9CF823009F4BACF8111B3CF60E3E8
:1044D00073E480E090E00E941325A50194010E94FE
:1044E000692420E030E040E251E40E94DE250E9491
:1044F000DB24709327036093260368E273E080E275
:1045000090E00E94321110E000E0C8E1D0E0C0323B
:10451000D10539F070E060E0CE010E943211080F41
:10452000191F2196C832D10591F723E080E190E070
:10453000321202C086E090E0809F9001819F300D92
:10454000909F300D1124309325032093240381E0A4
:104550000E94110DFACBC33009F4A2CCF8CF8F9290
:104560009F92AF92BF92CF92DF92EF92FF92CF9342
:10457000DF93EC01688179818A819B8161157105E6
:104580008105910521F464E279ED8BE597E02DE159
:1045900033EF41E050E00E94942349015A019B010E
:1045A000AC01A7EAB1E40E94B3236B017C01ACEE3D
:1045B000B4EFA50194010E94C123C60ED71EE81EC8
:1045C000F91EF7FE06C081E0C81AD108E10880E8AC
:1045D000F80AC882D982EA82FB82C701B6019F77B6
:1045E000DF91CF91FF90EF90DF90CF90BF90AF9091
:1045F0009F908F9008958F929F92AF92BF92CF928B
:10460000DF92EF92FF926091D8017091D901809171
:10461000DA019091DB01611571058105910521F4A5
:1046200064E279ED8BE597E02DE133EF41E050E076
:104630000E94942349015A019B01AC01A7EAB1E40D
:104640000E94B3236B017C01ACEEB4EFA501940191
:104650000E94C123C60ED71EE81EF91EF7FE06C033
:1046600081E0C81AD108E10880E8F80AC092D801B0
:10467000D092D901E092DA01F092DB01C701B601D4
:104680009F77FF90EF90DF90CF90BF90AF909F907B
:104690008F9008956093D8017093D9018093DA01C7
:1046A0009093DB010895BB272A3051F4992342F4FB
:1046B000BDE290958095709561957F4F8F4F9F4F8C
:1046C0000C946323BB27FA01A62F6217710581059D
:1046D0009105330B30FB66F0AA27660F771F881F02
:1046E000991FAA1FA21710F0A21B63953850A9F7B3
:1046F000A05DAA3308F0A95DA19336F7B111B1937B
:104700001082CA010C948423DC01FC01672F719193
:104710007723E1F7329704C07C916D9370836291A7
:10472000AE17BF07C8F30895052E97FB1EF400943B
:104730000E94AB2357FD07D00E94C62307FC03D07D
:104740004EF40C94AB2350954095309521953F4FF6
:104750004F4F5F4F089590958095709561957F4F6D
:104760008F4F9F4F08950E94E823A59F900DB49FFF
:10477000900DA49F800D911D11240895B7FF0C94F6
:10478000B3230E94B323821B930B0895A1E21A2E38
:10479000AA1BBB1BFD010DC0AA1FBB1FEE1FFF1FE5
:1047A000A217B307E407F50720F0A21BB30BE40B35
:1047B000F50B661F771F881F991F1A9469F760957C
:1047C0007095809590959B01AC01BD01CF01089536
:1047D000A29FB001B39FC001A39F700D811D112442
:1047E000911DB29F700D811D1124911D0895505887
:1047F000BB27AA270E940F240C9490250E945725BE
:1048000038F00E945E2520F039F49F3F19F426F419
:104810000C9454250EF4E095E7FB0C944E25E92FFB
:104820000E94B52558F3BA176207730784079507E6
:1048300020F079F4A6F50C94D7250EF4E0950B2E14
:10484000BA2FA02D0B01B90190010C01CA01A001E2
:104850001124FF27591B99F0593F50F4503E68F13D
:104860001A16F040A22F232F342F4427585FF3CF7E
:10487000469537952795A795F0405395C9F77EF44F
:104880001F16BA0B620B730B840BBAF09150A1F098
:10489000FF0FBB1F661F771F881FC2F70EC0BA0F1E
:1048A000621F731F841F48F4879577956795B795A6
:1048B000F7959E3F08F0B0CF9395880F08F09927A1
:1048C000EE0F9795879508950E946725E3950C94C0
:1048D000A1250E947D240C9490250E945E2558F00D
:1048E0000E94572540F029F45F3F29F00C944E2593
:1048F00051110C94D8250C9454250E94B52568F3C9
:104900009923B1F3552391F3951B550BBB27AA2788
:1049100062177307840738F09F5F5F4F220F331FC2
:10492000441FAA1FA9F335D00E2E3AF0E0E832D08A
:1049300091505040E695001CCAF72BD0FE2F29D08D
:10494000660F771F881FBB1F261737074807AB075F
:10495000B0E809F0BB0B802DBF01FF2793585F4FD4
:104960003AF09E3F510578F00C944E250C94D825D2
:104970005F3FE4F3983ED4F3869577956795B795B6
:10498000F7959F5FC9F7880F911D9695879597F9C1
:104990000895E1E0660F771F881FBB1F621773073A
:1049A0008407BA0720F0621B730B840BBA0BEE1F4F
:1049B00088F7E09508950E94E2246894B1110C9460
:1049C000D82508950E94BD2588F09F5798F0B92FEB
:1049D0009927B751B0F0E1F0660F771F881F991F34
:1049E0001AF0BA95C9F714C0B13091F00E94D725DA
:1049F000B1E008950C94D725672F782F8827B85FEA
:104A000039F0B93FCCF3869577956795B395D9F78B
:104A10003EF490958095709561957F4F8F4F9F4F95
:104A20000895E89409C097FB3EF4909580957095A1
:104A300061957F4F8F4F9F4F9923A9F0F92F96E9EA
:104A4000BB279395F695879577956795B795F1115F
:104A5000F8CFFAF4BB0F11F460FF1BC06F5F7F4FFC
:104A60008F4F9F4F16C0882311F096E911C077230E
:104A700021F09EE8872F762F05C0662371F096E817
:104A8000862F70E060E02AF09A95660F771F881FE6
:104A9000DAF7880F9695879597F9089597F99F67A4
:104AA00080E870E060E008959FEF80EC08950024B6
:104AB0000A941616170618060906089500240A9483
:104AC000121613061406050608950C9454250E9428
:104AD000BD25D8F3E894E0E0BB279F57F0F02AED1E
:104AE0003FE049EC06C0EE0FBB0F661F771F881F23
:104AF00028F0B23A62077307840728F0B25A620BB3
:104B0000730B840BE3959A9572F7803830F49A957D
:104B1000BB0F661F771F881FD2F790480C9455264D
:104B2000092E0394000C11F4882352F0BB0F40F4BB
:104B3000BF2B11F460FF04C06F5F7F4F8F4F9F4FFB
:104B40000895EF93E0FF07C0A2EA2AED3FE049ECA9
:104B50005FEB0E940F240E9490250F90039401FCAC
:104B60009058ECEAF0E00C94612657FD9058440F01
:104B7000551F59F05F3F71F04795880F97FB991FBC
:104B800061F09F3F79F08795089512161306140679
:104B9000551FF2CF4695F1DF08C016161706180606
:104BA000991FF1CF86957105610508940895E894E1
:104BB000BB2766277727CB0197F908950E94F12537
:104BC0000C9490250E94572538F00E945E2520F015
:104BD000952311F00C944E250C94542511240C941B
:104BE000D8250E94B52570F3959FC1F3950F50E02D
:104BF000551F629FF001729FBB27F00DB11D639F8F
:104C0000AA27F00DB11DAA1F649F6627B00DA11D34
:104C1000661F829F2227B00DA11D621F739FB00DDA
:104C2000A11D621F839FA00D611D221F749F33274A
:104C3000A00D611D231F849F600D211D822F762FE3
:104C40006A2F11249F5750409AF0F1F088234AF0C0
:104C5000EE0FFF1FBB1F661F771F881F915050402C
:104C6000A9F79E3F510580F00C944E250C94D82551
:104C70005F3FE4F3983ED4F3869577956795B795B3
:104C8000F795E7959F5FC1F7FE2B880F911D9695CD
:104C9000879597F908959F930E9467250F9007FCC9
:104CA000EE5F0C94A1259F3F31F0915020F4879541
:104CB00077956795B795880F911D9695879597F984
:104CC00008959F938F937F936F93FF93EF939B012F
:104CD000AC010E94DE25EF91FF910E9475262F9175
:104CE0003F914F915F910C94DE25DF93CF931F93FB
:104CF0000F93FF92EF92DF927B018C01689406C0C4
:104D0000DA2EEF010E94F125FE01E894A59125918C
:104D1000359145915591A6F3EF010E940F24FE01B4
:104D20009701A801DA9469F7DF90EF90FF900F9157
:104D30001F91CF91DF910895AA1BBB1B51E107C0C2
:104D4000AA1FBB1FA617B70710F0A61BB70B881F1B
:104D5000991F5A95A9F780959095BC01CD010895AA
:104D600097FB072E16F4009407D077FD09D00E9418
:104D70009C2607FC05D03EF4909581959F4F0895A1
:104D8000709561957F4F0895EE0FFF1F0590F49188
:084D9000E02D0994F894FFCF17
:104D98001E2820B40020FFFFFFFF00E100000000F4
:104DA80000000000000000000000000000000000FB
:104DB80000000000000000000000000000000000EB
:104DC80000000000000000000000000000000000DB
:104DD80000000000000000000000000000000000CB
:104DE80000000301000000000000000000000000B7
:104DF80000000000000000000000000000000000AB
:104E0800000000000000000000000000000000009A
:104E1800000000000000000000000000000000008A
:104E28000000000003010000000000000000000076
:104E3800000000000000000000000000000000006A
:104E4800000000000000000000000000000000005A
:104E5800000000000000000000000000000000004A
:104E6800000000000000030101000000E7136D10BE
:104E7800950DB90BA00264023002FC011601000076
:104E8800CA000000D80100008C0100000000104397
:104E9800000000400000C040000080410000804049
:104EA80000002041000000C00000E040000020C1D8
:104EB800000080C1000000C10000C0C00000A0C008
:104EC800000064430000E0400000C0C000008041D2
:104ED800000080400000604100000041000080C1E7
:104EE800000040C10000C04000004040000040C039
:104EF8000000E0C000008D430000E0400000C0C09A
:104F080000008040000000C00000A0C000008041F8
:104F18000000604100000041000040C1000080C165
:104F28000000C04000004040000040C00000E0C059
:104F38000000B1430000E040000000C00000A0C035
:104F48000000C0C0000000C1000080400000004018
:104F580000008041000080C1000000800000604126
:104F6800000070C1000040C00000C04000000041C7
:104F7800000040C1000060C1000040400000E0C0E7
:104F8800000000000000E04000C180810000000037
:104F98000000006F0D130F900D850DD60D940DB206
:084FA8000D00000000311100B2
:00000001FF
